{
	"contracts/AkiNoTsuyuKuraNoKodawari.sol": {
		"AkiNoTsuyuKuraNoKodawari": {
			"abi": [
				{
					"inputs": [
						{
							"internalType": "string",
							"name": "name",
							"type": "string"
						},
						{
							"internalType": "string",
							"name": "symbol",
							"type": "string"
						}
					],
					"stateMutability": "nonpayable",
					"type": "constructor"
				},
				{
					"inputs": [
						{
							"internalType": "address",
							"name": "sender",
							"type": "address"
						},
						{
							"internalType": "uint256",
							"name": "tokenId",
							"type": "uint256"
						},
						{
							"internalType": "address",
							"name": "owner",
							"type": "address"
						}
					],
					"name": "ERC721IncorrectOwner",
					"type": "error"
				},
				{
					"inputs": [
						{
							"internalType": "address",
							"name": "operator",
							"type": "address"
						},
						{
							"internalType": "uint256",
							"name": "tokenId",
							"type": "uint256"
						}
					],
					"name": "ERC721InsufficientApproval",
					"type": "error"
				},
				{
					"inputs": [
						{
							"internalType": "address",
							"name": "approver",
							"type": "address"
						}
					],
					"name": "ERC721InvalidApprover",
					"type": "error"
				},
				{
					"inputs": [
						{
							"internalType": "address",
							"name": "operator",
							"type": "address"
						}
					],
					"name": "ERC721InvalidOperator",
					"type": "error"
				},
				{
					"inputs": [
						{
							"internalType": "address",
							"name": "owner",
							"type": "address"
						}
					],
					"name": "ERC721InvalidOwner",
					"type": "error"
				},
				{
					"inputs": [
						{
							"internalType": "address",
							"name": "receiver",
							"type": "address"
						}
					],
					"name": "ERC721InvalidReceiver",
					"type": "error"
				},
				{
					"inputs": [
						{
							"internalType": "address",
							"name": "sender",
							"type": "address"
						}
					],
					"name": "ERC721InvalidSender",
					"type": "error"
				},
				{
					"inputs": [
						{
							"internalType": "uint256",
							"name": "tokenId",
							"type": "uint256"
						}
					],
					"name": "ERC721NonexistentToken",
					"type": "error"
				},
				{
					"inputs": [
						{
							"internalType": "address",
							"name": "owner",
							"type": "address"
						}
					],
					"name": "OwnableInvalidOwner",
					"type": "error"
				},
				{
					"inputs": [
						{
							"internalType": "address",
							"name": "account",
							"type": "address"
						}
					],
					"name": "OwnableUnauthorizedAccount",
					"type": "error"
				},
				{
					"anonymous": false,
					"inputs": [
						{
							"indexed": true,
							"internalType": "address",
							"name": "owner",
							"type": "address"
						},
						{
							"indexed": true,
							"internalType": "address",
							"name": "approved",
							"type": "address"
						},
						{
							"indexed": true,
							"internalType": "uint256",
							"name": "tokenId",
							"type": "uint256"
						}
					],
					"name": "Approval",
					"type": "event"
				},
				{
					"anonymous": false,
					"inputs": [
						{
							"indexed": true,
							"internalType": "address",
							"name": "owner",
							"type": "address"
						},
						{
							"indexed": true,
							"internalType": "address",
							"name": "operator",
							"type": "address"
						},
						{
							"indexed": false,
							"internalType": "bool",
							"name": "approved",
							"type": "bool"
						}
					],
					"name": "ApprovalForAll",
					"type": "event"
				},
				{
					"anonymous": false,
					"inputs": [
						{
							"indexed": true,
							"internalType": "address",
							"name": "previousOwner",
							"type": "address"
						},
						{
							"indexed": true,
							"internalType": "address",
							"name": "newOwner",
							"type": "address"
						}
					],
					"name": "OwnershipTransferred",
					"type": "event"
				},
				{
					"anonymous": false,
					"inputs": [
						{
							"indexed": true,
							"internalType": "address",
							"name": "from",
							"type": "address"
						},
						{
							"indexed": true,
							"internalType": "address",
							"name": "to",
							"type": "address"
						},
						{
							"indexed": true,
							"internalType": "uint256",
							"name": "tokenId",
							"type": "uint256"
						}
					],
					"name": "Transfer",
					"type": "event"
				},
				{
					"inputs": [],
					"name": "MAX_SUPPLY",
					"outputs": [
						{
							"internalType": "uint256",
							"name": "",
							"type": "uint256"
						}
					],
					"stateMutability": "view",
					"type": "function"
				},
				{
					"inputs": [
						{
							"internalType": "address",
							"name": "to",
							"type": "address"
						},
						{
							"internalType": "uint256",
							"name": "tokenId",
							"type": "uint256"
						}
					],
					"name": "approve",
					"outputs": [],
					"stateMutability": "nonpayable",
					"type": "function"
				},
				{
					"inputs": [
						{
							"internalType": "address",
							"name": "owner",
							"type": "address"
						}
					],
					"name": "balanceOf",
					"outputs": [
						{
							"internalType": "uint256",
							"name": "",
							"type": "uint256"
						}
					],
					"stateMutability": "view",
					"type": "function"
				},
				{
					"inputs": [
						{
							"internalType": "uint256",
							"name": "tokenId",
							"type": "uint256"
						}
					],
					"name": "getApproved",
					"outputs": [
						{
							"internalType": "address",
							"name": "",
							"type": "address"
						}
					],
					"stateMutability": "view",
					"type": "function"
				},
				{
					"inputs": [
						{
							"internalType": "address",
							"name": "owner",
							"type": "address"
						},
						{
							"internalType": "address",
							"name": "operator",
							"type": "address"
						}
					],
					"name": "isApprovedForAll",
					"outputs": [
						{
							"internalType": "bool",
							"name": "",
							"type": "bool"
						}
					],
					"stateMutability": "view",
					"type": "function"
				},
				{
					"inputs": [
						{
							"internalType": "address[]",
							"name": "recipients",
							"type": "address[]"
						},
						{
							"internalType": "uint256[]",
							"name": "tokenIds",
							"type": "uint256[]"
						}
					],
					"name": "mintBatch",
					"outputs": [],
					"stateMutability": "nonpayable",
					"type": "function"
				},
				{
					"inputs": [],
					"name": "name",
					"outputs": [
						{
							"internalType": "string",
							"name": "",
							"type": "string"
						}
					],
					"stateMutability": "view",
					"type": "function"
				},
				{
					"inputs": [],
					"name": "owner",
					"outputs": [
						{
							"internalType": "address",
							"name": "",
							"type": "address"
						}
					],
					"stateMutability": "view",
					"type": "function"
				},
				{
					"inputs": [
						{
							"internalType": "uint256",
							"name": "tokenId",
							"type": "uint256"
						}
					],
					"name": "ownerOf",
					"outputs": [
						{
							"internalType": "address",
							"name": "",
							"type": "address"
						}
					],
					"stateMutability": "view",
					"type": "function"
				},
				{
					"inputs": [],
					"name": "renounceOwnership",
					"outputs": [],
					"stateMutability": "nonpayable",
					"type": "function"
				},
				{
					"inputs": [
						{
							"internalType": "address",
							"name": "from",
							"type": "address"
						},
						{
							"internalType": "address",
							"name": "to",
							"type": "address"
						},
						{
							"internalType": "uint256",
							"name": "tokenId",
							"type": "uint256"
						}
					],
					"name": "safeTransferFrom",
					"outputs": [],
					"stateMutability": "nonpayable",
					"type": "function"
				},
				{
					"inputs": [
						{
							"internalType": "address",
							"name": "from",
							"type": "address"
						},
						{
							"internalType": "address",
							"name": "to",
							"type": "address"
						},
						{
							"internalType": "uint256",
							"name": "tokenId",
							"type": "uint256"
						},
						{
							"internalType": "bytes",
							"name": "_data",
							"type": "bytes"
						}
					],
					"name": "safeTransferFrom",
					"outputs": [],
					"stateMutability": "nonpayable",
					"type": "function"
				},
				{
					"inputs": [
						{
							"internalType": "address",
							"name": "operator",
							"type": "address"
						},
						{
							"internalType": "bool",
							"name": "approved",
							"type": "bool"
						}
					],
					"name": "setApprovalForAll",
					"outputs": [],
					"stateMutability": "nonpayable",
					"type": "function"
				},
				{
					"inputs": [
						{
							"internalType": "bytes4",
							"name": "interfaceId",
							"type": "bytes4"
						}
					],
					"name": "supportsInterface",
					"outputs": [
						{
							"internalType": "bool",
							"name": "",
							"type": "bool"
						}
					],
					"stateMutability": "view",
					"type": "function"
				},
				{
					"inputs": [],
					"name": "symbol",
					"outputs": [
						{
							"internalType": "string",
							"name": "",
							"type": "string"
						}
					],
					"stateMutability": "view",
					"type": "function"
				},
				{
					"inputs": [
						{
							"internalType": "uint256",
							"name": "tokenId",
							"type": "uint256"
						}
					],
					"name": "tokenExists",
					"outputs": [
						{
							"internalType": "bool",
							"name": "",
							"type": "bool"
						}
					],
					"stateMutability": "view",
					"type": "function"
				},
				{
					"inputs": [
						{
							"internalType": "uint256",
							"name": "tokenId",
							"type": "uint256"
						}
					],
					"name": "tokenURI",
					"outputs": [
						{
							"internalType": "string",
							"name": "",
							"type": "string"
						}
					],
					"stateMutability": "view",
					"type": "function"
				},
				{
					"inputs": [
						{
							"internalType": "address",
							"name": "from",
							"type": "address"
						},
						{
							"internalType": "address",
							"name": "to",
							"type": "address"
						},
						{
							"internalType": "uint256",
							"name": "tokenId",
							"type": "uint256"
						}
					],
					"name": "transferFrom",
					"outputs": [],
					"stateMutability": "nonpayable",
					"type": "function"
				},
				{
					"inputs": [
						{
							"internalType": "address",
							"name": "newOwner",
							"type": "address"
						}
					],
					"name": "transferOwnership",
					"outputs": [],
					"stateMutability": "nonpayable",
					"type": "function"
				}
			],
			"devdoc": {
				"errors": {
					"ERC721IncorrectOwner(address,uint256,address)": [
						{
							"details": "Indicates an error related to the ownership over a particular token. Used in transfers.",
							"params": {
								"owner": "Address of the current owner of a token.",
								"sender": "Address whose tokens are being transferred.",
								"tokenId": "Identifier number of a token."
							}
						}
					],
					"ERC721InsufficientApproval(address,uint256)": [
						{
							"details": "Indicates a failure with the `operator`’s approval. Used in transfers.",
							"params": {
								"operator": "Address that may be allowed to operate on tokens without being their owner.",
								"tokenId": "Identifier number of a token."
							}
						}
					],
					"ERC721InvalidApprover(address)": [
						{
							"details": "Indicates a failure with the `approver` of a token to be approved. Used in approvals.",
							"params": {
								"approver": "Address initiating an approval operation."
							}
						}
					],
					"ERC721InvalidOperator(address)": [
						{
							"details": "Indicates a failure with the `operator` to be approved. Used in approvals.",
							"params": {
								"operator": "Address that may be allowed to operate on tokens without being their owner."
							}
						}
					],
					"ERC721InvalidOwner(address)": [
						{
							"details": "Indicates that an address can't be an owner. For example, `address(0)` is a forbidden owner in EIP-20. Used in balance queries.",
							"params": {
								"owner": "Address of the current owner of a token."
							}
						}
					],
					"ERC721InvalidReceiver(address)": [
						{
							"details": "Indicates a failure with the token `receiver`. Used in transfers.",
							"params": {
								"receiver": "Address to which tokens are being transferred."
							}
						}
					],
					"ERC721InvalidSender(address)": [
						{
							"details": "Indicates a failure with the token `sender`. Used in transfers.",
							"params": {
								"sender": "Address whose tokens are being transferred."
							}
						}
					],
					"ERC721NonexistentToken(uint256)": [
						{
							"details": "Indicates a `tokenId` whose `owner` is the zero address.",
							"params": {
								"tokenId": "Identifier number of a token."
							}
						}
					],
					"OwnableInvalidOwner(address)": [
						{
							"details": "The owner is not a valid owner account. (eg. `address(0)`)"
						}
					],
					"OwnableUnauthorizedAccount(address)": [
						{
							"details": "The caller account is not authorized to perform an operation."
						}
					]
				},
				"events": {
					"Approval(address,address,uint256)": {
						"details": "Emitted when `owner` enables `approved` to manage the `tokenId` token."
					},
					"ApprovalForAll(address,address,bool)": {
						"details": "Emitted when `owner` enables or disables (`approved`) `operator` to manage all of its assets."
					},
					"Transfer(address,address,uint256)": {
						"details": "Emitted when `tokenId` token is transferred from `from` to `to`."
					}
				},
				"kind": "dev",
				"methods": {
					"approve(address,uint256)": {
						"details": "See {IERC721-approve}."
					},
					"balanceOf(address)": {
						"details": "See {IERC721-balanceOf}."
					},
					"getApproved(uint256)": {
						"details": "See {IERC721-getApproved}."
					},
					"isApprovedForAll(address,address)": {
						"details": "See {IERC721-isApprovedForAll}."
					},
					"name()": {
						"details": "See {IERC721Metadata-name}."
					},
					"owner()": {
						"details": "Returns the address of the current owner."
					},
					"ownerOf(uint256)": {
						"details": "See {IERC721-ownerOf}."
					},
					"renounceOwnership()": {
						"details": "Leaves the contract without owner. It will not be possible to call `onlyOwner` functions. Can only be called by the current owner. NOTE: Renouncing ownership will leave the contract without an owner, thereby disabling any functionality that is only available to the owner."
					},
					"safeTransferFrom(address,address,uint256)": {
						"details": "See {IERC721-safeTransferFrom}."
					},
					"setApprovalForAll(address,bool)": {
						"details": "See {IERC721-setApprovalForAll}."
					},
					"supportsInterface(bytes4)": {
						"details": "See {IERC165-supportsInterface}."
					},
					"symbol()": {
						"details": "See {IERC721Metadata-symbol}."
					},
					"tokenURI(uint256)": {
						"details": "See {IERC721Metadata-tokenURI}."
					},
					"transferFrom(address,address,uint256)": {
						"details": "See {IERC721-transferFrom}."
					},
					"transferOwnership(address)": {
						"details": "Transfers ownership of the contract to a new account (`newOwner`). Can only be called by the current owner."
					}
				},
				"version": 1
			},
			"evm": {
				"assembly": "    /* \"contracts/AkiNoTsuyuKuraNoKodawari.sol\":335:2374  contract AkiNoTsuyuKuraNoKodawari is ERC721, Ownable {... */\n  mstore(0x40, 0x80)\n    /* \"contracts/AkiNoTsuyuKuraNoKodawari.sol\":523:688  constructor(string memory name, string memory symbol)... */\n  callvalue\n  dup1\n  iszero\n  tag_1\n  jumpi\n  0x00\n  dup1\n  revert\ntag_1:\n  pop\n  mload(0x40)\n  sub(codesize, bytecodeSize)\n  dup1\n  bytecodeSize\n  dup4\n  codecopy\n  dup2\n  dup2\n  add\n  0x40\n  mstore\n  dup2\n  add\n  swap1\n  tag_2\n  swap2\n  swap1\n  tag_3\n  jump\t// in\ntag_2:\n    /* \"contracts/AkiNoTsuyuKuraNoKodawari.sol\":622:634  _msgSender() */\n  tag_5\n    /* \"contracts/AkiNoTsuyuKuraNoKodawari.sol\":622:632  _msgSender */\n  shl(0x20, tag_6)\n    /* \"contracts/AkiNoTsuyuKuraNoKodawari.sol\":622:634  _msgSender() */\n  0x20\n  shr\n  jump\t// in\ntag_5:\n    /* \"contracts/AkiNoTsuyuKuraNoKodawari.sol\":592:596  name */\n  dup3\n    /* \"contracts/AkiNoTsuyuKuraNoKodawari.sol\":598:604  symbol */\n  dup3\n    /* \"@openzeppelin/contracts/token/ERC721/ERC721.sol\":1455:1460  name_ */\n  dup2\n    /* \"@openzeppelin/contracts/token/ERC721/ERC721.sol\":1447:1452  _name */\n  0x00\n    /* \"@openzeppelin/contracts/token/ERC721/ERC721.sol\":1447:1460  _name = name_ */\n  swap1\n  dup2\n  tag_10\n  swap2\n  swap1\n  tag_11\n  jump\t// in\ntag_10:\n  pop\n    /* \"@openzeppelin/contracts/token/ERC721/ERC721.sol\":1480:1487  symbol_ */\n  dup1\n    /* \"@openzeppelin/contracts/token/ERC721/ERC721.sol\":1470:1477  _symbol */\n  0x01\n    /* \"@openzeppelin/contracts/token/ERC721/ERC721.sol\":1470:1487  _symbol = symbol_ */\n  swap1\n  dup2\n  tag_12\n  swap2\n  swap1\n  tag_11\n  jump\t// in\ntag_12:\n  pop\n    /* \"@openzeppelin/contracts/token/ERC721/ERC721.sol\":1381:1494  constructor(string memory name_, string memory symbol_) {... */\n  pop\n  pop\n    /* \"@openzeppelin/contracts/access/Ownable.sol\":1297:1298  0 */\n  0x00\n    /* \"@openzeppelin/contracts/access/Ownable.sol\":1273:1299  initialOwner == address(0) */\n  0xffffffffffffffffffffffffffffffffffffffff\n  and\n    /* \"@openzeppelin/contracts/access/Ownable.sol\":1273:1285  initialOwner */\n  dup2\n    /* \"@openzeppelin/contracts/access/Ownable.sol\":1273:1299  initialOwner == address(0) */\n  0xffffffffffffffffffffffffffffffffffffffff\n  and\n  sub\n    /* \"@openzeppelin/contracts/access/Ownable.sol\":1269:1364  if (initialOwner == address(0)) {... */\n  tag_14\n  jumpi\n    /* \"@openzeppelin/contracts/access/Ownable.sol\":1350:1351  0 */\n  0x00\n    /* \"@openzeppelin/contracts/access/Ownable.sol\":1322:1353  OwnableInvalidOwner(address(0)) */\n  mload(0x40)\n  0x1e4fbdf700000000000000000000000000000000000000000000000000000000\n  dup2\n  mstore\n  0x04\n  add\n  tag_15\n  swap2\n  swap1\n  tag_16\n  jump\t// in\ntag_15:\n  mload(0x40)\n  dup1\n  swap2\n  sub\n  swap1\n  revert\n    /* \"@openzeppelin/contracts/access/Ownable.sol\":1269:1364  if (initialOwner == address(0)) {... */\ntag_14:\n    /* \"@openzeppelin/contracts/access/Ownable.sol\":1373:1405  _transferOwnership(initialOwner) */\n  tag_17\n    /* \"@openzeppelin/contracts/access/Ownable.sol\":1392:1404  initialOwner */\n  dup2\n    /* \"@openzeppelin/contracts/access/Ownable.sol\":1373:1391  _transferOwnership */\n  shl(0x20, tag_18)\n    /* \"@openzeppelin/contracts/access/Ownable.sol\":1373:1405  _transferOwnership(initialOwner) */\n  0x20\n  shr\n  jump\t// in\ntag_17:\n    /* \"@openzeppelin/contracts/access/Ownable.sol\":1225:1412  constructor(address initialOwner) {... */\n  pop\n    /* \"contracts/AkiNoTsuyuKuraNoKodawari.sol\":650:681  transferOwnership(_msgSender()) */\n  tag_20\n    /* \"contracts/AkiNoTsuyuKuraNoKodawari.sol\":668:680  _msgSender() */\n  tag_21\n    /* \"contracts/AkiNoTsuyuKuraNoKodawari.sol\":668:678  _msgSender */\n  shl(0x20, tag_6)\n    /* \"contracts/AkiNoTsuyuKuraNoKodawari.sol\":668:680  _msgSender() */\n  0x20\n  shr\n  jump\t// in\ntag_21:\n    /* \"contracts/AkiNoTsuyuKuraNoKodawari.sol\":650:667  transferOwnership */\n  shl(0x20, tag_22)\n    /* \"contracts/AkiNoTsuyuKuraNoKodawari.sol\":650:681  transferOwnership(_msgSender()) */\n  0x20\n  shr\n  jump\t// in\ntag_20:\n    /* \"contracts/AkiNoTsuyuKuraNoKodawari.sol\":523:688  constructor(string memory name, string memory symbol)... */\n  pop\n  pop\n    /* \"contracts/AkiNoTsuyuKuraNoKodawari.sol\":335:2374  contract AkiNoTsuyuKuraNoKodawari is ERC721, Ownable {... */\n  jump(tag_23)\n    /* \"@openzeppelin/contracts/utils/Context.sol\":656:752  function _msgSender() internal view virtual returns (address) {... */\ntag_6:\n    /* \"@openzeppelin/contracts/utils/Context.sol\":709:716  address */\n  0x00\n    /* \"@openzeppelin/contracts/utils/Context.sol\":735:745  msg.sender */\n  caller\n    /* \"@openzeppelin/contracts/utils/Context.sol\":728:745  return msg.sender */\n  swap1\n  pop\n    /* \"@openzeppelin/contracts/utils/Context.sol\":656:752  function _msgSender() internal view virtual returns (address) {... */\n  swap1\n  jump\t// out\n    /* \"@openzeppelin/contracts/access/Ownable.sol\":2912:3099  function _transferOwnership(address newOwner) internal virtual {... */\ntag_18:\n    /* \"@openzeppelin/contracts/access/Ownable.sol\":2985:3001  address oldOwner */\n  0x00\n    /* \"@openzeppelin/contracts/access/Ownable.sol\":3004:3010  _owner */\n  0x06\n  0x00\n  swap1\n  sload\n  swap1\n  0x0100\n  exp\n  swap1\n  div\n  0xffffffffffffffffffffffffffffffffffffffff\n  and\n    /* \"@openzeppelin/contracts/access/Ownable.sol\":2985:3010  address oldOwner = _owner */\n  swap1\n  pop\n    /* \"@openzeppelin/contracts/access/Ownable.sol\":3029:3037  newOwner */\n  dup2\n    /* \"@openzeppelin/contracts/access/Ownable.sol\":3020:3026  _owner */\n  0x06\n  0x00\n    /* \"@openzeppelin/contracts/access/Ownable.sol\":3020:3037  _owner = newOwner */\n  0x0100\n  exp\n  dup2\n  sload\n  dup2\n  0xffffffffffffffffffffffffffffffffffffffff\n  mul\n  not\n  and\n  swap1\n  dup4\n  0xffffffffffffffffffffffffffffffffffffffff\n  and\n  mul\n  or\n  swap1\n  sstore\n  pop\n    /* \"@openzeppelin/contracts/access/Ownable.sol\":3083:3091  newOwner */\n  dup2\n    /* \"@openzeppelin/contracts/access/Ownable.sol\":3052:3092  OwnershipTransferred(oldOwner, newOwner) */\n  0xffffffffffffffffffffffffffffffffffffffff\n  and\n    /* \"@openzeppelin/contracts/access/Ownable.sol\":3073:3081  oldOwner */\n  dup2\n    /* \"@openzeppelin/contracts/access/Ownable.sol\":3052:3092  OwnershipTransferred(oldOwner, newOwner) */\n  0xffffffffffffffffffffffffffffffffffffffff\n  and\n  0x8be0079c531659141344cd1fd0a4f28419497f9722a3daafe3b4186f6b6457e0\n  mload(0x40)\n  mload(0x40)\n  dup1\n  swap2\n  sub\n  swap1\n  log3\n    /* \"@openzeppelin/contracts/access/Ownable.sol\":2975:3099  {... */\n  pop\n    /* \"@openzeppelin/contracts/access/Ownable.sol\":2912:3099  function _transferOwnership(address newOwner) internal virtual {... */\n  pop\n  jump\t// out\n    /* \"@openzeppelin/contracts/access/Ownable.sol\":2543:2758  function transferOwnership(address newOwner) public virtual onlyOwner {... */\ntag_22:\n    /* \"@openzeppelin/contracts/access/Ownable.sol\":1531:1544  _checkOwner() */\n  tag_27\n    /* \"@openzeppelin/contracts/access/Ownable.sol\":1531:1542  _checkOwner */\n  shl(0x20, tag_28)\n    /* \"@openzeppelin/contracts/access/Ownable.sol\":1531:1544  _checkOwner() */\n  0x20\n  shr\n  jump\t// in\ntag_27:\n    /* \"@openzeppelin/contracts/access/Ownable.sol\":2647:2648  0 */\n  0x00\n    /* \"@openzeppelin/contracts/access/Ownable.sol\":2627:2649  newOwner == address(0) */\n  0xffffffffffffffffffffffffffffffffffffffff\n  and\n    /* \"@openzeppelin/contracts/access/Ownable.sol\":2627:2635  newOwner */\n  dup2\n    /* \"@openzeppelin/contracts/access/Ownable.sol\":2627:2649  newOwner == address(0) */\n  0xffffffffffffffffffffffffffffffffffffffff\n  and\n  sub\n    /* \"@openzeppelin/contracts/access/Ownable.sol\":2623:2714  if (newOwner == address(0)) {... */\n  tag_30\n  jumpi\n    /* \"@openzeppelin/contracts/access/Ownable.sol\":2700:2701  0 */\n  0x00\n    /* \"@openzeppelin/contracts/access/Ownable.sol\":2672:2703  OwnableInvalidOwner(address(0)) */\n  mload(0x40)\n  0x1e4fbdf700000000000000000000000000000000000000000000000000000000\n  dup2\n  mstore\n  0x04\n  add\n  tag_31\n  swap2\n  swap1\n  tag_16\n  jump\t// in\ntag_31:\n  mload(0x40)\n  dup1\n  swap2\n  sub\n  swap1\n  revert\n    /* \"@openzeppelin/contracts/access/Ownable.sol\":2623:2714  if (newOwner == address(0)) {... */\ntag_30:\n    /* \"@openzeppelin/contracts/access/Ownable.sol\":2723:2751  _transferOwnership(newOwner) */\n  tag_32\n    /* \"@openzeppelin/contracts/access/Ownable.sol\":2742:2750  newOwner */\n  dup2\n    /* \"@openzeppelin/contracts/access/Ownable.sol\":2723:2741  _transferOwnership */\n  shl(0x20, tag_18)\n    /* \"@openzeppelin/contracts/access/Ownable.sol\":2723:2751  _transferOwnership(newOwner) */\n  0x20\n  shr\n  jump\t// in\ntag_32:\n    /* \"@openzeppelin/contracts/access/Ownable.sol\":2543:2758  function transferOwnership(address newOwner) public virtual onlyOwner {... */\n  pop\n  jump\t// out\n    /* \"@openzeppelin/contracts/access/Ownable.sol\":1796:1958  function _checkOwner() internal view virtual {... */\ntag_28:\n    /* \"@openzeppelin/contracts/access/Ownable.sol\":1866:1878  _msgSender() */\n  tag_34\n    /* \"@openzeppelin/contracts/access/Ownable.sol\":1866:1876  _msgSender */\n  shl(0x20, tag_6)\n    /* \"@openzeppelin/contracts/access/Ownable.sol\":1866:1878  _msgSender() */\n  0x20\n  shr\n  jump\t// in\ntag_34:\n    /* \"@openzeppelin/contracts/access/Ownable.sol\":1855:1878  owner() != _msgSender() */\n  0xffffffffffffffffffffffffffffffffffffffff\n  and\n    /* \"@openzeppelin/contracts/access/Ownable.sol\":1855:1862  owner() */\n  tag_35\n    /* \"@openzeppelin/contracts/access/Ownable.sol\":1855:1860  owner */\n  shl(0x20, tag_36)\n    /* \"@openzeppelin/contracts/access/Ownable.sol\":1855:1862  owner() */\n  0x20\n  shr\n  jump\t// in\ntag_35:\n    /* \"@openzeppelin/contracts/access/Ownable.sol\":1855:1878  owner() != _msgSender() */\n  0xffffffffffffffffffffffffffffffffffffffff\n  and\n  eq\n    /* \"@openzeppelin/contracts/access/Ownable.sol\":1851:1952  if (owner() != _msgSender()) {... */\n  tag_37\n  jumpi\n    /* \"@openzeppelin/contracts/access/Ownable.sol\":1928:1940  _msgSender() */\n  tag_38\n    /* \"@openzeppelin/contracts/access/Ownable.sol\":1928:1938  _msgSender */\n  shl(0x20, tag_6)\n    /* \"@openzeppelin/contracts/access/Ownable.sol\":1928:1940  _msgSender() */\n  0x20\n  shr\n  jump\t// in\ntag_38:\n    /* \"@openzeppelin/contracts/access/Ownable.sol\":1901:1941  OwnableUnauthorizedAccount(_msgSender()) */\n  mload(0x40)\n  0x118cdaa700000000000000000000000000000000000000000000000000000000\n  dup2\n  mstore\n  0x04\n  add\n  tag_39\n  swap2\n  swap1\n  tag_16\n  jump\t// in\ntag_39:\n  mload(0x40)\n  dup1\n  swap2\n  sub\n  swap1\n  revert\n    /* \"@openzeppelin/contracts/access/Ownable.sol\":1851:1952  if (owner() != _msgSender()) {... */\ntag_37:\n    /* \"@openzeppelin/contracts/access/Ownable.sol\":1796:1958  function _checkOwner() internal view virtual {... */\n  jump\t// out\n    /* \"@openzeppelin/contracts/access/Ownable.sol\":1638:1723  function owner() public view virtual returns (address) {... */\ntag_36:\n    /* \"@openzeppelin/contracts/access/Ownable.sol\":1684:1691  address */\n  0x00\n    /* \"@openzeppelin/contracts/access/Ownable.sol\":1710:1716  _owner */\n  0x06\n  0x00\n  swap1\n  sload\n  swap1\n  0x0100\n  exp\n  swap1\n  div\n  0xffffffffffffffffffffffffffffffffffffffff\n  and\n    /* \"@openzeppelin/contracts/access/Ownable.sol\":1703:1716  return _owner */\n  swap1\n  pop\n    /* \"@openzeppelin/contracts/access/Ownable.sol\":1638:1723  function owner() public view virtual returns (address) {... */\n  swap1\n  jump\t// out\n    /* \"#utility.yul\":7:82   */\ntag_41:\n    /* \"#utility.yul\":40:46   */\n  0x00\n    /* \"#utility.yul\":73:75   */\n  0x40\n    /* \"#utility.yul\":67:76   */\n  mload\n    /* \"#utility.yul\":57:76   */\n  swap1\n  pop\n    /* \"#utility.yul\":7:82   */\n  swap1\n  jump\t// out\n    /* \"#utility.yul\":88:205   */\ntag_42:\n    /* \"#utility.yul\":197:198   */\n  0x00\n    /* \"#utility.yul\":194:195   */\n  dup1\n    /* \"#utility.yul\":187:199   */\n  revert\n    /* \"#utility.yul\":211:328   */\ntag_43:\n    /* \"#utility.yul\":320:321   */\n  0x00\n    /* \"#utility.yul\":317:318   */\n  dup1\n    /* \"#utility.yul\":310:322   */\n  revert\n    /* \"#utility.yul\":334:451   */\ntag_44:\n    /* \"#utility.yul\":443:444   */\n  0x00\n    /* \"#utility.yul\":440:441   */\n  dup1\n    /* \"#utility.yul\":433:445   */\n  revert\n    /* \"#utility.yul\":457:574   */\ntag_45:\n    /* \"#utility.yul\":566:567   */\n  0x00\n    /* \"#utility.yul\":563:564   */\n  dup1\n    /* \"#utility.yul\":556:568   */\n  revert\n    /* \"#utility.yul\":580:682   */\ntag_46:\n    /* \"#utility.yul\":621:627   */\n  0x00\n    /* \"#utility.yul\":672:674   */\n  0x1f\n    /* \"#utility.yul\":668:675   */\n  not\n    /* \"#utility.yul\":663:665   */\n  0x1f\n    /* \"#utility.yul\":656:661   */\n  dup4\n    /* \"#utility.yul\":652:666   */\n  add\n    /* \"#utility.yul\":648:676   */\n  and\n    /* \"#utility.yul\":638:676   */\n  swap1\n  pop\n    /* \"#utility.yul\":580:682   */\n  swap2\n  swap1\n  pop\n  jump\t// out\n    /* \"#utility.yul\":688:868   */\ntag_47:\n    /* \"#utility.yul\":736:813   */\n  0x4e487b7100000000000000000000000000000000000000000000000000000000\n    /* \"#utility.yul\":733:734   */\n  0x00\n    /* \"#utility.yul\":726:814   */\n  mstore\n    /* \"#utility.yul\":833:837   */\n  0x41\n    /* \"#utility.yul\":830:831   */\n  0x04\n    /* \"#utility.yul\":823:838   */\n  mstore\n    /* \"#utility.yul\":857:861   */\n  0x24\n    /* \"#utility.yul\":854:855   */\n  0x00\n    /* \"#utility.yul\":847:862   */\n  revert\n    /* \"#utility.yul\":874:1155   */\ntag_48:\n    /* \"#utility.yul\":957:984   */\n  tag_85\n    /* \"#utility.yul\":979:983   */\n  dup3\n    /* \"#utility.yul\":957:984   */\n  tag_46\n  jump\t// in\ntag_85:\n    /* \"#utility.yul\":949:955   */\n  dup2\n    /* \"#utility.yul\":945:985   */\n  add\n    /* \"#utility.yul\":1087:1093   */\n  dup2\n    /* \"#utility.yul\":1075:1085   */\n  dup2\n    /* \"#utility.yul\":1072:1094   */\n  lt\n    /* \"#utility.yul\":1051:1069   */\n  0xffffffffffffffff\n    /* \"#utility.yul\":1039:1049   */\n  dup3\n    /* \"#utility.yul\":1036:1070   */\n  gt\n    /* \"#utility.yul\":1033:1095   */\n  or\n    /* \"#utility.yul\":1030:1118   */\n  iszero\n  tag_86\n  jumpi\n    /* \"#utility.yul\":1098:1116   */\n  tag_87\n  tag_47\n  jump\t// in\ntag_87:\n    /* \"#utility.yul\":1030:1118   */\ntag_86:\n    /* \"#utility.yul\":1138:1148   */\n  dup1\n    /* \"#utility.yul\":1134:1136   */\n  0x40\n    /* \"#utility.yul\":1127:1149   */\n  mstore\n    /* \"#utility.yul\":917:1155   */\n  pop\n    /* \"#utility.yul\":874:1155   */\n  pop\n  pop\n  jump\t// out\n    /* \"#utility.yul\":1161:1290   */\ntag_49:\n    /* \"#utility.yul\":1195:1201   */\n  0x00\n    /* \"#utility.yul\":1222:1242   */\n  tag_89\n  tag_41\n  jump\t// in\ntag_89:\n    /* \"#utility.yul\":1212:1242   */\n  swap1\n  pop\n    /* \"#utility.yul\":1251:1284   */\n  tag_90\n    /* \"#utility.yul\":1279:1283   */\n  dup3\n    /* \"#utility.yul\":1271:1277   */\n  dup3\n    /* \"#utility.yul\":1251:1284   */\n  tag_48\n  jump\t// in\ntag_90:\n    /* \"#utility.yul\":1161:1290   */\n  swap2\n  swap1\n  pop\n  jump\t// out\n    /* \"#utility.yul\":1296:1604   */\ntag_50:\n    /* \"#utility.yul\":1358:1362   */\n  0x00\n    /* \"#utility.yul\":1448:1466   */\n  0xffffffffffffffff\n    /* \"#utility.yul\":1440:1446   */\n  dup3\n    /* \"#utility.yul\":1437:1467   */\n  gt\n    /* \"#utility.yul\":1434:1490   */\n  iszero\n  tag_92\n  jumpi\n    /* \"#utility.yul\":1470:1488   */\n  tag_93\n  tag_47\n  jump\t// in\ntag_93:\n    /* \"#utility.yul\":1434:1490   */\ntag_92:\n    /* \"#utility.yul\":1508:1537   */\n  tag_94\n    /* \"#utility.yul\":1530:1536   */\n  dup3\n    /* \"#utility.yul\":1508:1537   */\n  tag_46\n  jump\t// in\ntag_94:\n    /* \"#utility.yul\":1500:1537   */\n  swap1\n  pop\n    /* \"#utility.yul\":1592:1596   */\n  0x20\n    /* \"#utility.yul\":1586:1590   */\n  dup2\n    /* \"#utility.yul\":1582:1597   */\n  add\n    /* \"#utility.yul\":1574:1597   */\n  swap1\n  pop\n    /* \"#utility.yul\":1296:1604   */\n  swap2\n  swap1\n  pop\n  jump\t// out\n    /* \"#utility.yul\":1610:1856   */\ntag_51:\n    /* \"#utility.yul\":1691:1692   */\n  0x00\n    /* \"#utility.yul\":1701:1814   */\ntag_96:\n    /* \"#utility.yul\":1715:1721   */\n  dup4\n    /* \"#utility.yul\":1712:1713   */\n  dup2\n    /* \"#utility.yul\":1709:1722   */\n  lt\n    /* \"#utility.yul\":1701:1814   */\n  iszero\n  tag_98\n  jumpi\n    /* \"#utility.yul\":1800:1801   */\n  dup1\n    /* \"#utility.yul\":1795:1798   */\n  dup3\n    /* \"#utility.yul\":1791:1802   */\n  add\n    /* \"#utility.yul\":1785:1803   */\n  mload\n    /* \"#utility.yul\":1781:1782   */\n  dup2\n    /* \"#utility.yul\":1776:1779   */\n  dup5\n    /* \"#utility.yul\":1772:1783   */\n  add\n    /* \"#utility.yul\":1765:1804   */\n  mstore\n    /* \"#utility.yul\":1737:1739   */\n  0x20\n    /* \"#utility.yul\":1734:1735   */\n  dup2\n    /* \"#utility.yul\":1730:1740   */\n  add\n    /* \"#utility.yul\":1725:1740   */\n  swap1\n  pop\n    /* \"#utility.yul\":1701:1814   */\n  jump(tag_96)\ntag_98:\n    /* \"#utility.yul\":1848:1849   */\n  0x00\n    /* \"#utility.yul\":1839:1845   */\n  dup5\n    /* \"#utility.yul\":1834:1837   */\n  dup5\n    /* \"#utility.yul\":1830:1846   */\n  add\n    /* \"#utility.yul\":1823:1850   */\n  mstore\n    /* \"#utility.yul\":1672:1856   */\n  pop\n    /* \"#utility.yul\":1610:1856   */\n  pop\n  pop\n  pop\n  jump\t// out\n    /* \"#utility.yul\":1862:2296   */\ntag_52:\n    /* \"#utility.yul\":1951:1956   */\n  0x00\n    /* \"#utility.yul\":1976:2042   */\n  tag_100\n    /* \"#utility.yul\":1992:2041   */\n  tag_101\n    /* \"#utility.yul\":2034:2040   */\n  dup5\n    /* \"#utility.yul\":1992:2041   */\n  tag_50\n  jump\t// in\ntag_101:\n    /* \"#utility.yul\":1976:2042   */\n  tag_49\n  jump\t// in\ntag_100:\n    /* \"#utility.yul\":1967:2042   */\n  swap1\n  pop\n    /* \"#utility.yul\":2065:2071   */\n  dup3\n    /* \"#utility.yul\":2058:2063   */\n  dup2\n    /* \"#utility.yul\":2051:2072   */\n  mstore\n    /* \"#utility.yul\":2103:2107   */\n  0x20\n    /* \"#utility.yul\":2096:2101   */\n  dup2\n    /* \"#utility.yul\":2092:2108   */\n  add\n    /* \"#utility.yul\":2141:2144   */\n  dup5\n    /* \"#utility.yul\":2132:2138   */\n  dup5\n    /* \"#utility.yul\":2127:2130   */\n  dup5\n    /* \"#utility.yul\":2123:2139   */\n  add\n    /* \"#utility.yul\":2120:2145   */\n  gt\n    /* \"#utility.yul\":2117:2229   */\n  iszero\n  tag_102\n  jumpi\n    /* \"#utility.yul\":2148:2227   */\n  tag_103\n  tag_45\n  jump\t// in\ntag_103:\n    /* \"#utility.yul\":2117:2229   */\ntag_102:\n    /* \"#utility.yul\":2238:2290   */\n  tag_104\n    /* \"#utility.yul\":2283:2289   */\n  dup5\n    /* \"#utility.yul\":2278:2281   */\n  dup3\n    /* \"#utility.yul\":2273:2276   */\n  dup6\n    /* \"#utility.yul\":2238:2290   */\n  tag_51\n  jump\t// in\ntag_104:\n    /* \"#utility.yul\":1957:2296   */\n  pop\n    /* \"#utility.yul\":1862:2296   */\n  swap4\n  swap3\n  pop\n  pop\n  pop\n  jump\t// out\n    /* \"#utility.yul\":2316:2671   */\ntag_53:\n    /* \"#utility.yul\":2383:2388   */\n  0x00\n    /* \"#utility.yul\":2432:2435   */\n  dup3\n    /* \"#utility.yul\":2425:2429   */\n  0x1f\n    /* \"#utility.yul\":2417:2423   */\n  dup4\n    /* \"#utility.yul\":2413:2430   */\n  add\n    /* \"#utility.yul\":2409:2436   */\n  slt\n    /* \"#utility.yul\":2399:2521   */\n  tag_106\n  jumpi\n    /* \"#utility.yul\":2440:2519   */\n  tag_107\n  tag_44\n  jump\t// in\ntag_107:\n    /* \"#utility.yul\":2399:2521   */\ntag_106:\n    /* \"#utility.yul\":2550:2556   */\n  dup2\n    /* \"#utility.yul\":2544:2557   */\n  mload\n    /* \"#utility.yul\":2575:2665   */\n  tag_108\n    /* \"#utility.yul\":2661:2664   */\n  dup5\n    /* \"#utility.yul\":2653:2659   */\n  dup3\n    /* \"#utility.yul\":2646:2650   */\n  0x20\n    /* \"#utility.yul\":2638:2644   */\n  dup7\n    /* \"#utility.yul\":2634:2651   */\n  add\n    /* \"#utility.yul\":2575:2665   */\n  tag_52\n  jump\t// in\ntag_108:\n    /* \"#utility.yul\":2566:2665   */\n  swap2\n  pop\n    /* \"#utility.yul\":2389:2671   */\n  pop\n    /* \"#utility.yul\":2316:2671   */\n  swap3\n  swap2\n  pop\n  pop\n  jump\t// out\n    /* \"#utility.yul\":2677:3530   */\ntag_3:\n    /* \"#utility.yul\":2776:2782   */\n  0x00\n    /* \"#utility.yul\":2784:2790   */\n  dup1\n    /* \"#utility.yul\":2833:2835   */\n  0x40\n    /* \"#utility.yul\":2821:2830   */\n  dup4\n    /* \"#utility.yul\":2812:2819   */\n  dup6\n    /* \"#utility.yul\":2808:2831   */\n  sub\n    /* \"#utility.yul\":2804:2836   */\n  slt\n    /* \"#utility.yul\":2801:2920   */\n  iszero\n  tag_110\n  jumpi\n    /* \"#utility.yul\":2839:2918   */\n  tag_111\n  tag_42\n  jump\t// in\ntag_111:\n    /* \"#utility.yul\":2801:2920   */\ntag_110:\n    /* \"#utility.yul\":2980:2981   */\n  0x00\n    /* \"#utility.yul\":2969:2978   */\n  dup4\n    /* \"#utility.yul\":2965:2982   */\n  add\n    /* \"#utility.yul\":2959:2983   */\n  mload\n    /* \"#utility.yul\":3010:3028   */\n  0xffffffffffffffff\n    /* \"#utility.yul\":3002:3008   */\n  dup2\n    /* \"#utility.yul\":2999:3029   */\n  gt\n    /* \"#utility.yul\":2996:3113   */\n  iszero\n  tag_112\n  jumpi\n    /* \"#utility.yul\":3032:3111   */\n  tag_113\n  tag_43\n  jump\t// in\ntag_113:\n    /* \"#utility.yul\":2996:3113   */\ntag_112:\n    /* \"#utility.yul\":3137:3211   */\n  tag_114\n    /* \"#utility.yul\":3203:3210   */\n  dup6\n    /* \"#utility.yul\":3194:3200   */\n  dup3\n    /* \"#utility.yul\":3183:3192   */\n  dup7\n    /* \"#utility.yul\":3179:3201   */\n  add\n    /* \"#utility.yul\":3137:3211   */\n  tag_53\n  jump\t// in\ntag_114:\n    /* \"#utility.yul\":3127:3211   */\n  swap3\n  pop\n    /* \"#utility.yul\":2930:3221   */\n  pop\n    /* \"#utility.yul\":3281:3283   */\n  0x20\n    /* \"#utility.yul\":3270:3279   */\n  dup4\n    /* \"#utility.yul\":3266:3284   */\n  add\n    /* \"#utility.yul\":3260:3285   */\n  mload\n    /* \"#utility.yul\":3312:3330   */\n  0xffffffffffffffff\n    /* \"#utility.yul\":3304:3310   */\n  dup2\n    /* \"#utility.yul\":3301:3331   */\n  gt\n    /* \"#utility.yul\":3298:3415   */\n  iszero\n  tag_115\n  jumpi\n    /* \"#utility.yul\":3334:3413   */\n  tag_116\n  tag_43\n  jump\t// in\ntag_116:\n    /* \"#utility.yul\":3298:3415   */\ntag_115:\n    /* \"#utility.yul\":3439:3513   */\n  tag_117\n    /* \"#utility.yul\":3505:3512   */\n  dup6\n    /* \"#utility.yul\":3496:3502   */\n  dup3\n    /* \"#utility.yul\":3485:3494   */\n  dup7\n    /* \"#utility.yul\":3481:3503   */\n  add\n    /* \"#utility.yul\":3439:3513   */\n  tag_53\n  jump\t// in\ntag_117:\n    /* \"#utility.yul\":3429:3513   */\n  swap2\n  pop\n    /* \"#utility.yul\":3231:3523   */\n  pop\n    /* \"#utility.yul\":2677:3530   */\n  swap3\n  pop\n  swap3\n  swap1\n  pop\n  jump\t// out\n    /* \"#utility.yul\":3536:3635   */\ntag_54:\n    /* \"#utility.yul\":3588:3594   */\n  0x00\n    /* \"#utility.yul\":3622:3627   */\n  dup2\n    /* \"#utility.yul\":3616:3628   */\n  mload\n    /* \"#utility.yul\":3606:3628   */\n  swap1\n  pop\n    /* \"#utility.yul\":3536:3635   */\n  swap2\n  swap1\n  pop\n  jump\t// out\n    /* \"#utility.yul\":3641:3821   */\ntag_55:\n    /* \"#utility.yul\":3689:3766   */\n  0x4e487b7100000000000000000000000000000000000000000000000000000000\n    /* \"#utility.yul\":3686:3687   */\n  0x00\n    /* \"#utility.yul\":3679:3767   */\n  mstore\n    /* \"#utility.yul\":3786:3790   */\n  0x22\n    /* \"#utility.yul\":3783:3784   */\n  0x04\n    /* \"#utility.yul\":3776:3791   */\n  mstore\n    /* \"#utility.yul\":3810:3814   */\n  0x24\n    /* \"#utility.yul\":3807:3808   */\n  0x00\n    /* \"#utility.yul\":3800:3815   */\n  revert\n    /* \"#utility.yul\":3827:4147   */\ntag_56:\n    /* \"#utility.yul\":3871:3877   */\n  0x00\n    /* \"#utility.yul\":3908:3909   */\n  0x02\n    /* \"#utility.yul\":3902:3906   */\n  dup3\n    /* \"#utility.yul\":3898:3910   */\n  div\n    /* \"#utility.yul\":3888:3910   */\n  swap1\n  pop\n    /* \"#utility.yul\":3955:3956   */\n  0x01\n    /* \"#utility.yul\":3949:3953   */\n  dup3\n    /* \"#utility.yul\":3945:3957   */\n  and\n    /* \"#utility.yul\":3976:3994   */\n  dup1\n    /* \"#utility.yul\":3966:4047   */\n  tag_121\n  jumpi\n    /* \"#utility.yul\":4032:4036   */\n  0x7f\n    /* \"#utility.yul\":4024:4030   */\n  dup3\n    /* \"#utility.yul\":4020:4037   */\n  and\n    /* \"#utility.yul\":4010:4037   */\n  swap2\n  pop\n    /* \"#utility.yul\":3966:4047   */\ntag_121:\n    /* \"#utility.yul\":4094:4096   */\n  0x20\n    /* \"#utility.yul\":4086:4092   */\n  dup3\n    /* \"#utility.yul\":4083:4097   */\n  lt\n    /* \"#utility.yul\":4063:4081   */\n  dup2\n    /* \"#utility.yul\":4060:4098   */\n  sub\n    /* \"#utility.yul\":4057:4141   */\n  tag_122\n  jumpi\n    /* \"#utility.yul\":4113:4131   */\n  tag_123\n  tag_55\n  jump\t// in\ntag_123:\n    /* \"#utility.yul\":4057:4141   */\ntag_122:\n    /* \"#utility.yul\":3878:4147   */\n  pop\n    /* \"#utility.yul\":3827:4147   */\n  swap2\n  swap1\n  pop\n  jump\t// out\n    /* \"#utility.yul\":4153:4294   */\ntag_57:\n    /* \"#utility.yul\":4202:4206   */\n  0x00\n    /* \"#utility.yul\":4225:4228   */\n  dup2\n    /* \"#utility.yul\":4217:4228   */\n  swap1\n  pop\n    /* \"#utility.yul\":4248:4251   */\n  dup2\n    /* \"#utility.yul\":4245:4246   */\n  0x00\n    /* \"#utility.yul\":4238:4252   */\n  mstore\n    /* \"#utility.yul\":4282:4286   */\n  0x20\n    /* \"#utility.yul\":4279:4280   */\n  0x00\n    /* \"#utility.yul\":4269:4287   */\n  keccak256\n    /* \"#utility.yul\":4261:4287   */\n  swap1\n  pop\n    /* \"#utility.yul\":4153:4294   */\n  swap2\n  swap1\n  pop\n  jump\t// out\n    /* \"#utility.yul\":4300:4393   */\ntag_58:\n    /* \"#utility.yul\":4337:4343   */\n  0x00\n    /* \"#utility.yul\":4384:4386   */\n  0x20\n    /* \"#utility.yul\":4379:4381   */\n  0x1f\n    /* \"#utility.yul\":4372:4377   */\n  dup4\n    /* \"#utility.yul\":4368:4382   */\n  add\n    /* \"#utility.yul\":4364:4387   */\n  div\n    /* \"#utility.yul\":4354:4387   */\n  swap1\n  pop\n    /* \"#utility.yul\":4300:4393   */\n  swap2\n  swap1\n  pop\n  jump\t// out\n    /* \"#utility.yul\":4399:4506   */\ntag_59:\n    /* \"#utility.yul\":4443:4451   */\n  0x00\n    /* \"#utility.yul\":4493:4498   */\n  dup3\n    /* \"#utility.yul\":4487:4491   */\n  dup3\n    /* \"#utility.yul\":4483:4499   */\n  shl\n    /* \"#utility.yul\":4462:4499   */\n  swap1\n  pop\n    /* \"#utility.yul\":4399:4506   */\n  swap3\n  swap2\n  pop\n  pop\n  jump\t// out\n    /* \"#utility.yul\":4512:4905   */\ntag_60:\n    /* \"#utility.yul\":4581:4587   */\n  0x00\n    /* \"#utility.yul\":4631:4632   */\n  0x08\n    /* \"#utility.yul\":4619:4629   */\n  dup4\n    /* \"#utility.yul\":4615:4633   */\n  mul\n    /* \"#utility.yul\":4654:4751   */\n  tag_128\n    /* \"#utility.yul\":4684:4750   */\n  0xffffffffffffffffffffffffffffffffffffffffffffffffffffffffffffffff\n    /* \"#utility.yul\":4673:4682   */\n  dup3\n    /* \"#utility.yul\":4654:4751   */\n  tag_59\n  jump\t// in\ntag_128:\n    /* \"#utility.yul\":4772:4811   */\n  tag_129\n    /* \"#utility.yul\":4802:4810   */\n  dup7\n    /* \"#utility.yul\":4791:4800   */\n  dup4\n    /* \"#utility.yul\":4772:4811   */\n  tag_59\n  jump\t// in\ntag_129:\n    /* \"#utility.yul\":4760:4811   */\n  swap6\n  pop\n    /* \"#utility.yul\":4844:4848   */\n  dup1\n    /* \"#utility.yul\":4840:4849   */\n  not\n    /* \"#utility.yul\":4833:4838   */\n  dup5\n    /* \"#utility.yul\":4829:4850   */\n  and\n    /* \"#utility.yul\":4820:4850   */\n  swap4\n  pop\n    /* \"#utility.yul\":4893:4897   */\n  dup1\n    /* \"#utility.yul\":4883:4891   */\n  dup7\n    /* \"#utility.yul\":4879:4898   */\n  and\n    /* \"#utility.yul\":4872:4877   */\n  dup5\n    /* \"#utility.yul\":4869:4899   */\n  or\n    /* \"#utility.yul\":4859:4899   */\n  swap3\n  pop\n    /* \"#utility.yul\":4588:4905   */\n  pop\n  pop\n    /* \"#utility.yul\":4512:4905   */\n  swap4\n  swap3\n  pop\n  pop\n  pop\n  jump\t// out\n    /* \"#utility.yul\":4911:4988   */\ntag_61:\n    /* \"#utility.yul\":4948:4955   */\n  0x00\n    /* \"#utility.yul\":4977:4982   */\n  dup2\n    /* \"#utility.yul\":4966:4982   */\n  swap1\n  pop\n    /* \"#utility.yul\":4911:4988   */\n  swap2\n  swap1\n  pop\n  jump\t// out\n    /* \"#utility.yul\":4994:5054   */\ntag_62:\n    /* \"#utility.yul\":5022:5025   */\n  0x00\n    /* \"#utility.yul\":5043:5048   */\n  dup2\n    /* \"#utility.yul\":5036:5048   */\n  swap1\n  pop\n    /* \"#utility.yul\":4994:5054   */\n  swap2\n  swap1\n  pop\n  jump\t// out\n    /* \"#utility.yul\":5060:5202   */\ntag_63:\n    /* \"#utility.yul\":5110:5119   */\n  0x00\n    /* \"#utility.yul\":5143:5196   */\n  tag_133\n    /* \"#utility.yul\":5161:5195   */\n  tag_134\n    /* \"#utility.yul\":5170:5194   */\n  tag_135\n    /* \"#utility.yul\":5188:5193   */\n  dup5\n    /* \"#utility.yul\":5170:5194   */\n  tag_61\n  jump\t// in\ntag_135:\n    /* \"#utility.yul\":5161:5195   */\n  tag_62\n  jump\t// in\ntag_134:\n    /* \"#utility.yul\":5143:5196   */\n  tag_61\n  jump\t// in\ntag_133:\n    /* \"#utility.yul\":5130:5196   */\n  swap1\n  pop\n    /* \"#utility.yul\":5060:5202   */\n  swap2\n  swap1\n  pop\n  jump\t// out\n    /* \"#utility.yul\":5208:5283   */\ntag_64:\n    /* \"#utility.yul\":5251:5254   */\n  0x00\n    /* \"#utility.yul\":5272:5277   */\n  dup2\n    /* \"#utility.yul\":5265:5277   */\n  swap1\n  pop\n    /* \"#utility.yul\":5208:5283   */\n  swap2\n  swap1\n  pop\n  jump\t// out\n    /* \"#utility.yul\":5289:5558   */\ntag_65:\n    /* \"#utility.yul\":5399:5438   */\n  tag_138\n    /* \"#utility.yul\":5430:5437   */\n  dup4\n    /* \"#utility.yul\":5399:5438   */\n  tag_63\n  jump\t// in\ntag_138:\n    /* \"#utility.yul\":5460:5551   */\n  tag_139\n    /* \"#utility.yul\":5509:5550   */\n  tag_140\n    /* \"#utility.yul\":5533:5549   */\n  dup3\n    /* \"#utility.yul\":5509:5550   */\n  tag_64\n  jump\t// in\ntag_140:\n    /* \"#utility.yul\":5501:5507   */\n  dup5\n    /* \"#utility.yul\":5494:5498   */\n  dup5\n    /* \"#utility.yul\":5488:5499   */\n  sload\n    /* \"#utility.yul\":5460:5551   */\n  tag_60\n  jump\t// in\ntag_139:\n    /* \"#utility.yul\":5454:5458   */\n  dup3\n    /* \"#utility.yul\":5447:5552   */\n  sstore\n    /* \"#utility.yul\":5365:5558   */\n  pop\n    /* \"#utility.yul\":5289:5558   */\n  pop\n  pop\n  pop\n  jump\t// out\n    /* \"#utility.yul\":5564:5637   */\ntag_66:\n    /* \"#utility.yul\":5609:5612   */\n  0x00\n    /* \"#utility.yul\":5564:5637   */\n  swap1\n  jump\t// out\n    /* \"#utility.yul\":5643:5832   */\ntag_67:\n    /* \"#utility.yul\":5720:5752   */\n  tag_143\n  tag_66\n  jump\t// in\ntag_143:\n    /* \"#utility.yul\":5761:5826   */\n  tag_144\n    /* \"#utility.yul\":5819:5825   */\n  dup2\n    /* \"#utility.yul\":5811:5817   */\n  dup5\n    /* \"#utility.yul\":5805:5809   */\n  dup5\n    /* \"#utility.yul\":5761:5826   */\n  tag_65\n  jump\t// in\ntag_144:\n    /* \"#utility.yul\":5696:5832   */\n  pop\n    /* \"#utility.yul\":5643:5832   */\n  pop\n  pop\n  jump\t// out\n    /* \"#utility.yul\":5838:6024   */\ntag_68:\n    /* \"#utility.yul\":5898:6018   */\ntag_146:\n    /* \"#utility.yul\":5915:5918   */\n  dup2\n    /* \"#utility.yul\":5908:5913   */\n  dup2\n    /* \"#utility.yul\":5905:5919   */\n  lt\n    /* \"#utility.yul\":5898:6018   */\n  iszero\n  tag_148\n  jumpi\n    /* \"#utility.yul\":5969:6008   */\n  tag_149\n    /* \"#utility.yul\":6006:6007   */\n  0x00\n    /* \"#utility.yul\":5999:6004   */\n  dup3\n    /* \"#utility.yul\":5969:6008   */\n  tag_67\n  jump\t// in\ntag_149:\n    /* \"#utility.yul\":5942:5943   */\n  0x01\n    /* \"#utility.yul\":5935:5940   */\n  dup2\n    /* \"#utility.yul\":5931:5944   */\n  add\n    /* \"#utility.yul\":5922:5944   */\n  swap1\n  pop\n    /* \"#utility.yul\":5898:6018   */\n  jump(tag_146)\ntag_148:\n    /* \"#utility.yul\":5838:6024   */\n  pop\n  pop\n  jump\t// out\n    /* \"#utility.yul\":6030:6573   */\ntag_69:\n    /* \"#utility.yul\":6131:6133   */\n  0x1f\n    /* \"#utility.yul\":6126:6129   */\n  dup3\n    /* \"#utility.yul\":6123:6134   */\n  gt\n    /* \"#utility.yul\":6120:6566   */\n  iszero\n  tag_151\n  jumpi\n    /* \"#utility.yul\":6165:6203   */\n  tag_152\n    /* \"#utility.yul\":6197:6202   */\n  dup2\n    /* \"#utility.yul\":6165:6203   */\n  tag_57\n  jump\t// in\ntag_152:\n    /* \"#utility.yul\":6249:6278   */\n  tag_153\n    /* \"#utility.yul\":6267:6277   */\n  dup5\n    /* \"#utility.yul\":6249:6278   */\n  tag_58\n  jump\t// in\ntag_153:\n    /* \"#utility.yul\":6239:6247   */\n  dup2\n    /* \"#utility.yul\":6235:6279   */\n  add\n    /* \"#utility.yul\":6432:6434   */\n  0x20\n    /* \"#utility.yul\":6420:6430   */\n  dup6\n    /* \"#utility.yul\":6417:6435   */\n  lt\n    /* \"#utility.yul\":6414:6463   */\n  iszero\n  tag_154\n  jumpi\n    /* \"#utility.yul\":6453:6461   */\n  dup2\n    /* \"#utility.yul\":6438:6461   */\n  swap1\n  pop\n    /* \"#utility.yul\":6414:6463   */\ntag_154:\n    /* \"#utility.yul\":6476:6556   */\n  tag_155\n    /* \"#utility.yul\":6532:6554   */\n  tag_156\n    /* \"#utility.yul\":6550:6553   */\n  dup6\n    /* \"#utility.yul\":6532:6554   */\n  tag_58\n  jump\t// in\ntag_156:\n    /* \"#utility.yul\":6522:6530   */\n  dup4\n    /* \"#utility.yul\":6518:6555   */\n  add\n    /* \"#utility.yul\":6505:6516   */\n  dup3\n    /* \"#utility.yul\":6476:6556   */\n  tag_68\n  jump\t// in\ntag_155:\n    /* \"#utility.yul\":6135:6566   */\n  pop\n  pop\n    /* \"#utility.yul\":6120:6566   */\ntag_151:\n    /* \"#utility.yul\":6030:6573   */\n  pop\n  pop\n  pop\n  jump\t// out\n    /* \"#utility.yul\":6579:6696   */\ntag_70:\n    /* \"#utility.yul\":6633:6641   */\n  0x00\n    /* \"#utility.yul\":6683:6688   */\n  dup3\n    /* \"#utility.yul\":6677:6681   */\n  dup3\n    /* \"#utility.yul\":6673:6689   */\n  shr\n    /* \"#utility.yul\":6652:6689   */\n  swap1\n  pop\n    /* \"#utility.yul\":6579:6696   */\n  swap3\n  swap2\n  pop\n  pop\n  jump\t// out\n    /* \"#utility.yul\":6702:6871   */\ntag_71:\n    /* \"#utility.yul\":6746:6752   */\n  0x00\n    /* \"#utility.yul\":6779:6830   */\n  tag_159\n    /* \"#utility.yul\":6827:6828   */\n  0x00\n    /* \"#utility.yul\":6823:6829   */\n  not\n    /* \"#utility.yul\":6815:6820   */\n  dup5\n    /* \"#utility.yul\":6812:6813   */\n  0x08\n    /* \"#utility.yul\":6808:6821   */\n  mul\n    /* \"#utility.yul\":6779:6830   */\n  tag_70\n  jump\t// in\ntag_159:\n    /* \"#utility.yul\":6775:6831   */\n  not\n    /* \"#utility.yul\":6860:6864   */\n  dup1\n    /* \"#utility.yul\":6854:6858   */\n  dup4\n    /* \"#utility.yul\":6850:6865   */\n  and\n    /* \"#utility.yul\":6840:6865   */\n  swap2\n  pop\n    /* \"#utility.yul\":6753:6871   */\n  pop\n    /* \"#utility.yul\":6702:6871   */\n  swap3\n  swap2\n  pop\n  pop\n  jump\t// out\n    /* \"#utility.yul\":6876:7171   */\ntag_72:\n    /* \"#utility.yul\":6952:6956   */\n  0x00\n    /* \"#utility.yul\":7098:7127   */\n  tag_161\n    /* \"#utility.yul\":7123:7126   */\n  dup4\n    /* \"#utility.yul\":7117:7121   */\n  dup4\n    /* \"#utility.yul\":7098:7127   */\n  tag_71\n  jump\t// in\ntag_161:\n    /* \"#utility.yul\":7090:7127   */\n  swap2\n  pop\n    /* \"#utility.yul\":7160:7163   */\n  dup3\n    /* \"#utility.yul\":7157:7158   */\n  0x02\n    /* \"#utility.yul\":7153:7164   */\n  mul\n    /* \"#utility.yul\":7147:7151   */\n  dup3\n    /* \"#utility.yul\":7144:7165   */\n  or\n    /* \"#utility.yul\":7136:7165   */\n  swap1\n  pop\n    /* \"#utility.yul\":6876:7171   */\n  swap3\n  swap2\n  pop\n  pop\n  jump\t// out\n    /* \"#utility.yul\":7176:8571   */\ntag_11:\n    /* \"#utility.yul\":7293:7330   */\n  tag_163\n    /* \"#utility.yul\":7326:7329   */\n  dup3\n    /* \"#utility.yul\":7293:7330   */\n  tag_54\n  jump\t// in\ntag_163:\n    /* \"#utility.yul\":7395:7413   */\n  0xffffffffffffffff\n    /* \"#utility.yul\":7387:7393   */\n  dup2\n    /* \"#utility.yul\":7384:7414   */\n  gt\n    /* \"#utility.yul\":7381:7437   */\n  iszero\n  tag_164\n  jumpi\n    /* \"#utility.yul\":7417:7435   */\n  tag_165\n  tag_47\n  jump\t// in\ntag_165:\n    /* \"#utility.yul\":7381:7437   */\ntag_164:\n    /* \"#utility.yul\":7461:7499   */\n  tag_166\n    /* \"#utility.yul\":7493:7497   */\n  dup3\n    /* \"#utility.yul\":7487:7498   */\n  sload\n    /* \"#utility.yul\":7461:7499   */\n  tag_56\n  jump\t// in\ntag_166:\n    /* \"#utility.yul\":7546:7613   */\n  tag_167\n    /* \"#utility.yul\":7606:7612   */\n  dup3\n    /* \"#utility.yul\":7598:7604   */\n  dup3\n    /* \"#utility.yul\":7592:7596   */\n  dup6\n    /* \"#utility.yul\":7546:7613   */\n  tag_69\n  jump\t// in\ntag_167:\n    /* \"#utility.yul\":7640:7641   */\n  0x00\n    /* \"#utility.yul\":7664:7668   */\n  0x20\n    /* \"#utility.yul\":7651:7668   */\n  swap1\n  pop\n    /* \"#utility.yul\":7696:7698   */\n  0x1f\n    /* \"#utility.yul\":7688:7694   */\n  dup4\n    /* \"#utility.yul\":7685:7699   */\n  gt\n    /* \"#utility.yul\":7713:7714   */\n  0x01\n    /* \"#utility.yul\":7708:8326   */\n  dup2\n  eq\n  tag_169\n  jumpi\n    /* \"#utility.yul\":8370:8371   */\n  0x00\n    /* \"#utility.yul\":8387:8393   */\n  dup5\n    /* \"#utility.yul\":8384:8461   */\n  iszero\n  tag_170\n  jumpi\n    /* \"#utility.yul\":8436:8445   */\n  dup3\n    /* \"#utility.yul\":8431:8434   */\n  dup8\n    /* \"#utility.yul\":8427:8446   */\n  add\n    /* \"#utility.yul\":8421:8447   */\n  mload\n    /* \"#utility.yul\":8412:8447   */\n  swap1\n  pop\n    /* \"#utility.yul\":8384:8461   */\ntag_170:\n    /* \"#utility.yul\":8487:8554   */\n  tag_171\n    /* \"#utility.yul\":8547:8553   */\n  dup6\n    /* \"#utility.yul\":8540:8545   */\n  dup3\n    /* \"#utility.yul\":8487:8554   */\n  tag_72\n  jump\t// in\ntag_171:\n    /* \"#utility.yul\":8481:8485   */\n  dup7\n    /* \"#utility.yul\":8474:8555   */\n  sstore\n    /* \"#utility.yul\":8343:8565   */\n  pop\n    /* \"#utility.yul\":7678:8565   */\n  jump(tag_168)\n    /* \"#utility.yul\":7708:8326   */\ntag_169:\n    /* \"#utility.yul\":7760:7764   */\n  0x1f\n    /* \"#utility.yul\":7756:7765   */\n  not\n    /* \"#utility.yul\":7748:7754   */\n  dup5\n    /* \"#utility.yul\":7744:7766   */\n  and\n    /* \"#utility.yul\":7794:7831   */\n  tag_172\n    /* \"#utility.yul\":7826:7830   */\n  dup7\n    /* \"#utility.yul\":7794:7831   */\n  tag_57\n  jump\t// in\ntag_172:\n    /* \"#utility.yul\":7853:7854   */\n  0x00\n    /* \"#utility.yul\":7867:8075   */\ntag_173:\n    /* \"#utility.yul\":7881:7888   */\n  dup3\n    /* \"#utility.yul\":7878:7879   */\n  dup2\n    /* \"#utility.yul\":7875:7889   */\n  lt\n    /* \"#utility.yul\":7867:8075   */\n  iszero\n  tag_175\n  jumpi\n    /* \"#utility.yul\":7960:7969   */\n  dup5\n    /* \"#utility.yul\":7955:7958   */\n  dup10\n    /* \"#utility.yul\":7951:7970   */\n  add\n    /* \"#utility.yul\":7945:7971   */\n  mload\n    /* \"#utility.yul\":7937:7943   */\n  dup3\n    /* \"#utility.yul\":7930:7972   */\n  sstore\n    /* \"#utility.yul\":8011:8012   */\n  0x01\n    /* \"#utility.yul\":8003:8009   */\n  dup3\n    /* \"#utility.yul\":7999:8013   */\n  add\n    /* \"#utility.yul\":7989:8013   */\n  swap2\n  pop\n    /* \"#utility.yul\":8058:8060   */\n  0x20\n    /* \"#utility.yul\":8047:8056   */\n  dup6\n    /* \"#utility.yul\":8043:8061   */\n  add\n    /* \"#utility.yul\":8030:8061   */\n  swap5\n  pop\n    /* \"#utility.yul\":7904:7908   */\n  0x20\n    /* \"#utility.yul\":7901:7902   */\n  dup2\n    /* \"#utility.yul\":7897:7909   */\n  add\n    /* \"#utility.yul\":7892:7909   */\n  swap1\n  pop\n    /* \"#utility.yul\":7867:8075   */\n  jump(tag_173)\ntag_175:\n    /* \"#utility.yul\":8103:8109   */\n  dup7\n    /* \"#utility.yul\":8094:8101   */\n  dup4\n    /* \"#utility.yul\":8091:8110   */\n  lt\n    /* \"#utility.yul\":8088:8267   */\n  iszero\n  tag_176\n  jumpi\n    /* \"#utility.yul\":8161:8170   */\n  dup5\n    /* \"#utility.yul\":8156:8159   */\n  dup10\n    /* \"#utility.yul\":8152:8171   */\n  add\n    /* \"#utility.yul\":8146:8172   */\n  mload\n    /* \"#utility.yul\":8204:8252   */\n  tag_177\n    /* \"#utility.yul\":8246:8250   */\n  0x1f\n    /* \"#utility.yul\":8238:8244   */\n  dup10\n    /* \"#utility.yul\":8234:8251   */\n  and\n    /* \"#utility.yul\":8223:8232   */\n  dup3\n    /* \"#utility.yul\":8204:8252   */\n  tag_71\n  jump\t// in\ntag_177:\n    /* \"#utility.yul\":8196:8202   */\n  dup4\n    /* \"#utility.yul\":8189:8253   */\n  sstore\n    /* \"#utility.yul\":8111:8267   */\n  pop\n    /* \"#utility.yul\":8088:8267   */\ntag_176:\n    /* \"#utility.yul\":8313:8314   */\n  0x01\n    /* \"#utility.yul\":8309:8310   */\n  0x02\n    /* \"#utility.yul\":8301:8307   */\n  dup9\n    /* \"#utility.yul\":8297:8311   */\n  mul\n    /* \"#utility.yul\":8293:8315   */\n  add\n    /* \"#utility.yul\":8287:8291   */\n  dup9\n    /* \"#utility.yul\":8280:8316   */\n  sstore\n    /* \"#utility.yul\":7715:8326   */\n  pop\n  pop\n  pop\n    /* \"#utility.yul\":7678:8565   */\ntag_168:\n  pop\n    /* \"#utility.yul\":7268:8571   */\n  pop\n  pop\n  pop\n    /* \"#utility.yul\":7176:8571   */\n  pop\n  pop\n  jump\t// out\n    /* \"#utility.yul\":8577:8703   */\ntag_73:\n    /* \"#utility.yul\":8614:8621   */\n  0x00\n    /* \"#utility.yul\":8654:8696   */\n  0xffffffffffffffffffffffffffffffffffffffff\n    /* \"#utility.yul\":8647:8652   */\n  dup3\n    /* \"#utility.yul\":8643:8697   */\n  and\n    /* \"#utility.yul\":8632:8697   */\n  swap1\n  pop\n    /* \"#utility.yul\":8577:8703   */\n  swap2\n  swap1\n  pop\n  jump\t// out\n    /* \"#utility.yul\":8709:8805   */\ntag_74:\n    /* \"#utility.yul\":8746:8753   */\n  0x00\n    /* \"#utility.yul\":8775:8799   */\n  tag_180\n    /* \"#utility.yul\":8793:8798   */\n  dup3\n    /* \"#utility.yul\":8775:8799   */\n  tag_73\n  jump\t// in\ntag_180:\n    /* \"#utility.yul\":8764:8799   */\n  swap1\n  pop\n    /* \"#utility.yul\":8709:8805   */\n  swap2\n  swap1\n  pop\n  jump\t// out\n    /* \"#utility.yul\":8811:8929   */\ntag_75:\n    /* \"#utility.yul\":8898:8922   */\n  tag_182\n    /* \"#utility.yul\":8916:8921   */\n  dup2\n    /* \"#utility.yul\":8898:8922   */\n  tag_74\n  jump\t// in\ntag_182:\n    /* \"#utility.yul\":8893:8896   */\n  dup3\n    /* \"#utility.yul\":8886:8923   */\n  mstore\n    /* \"#utility.yul\":8811:8929   */\n  pop\n  pop\n  jump\t// out\n    /* \"#utility.yul\":8935:9157   */\ntag_16:\n    /* \"#utility.yul\":9028:9032   */\n  0x00\n    /* \"#utility.yul\":9066:9068   */\n  0x20\n    /* \"#utility.yul\":9055:9064   */\n  dup3\n    /* \"#utility.yul\":9051:9069   */\n  add\n    /* \"#utility.yul\":9043:9069   */\n  swap1\n  pop\n    /* \"#utility.yul\":9079:9150   */\n  tag_184\n    /* \"#utility.yul\":9147:9148   */\n  0x00\n    /* \"#utility.yul\":9136:9145   */\n  dup4\n    /* \"#utility.yul\":9132:9149   */\n  add\n    /* \"#utility.yul\":9123:9129   */\n  dup5\n    /* \"#utility.yul\":9079:9150   */\n  tag_75\n  jump\t// in\ntag_184:\n    /* \"#utility.yul\":8935:9157   */\n  swap3\n  swap2\n  pop\n  pop\n  jump\t// out\n    /* \"contracts/AkiNoTsuyuKuraNoKodawari.sol\":335:2374  contract AkiNoTsuyuKuraNoKodawari is ERC721, Ownable {... */\ntag_23:\n  dataSize(sub_0)\n  dup1\n  dataOffset(sub_0)\n  0x00\n  codecopy\n  0x00\n  return\nstop\n\nsub_0: assembly {\n        /* \"contracts/AkiNoTsuyuKuraNoKodawari.sol\":335:2374  contract AkiNoTsuyuKuraNoKodawari is ERC721, Ownable {... */\n      mstore(0x40, 0x80)\n      callvalue\n      dup1\n      iszero\n      tag_1\n      jumpi\n      0x00\n      dup1\n      revert\n    tag_1:\n      pop\n      jumpi(tag_2, lt(calldatasize, 0x04))\n      shr(0xe0, calldataload(0x00))\n      dup1\n      0x70a08231\n      gt\n      tag_22\n      jumpi\n      dup1\n      0xa22cb465\n      gt\n      tag_23\n      jumpi\n      dup1\n      0xa22cb465\n      eq\n      tag_17\n      jumpi\n      dup1\n      0xb88d4fde\n      eq\n      tag_18\n      jumpi\n      dup1\n      0xc87b56dd\n      eq\n      tag_19\n      jumpi\n      dup1\n      0xe985e9c5\n      eq\n      tag_20\n      jumpi\n      dup1\n      0xf2fde38b\n      eq\n      tag_21\n      jumpi\n      jump(tag_2)\n    tag_23:\n      dup1\n      0x70a08231\n      eq\n      tag_12\n      jumpi\n      dup1\n      0x715018a6\n      eq\n      tag_13\n      jumpi\n      dup1\n      0x7c88e3d9\n      eq\n      tag_14\n      jumpi\n      dup1\n      0x8da5cb5b\n      eq\n      tag_15\n      jumpi\n      dup1\n      0x95d89b41\n      eq\n      tag_16\n      jumpi\n      jump(tag_2)\n    tag_22:\n      dup1\n      0x095ea7b3\n      gt\n      tag_24\n      jumpi\n      dup1\n      0x095ea7b3\n      eq\n      tag_7\n      jumpi\n      dup1\n      0x23b872dd\n      eq\n      tag_8\n      jumpi\n      dup1\n      0x32cb6b0c\n      eq\n      tag_9\n      jumpi\n      dup1\n      0x42842e0e\n      eq\n      tag_10\n      jumpi\n      dup1\n      0x6352211e\n      eq\n      tag_11\n      jumpi\n      jump(tag_2)\n    tag_24:\n      dup1\n      0x923f9e\n      eq\n      tag_3\n      jumpi\n      dup1\n      0x01ffc9a7\n      eq\n      tag_4\n      jumpi\n      dup1\n      0x06fdde03\n      eq\n      tag_5\n      jumpi\n      dup1\n      0x081812fc\n      eq\n      tag_6\n      jumpi\n    tag_2:\n      0x00\n      dup1\n      revert\n        /* \"contracts/AkiNoTsuyuKuraNoKodawari.sol\":694:920  function tokenExists(uint256 tokenId) public view returns (bool) {... */\n    tag_3:\n      tag_25\n      0x04\n      dup1\n      calldatasize\n      sub\n      dup2\n      add\n      swap1\n      tag_26\n      swap2\n      swap1\n      tag_27\n      jump\t// in\n    tag_26:\n      tag_28\n      jump\t// in\n    tag_25:\n      mload(0x40)\n      tag_29\n      swap2\n      swap1\n      tag_30\n      jump\t// in\n    tag_29:\n      mload(0x40)\n      dup1\n      swap2\n      sub\n      swap1\n      return\n        /* \"@openzeppelin/contracts/token/ERC721/ERC721.sol\":1561:1861  function supportsInterface(bytes4 interfaceId) public view virtual override(ERC165, IERC165) returns (bool) {... */\n    tag_4:\n      tag_31\n      0x04\n      dup1\n      calldatasize\n      sub\n      dup2\n      add\n      swap1\n      tag_32\n      swap2\n      swap1\n      tag_33\n      jump\t// in\n    tag_32:\n      tag_34\n      jump\t// in\n    tag_31:\n      mload(0x40)\n      tag_35\n      swap2\n      swap1\n      tag_30\n      jump\t// in\n    tag_35:\n      mload(0x40)\n      dup1\n      swap2\n      sub\n      swap1\n      return\n        /* \"@openzeppelin/contracts/token/ERC721/ERC721.sol\":2365:2454  function name() public view virtual returns (string memory) {... */\n    tag_5:\n      tag_36\n      tag_37\n      jump\t// in\n    tag_36:\n      mload(0x40)\n      tag_38\n      swap2\n      swap1\n      tag_39\n      jump\t// in\n    tag_38:\n      mload(0x40)\n      dup1\n      swap2\n      sub\n      swap1\n      return\n        /* \"@openzeppelin/contracts/token/ERC721/ERC721.sol\":3497:3651  function getApproved(uint256 tokenId) public view virtual returns (address) {... */\n    tag_6:\n      tag_40\n      0x04\n      dup1\n      calldatasize\n      sub\n      dup2\n      add\n      swap1\n      tag_41\n      swap2\n      swap1\n      tag_27\n      jump\t// in\n    tag_41:\n      tag_42\n      jump\t// in\n    tag_40:\n      mload(0x40)\n      tag_43\n      swap2\n      swap1\n      tag_44\n      jump\t// in\n    tag_43:\n      mload(0x40)\n      dup1\n      swap2\n      sub\n      swap1\n      return\n        /* \"@openzeppelin/contracts/token/ERC721/ERC721.sol\":3323:3436  function approve(address to, uint256 tokenId) public virtual {... */\n    tag_7:\n      tag_45\n      0x04\n      dup1\n      calldatasize\n      sub\n      dup2\n      add\n      swap1\n      tag_46\n      swap2\n      swap1\n      tag_47\n      jump\t// in\n    tag_46:\n      tag_48\n      jump\t// in\n    tag_45:\n      stop\n        /* \"contracts/AkiNoTsuyuKuraNoKodawari.sol\":1841:2086  function transferFrom(address from, address to, uint256 tokenId) public override... */\n    tag_8:\n      tag_49\n      0x04\n      dup1\n      calldatasize\n      sub\n      dup2\n      add\n      swap1\n      tag_50\n      swap2\n      swap1\n      tag_51\n      jump\t// in\n    tag_50:\n      tag_52\n      jump\t// in\n    tag_49:\n      stop\n        /* \"contracts/AkiNoTsuyuKuraNoKodawari.sol\":477:516  uint256 public constant MAX_SUPPLY = 45 */\n    tag_9:\n      tag_53\n      tag_54\n      jump\t// in\n    tag_53:\n      mload(0x40)\n      tag_55\n      swap2\n      swap1\n      tag_56\n      jump\t// in\n    tag_55:\n      mload(0x40)\n      dup1\n      swap2\n      sub\n      swap1\n      return\n        /* \"@openzeppelin/contracts/token/ERC721/ERC721.sol\":4787:4919  function safeTransferFrom(address from, address to, uint256 tokenId) public {... */\n    tag_10:\n      tag_57\n      0x04\n      dup1\n      calldatasize\n      sub\n      dup2\n      add\n      swap1\n      tag_58\n      swap2\n      swap1\n      tag_51\n      jump\t// in\n    tag_58:\n      tag_59\n      jump\t// in\n    tag_57:\n      stop\n        /* \"@openzeppelin/contracts/token/ERC721/ERC721.sol\":2185:2303  function ownerOf(uint256 tokenId) public view virtual returns (address) {... */\n    tag_11:\n      tag_60\n      0x04\n      dup1\n      calldatasize\n      sub\n      dup2\n      add\n      swap1\n      tag_61\n      swap2\n      swap1\n      tag_27\n      jump\t// in\n    tag_61:\n      tag_62\n      jump\t// in\n    tag_60:\n      mload(0x40)\n      tag_63\n      swap2\n      swap1\n      tag_44\n      jump\t// in\n    tag_63:\n      mload(0x40)\n      dup1\n      swap2\n      sub\n      swap1\n      return\n        /* \"@openzeppelin/contracts/token/ERC721/ERC721.sol\":1920:2128  function balanceOf(address owner) public view virtual returns (uint256) {... */\n    tag_12:\n      tag_64\n      0x04\n      dup1\n      calldatasize\n      sub\n      dup2\n      add\n      swap1\n      tag_65\n      swap2\n      swap1\n      tag_66\n      jump\t// in\n    tag_65:\n      tag_67\n      jump\t// in\n    tag_64:\n      mload(0x40)\n      tag_68\n      swap2\n      swap1\n      tag_56\n      jump\t// in\n    tag_68:\n      mload(0x40)\n      dup1\n      swap2\n      sub\n      swap1\n      return\n        /* \"@openzeppelin/contracts/access/Ownable.sol\":2293:2394  function renounceOwnership() public virtual onlyOwner {... */\n    tag_13:\n      tag_69\n      tag_70\n      jump\t// in\n    tag_69:\n      stop\n        /* \"contracts/AkiNoTsuyuKuraNoKodawari.sol\":1205:1647  function mintBatch(address[] memory recipients, uint256[] memory tokenIds) public onlyOwner {... */\n    tag_14:\n      tag_71\n      0x04\n      dup1\n      calldatasize\n      sub\n      dup2\n      add\n      swap1\n      tag_72\n      swap2\n      swap1\n      tag_73\n      jump\t// in\n    tag_72:\n      tag_74\n      jump\t// in\n    tag_71:\n      stop\n        /* \"@openzeppelin/contracts/access/Ownable.sol\":1638:1723  function owner() public view virtual returns (address) {... */\n    tag_15:\n      tag_75\n      tag_76\n      jump\t// in\n    tag_75:\n      mload(0x40)\n      tag_77\n      swap2\n      swap1\n      tag_44\n      jump\t// in\n    tag_77:\n      mload(0x40)\n      dup1\n      swap2\n      sub\n      swap1\n      return\n        /* \"@openzeppelin/contracts/token/ERC721/ERC721.sol\":2518:2611  function symbol() public view virtual returns (string memory) {... */\n    tag_16:\n      tag_78\n      tag_79\n      jump\t// in\n    tag_78:\n      mload(0x40)\n      tag_80\n      swap2\n      swap1\n      tag_39\n      jump\t// in\n    tag_80:\n      mload(0x40)\n      dup1\n      swap2\n      sub\n      swap1\n      return\n        /* \"@openzeppelin/contracts/token/ERC721/ERC721.sol\":3718:3862  function setApprovalForAll(address operator, bool approved) public virtual {... */\n    tag_17:\n      tag_81\n      0x04\n      dup1\n      calldatasize\n      sub\n      dup2\n      add\n      swap1\n      tag_82\n      swap2\n      swap1\n      tag_83\n      jump\t// in\n    tag_82:\n      tag_84\n      jump\t// in\n    tag_81:\n      stop\n        /* \"contracts/AkiNoTsuyuKuraNoKodawari.sol\":2092:2372  function safeTransferFrom(address from, address to, uint256 tokenId, bytes memory _data) public override... */\n    tag_18:\n      tag_85\n      0x04\n      dup1\n      calldatasize\n      sub\n      dup2\n      add\n      swap1\n      tag_86\n      swap2\n      swap1\n      tag_87\n      jump\t// in\n    tag_86:\n      tag_88\n      jump\t// in\n    tag_85:\n      stop\n        /* \"@openzeppelin/contracts/token/ERC721/ERC721.sol\":2677:2932  function tokenURI(uint256 tokenId) public view virtual returns (string memory) {... */\n    tag_19:\n      tag_89\n      0x04\n      dup1\n      calldatasize\n      sub\n      dup2\n      add\n      swap1\n      tag_90\n      swap2\n      swap1\n      tag_27\n      jump\t// in\n    tag_90:\n      tag_91\n      jump\t// in\n    tag_89:\n      mload(0x40)\n      tag_92\n      swap2\n      swap1\n      tag_39\n      jump\t// in\n    tag_92:\n      mload(0x40)\n      dup1\n      swap2\n      sub\n      swap1\n      return\n        /* \"@openzeppelin/contracts/token/ERC721/ERC721.sol\":3928:4081  function isApprovedForAll(address owner, address operator) public view virtual returns (bool) {... */\n    tag_20:\n      tag_93\n      0x04\n      dup1\n      calldatasize\n      sub\n      dup2\n      add\n      swap1\n      tag_94\n      swap2\n      swap1\n      tag_95\n      jump\t// in\n    tag_94:\n      tag_96\n      jump\t// in\n    tag_93:\n      mload(0x40)\n      tag_97\n      swap2\n      swap1\n      tag_30\n      jump\t// in\n    tag_97:\n      mload(0x40)\n      dup1\n      swap2\n      sub\n      swap1\n      return\n        /* \"@openzeppelin/contracts/access/Ownable.sol\":2543:2758  function transferOwnership(address newOwner) public virtual onlyOwner {... */\n    tag_21:\n      tag_98\n      0x04\n      dup1\n      calldatasize\n      sub\n      dup2\n      add\n      swap1\n      tag_99\n      swap2\n      swap1\n      tag_66\n      jump\t// in\n    tag_99:\n      tag_100\n      jump\t// in\n    tag_98:\n      stop\n        /* \"contracts/AkiNoTsuyuKuraNoKodawari.sol\":694:920  function tokenExists(uint256 tokenId) public view returns (bool) {... */\n    tag_28:\n        /* \"contracts/AkiNoTsuyuKuraNoKodawari.sol\":753:757  bool */\n      0x00\n        /* \"contracts/AkiNoTsuyuKuraNoKodawari.sol\":773:777  this */\n      address\n        /* \"contracts/AkiNoTsuyuKuraNoKodawari.sol\":773:785  this.ownerOf */\n      0xffffffffffffffffffffffffffffffffffffffff\n      and\n      0x6352211e\n        /* \"contracts/AkiNoTsuyuKuraNoKodawari.sol\":786:793  tokenId */\n      dup4\n        /* \"contracts/AkiNoTsuyuKuraNoKodawari.sol\":773:794  this.ownerOf(tokenId) */\n      mload(0x40)\n      dup3\n      0xffffffff\n      and\n      0xe0\n      shl\n      dup2\n      mstore\n      0x04\n      add\n      tag_102\n      swap2\n      swap1\n      tag_56\n      jump\t// in\n    tag_102:\n      0x20\n      mload(0x40)\n      dup1\n      dup4\n      sub\n      dup2\n      dup7\n      gas\n      staticcall\n      swap3\n      pop\n      pop\n      pop\n      dup1\n      iszero\n      tag_103\n      jumpi\n      pop\n      mload(0x40)\n      returndatasize\n      not(0x1f)\n      0x1f\n      dup3\n      add\n      and\n      dup3\n      add\n      dup1\n      0x40\n      mstore\n      pop\n      dup2\n      add\n      swap1\n      tag_104\n      swap2\n      swap1\n      tag_105\n      jump\t// in\n    tag_104:\n      0x01\n    tag_103:\n        /* \"contracts/AkiNoTsuyuKuraNoKodawari.sol\":769:914  try this.ownerOf(tokenId) returns (address owner) {... */\n      tag_106\n      jumpi\n        /* \"contracts/AkiNoTsuyuKuraNoKodawari.sol\":898:903  false */\n      0x00\n        /* \"contracts/AkiNoTsuyuKuraNoKodawari.sol\":891:903  return false */\n      swap1\n      pop\n      jump(tag_101)\n        /* \"contracts/AkiNoTsuyuKuraNoKodawari.sol\":769:914  try this.ownerOf(tokenId) returns (address owner) {... */\n    tag_106:\n        /* \"contracts/AkiNoTsuyuKuraNoKodawari.sol\":857:858  0 */\n      0x00\n        /* \"contracts/AkiNoTsuyuKuraNoKodawari.sol\":840:859  owner != address(0) */\n      0xffffffffffffffffffffffffffffffffffffffff\n      and\n        /* \"contracts/AkiNoTsuyuKuraNoKodawari.sol\":840:845  owner */\n      dup2\n        /* \"contracts/AkiNoTsuyuKuraNoKodawari.sol\":840:859  owner != address(0) */\n      0xffffffffffffffffffffffffffffffffffffffff\n      and\n      eq\n      iszero\n        /* \"contracts/AkiNoTsuyuKuraNoKodawari.sol\":833:859  return owner != address(0) */\n      swap2\n      pop\n      pop\n        /* \"contracts/AkiNoTsuyuKuraNoKodawari.sol\":694:920  function tokenExists(uint256 tokenId) public view returns (bool) {... */\n    tag_101:\n      swap2\n      swap1\n      pop\n      jump\t// out\n        /* \"@openzeppelin/contracts/token/ERC721/ERC721.sol\":1561:1861  function supportsInterface(bytes4 interfaceId) public view virtual override(ERC165, IERC165) returns (bool) {... */\n    tag_34:\n        /* \"@openzeppelin/contracts/token/ERC721/ERC721.sol\":1663:1667  bool */\n      0x00\n        /* \"@openzeppelin/contracts/token/ERC721/ERC721.sol\":1713:1738  type(IERC721).interfaceId */\n      0x80ac58cd00000000000000000000000000000000000000000000000000000000\n        /* \"@openzeppelin/contracts/token/ERC721/ERC721.sol\":1698:1738  interfaceId == type(IERC721).interfaceId */\n      not(0xffffffffffffffffffffffffffffffffffffffffffffffffffffffff)\n      and\n        /* \"@openzeppelin/contracts/token/ERC721/ERC721.sol\":1698:1709  interfaceId */\n      dup3\n        /* \"@openzeppelin/contracts/token/ERC721/ERC721.sol\":1698:1738  interfaceId == type(IERC721).interfaceId */\n      not(0xffffffffffffffffffffffffffffffffffffffffffffffffffffffff)\n      and\n      eq\n        /* \"@openzeppelin/contracts/token/ERC721/ERC721.sol\":1698:1802  interfaceId == type(IERC721).interfaceId ||... */\n      dup1\n      tag_112\n      jumpi\n      pop\n        /* \"@openzeppelin/contracts/token/ERC721/ERC721.sol\":1769:1802  type(IERC721Metadata).interfaceId */\n      0x5b5e139f00000000000000000000000000000000000000000000000000000000\n        /* \"@openzeppelin/contracts/token/ERC721/ERC721.sol\":1754:1802  interfaceId == type(IERC721Metadata).interfaceId */\n      not(0xffffffffffffffffffffffffffffffffffffffffffffffffffffffff)\n      and\n        /* \"@openzeppelin/contracts/token/ERC721/ERC721.sol\":1754:1765  interfaceId */\n      dup3\n        /* \"@openzeppelin/contracts/token/ERC721/ERC721.sol\":1754:1802  interfaceId == type(IERC721Metadata).interfaceId */\n      not(0xffffffffffffffffffffffffffffffffffffffffffffffffffffffff)\n      and\n      eq\n        /* \"@openzeppelin/contracts/token/ERC721/ERC721.sol\":1698:1802  interfaceId == type(IERC721).interfaceId ||... */\n    tag_112:\n        /* \"@openzeppelin/contracts/token/ERC721/ERC721.sol\":1698:1854  interfaceId == type(IERC721).interfaceId ||... */\n      dup1\n      tag_113\n      jumpi\n      pop\n        /* \"@openzeppelin/contracts/token/ERC721/ERC721.sol\":1818:1854  super.supportsInterface(interfaceId) */\n      tag_114\n        /* \"@openzeppelin/contracts/token/ERC721/ERC721.sol\":1842:1853  interfaceId */\n      dup3\n        /* \"@openzeppelin/contracts/token/ERC721/ERC721.sol\":1818:1841  super.supportsInterface */\n      tag_115\n        /* \"@openzeppelin/contracts/token/ERC721/ERC721.sol\":1818:1854  super.supportsInterface(interfaceId) */\n      jump\t// in\n    tag_114:\n        /* \"@openzeppelin/contracts/token/ERC721/ERC721.sol\":1698:1854  interfaceId == type(IERC721).interfaceId ||... */\n    tag_113:\n        /* \"@openzeppelin/contracts/token/ERC721/ERC721.sol\":1679:1854  return... */\n      swap1\n      pop\n        /* \"@openzeppelin/contracts/token/ERC721/ERC721.sol\":1561:1861  function supportsInterface(bytes4 interfaceId) public view virtual override(ERC165, IERC165) returns (bool) {... */\n      swap2\n      swap1\n      pop\n      jump\t// out\n        /* \"@openzeppelin/contracts/token/ERC721/ERC721.sol\":2365:2454  function name() public view virtual returns (string memory) {... */\n    tag_37:\n        /* \"@openzeppelin/contracts/token/ERC721/ERC721.sol\":2410:2423  string memory */\n      0x60\n        /* \"@openzeppelin/contracts/token/ERC721/ERC721.sol\":2442:2447  _name */\n      0x00\n        /* \"@openzeppelin/contracts/token/ERC721/ERC721.sol\":2435:2447  return _name */\n      dup1\n      sload\n      tag_117\n      swap1\n      tag_118\n      jump\t// in\n    tag_117:\n      dup1\n      0x1f\n      add\n      0x20\n      dup1\n      swap2\n      div\n      mul\n      0x20\n      add\n      mload(0x40)\n      swap1\n      dup2\n      add\n      0x40\n      mstore\n      dup1\n      swap3\n      swap2\n      swap1\n      dup2\n      dup2\n      mstore\n      0x20\n      add\n      dup3\n      dup1\n      sload\n      tag_119\n      swap1\n      tag_118\n      jump\t// in\n    tag_119:\n      dup1\n      iszero\n      tag_120\n      jumpi\n      dup1\n      0x1f\n      lt\n      tag_121\n      jumpi\n      0x0100\n      dup1\n      dup4\n      sload\n      div\n      mul\n      dup4\n      mstore\n      swap2\n      0x20\n      add\n      swap2\n      jump(tag_120)\n    tag_121:\n      dup3\n      add\n      swap2\n      swap1\n      0x00\n      mstore\n      keccak256(0x00, 0x20)\n      swap1\n    tag_122:\n      dup2\n      sload\n      dup2\n      mstore\n      swap1\n      0x01\n      add\n      swap1\n      0x20\n      add\n      dup1\n      dup4\n      gt\n      tag_122\n      jumpi\n      dup3\n      swap1\n      sub\n      0x1f\n      and\n      dup3\n      add\n      swap2\n    tag_120:\n      pop\n      pop\n      pop\n      pop\n      pop\n      swap1\n      pop\n        /* \"@openzeppelin/contracts/token/ERC721/ERC721.sol\":2365:2454  function name() public view virtual returns (string memory) {... */\n      swap1\n      jump\t// out\n        /* \"@openzeppelin/contracts/token/ERC721/ERC721.sol\":3497:3651  function getApproved(uint256 tokenId) public view virtual returns (address) {... */\n    tag_42:\n        /* \"@openzeppelin/contracts/token/ERC721/ERC721.sol\":3564:3571  address */\n      0x00\n        /* \"@openzeppelin/contracts/token/ERC721/ERC721.sol\":3583:3605  _requireOwned(tokenId) */\n      tag_124\n        /* \"@openzeppelin/contracts/token/ERC721/ERC721.sol\":3597:3604  tokenId */\n      dup3\n        /* \"@openzeppelin/contracts/token/ERC721/ERC721.sol\":3583:3596  _requireOwned */\n      tag_125\n        /* \"@openzeppelin/contracts/token/ERC721/ERC721.sol\":3583:3605  _requireOwned(tokenId) */\n      jump\t// in\n    tag_124:\n      pop\n        /* \"@openzeppelin/contracts/token/ERC721/ERC721.sol\":3623:3644  _getApproved(tokenId) */\n      tag_126\n        /* \"@openzeppelin/contracts/token/ERC721/ERC721.sol\":3636:3643  tokenId */\n      dup3\n        /* \"@openzeppelin/contracts/token/ERC721/ERC721.sol\":3623:3635  _getApproved */\n      tag_127\n        /* \"@openzeppelin/contracts/token/ERC721/ERC721.sol\":3623:3644  _getApproved(tokenId) */\n      jump\t// in\n    tag_126:\n        /* \"@openzeppelin/contracts/token/ERC721/ERC721.sol\":3616:3644  return _getApproved(tokenId) */\n      swap1\n      pop\n        /* \"@openzeppelin/contracts/token/ERC721/ERC721.sol\":3497:3651  function getApproved(uint256 tokenId) public view virtual returns (address) {... */\n      swap2\n      swap1\n      pop\n      jump\t// out\n        /* \"@openzeppelin/contracts/token/ERC721/ERC721.sol\":3323:3436  function approve(address to, uint256 tokenId) public virtual {... */\n    tag_48:\n        /* \"@openzeppelin/contracts/token/ERC721/ERC721.sol\":3394:3429  _approve(to, tokenId, _msgSender()) */\n      tag_129\n        /* \"@openzeppelin/contracts/token/ERC721/ERC721.sol\":3403:3405  to */\n      dup3\n        /* \"@openzeppelin/contracts/token/ERC721/ERC721.sol\":3407:3414  tokenId */\n      dup3\n        /* \"@openzeppelin/contracts/token/ERC721/ERC721.sol\":3416:3428  _msgSender() */\n      tag_130\n        /* \"@openzeppelin/contracts/token/ERC721/ERC721.sol\":3416:3426  _msgSender */\n      tag_131\n        /* \"@openzeppelin/contracts/token/ERC721/ERC721.sol\":3416:3428  _msgSender() */\n      jump\t// in\n    tag_130:\n        /* \"@openzeppelin/contracts/token/ERC721/ERC721.sol\":3394:3402  _approve */\n      tag_132\n        /* \"@openzeppelin/contracts/token/ERC721/ERC721.sol\":3394:3429  _approve(to, tokenId, _msgSender()) */\n      jump\t// in\n    tag_129:\n        /* \"@openzeppelin/contracts/token/ERC721/ERC721.sol\":3323:3436  function approve(address to, uint256 tokenId) public virtual {... */\n      pop\n      pop\n      jump\t// out\n        /* \"contracts/AkiNoTsuyuKuraNoKodawari.sol\":1841:2086  function transferFrom(address from, address to, uint256 tokenId) public override... */\n    tag_52:\n        /* \"contracts/AkiNoTsuyuKuraNoKodawari.sol\":1956:1957  0 */\n      0x00\n        /* \"contracts/AkiNoTsuyuKuraNoKodawari.sol\":1940:1958  from != address(0) */\n      0xffffffffffffffffffffffffffffffffffffffff\n      and\n        /* \"contracts/AkiNoTsuyuKuraNoKodawari.sol\":1940:1944  from */\n      dup4\n        /* \"contracts/AkiNoTsuyuKuraNoKodawari.sol\":1940:1958  from != address(0) */\n      0xffffffffffffffffffffffffffffffffffffffff\n      and\n      eq\n        /* \"contracts/AkiNoTsuyuKuraNoKodawari.sol\":1936:2033  if (from != address(0)) {... */\n      tag_134\n      jumpi\n        /* \"contracts/AkiNoTsuyuKuraNoKodawari.sol\":1974:2022  revert(\"SoulBound Token: cannot transfer token\") */\n      mload(0x40)\n      0x08c379a000000000000000000000000000000000000000000000000000000000\n      dup2\n      mstore\n      0x04\n      add\n      tag_135\n      swap1\n      tag_136\n      jump\t// in\n    tag_135:\n      mload(0x40)\n      dup1\n      swap2\n      sub\n      swap1\n      revert\n        /* \"contracts/AkiNoTsuyuKuraNoKodawari.sol\":1936:2033  if (from != address(0)) {... */\n    tag_134:\n        /* \"contracts/AkiNoTsuyuKuraNoKodawari.sol\":2042:2079  super.transferFrom(from, to, tokenId) */\n      tag_137\n        /* \"contracts/AkiNoTsuyuKuraNoKodawari.sol\":2061:2065  from */\n      dup4\n        /* \"contracts/AkiNoTsuyuKuraNoKodawari.sol\":2067:2069  to */\n      dup4\n        /* \"contracts/AkiNoTsuyuKuraNoKodawari.sol\":2071:2078  tokenId */\n      dup4\n        /* \"contracts/AkiNoTsuyuKuraNoKodawari.sol\":2042:2060  super.transferFrom */\n      tag_138\n        /* \"contracts/AkiNoTsuyuKuraNoKodawari.sol\":2042:2079  super.transferFrom(from, to, tokenId) */\n      jump\t// in\n    tag_137:\n        /* \"contracts/AkiNoTsuyuKuraNoKodawari.sol\":1841:2086  function transferFrom(address from, address to, uint256 tokenId) public override... */\n      pop\n      pop\n      pop\n      jump\t// out\n        /* \"contracts/AkiNoTsuyuKuraNoKodawari.sol\":477:516  uint256 public constant MAX_SUPPLY = 45 */\n    tag_54:\n        /* \"contracts/AkiNoTsuyuKuraNoKodawari.sol\":514:516  45 */\n      0x2d\n        /* \"contracts/AkiNoTsuyuKuraNoKodawari.sol\":477:516  uint256 public constant MAX_SUPPLY = 45 */\n      dup2\n      jump\t// out\n        /* \"@openzeppelin/contracts/token/ERC721/ERC721.sol\":4787:4919  function safeTransferFrom(address from, address to, uint256 tokenId) public {... */\n    tag_59:\n        /* \"@openzeppelin/contracts/token/ERC721/ERC721.sol\":4873:4912  safeTransferFrom(from, to, tokenId, \"\") */\n      tag_140\n        /* \"@openzeppelin/contracts/token/ERC721/ERC721.sol\":4890:4894  from */\n      dup4\n        /* \"@openzeppelin/contracts/token/ERC721/ERC721.sol\":4896:4898  to */\n      dup4\n        /* \"@openzeppelin/contracts/token/ERC721/ERC721.sol\":4900:4907  tokenId */\n      dup4\n        /* \"@openzeppelin/contracts/token/ERC721/ERC721.sol\":4873:4912  safeTransferFrom(from, to, tokenId, \"\") */\n      mload(0x40)\n      dup1\n      0x20\n      add\n      0x40\n      mstore\n      dup1\n      0x00\n      dup2\n      mstore\n      pop\n        /* \"@openzeppelin/contracts/token/ERC721/ERC721.sol\":4873:4889  safeTransferFrom */\n      tag_88\n        /* \"@openzeppelin/contracts/token/ERC721/ERC721.sol\":4873:4912  safeTransferFrom(from, to, tokenId, \"\") */\n      jump\t// in\n    tag_140:\n        /* \"@openzeppelin/contracts/token/ERC721/ERC721.sol\":4787:4919  function safeTransferFrom(address from, address to, uint256 tokenId) public {... */\n      pop\n      pop\n      pop\n      jump\t// out\n        /* \"@openzeppelin/contracts/token/ERC721/ERC721.sol\":2185:2303  function ownerOf(uint256 tokenId) public view virtual returns (address) {... */\n    tag_62:\n        /* \"@openzeppelin/contracts/token/ERC721/ERC721.sol\":2248:2255  address */\n      0x00\n        /* \"@openzeppelin/contracts/token/ERC721/ERC721.sol\":2274:2296  _requireOwned(tokenId) */\n      tag_142\n        /* \"@openzeppelin/contracts/token/ERC721/ERC721.sol\":2288:2295  tokenId */\n      dup3\n        /* \"@openzeppelin/contracts/token/ERC721/ERC721.sol\":2274:2287  _requireOwned */\n      tag_125\n        /* \"@openzeppelin/contracts/token/ERC721/ERC721.sol\":2274:2296  _requireOwned(tokenId) */\n      jump\t// in\n    tag_142:\n        /* \"@openzeppelin/contracts/token/ERC721/ERC721.sol\":2267:2296  return _requireOwned(tokenId) */\n      swap1\n      pop\n        /* \"@openzeppelin/contracts/token/ERC721/ERC721.sol\":2185:2303  function ownerOf(uint256 tokenId) public view virtual returns (address) {... */\n      swap2\n      swap1\n      pop\n      jump\t// out\n        /* \"@openzeppelin/contracts/token/ERC721/ERC721.sol\":1920:2128  function balanceOf(address owner) public view virtual returns (uint256) {... */\n    tag_67:\n        /* \"@openzeppelin/contracts/token/ERC721/ERC721.sol\":1983:1990  uint256 */\n      0x00\n        /* \"@openzeppelin/contracts/token/ERC721/ERC721.sol\":2023:2024  0 */\n      dup1\n        /* \"@openzeppelin/contracts/token/ERC721/ERC721.sol\":2006:2025  owner == address(0) */\n      0xffffffffffffffffffffffffffffffffffffffff\n      and\n        /* \"@openzeppelin/contracts/token/ERC721/ERC721.sol\":2006:2011  owner */\n      dup3\n        /* \"@openzeppelin/contracts/token/ERC721/ERC721.sol\":2006:2025  owner == address(0) */\n      0xffffffffffffffffffffffffffffffffffffffff\n      and\n      sub\n        /* \"@openzeppelin/contracts/token/ERC721/ERC721.sol\":2002:2089  if (owner == address(0)) {... */\n      tag_144\n      jumpi\n        /* \"@openzeppelin/contracts/token/ERC721/ERC721.sol\":2075:2076  0 */\n      0x00\n        /* \"@openzeppelin/contracts/token/ERC721/ERC721.sol\":2048:2078  ERC721InvalidOwner(address(0)) */\n      mload(0x40)\n      0x89c62b6400000000000000000000000000000000000000000000000000000000\n      dup2\n      mstore\n      0x04\n      add\n      tag_145\n      swap2\n      swap1\n      tag_44\n      jump\t// in\n    tag_145:\n      mload(0x40)\n      dup1\n      swap2\n      sub\n      swap1\n      revert\n        /* \"@openzeppelin/contracts/token/ERC721/ERC721.sol\":2002:2089  if (owner == address(0)) {... */\n    tag_144:\n        /* \"@openzeppelin/contracts/token/ERC721/ERC721.sol\":2105:2114  _balances */\n      0x03\n        /* \"@openzeppelin/contracts/token/ERC721/ERC721.sol\":2105:2121  _balances[owner] */\n      0x00\n        /* \"@openzeppelin/contracts/token/ERC721/ERC721.sol\":2115:2120  owner */\n      dup4\n        /* \"@openzeppelin/contracts/token/ERC721/ERC721.sol\":2105:2121  _balances[owner] */\n      0xffffffffffffffffffffffffffffffffffffffff\n      and\n      0xffffffffffffffffffffffffffffffffffffffff\n      and\n      dup2\n      mstore\n      0x20\n      add\n      swap1\n      dup2\n      mstore\n      0x20\n      add\n      0x00\n      keccak256\n      sload\n        /* \"@openzeppelin/contracts/token/ERC721/ERC721.sol\":2098:2121  return _balances[owner] */\n      swap1\n      pop\n        /* \"@openzeppelin/contracts/token/ERC721/ERC721.sol\":1920:2128  function balanceOf(address owner) public view virtual returns (uint256) {... */\n      swap2\n      swap1\n      pop\n      jump\t// out\n        /* \"@openzeppelin/contracts/access/Ownable.sol\":2293:2394  function renounceOwnership() public virtual onlyOwner {... */\n    tag_70:\n        /* \"@openzeppelin/contracts/access/Ownable.sol\":1531:1544  _checkOwner() */\n      tag_147\n        /* \"@openzeppelin/contracts/access/Ownable.sol\":1531:1542  _checkOwner */\n      tag_148\n        /* \"@openzeppelin/contracts/access/Ownable.sol\":1531:1544  _checkOwner() */\n      jump\t// in\n    tag_147:\n        /* \"@openzeppelin/contracts/access/Ownable.sol\":2357:2387  _transferOwnership(address(0)) */\n      tag_150\n        /* \"@openzeppelin/contracts/access/Ownable.sol\":2384:2385  0 */\n      0x00\n        /* \"@openzeppelin/contracts/access/Ownable.sol\":2357:2375  _transferOwnership */\n      tag_151\n        /* \"@openzeppelin/contracts/access/Ownable.sol\":2357:2387  _transferOwnership(address(0)) */\n      jump\t// in\n    tag_150:\n        /* \"@openzeppelin/contracts/access/Ownable.sol\":2293:2394  function renounceOwnership() public virtual onlyOwner {... */\n      jump\t// out\n        /* \"contracts/AkiNoTsuyuKuraNoKodawari.sol\":1205:1647  function mintBatch(address[] memory recipients, uint256[] memory tokenIds) public onlyOwner {... */\n    tag_74:\n        /* \"@openzeppelin/contracts/access/Ownable.sol\":1531:1544  _checkOwner() */\n      tag_153\n        /* \"@openzeppelin/contracts/access/Ownable.sol\":1531:1542  _checkOwner */\n      tag_148\n        /* \"@openzeppelin/contracts/access/Ownable.sol\":1531:1544  _checkOwner() */\n      jump\t// in\n    tag_153:\n        /* \"contracts/AkiNoTsuyuKuraNoKodawari.sol\":1336:1344  tokenIds */\n      dup1\n        /* \"contracts/AkiNoTsuyuKuraNoKodawari.sol\":1336:1351  tokenIds.length */\n      mload\n        /* \"contracts/AkiNoTsuyuKuraNoKodawari.sol\":1315:1325  recipients */\n      dup3\n        /* \"contracts/AkiNoTsuyuKuraNoKodawari.sol\":1315:1332  recipients.length */\n      mload\n        /* \"contracts/AkiNoTsuyuKuraNoKodawari.sol\":1315:1351  recipients.length == tokenIds.length */\n      eq\n        /* \"contracts/AkiNoTsuyuKuraNoKodawari.sol\":1307:1395  require(recipients.length == tokenIds.length, \"recipients and tokenIds length mismatch\") */\n      tag_155\n      jumpi\n      mload(0x40)\n      0x08c379a000000000000000000000000000000000000000000000000000000000\n      dup2\n      mstore\n      0x04\n      add\n      tag_156\n      swap1\n      tag_157\n      jump\t// in\n    tag_156:\n      mload(0x40)\n      dup1\n      swap2\n      sub\n      swap1\n      revert\n    tag_155:\n        /* \"contracts/AkiNoTsuyuKuraNoKodawari.sol\":1433:1434  0 */\n      0x00\n        /* \"contracts/AkiNoTsuyuKuraNoKodawari.sol\":1413:1423  recipients */\n      dup3\n        /* \"contracts/AkiNoTsuyuKuraNoKodawari.sol\":1413:1430  recipients.length */\n      mload\n        /* \"contracts/AkiNoTsuyuKuraNoKodawari.sol\":1413:1434  recipients.length > 0 */\n      gt\n        /* \"contracts/AkiNoTsuyuKuraNoKodawari.sol\":1405:1452  require(recipients.length > 0, \"no recipients\") */\n      tag_158\n      jumpi\n      mload(0x40)\n      0x08c379a000000000000000000000000000000000000000000000000000000000\n      dup2\n      mstore\n      0x04\n      add\n      tag_159\n      swap1\n      tag_160\n      jump\t// in\n    tag_159:\n      mload(0x40)\n      dup1\n      swap2\n      sub\n      swap1\n      revert\n    tag_158:\n        /* \"contracts/AkiNoTsuyuKuraNoKodawari.sol\":1468:1477  uint256 i */\n      0x00\n        /* \"contracts/AkiNoTsuyuKuraNoKodawari.sol\":1463:1641  for (uint256 i = 0; i < recipients.length; i++) {... */\n    tag_161:\n        /* \"contracts/AkiNoTsuyuKuraNoKodawari.sol\":1487:1497  recipients */\n      dup3\n        /* \"contracts/AkiNoTsuyuKuraNoKodawari.sol\":1487:1504  recipients.length */\n      mload\n        /* \"contracts/AkiNoTsuyuKuraNoKodawari.sol\":1483:1484  i */\n      dup2\n        /* \"contracts/AkiNoTsuyuKuraNoKodawari.sol\":1483:1504  i < recipients.length */\n      lt\n        /* \"contracts/AkiNoTsuyuKuraNoKodawari.sol\":1463:1641  for (uint256 i = 0; i < recipients.length; i++) {... */\n      iszero\n      tag_162\n      jumpi\n        /* \"contracts/AkiNoTsuyuKuraNoKodawari.sol\":1534:1558  tokenExists(tokenIds[i]) */\n      tag_164\n        /* \"contracts/AkiNoTsuyuKuraNoKodawari.sol\":1546:1554  tokenIds */\n      dup3\n        /* \"contracts/AkiNoTsuyuKuraNoKodawari.sol\":1555:1556  i */\n      dup3\n        /* \"contracts/AkiNoTsuyuKuraNoKodawari.sol\":1546:1557  tokenIds[i] */\n      dup2\n      mload\n      dup2\n      lt\n      tag_165\n      jumpi\n      tag_166\n      tag_167\n      jump\t// in\n    tag_166:\n    tag_165:\n      0x20\n      mul\n      0x20\n      add\n      add\n      mload\n        /* \"contracts/AkiNoTsuyuKuraNoKodawari.sol\":1534:1545  tokenExists */\n      tag_28\n        /* \"contracts/AkiNoTsuyuKuraNoKodawari.sol\":1534:1558  tokenExists(tokenIds[i]) */\n      jump\t// in\n    tag_164:\n        /* \"contracts/AkiNoTsuyuKuraNoKodawari.sol\":1533:1558  !tokenExists(tokenIds[i]) */\n      iszero\n        /* \"contracts/AkiNoTsuyuKuraNoKodawari.sol\":1525:1583  require(!tokenExists(tokenIds[i]), \"token already minted\") */\n      tag_168\n      jumpi\n      mload(0x40)\n      0x08c379a000000000000000000000000000000000000000000000000000000000\n      dup2\n      mstore\n      0x04\n      add\n      tag_169\n      swap1\n      tag_170\n      jump\t// in\n    tag_169:\n      mload(0x40)\n      dup1\n      swap2\n      sub\n      swap1\n      revert\n    tag_168:\n        /* \"contracts/AkiNoTsuyuKuraNoKodawari.sol\":1597:1630  _mint(recipients[i], tokenIds[i]) */\n      tag_171\n        /* \"contracts/AkiNoTsuyuKuraNoKodawari.sol\":1603:1613  recipients */\n      dup4\n        /* \"contracts/AkiNoTsuyuKuraNoKodawari.sol\":1614:1615  i */\n      dup3\n        /* \"contracts/AkiNoTsuyuKuraNoKodawari.sol\":1603:1616  recipients[i] */\n      dup2\n      mload\n      dup2\n      lt\n      tag_172\n      jumpi\n      tag_173\n      tag_167\n      jump\t// in\n    tag_173:\n    tag_172:\n      0x20\n      mul\n      0x20\n      add\n      add\n      mload\n        /* \"contracts/AkiNoTsuyuKuraNoKodawari.sol\":1618:1626  tokenIds */\n      dup4\n        /* \"contracts/AkiNoTsuyuKuraNoKodawari.sol\":1627:1628  i */\n      dup4\n        /* \"contracts/AkiNoTsuyuKuraNoKodawari.sol\":1618:1629  tokenIds[i] */\n      dup2\n      mload\n      dup2\n      lt\n      tag_174\n      jumpi\n      tag_175\n      tag_167\n      jump\t// in\n    tag_175:\n    tag_174:\n      0x20\n      mul\n      0x20\n      add\n      add\n      mload\n        /* \"contracts/AkiNoTsuyuKuraNoKodawari.sol\":1597:1602  _mint */\n      tag_176\n        /* \"contracts/AkiNoTsuyuKuraNoKodawari.sol\":1597:1630  _mint(recipients[i], tokenIds[i]) */\n      jump\t// in\n    tag_171:\n        /* \"contracts/AkiNoTsuyuKuraNoKodawari.sol\":1506:1509  i++ */\n      dup1\n      dup1\n      0x01\n      add\n      swap2\n      pop\n      pop\n        /* \"contracts/AkiNoTsuyuKuraNoKodawari.sol\":1463:1641  for (uint256 i = 0; i < recipients.length; i++) {... */\n      jump(tag_161)\n    tag_162:\n      pop\n        /* \"contracts/AkiNoTsuyuKuraNoKodawari.sol\":1205:1647  function mintBatch(address[] memory recipients, uint256[] memory tokenIds) public onlyOwner {... */\n      pop\n      pop\n      jump\t// out\n        /* \"@openzeppelin/contracts/access/Ownable.sol\":1638:1723  function owner() public view virtual returns (address) {... */\n    tag_76:\n        /* \"@openzeppelin/contracts/access/Ownable.sol\":1684:1691  address */\n      0x00\n        /* \"@openzeppelin/contracts/access/Ownable.sol\":1710:1716  _owner */\n      0x06\n      0x00\n      swap1\n      sload\n      swap1\n      0x0100\n      exp\n      swap1\n      div\n      0xffffffffffffffffffffffffffffffffffffffff\n      and\n        /* \"@openzeppelin/contracts/access/Ownable.sol\":1703:1716  return _owner */\n      swap1\n      pop\n        /* \"@openzeppelin/contracts/access/Ownable.sol\":1638:1723  function owner() public view virtual returns (address) {... */\n      swap1\n      jump\t// out\n        /* \"@openzeppelin/contracts/token/ERC721/ERC721.sol\":2518:2611  function symbol() public view virtual returns (string memory) {... */\n    tag_79:\n        /* \"@openzeppelin/contracts/token/ERC721/ERC721.sol\":2565:2578  string memory */\n      0x60\n        /* \"@openzeppelin/contracts/token/ERC721/ERC721.sol\":2597:2604  _symbol */\n      0x01\n        /* \"@openzeppelin/contracts/token/ERC721/ERC721.sol\":2590:2604  return _symbol */\n      dup1\n      sload\n      tag_179\n      swap1\n      tag_118\n      jump\t// in\n    tag_179:\n      dup1\n      0x1f\n      add\n      0x20\n      dup1\n      swap2\n      div\n      mul\n      0x20\n      add\n      mload(0x40)\n      swap1\n      dup2\n      add\n      0x40\n      mstore\n      dup1\n      swap3\n      swap2\n      swap1\n      dup2\n      dup2\n      mstore\n      0x20\n      add\n      dup3\n      dup1\n      sload\n      tag_180\n      swap1\n      tag_118\n      jump\t// in\n    tag_180:\n      dup1\n      iszero\n      tag_181\n      jumpi\n      dup1\n      0x1f\n      lt\n      tag_182\n      jumpi\n      0x0100\n      dup1\n      dup4\n      sload\n      div\n      mul\n      dup4\n      mstore\n      swap2\n      0x20\n      add\n      swap2\n      jump(tag_181)\n    tag_182:\n      dup3\n      add\n      swap2\n      swap1\n      0x00\n      mstore\n      keccak256(0x00, 0x20)\n      swap1\n    tag_183:\n      dup2\n      sload\n      dup2\n      mstore\n      swap1\n      0x01\n      add\n      swap1\n      0x20\n      add\n      dup1\n      dup4\n      gt\n      tag_183\n      jumpi\n      dup3\n      swap1\n      sub\n      0x1f\n      and\n      dup3\n      add\n      swap2\n    tag_181:\n      pop\n      pop\n      pop\n      pop\n      pop\n      swap1\n      pop\n        /* \"@openzeppelin/contracts/token/ERC721/ERC721.sol\":2518:2611  function symbol() public view virtual returns (string memory) {... */\n      swap1\n      jump\t// out\n        /* \"@openzeppelin/contracts/token/ERC721/ERC721.sol\":3718:3862  function setApprovalForAll(address operator, bool approved) public virtual {... */\n    tag_84:\n        /* \"@openzeppelin/contracts/token/ERC721/ERC721.sol\":3803:3855  _setApprovalForAll(_msgSender(), operator, approved) */\n      tag_185\n        /* \"@openzeppelin/contracts/token/ERC721/ERC721.sol\":3822:3834  _msgSender() */\n      tag_186\n        /* \"@openzeppelin/contracts/token/ERC721/ERC721.sol\":3822:3832  _msgSender */\n      tag_131\n        /* \"@openzeppelin/contracts/token/ERC721/ERC721.sol\":3822:3834  _msgSender() */\n      jump\t// in\n    tag_186:\n        /* \"@openzeppelin/contracts/token/ERC721/ERC721.sol\":3836:3844  operator */\n      dup4\n        /* \"@openzeppelin/contracts/token/ERC721/ERC721.sol\":3846:3854  approved */\n      dup4\n        /* \"@openzeppelin/contracts/token/ERC721/ERC721.sol\":3803:3821  _setApprovalForAll */\n      tag_187\n        /* \"@openzeppelin/contracts/token/ERC721/ERC721.sol\":3803:3855  _setApprovalForAll(_msgSender(), operator, approved) */\n      jump\t// in\n    tag_185:\n        /* \"@openzeppelin/contracts/token/ERC721/ERC721.sol\":3718:3862  function setApprovalForAll(address operator, bool approved) public virtual {... */\n      pop\n      pop\n      jump\t// out\n        /* \"contracts/AkiNoTsuyuKuraNoKodawari.sol\":2092:2372  function safeTransferFrom(address from, address to, uint256 tokenId, bytes memory _data) public override... */\n    tag_88:\n        /* \"contracts/AkiNoTsuyuKuraNoKodawari.sol\":2231:2232  0 */\n      0x00\n        /* \"contracts/AkiNoTsuyuKuraNoKodawari.sol\":2215:2233  from != address(0) */\n      0xffffffffffffffffffffffffffffffffffffffff\n      and\n        /* \"contracts/AkiNoTsuyuKuraNoKodawari.sol\":2215:2219  from */\n      dup5\n        /* \"contracts/AkiNoTsuyuKuraNoKodawari.sol\":2215:2233  from != address(0) */\n      0xffffffffffffffffffffffffffffffffffffffff\n      and\n      eq\n        /* \"contracts/AkiNoTsuyuKuraNoKodawari.sol\":2211:2308  if (from != address(0)) {... */\n      tag_189\n      jumpi\n        /* \"contracts/AkiNoTsuyuKuraNoKodawari.sol\":2249:2297  revert(\"SoulBound Token: cannot transfer token\") */\n      mload(0x40)\n      0x08c379a000000000000000000000000000000000000000000000000000000000\n      dup2\n      mstore\n      0x04\n      add\n      tag_190\n      swap1\n      tag_136\n      jump\t// in\n    tag_190:\n      mload(0x40)\n      dup1\n      swap2\n      sub\n      swap1\n      revert\n        /* \"contracts/AkiNoTsuyuKuraNoKodawari.sol\":2211:2308  if (from != address(0)) {... */\n    tag_189:\n        /* \"contracts/AkiNoTsuyuKuraNoKodawari.sol\":2317:2365  super.safeTransferFrom(from, to, tokenId, _data) */\n      tag_191\n        /* \"contracts/AkiNoTsuyuKuraNoKodawari.sol\":2340:2344  from */\n      dup5\n        /* \"contracts/AkiNoTsuyuKuraNoKodawari.sol\":2346:2348  to */\n      dup5\n        /* \"contracts/AkiNoTsuyuKuraNoKodawari.sol\":2350:2357  tokenId */\n      dup5\n        /* \"contracts/AkiNoTsuyuKuraNoKodawari.sol\":2359:2364  _data */\n      dup5\n        /* \"contracts/AkiNoTsuyuKuraNoKodawari.sol\":2317:2339  super.safeTransferFrom */\n      tag_192\n        /* \"contracts/AkiNoTsuyuKuraNoKodawari.sol\":2317:2365  super.safeTransferFrom(from, to, tokenId, _data) */\n      jump\t// in\n    tag_191:\n        /* \"contracts/AkiNoTsuyuKuraNoKodawari.sol\":2092:2372  function safeTransferFrom(address from, address to, uint256 tokenId, bytes memory _data) public override... */\n      pop\n      pop\n      pop\n      pop\n      jump\t// out\n        /* \"@openzeppelin/contracts/token/ERC721/ERC721.sol\":2677:2932  function tokenURI(uint256 tokenId) public view virtual returns (string memory) {... */\n    tag_91:\n        /* \"@openzeppelin/contracts/token/ERC721/ERC721.sol\":2741:2754  string memory */\n      0x60\n        /* \"@openzeppelin/contracts/token/ERC721/ERC721.sol\":2766:2788  _requireOwned(tokenId) */\n      tag_194\n        /* \"@openzeppelin/contracts/token/ERC721/ERC721.sol\":2780:2787  tokenId */\n      dup3\n        /* \"@openzeppelin/contracts/token/ERC721/ERC721.sol\":2766:2779  _requireOwned */\n      tag_125\n        /* \"@openzeppelin/contracts/token/ERC721/ERC721.sol\":2766:2788  _requireOwned(tokenId) */\n      jump\t// in\n    tag_194:\n      pop\n        /* \"@openzeppelin/contracts/token/ERC721/ERC721.sol\":2799:2820  string memory baseURI */\n      0x00\n        /* \"@openzeppelin/contracts/token/ERC721/ERC721.sol\":2823:2833  _baseURI() */\n      tag_195\n        /* \"@openzeppelin/contracts/token/ERC721/ERC721.sol\":2823:2831  _baseURI */\n      tag_196\n        /* \"@openzeppelin/contracts/token/ERC721/ERC721.sol\":2823:2833  _baseURI() */\n      jump\t// in\n    tag_195:\n        /* \"@openzeppelin/contracts/token/ERC721/ERC721.sol\":2799:2833  string memory baseURI = _baseURI() */\n      swap1\n      pop\n        /* \"@openzeppelin/contracts/token/ERC721/ERC721.sol\":2874:2875  0 */\n      0x00\n        /* \"@openzeppelin/contracts/token/ERC721/ERC721.sol\":2856:2863  baseURI */\n      dup2\n        /* \"@openzeppelin/contracts/token/ERC721/ERC721.sol\":2850:2871  bytes(baseURI).length */\n      mload\n        /* \"@openzeppelin/contracts/token/ERC721/ERC721.sol\":2850:2875  bytes(baseURI).length > 0 */\n      gt\n        /* \"@openzeppelin/contracts/token/ERC721/ERC721.sol\":2850:2925  bytes(baseURI).length > 0 ? string.concat(baseURI, tokenId.toString()) : \"\" */\n      tag_197\n      jumpi\n      mload(0x40)\n      dup1\n      0x20\n      add\n      0x40\n      mstore\n      dup1\n      0x00\n      dup2\n      mstore\n      pop\n      jump(tag_198)\n    tag_197:\n        /* \"@openzeppelin/contracts/token/ERC721/ERC721.sol\":2892:2899  baseURI */\n      dup1\n        /* \"@openzeppelin/contracts/token/ERC721/ERC721.sol\":2901:2919  tokenId.toString() */\n      tag_199\n        /* \"@openzeppelin/contracts/token/ERC721/ERC721.sol\":2901:2908  tokenId */\n      dup5\n        /* \"@openzeppelin/contracts/token/ERC721/ERC721.sol\":2901:2917  tokenId.toString */\n      tag_200\n        /* \"@openzeppelin/contracts/token/ERC721/ERC721.sol\":2901:2919  tokenId.toString() */\n      jump\t// in\n    tag_199:\n        /* \"@openzeppelin/contracts/token/ERC721/ERC721.sol\":2878:2920  string.concat(baseURI, tokenId.toString()) */\n      add(0x20, mload(0x40))\n      tag_201\n      swap3\n      swap2\n      swap1\n      tag_202\n      jump\t// in\n    tag_201:\n      mload(0x40)\n      0x20\n      dup2\n      dup4\n      sub\n      sub\n      dup2\n      mstore\n      swap1\n      0x40\n      mstore\n        /* \"@openzeppelin/contracts/token/ERC721/ERC721.sol\":2850:2925  bytes(baseURI).length > 0 ? string.concat(baseURI, tokenId.toString()) : \"\" */\n    tag_198:\n        /* \"@openzeppelin/contracts/token/ERC721/ERC721.sol\":2843:2925  return bytes(baseURI).length > 0 ? string.concat(baseURI, tokenId.toString()) : \"\" */\n      swap2\n      pop\n      pop\n        /* \"@openzeppelin/contracts/token/ERC721/ERC721.sol\":2677:2932  function tokenURI(uint256 tokenId) public view virtual returns (string memory) {... */\n      swap2\n      swap1\n      pop\n      jump\t// out\n        /* \"@openzeppelin/contracts/token/ERC721/ERC721.sol\":3928:4081  function isApprovedForAll(address owner, address operator) public view virtual returns (bool) {... */\n    tag_96:\n        /* \"@openzeppelin/contracts/token/ERC721/ERC721.sol\":4016:4020  bool */\n      0x00\n        /* \"@openzeppelin/contracts/token/ERC721/ERC721.sol\":4039:4057  _operatorApprovals */\n      0x05\n        /* \"@openzeppelin/contracts/token/ERC721/ERC721.sol\":4039:4064  _operatorApprovals[owner] */\n      0x00\n        /* \"@openzeppelin/contracts/token/ERC721/ERC721.sol\":4058:4063  owner */\n      dup5\n        /* \"@openzeppelin/contracts/token/ERC721/ERC721.sol\":4039:4064  _operatorApprovals[owner] */\n      0xffffffffffffffffffffffffffffffffffffffff\n      and\n      0xffffffffffffffffffffffffffffffffffffffff\n      and\n      dup2\n      mstore\n      0x20\n      add\n      swap1\n      dup2\n      mstore\n      0x20\n      add\n      0x00\n      keccak256\n        /* \"@openzeppelin/contracts/token/ERC721/ERC721.sol\":4039:4074  _operatorApprovals[owner][operator] */\n      0x00\n        /* \"@openzeppelin/contracts/token/ERC721/ERC721.sol\":4065:4073  operator */\n      dup4\n        /* \"@openzeppelin/contracts/token/ERC721/ERC721.sol\":4039:4074  _operatorApprovals[owner][operator] */\n      0xffffffffffffffffffffffffffffffffffffffff\n      and\n      0xffffffffffffffffffffffffffffffffffffffff\n      and\n      dup2\n      mstore\n      0x20\n      add\n      swap1\n      dup2\n      mstore\n      0x20\n      add\n      0x00\n      keccak256\n      0x00\n      swap1\n      sload\n      swap1\n      0x0100\n      exp\n      swap1\n      div\n      0xff\n      and\n        /* \"@openzeppelin/contracts/token/ERC721/ERC721.sol\":4032:4074  return _operatorApprovals[owner][operator] */\n      swap1\n      pop\n        /* \"@openzeppelin/contracts/token/ERC721/ERC721.sol\":3928:4081  function isApprovedForAll(address owner, address operator) public view virtual returns (bool) {... */\n      swap3\n      swap2\n      pop\n      pop\n      jump\t// out\n        /* \"@openzeppelin/contracts/access/Ownable.sol\":2543:2758  function transferOwnership(address newOwner) public virtual onlyOwner {... */\n    tag_100:\n        /* \"@openzeppelin/contracts/access/Ownable.sol\":1531:1544  _checkOwner() */\n      tag_205\n        /* \"@openzeppelin/contracts/access/Ownable.sol\":1531:1542  _checkOwner */\n      tag_148\n        /* \"@openzeppelin/contracts/access/Ownable.sol\":1531:1544  _checkOwner() */\n      jump\t// in\n    tag_205:\n        /* \"@openzeppelin/contracts/access/Ownable.sol\":2647:2648  0 */\n      0x00\n        /* \"@openzeppelin/contracts/access/Ownable.sol\":2627:2649  newOwner == address(0) */\n      0xffffffffffffffffffffffffffffffffffffffff\n      and\n        /* \"@openzeppelin/contracts/access/Ownable.sol\":2627:2635  newOwner */\n      dup2\n        /* \"@openzeppelin/contracts/access/Ownable.sol\":2627:2649  newOwner == address(0) */\n      0xffffffffffffffffffffffffffffffffffffffff\n      and\n      sub\n        /* \"@openzeppelin/contracts/access/Ownable.sol\":2623:2714  if (newOwner == address(0)) {... */\n      tag_207\n      jumpi\n        /* \"@openzeppelin/contracts/access/Ownable.sol\":2700:2701  0 */\n      0x00\n        /* \"@openzeppelin/contracts/access/Ownable.sol\":2672:2703  OwnableInvalidOwner(address(0)) */\n      mload(0x40)\n      0x1e4fbdf700000000000000000000000000000000000000000000000000000000\n      dup2\n      mstore\n      0x04\n      add\n      tag_208\n      swap2\n      swap1\n      tag_44\n      jump\t// in\n    tag_208:\n      mload(0x40)\n      dup1\n      swap2\n      sub\n      swap1\n      revert\n        /* \"@openzeppelin/contracts/access/Ownable.sol\":2623:2714  if (newOwner == address(0)) {... */\n    tag_207:\n        /* \"@openzeppelin/contracts/access/Ownable.sol\":2723:2751  _transferOwnership(newOwner) */\n      tag_209\n        /* \"@openzeppelin/contracts/access/Ownable.sol\":2742:2750  newOwner */\n      dup2\n        /* \"@openzeppelin/contracts/access/Ownable.sol\":2723:2741  _transferOwnership */\n      tag_151\n        /* \"@openzeppelin/contracts/access/Ownable.sol\":2723:2751  _transferOwnership(newOwner) */\n      jump\t// in\n    tag_209:\n        /* \"@openzeppelin/contracts/access/Ownable.sol\":2543:2758  function transferOwnership(address newOwner) public virtual onlyOwner {... */\n      pop\n      jump\t// out\n        /* \"@openzeppelin/contracts/utils/introspection/ERC165.sol\":762:908  function supportsInterface(bytes4 interfaceId) public view virtual returns (bool) {... */\n    tag_115:\n        /* \"@openzeppelin/contracts/utils/introspection/ERC165.sol\":838:842  bool */\n      0x00\n        /* \"@openzeppelin/contracts/utils/introspection/ERC165.sol\":876:901  type(IERC165).interfaceId */\n      0x01ffc9a700000000000000000000000000000000000000000000000000000000\n        /* \"@openzeppelin/contracts/utils/introspection/ERC165.sol\":861:901  interfaceId == type(IERC165).interfaceId */\n      not(0xffffffffffffffffffffffffffffffffffffffffffffffffffffffff)\n      and\n        /* \"@openzeppelin/contracts/utils/introspection/ERC165.sol\":861:872  interfaceId */\n      dup3\n        /* \"@openzeppelin/contracts/utils/introspection/ERC165.sol\":861:901  interfaceId == type(IERC165).interfaceId */\n      not(0xffffffffffffffffffffffffffffffffffffffffffffffffffffffff)\n      and\n      eq\n        /* \"@openzeppelin/contracts/utils/introspection/ERC165.sol\":854:901  return interfaceId == type(IERC165).interfaceId */\n      swap1\n      pop\n        /* \"@openzeppelin/contracts/utils/introspection/ERC165.sol\":762:908  function supportsInterface(bytes4 interfaceId) public view virtual returns (bool) {... */\n      swap2\n      swap1\n      pop\n      jump\t// out\n        /* \"@openzeppelin/contracts/token/ERC721/ERC721.sol\":16138:16379  function _requireOwned(uint256 tokenId) internal view returns (address) {... */\n    tag_125:\n        /* \"@openzeppelin/contracts/token/ERC721/ERC721.sol\":16201:16208  address */\n      0x00\n        /* \"@openzeppelin/contracts/token/ERC721/ERC721.sol\":16220:16233  address owner */\n      dup1\n        /* \"@openzeppelin/contracts/token/ERC721/ERC721.sol\":16236:16253  _ownerOf(tokenId) */\n      tag_212\n        /* \"@openzeppelin/contracts/token/ERC721/ERC721.sol\":16245:16252  tokenId */\n      dup4\n        /* \"@openzeppelin/contracts/token/ERC721/ERC721.sol\":16236:16244  _ownerOf */\n      tag_213\n        /* \"@openzeppelin/contracts/token/ERC721/ERC721.sol\":16236:16253  _ownerOf(tokenId) */\n      jump\t// in\n    tag_212:\n        /* \"@openzeppelin/contracts/token/ERC721/ERC721.sol\":16220:16253  address owner = _ownerOf(tokenId) */\n      swap1\n      pop\n        /* \"@openzeppelin/contracts/token/ERC721/ERC721.sol\":16284:16285  0 */\n      0x00\n        /* \"@openzeppelin/contracts/token/ERC721/ERC721.sol\":16267:16286  owner == address(0) */\n      0xffffffffffffffffffffffffffffffffffffffff\n      and\n        /* \"@openzeppelin/contracts/token/ERC721/ERC721.sol\":16267:16272  owner */\n      dup2\n        /* \"@openzeppelin/contracts/token/ERC721/ERC721.sol\":16267:16286  owner == address(0) */\n      0xffffffffffffffffffffffffffffffffffffffff\n      and\n      sub\n        /* \"@openzeppelin/contracts/token/ERC721/ERC721.sol\":16263:16351  if (owner == address(0)) {... */\n      tag_214\n      jumpi\n        /* \"@openzeppelin/contracts/token/ERC721/ERC721.sol\":16332:16339  tokenId */\n      dup3\n        /* \"@openzeppelin/contracts/token/ERC721/ERC721.sol\":16309:16340  ERC721NonexistentToken(tokenId) */\n      mload(0x40)\n      0x7e27328900000000000000000000000000000000000000000000000000000000\n      dup2\n      mstore\n      0x04\n      add\n      tag_215\n      swap2\n      swap1\n      tag_56\n      jump\t// in\n    tag_215:\n      mload(0x40)\n      dup1\n      swap2\n      sub\n      swap1\n      revert\n        /* \"@openzeppelin/contracts/token/ERC721/ERC721.sol\":16263:16351  if (owner == address(0)) {... */\n    tag_214:\n        /* \"@openzeppelin/contracts/token/ERC721/ERC721.sol\":16367:16372  owner */\n      dup1\n        /* \"@openzeppelin/contracts/token/ERC721/ERC721.sol\":16360:16372  return owner */\n      swap2\n      pop\n      pop\n        /* \"@openzeppelin/contracts/token/ERC721/ERC721.sol\":16138:16379  function _requireOwned(uint256 tokenId) internal view returns (address) {... */\n      swap2\n      swap1\n      pop\n      jump\t// out\n        /* \"@openzeppelin/contracts/token/ERC721/ERC721.sol\":5938:6065  function _getApproved(uint256 tokenId) internal view virtual returns (address) {... */\n    tag_127:\n        /* \"@openzeppelin/contracts/token/ERC721/ERC721.sol\":6008:6015  address */\n      0x00\n        /* \"@openzeppelin/contracts/token/ERC721/ERC721.sol\":6034:6049  _tokenApprovals */\n      0x04\n        /* \"@openzeppelin/contracts/token/ERC721/ERC721.sol\":6034:6058  _tokenApprovals[tokenId] */\n      0x00\n        /* \"@openzeppelin/contracts/token/ERC721/ERC721.sol\":6050:6057  tokenId */\n      dup4\n        /* \"@openzeppelin/contracts/token/ERC721/ERC721.sol\":6034:6058  _tokenApprovals[tokenId] */\n      dup2\n      mstore\n      0x20\n      add\n      swap1\n      dup2\n      mstore\n      0x20\n      add\n      0x00\n      keccak256\n      0x00\n      swap1\n      sload\n      swap1\n      0x0100\n      exp\n      swap1\n      div\n      0xffffffffffffffffffffffffffffffffffffffff\n      and\n        /* \"@openzeppelin/contracts/token/ERC721/ERC721.sol\":6027:6058  return _tokenApprovals[tokenId] */\n      swap1\n      pop\n        /* \"@openzeppelin/contracts/token/ERC721/ERC721.sol\":5938:6065  function _getApproved(uint256 tokenId) internal view virtual returns (address) {... */\n      swap2\n      swap1\n      pop\n      jump\t// out\n        /* \"@openzeppelin/contracts/utils/Context.sol\":656:752  function _msgSender() internal view virtual returns (address) {... */\n    tag_131:\n        /* \"@openzeppelin/contracts/utils/Context.sol\":709:716  address */\n      0x00\n        /* \"@openzeppelin/contracts/utils/Context.sol\":735:745  msg.sender */\n      caller\n        /* \"@openzeppelin/contracts/utils/Context.sol\":728:745  return msg.sender */\n      swap1\n      pop\n        /* \"@openzeppelin/contracts/utils/Context.sol\":656:752  function _msgSender() internal view virtual returns (address) {... */\n      swap1\n      jump\t// out\n        /* \"@openzeppelin/contracts/token/ERC721/ERC721.sol\":14418:14538  function _approve(address to, uint256 tokenId, address auth) internal {... */\n    tag_132:\n        /* \"@openzeppelin/contracts/token/ERC721/ERC721.sol\":14498:14531  _approve(to, tokenId, auth, true) */\n      tag_219\n        /* \"@openzeppelin/contracts/token/ERC721/ERC721.sol\":14507:14509  to */\n      dup4\n        /* \"@openzeppelin/contracts/token/ERC721/ERC721.sol\":14511:14518  tokenId */\n      dup4\n        /* \"@openzeppelin/contracts/token/ERC721/ERC721.sol\":14520:14524  auth */\n      dup4\n        /* \"@openzeppelin/contracts/token/ERC721/ERC721.sol\":14526:14530  true */\n      0x01\n        /* \"@openzeppelin/contracts/token/ERC721/ERC721.sol\":14498:14506  _approve */\n      tag_220\n        /* \"@openzeppelin/contracts/token/ERC721/ERC721.sol\":14498:14531  _approve(to, tokenId, auth, true) */\n      jump\t// in\n    tag_219:\n        /* \"@openzeppelin/contracts/token/ERC721/ERC721.sol\":14418:14538  function _approve(address to, uint256 tokenId, address auth) internal {... */\n      pop\n      pop\n      pop\n      jump\t// out\n        /* \"@openzeppelin/contracts/token/ERC721/ERC721.sol\":4143:4721  function transferFrom(address from, address to, uint256 tokenId) public virtual {... */\n    tag_138:\n        /* \"@openzeppelin/contracts/token/ERC721/ERC721.sol\":4251:4252  0 */\n      0x00\n        /* \"@openzeppelin/contracts/token/ERC721/ERC721.sol\":4237:4253  to == address(0) */\n      0xffffffffffffffffffffffffffffffffffffffff\n      and\n        /* \"@openzeppelin/contracts/token/ERC721/ERC721.sol\":4237:4239  to */\n      dup3\n        /* \"@openzeppelin/contracts/token/ERC721/ERC721.sol\":4237:4253  to == address(0) */\n      0xffffffffffffffffffffffffffffffffffffffff\n      and\n      sub\n        /* \"@openzeppelin/contracts/token/ERC721/ERC721.sol\":4233:4320  if (to == address(0)) {... */\n      tag_222\n      jumpi\n        /* \"@openzeppelin/contracts/token/ERC721/ERC721.sol\":4306:4307  0 */\n      0x00\n        /* \"@openzeppelin/contracts/token/ERC721/ERC721.sol\":4276:4309  ERC721InvalidReceiver(address(0)) */\n      mload(0x40)\n      0x64a0ae9200000000000000000000000000000000000000000000000000000000\n      dup2\n      mstore\n      0x04\n      add\n      tag_223\n      swap2\n      swap1\n      tag_44\n      jump\t// in\n    tag_223:\n      mload(0x40)\n      dup1\n      swap2\n      sub\n      swap1\n      revert\n        /* \"@openzeppelin/contracts/token/ERC721/ERC721.sol\":4233:4320  if (to == address(0)) {... */\n    tag_222:\n        /* \"@openzeppelin/contracts/token/ERC721/ERC721.sol\":4538:4559  address previousOwner */\n      0x00\n        /* \"@openzeppelin/contracts/token/ERC721/ERC721.sol\":4562:4596  _update(to, tokenId, _msgSender()) */\n      tag_224\n        /* \"@openzeppelin/contracts/token/ERC721/ERC721.sol\":4570:4572  to */\n      dup4\n        /* \"@openzeppelin/contracts/token/ERC721/ERC721.sol\":4574:4581  tokenId */\n      dup4\n        /* \"@openzeppelin/contracts/token/ERC721/ERC721.sol\":4583:4595  _msgSender() */\n      tag_225\n        /* \"@openzeppelin/contracts/token/ERC721/ERC721.sol\":4583:4593  _msgSender */\n      tag_131\n        /* \"@openzeppelin/contracts/token/ERC721/ERC721.sol\":4583:4595  _msgSender() */\n      jump\t// in\n    tag_225:\n        /* \"@openzeppelin/contracts/token/ERC721/ERC721.sol\":4562:4569  _update */\n      tag_226\n        /* \"@openzeppelin/contracts/token/ERC721/ERC721.sol\":4562:4596  _update(to, tokenId, _msgSender()) */\n      jump\t// in\n    tag_224:\n        /* \"@openzeppelin/contracts/token/ERC721/ERC721.sol\":4538:4596  address previousOwner = _update(to, tokenId, _msgSender()) */\n      swap1\n      pop\n        /* \"@openzeppelin/contracts/token/ERC721/ERC721.sol\":4627:4631  from */\n      dup4\n        /* \"@openzeppelin/contracts/token/ERC721/ERC721.sol\":4610:4631  previousOwner != from */\n      0xffffffffffffffffffffffffffffffffffffffff\n      and\n        /* \"@openzeppelin/contracts/token/ERC721/ERC721.sol\":4610:4623  previousOwner */\n      dup2\n        /* \"@openzeppelin/contracts/token/ERC721/ERC721.sol\":4610:4631  previousOwner != from */\n      0xffffffffffffffffffffffffffffffffffffffff\n      and\n      eq\n        /* \"@openzeppelin/contracts/token/ERC721/ERC721.sol\":4606:4715  if (previousOwner != from) {... */\n      tag_227\n      jumpi\n        /* \"@openzeppelin/contracts/token/ERC721/ERC721.sol\":4675:4679  from */\n      dup4\n        /* \"@openzeppelin/contracts/token/ERC721/ERC721.sol\":4681:4688  tokenId */\n      dup3\n        /* \"@openzeppelin/contracts/token/ERC721/ERC721.sol\":4690:4703  previousOwner */\n      dup3\n        /* \"@openzeppelin/contracts/token/ERC721/ERC721.sol\":4654:4704  ERC721IncorrectOwner(from, tokenId, previousOwner) */\n      mload(0x40)\n      0x64283d7b00000000000000000000000000000000000000000000000000000000\n      dup2\n      mstore\n      0x04\n      add\n      tag_228\n      swap4\n      swap3\n      swap2\n      swap1\n      tag_229\n      jump\t// in\n    tag_228:\n      mload(0x40)\n      dup1\n      swap2\n      sub\n      swap1\n      revert\n        /* \"@openzeppelin/contracts/token/ERC721/ERC721.sol\":4606:4715  if (previousOwner != from) {... */\n    tag_227:\n        /* \"@openzeppelin/contracts/token/ERC721/ERC721.sol\":4223:4721  {... */\n      pop\n        /* \"@openzeppelin/contracts/token/ERC721/ERC721.sol\":4143:4721  function transferFrom(address from, address to, uint256 tokenId) public virtual {... */\n      pop\n      pop\n      pop\n      jump\t// out\n        /* \"@openzeppelin/contracts/access/Ownable.sol\":1796:1958  function _checkOwner() internal view virtual {... */\n    tag_148:\n        /* \"@openzeppelin/contracts/access/Ownable.sol\":1866:1878  _msgSender() */\n      tag_231\n        /* \"@openzeppelin/contracts/access/Ownable.sol\":1866:1876  _msgSender */\n      tag_131\n        /* \"@openzeppelin/contracts/access/Ownable.sol\":1866:1878  _msgSender() */\n      jump\t// in\n    tag_231:\n        /* \"@openzeppelin/contracts/access/Ownable.sol\":1855:1878  owner() != _msgSender() */\n      0xffffffffffffffffffffffffffffffffffffffff\n      and\n        /* \"@openzeppelin/contracts/access/Ownable.sol\":1855:1862  owner() */\n      tag_232\n        /* \"@openzeppelin/contracts/access/Ownable.sol\":1855:1860  owner */\n      tag_76\n        /* \"@openzeppelin/contracts/access/Ownable.sol\":1855:1862  owner() */\n      jump\t// in\n    tag_232:\n        /* \"@openzeppelin/contracts/access/Ownable.sol\":1855:1878  owner() != _msgSender() */\n      0xffffffffffffffffffffffffffffffffffffffff\n      and\n      eq\n        /* \"@openzeppelin/contracts/access/Ownable.sol\":1851:1952  if (owner() != _msgSender()) {... */\n      tag_233\n      jumpi\n        /* \"@openzeppelin/contracts/access/Ownable.sol\":1928:1940  _msgSender() */\n      tag_234\n        /* \"@openzeppelin/contracts/access/Ownable.sol\":1928:1938  _msgSender */\n      tag_131\n        /* \"@openzeppelin/contracts/access/Ownable.sol\":1928:1940  _msgSender() */\n      jump\t// in\n    tag_234:\n        /* \"@openzeppelin/contracts/access/Ownable.sol\":1901:1941  OwnableUnauthorizedAccount(_msgSender()) */\n      mload(0x40)\n      0x118cdaa700000000000000000000000000000000000000000000000000000000\n      dup2\n      mstore\n      0x04\n      add\n      tag_235\n      swap2\n      swap1\n      tag_44\n      jump\t// in\n    tag_235:\n      mload(0x40)\n      dup1\n      swap2\n      sub\n      swap1\n      revert\n        /* \"@openzeppelin/contracts/access/Ownable.sol\":1851:1952  if (owner() != _msgSender()) {... */\n    tag_233:\n        /* \"@openzeppelin/contracts/access/Ownable.sol\":1796:1958  function _checkOwner() internal view virtual {... */\n      jump\t// out\n        /* \"@openzeppelin/contracts/access/Ownable.sol\":2912:3099  function _transferOwnership(address newOwner) internal virtual {... */\n    tag_151:\n        /* \"@openzeppelin/contracts/access/Ownable.sol\":2985:3001  address oldOwner */\n      0x00\n        /* \"@openzeppelin/contracts/access/Ownable.sol\":3004:3010  _owner */\n      0x06\n      0x00\n      swap1\n      sload\n      swap1\n      0x0100\n      exp\n      swap1\n      div\n      0xffffffffffffffffffffffffffffffffffffffff\n      and\n        /* \"@openzeppelin/contracts/access/Ownable.sol\":2985:3010  address oldOwner = _owner */\n      swap1\n      pop\n        /* \"@openzeppelin/contracts/access/Ownable.sol\":3029:3037  newOwner */\n      dup2\n        /* \"@openzeppelin/contracts/access/Ownable.sol\":3020:3026  _owner */\n      0x06\n      0x00\n        /* \"@openzeppelin/contracts/access/Ownable.sol\":3020:3037  _owner = newOwner */\n      0x0100\n      exp\n      dup2\n      sload\n      dup2\n      0xffffffffffffffffffffffffffffffffffffffff\n      mul\n      not\n      and\n      swap1\n      dup4\n      0xffffffffffffffffffffffffffffffffffffffff\n      and\n      mul\n      or\n      swap1\n      sstore\n      pop\n        /* \"@openzeppelin/contracts/access/Ownable.sol\":3083:3091  newOwner */\n      dup2\n        /* \"@openzeppelin/contracts/access/Ownable.sol\":3052:3092  OwnershipTransferred(oldOwner, newOwner) */\n      0xffffffffffffffffffffffffffffffffffffffff\n      and\n        /* \"@openzeppelin/contracts/access/Ownable.sol\":3073:3081  oldOwner */\n      dup2\n        /* \"@openzeppelin/contracts/access/Ownable.sol\":3052:3092  OwnershipTransferred(oldOwner, newOwner) */\n      0xffffffffffffffffffffffffffffffffffffffff\n      and\n      0x8be0079c531659141344cd1fd0a4f28419497f9722a3daafe3b4186f6b6457e0\n      mload(0x40)\n      mload(0x40)\n      dup1\n      swap2\n      sub\n      swap1\n      log3\n        /* \"@openzeppelin/contracts/access/Ownable.sol\":2975:3099  {... */\n      pop\n        /* \"@openzeppelin/contracts/access/Ownable.sol\":2912:3099  function _transferOwnership(address newOwner) internal virtual {... */\n      pop\n      jump\t// out\n        /* \"@openzeppelin/contracts/token/ERC721/ERC721.sol\":9955:10282  function _mint(address to, uint256 tokenId) internal {... */\n    tag_176:\n        /* \"@openzeppelin/contracts/token/ERC721/ERC721.sol\":10036:10037  0 */\n      0x00\n        /* \"@openzeppelin/contracts/token/ERC721/ERC721.sol\":10022:10038  to == address(0) */\n      0xffffffffffffffffffffffffffffffffffffffff\n      and\n        /* \"@openzeppelin/contracts/token/ERC721/ERC721.sol\":10022:10024  to */\n      dup3\n        /* \"@openzeppelin/contracts/token/ERC721/ERC721.sol\":10022:10038  to == address(0) */\n      0xffffffffffffffffffffffffffffffffffffffff\n      and\n      sub\n        /* \"@openzeppelin/contracts/token/ERC721/ERC721.sol\":10018:10105  if (to == address(0)) {... */\n      tag_238\n      jumpi\n        /* \"@openzeppelin/contracts/token/ERC721/ERC721.sol\":10091:10092  0 */\n      0x00\n        /* \"@openzeppelin/contracts/token/ERC721/ERC721.sol\":10061:10094  ERC721InvalidReceiver(address(0)) */\n      mload(0x40)\n      0x64a0ae9200000000000000000000000000000000000000000000000000000000\n      dup2\n      mstore\n      0x04\n      add\n      tag_239\n      swap2\n      swap1\n      tag_44\n      jump\t// in\n    tag_239:\n      mload(0x40)\n      dup1\n      swap2\n      sub\n      swap1\n      revert\n        /* \"@openzeppelin/contracts/token/ERC721/ERC721.sol\":10018:10105  if (to == address(0)) {... */\n    tag_238:\n        /* \"@openzeppelin/contracts/token/ERC721/ERC721.sol\":10114:10135  address previousOwner */\n      0x00\n        /* \"@openzeppelin/contracts/token/ERC721/ERC721.sol\":10138:10170  _update(to, tokenId, address(0)) */\n      tag_240\n        /* \"@openzeppelin/contracts/token/ERC721/ERC721.sol\":10146:10148  to */\n      dup4\n        /* \"@openzeppelin/contracts/token/ERC721/ERC721.sol\":10150:10157  tokenId */\n      dup4\n        /* \"@openzeppelin/contracts/token/ERC721/ERC721.sol\":10167:10168  0 */\n      0x00\n        /* \"@openzeppelin/contracts/token/ERC721/ERC721.sol\":10138:10145  _update */\n      tag_226\n        /* \"@openzeppelin/contracts/token/ERC721/ERC721.sol\":10138:10170  _update(to, tokenId, address(0)) */\n      jump\t// in\n    tag_240:\n        /* \"@openzeppelin/contracts/token/ERC721/ERC721.sol\":10114:10170  address previousOwner = _update(to, tokenId, address(0)) */\n      swap1\n      pop\n        /* \"@openzeppelin/contracts/token/ERC721/ERC721.sol\":10209:10210  0 */\n      0x00\n        /* \"@openzeppelin/contracts/token/ERC721/ERC721.sol\":10184:10211  previousOwner != address(0) */\n      0xffffffffffffffffffffffffffffffffffffffff\n      and\n        /* \"@openzeppelin/contracts/token/ERC721/ERC721.sol\":10184:10197  previousOwner */\n      dup2\n        /* \"@openzeppelin/contracts/token/ERC721/ERC721.sol\":10184:10211  previousOwner != address(0) */\n      0xffffffffffffffffffffffffffffffffffffffff\n      and\n      eq\n        /* \"@openzeppelin/contracts/token/ERC721/ERC721.sol\":10180:10276  if (previousOwner != address(0)) {... */\n      tag_241\n      jumpi\n        /* \"@openzeppelin/contracts/token/ERC721/ERC721.sol\":10262:10263  0 */\n      0x00\n        /* \"@openzeppelin/contracts/token/ERC721/ERC721.sol\":10234:10265  ERC721InvalidSender(address(0)) */\n      mload(0x40)\n      0x73c6ac6e00000000000000000000000000000000000000000000000000000000\n      dup2\n      mstore\n      0x04\n      add\n      tag_242\n      swap2\n      swap1\n      tag_44\n      jump\t// in\n    tag_242:\n      mload(0x40)\n      dup1\n      swap2\n      sub\n      swap1\n      revert\n        /* \"@openzeppelin/contracts/token/ERC721/ERC721.sol\":10180:10276  if (previousOwner != address(0)) {... */\n    tag_241:\n        /* \"@openzeppelin/contracts/token/ERC721/ERC721.sol\":10008:10282  {... */\n      pop\n        /* \"@openzeppelin/contracts/token/ERC721/ERC721.sol\":9955:10282  function _mint(address to, uint256 tokenId) internal {... */\n      pop\n      pop\n      jump\t// out\n        /* \"@openzeppelin/contracts/token/ERC721/ERC721.sol\":15591:15903  function _setApprovalForAll(address owner, address operator, bool approved) internal virtual {... */\n    tag_187:\n        /* \"@openzeppelin/contracts/token/ERC721/ERC721.sol\":15718:15719  0 */\n      0x00\n        /* \"@openzeppelin/contracts/token/ERC721/ERC721.sol\":15698:15720  operator == address(0) */\n      0xffffffffffffffffffffffffffffffffffffffff\n      and\n        /* \"@openzeppelin/contracts/token/ERC721/ERC721.sol\":15698:15706  operator */\n      dup3\n        /* \"@openzeppelin/contracts/token/ERC721/ERC721.sol\":15698:15720  operator == address(0) */\n      0xffffffffffffffffffffffffffffffffffffffff\n      and\n      sub\n        /* \"@openzeppelin/contracts/token/ERC721/ERC721.sol\":15694:15785  if (operator == address(0)) {... */\n      tag_244\n      jumpi\n        /* \"@openzeppelin/contracts/token/ERC721/ERC721.sol\":15765:15773  operator */\n      dup2\n        /* \"@openzeppelin/contracts/token/ERC721/ERC721.sol\":15743:15774  ERC721InvalidOperator(operator) */\n      mload(0x40)\n      0x5b08ba1800000000000000000000000000000000000000000000000000000000\n      dup2\n      mstore\n      0x04\n      add\n      tag_245\n      swap2\n      swap1\n      tag_44\n      jump\t// in\n    tag_245:\n      mload(0x40)\n      dup1\n      swap2\n      sub\n      swap1\n      revert\n        /* \"@openzeppelin/contracts/token/ERC721/ERC721.sol\":15694:15785  if (operator == address(0)) {... */\n    tag_244:\n        /* \"@openzeppelin/contracts/token/ERC721/ERC721.sol\":15832:15840  approved */\n      dup1\n        /* \"@openzeppelin/contracts/token/ERC721/ERC721.sol\":15794:15812  _operatorApprovals */\n      0x05\n        /* \"@openzeppelin/contracts/token/ERC721/ERC721.sol\":15794:15819  _operatorApprovals[owner] */\n      0x00\n        /* \"@openzeppelin/contracts/token/ERC721/ERC721.sol\":15813:15818  owner */\n      dup6\n        /* \"@openzeppelin/contracts/token/ERC721/ERC721.sol\":15794:15819  _operatorApprovals[owner] */\n      0xffffffffffffffffffffffffffffffffffffffff\n      and\n      0xffffffffffffffffffffffffffffffffffffffff\n      and\n      dup2\n      mstore\n      0x20\n      add\n      swap1\n      dup2\n      mstore\n      0x20\n      add\n      0x00\n      keccak256\n        /* \"@openzeppelin/contracts/token/ERC721/ERC721.sol\":15794:15829  _operatorApprovals[owner][operator] */\n      0x00\n        /* \"@openzeppelin/contracts/token/ERC721/ERC721.sol\":15820:15828  operator */\n      dup5\n        /* \"@openzeppelin/contracts/token/ERC721/ERC721.sol\":15794:15829  _operatorApprovals[owner][operator] */\n      0xffffffffffffffffffffffffffffffffffffffff\n      and\n      0xffffffffffffffffffffffffffffffffffffffff\n      and\n      dup2\n      mstore\n      0x20\n      add\n      swap1\n      dup2\n      mstore\n      0x20\n      add\n      0x00\n      keccak256\n      0x00\n        /* \"@openzeppelin/contracts/token/ERC721/ERC721.sol\":15794:15840  _operatorApprovals[owner][operator] = approved */\n      0x0100\n      exp\n      dup2\n      sload\n      dup2\n      0xff\n      mul\n      not\n      and\n      swap1\n      dup4\n      iszero\n      iszero\n      mul\n      or\n      swap1\n      sstore\n      pop\n        /* \"@openzeppelin/contracts/token/ERC721/ERC721.sol\":15877:15885  operator */\n      dup2\n        /* \"@openzeppelin/contracts/token/ERC721/ERC721.sol\":15855:15896  ApprovalForAll(owner, operator, approved) */\n      0xffffffffffffffffffffffffffffffffffffffff\n      and\n        /* \"@openzeppelin/contracts/token/ERC721/ERC721.sol\":15870:15875  owner */\n      dup4\n        /* \"@openzeppelin/contracts/token/ERC721/ERC721.sol\":15855:15896  ApprovalForAll(owner, operator, approved) */\n      0xffffffffffffffffffffffffffffffffffffffff\n      and\n      0x17307eab39ab6107e8899845ad3d59bd9653f200f220920489ca2b5937696c31\n        /* \"@openzeppelin/contracts/token/ERC721/ERC721.sol\":15887:15895  approved */\n      dup4\n        /* \"@openzeppelin/contracts/token/ERC721/ERC721.sol\":15855:15896  ApprovalForAll(owner, operator, approved) */\n      mload(0x40)\n      tag_246\n      swap2\n      swap1\n      tag_30\n      jump\t// in\n    tag_246:\n      mload(0x40)\n      dup1\n      swap2\n      sub\n      swap1\n      log3\n        /* \"@openzeppelin/contracts/token/ERC721/ERC721.sol\":15591:15903  function _setApprovalForAll(address owner, address operator, bool approved) internal virtual {... */\n      pop\n      pop\n      pop\n      jump\t// out\n        /* \"@openzeppelin/contracts/token/ERC721/ERC721.sol\":4985:5193  function safeTransferFrom(address from, address to, uint256 tokenId, bytes memory data) public virtual {... */\n    tag_192:\n        /* \"@openzeppelin/contracts/token/ERC721/ERC721.sol\":5098:5129  transferFrom(from, to, tokenId) */\n      tag_248\n        /* \"@openzeppelin/contracts/token/ERC721/ERC721.sol\":5111:5115  from */\n      dup5\n        /* \"@openzeppelin/contracts/token/ERC721/ERC721.sol\":5117:5119  to */\n      dup5\n        /* \"@openzeppelin/contracts/token/ERC721/ERC721.sol\":5121:5128  tokenId */\n      dup5\n        /* \"@openzeppelin/contracts/token/ERC721/ERC721.sol\":5098:5110  transferFrom */\n      tag_52\n        /* \"@openzeppelin/contracts/token/ERC721/ERC721.sol\":5098:5129  transferFrom(from, to, tokenId) */\n      jump\t// in\n    tag_248:\n        /* \"@openzeppelin/contracts/token/ERC721/ERC721.sol\":5139:5186  _checkOnERC721Received(from, to, tokenId, data) */\n      tag_249\n        /* \"@openzeppelin/contracts/token/ERC721/ERC721.sol\":5162:5166  from */\n      dup5\n        /* \"@openzeppelin/contracts/token/ERC721/ERC721.sol\":5168:5170  to */\n      dup5\n        /* \"@openzeppelin/contracts/token/ERC721/ERC721.sol\":5172:5179  tokenId */\n      dup5\n        /* \"@openzeppelin/contracts/token/ERC721/ERC721.sol\":5181:5185  data */\n      dup5\n        /* \"@openzeppelin/contracts/token/ERC721/ERC721.sol\":5139:5161  _checkOnERC721Received */\n      tag_250\n        /* \"@openzeppelin/contracts/token/ERC721/ERC721.sol\":5139:5186  _checkOnERC721Received(from, to, tokenId, data) */\n      jump\t// in\n    tag_249:\n        /* \"@openzeppelin/contracts/token/ERC721/ERC721.sol\":4985:5193  function safeTransferFrom(address from, address to, uint256 tokenId, bytes memory data) public virtual {... */\n      pop\n      pop\n      pop\n      pop\n      jump\t// out\n        /* \"contracts/AkiNoTsuyuKuraNoKodawari.sol\":1653:1835  function _baseURI() internal pure override returns (string memory) {... */\n    tag_196:\n        /* \"contracts/AkiNoTsuyuKuraNoKodawari.sol\":1705:1718  string memory */\n      0x60\n        /* \"contracts/AkiNoTsuyuKuraNoKodawari.sol\":1730:1828  return \"https://bafybeiaxopcslh4hzsdcw2z6jlvuls2bnr6iweq6bckg2nn5cja6izigjy.ipfs.nftstorage.link/\" */\n      mload(0x40)\n      dup1\n      0x80\n      add\n      0x40\n      mstore\n      dup1\n      0x59\n      dup2\n      mstore\n      0x20\n      add\n      data_5527595147fc49e1883d568742b73c73bcee5fae54ca092b6875f687fd33f412\n      0x59\n      swap2\n      codecopy\n      swap1\n      pop\n        /* \"contracts/AkiNoTsuyuKuraNoKodawari.sol\":1653:1835  function _baseURI() internal pure override returns (string memory) {... */\n      swap1\n      jump\t// out\n        /* \"@openzeppelin/contracts/utils/Strings.sol\":637:1335  function toString(uint256 value) internal pure returns (string memory) {... */\n    tag_200:\n        /* \"@openzeppelin/contracts/utils/Strings.sol\":693:706  string memory */\n      0x60\n        /* \"@openzeppelin/contracts/utils/Strings.sol\":742:756  uint256 length */\n      0x00\n        /* \"@openzeppelin/contracts/utils/Strings.sol\":779:780  1 */\n      0x01\n        /* \"@openzeppelin/contracts/utils/Strings.sol\":759:776  Math.log10(value) */\n      tag_253\n        /* \"@openzeppelin/contracts/utils/Strings.sol\":770:775  value */\n      dup5\n        /* \"@openzeppelin/contracts/utils/Strings.sol\":759:769  Math.log10 */\n      tag_254\n        /* \"@openzeppelin/contracts/utils/Strings.sol\":759:776  Math.log10(value) */\n      jump\t// in\n    tag_253:\n        /* \"@openzeppelin/contracts/utils/Strings.sol\":759:780  Math.log10(value) + 1 */\n      add\n        /* \"@openzeppelin/contracts/utils/Strings.sol\":742:780  uint256 length = Math.log10(value) + 1 */\n      swap1\n      pop\n        /* \"@openzeppelin/contracts/utils/Strings.sol\":794:814  string memory buffer */\n      0x00\n        /* \"@openzeppelin/contracts/utils/Strings.sol\":828:834  length */\n      dup2\n        /* \"@openzeppelin/contracts/utils/Strings.sol\":817:835  new string(length) */\n      0xffffffffffffffff\n      dup2\n      gt\n      iszero\n      tag_255\n      jumpi\n      tag_256\n      tag_257\n      jump\t// in\n    tag_256:\n    tag_255:\n      mload(0x40)\n      swap1\n      dup1\n      dup3\n      mstore\n      dup1\n      0x1f\n      add\n      not(0x1f)\n      and\n      0x20\n      add\n      dup3\n      add\n      0x40\n      mstore\n      dup1\n      iszero\n      tag_258\n      jumpi\n      dup2\n      0x20\n      add\n      0x01\n      dup3\n      mul\n      dup1\n      calldatasize\n      dup4\n      calldatacopy\n      dup1\n      dup3\n      add\n      swap2\n      pop\n      pop\n      swap1\n      pop\n    tag_258:\n      pop\n        /* \"@openzeppelin/contracts/utils/Strings.sol\":794:835  string memory buffer = new string(length) */\n      swap1\n      pop\n        /* \"@openzeppelin/contracts/utils/Strings.sol\":849:860  uint256 ptr */\n      0x00\n        /* \"@openzeppelin/contracts/utils/Strings.sol\":975:981  length */\n      dup3\n        /* \"@openzeppelin/contracts/utils/Strings.sol\":971:973  32 */\n      0x20\n        /* \"@openzeppelin/contracts/utils/Strings.sol\":967:982  add(32, length) */\n      add\n        /* \"@openzeppelin/contracts/utils/Strings.sol\":959:965  buffer */\n      dup3\n        /* \"@openzeppelin/contracts/utils/Strings.sol\":955:983  add(buffer, add(32, length)) */\n      add\n        /* \"@openzeppelin/contracts/utils/Strings.sol\":948:983  ptr := add(buffer, add(32, length)) */\n      swap1\n      pop\n        /* \"@openzeppelin/contracts/utils/Strings.sol\":1010:1292  while (true) {... */\n    tag_259:\n        /* \"@openzeppelin/contracts/utils/Strings.sol\":1017:1021  true */\n      0x01\n        /* \"@openzeppelin/contracts/utils/Strings.sol\":1010:1292  while (true) {... */\n      iszero\n      tag_260\n      jumpi\n        /* \"@openzeppelin/contracts/utils/Strings.sol\":1041:1046  ptr-- */\n      dup1\n      dup1\n      0x01\n      swap1\n      sub\n      swap2\n      pop\n      pop\n        /* \"@openzeppelin/contracts/utils/Strings.sol\":1180:1190  HEX_DIGITS */\n      0x3031323334353637383961626364656600000000000000000000000000000000\n        /* \"@openzeppelin/contracts/utils/Strings.sol\":1175:1177  10 */\n      0x0a\n        /* \"@openzeppelin/contracts/utils/Strings.sol\":1168:1173  value */\n      dup7\n        /* \"@openzeppelin/contracts/utils/Strings.sol\":1164:1178  mod(value, 10) */\n      mod\n        /* \"@openzeppelin/contracts/utils/Strings.sol\":1159:1191  byte(mod(value, 10), HEX_DIGITS) */\n      byte\n        /* \"@openzeppelin/contracts/utils/Strings.sol\":1154:1157  ptr */\n      dup2\n        /* \"@openzeppelin/contracts/utils/Strings.sol\":1146:1192  mstore8(ptr, byte(mod(value, 10), HEX_DIGITS)) */\n      mstore8\n        /* \"@openzeppelin/contracts/utils/Strings.sol\":1236:1238  10 */\n      0x0a\n        /* \"@openzeppelin/contracts/utils/Strings.sol\":1227:1238  value /= 10 */\n      dup6\n      dup2\n      tag_261\n      jumpi\n      tag_262\n      tag_263\n      jump\t// in\n    tag_262:\n    tag_261:\n      div\n      swap5\n      pop\n        /* \"@openzeppelin/contracts/utils/Strings.sol\":1269:1270  0 */\n      0x00\n        /* \"@openzeppelin/contracts/utils/Strings.sol\":1260:1265  value */\n      dup6\n        /* \"@openzeppelin/contracts/utils/Strings.sol\":1260:1270  value == 0 */\n      sub\n        /* \"@openzeppelin/contracts/utils/Strings.sol\":1010:1292  while (true) {... */\n      tag_259\n        /* \"@openzeppelin/contracts/utils/Strings.sol\":1256:1277  if (value == 0) break */\n      jumpi\n        /* \"@openzeppelin/contracts/utils/Strings.sol\":1010:1292  while (true) {... */\n    tag_260:\n        /* \"@openzeppelin/contracts/utils/Strings.sol\":1312:1318  buffer */\n      dup2\n        /* \"@openzeppelin/contracts/utils/Strings.sol\":1305:1318  return buffer */\n      swap4\n      pop\n      pop\n      pop\n      pop\n        /* \"@openzeppelin/contracts/utils/Strings.sol\":637:1335  function toString(uint256 value) internal pure returns (string memory) {... */\n      swap2\n      swap1\n      pop\n      jump\t// out\n        /* \"@openzeppelin/contracts/token/ERC721/ERC721.sol\":5707:5822  function _ownerOf(uint256 tokenId) internal view virtual returns (address) {... */\n    tag_213:\n        /* \"@openzeppelin/contracts/token/ERC721/ERC721.sol\":5773:5780  address */\n      0x00\n        /* \"@openzeppelin/contracts/token/ERC721/ERC721.sol\":5799:5806  _owners */\n      0x02\n        /* \"@openzeppelin/contracts/token/ERC721/ERC721.sol\":5799:5815  _owners[tokenId] */\n      0x00\n        /* \"@openzeppelin/contracts/token/ERC721/ERC721.sol\":5807:5814  tokenId */\n      dup4\n        /* \"@openzeppelin/contracts/token/ERC721/ERC721.sol\":5799:5815  _owners[tokenId] */\n      dup2\n      mstore\n      0x20\n      add\n      swap1\n      dup2\n      mstore\n      0x20\n      add\n      0x00\n      keccak256\n      0x00\n      swap1\n      sload\n      swap1\n      0x0100\n      exp\n      swap1\n      div\n      0xffffffffffffffffffffffffffffffffffffffff\n      and\n        /* \"@openzeppelin/contracts/token/ERC721/ERC721.sol\":5792:5815  return _owners[tokenId] */\n      swap1\n      pop\n        /* \"@openzeppelin/contracts/token/ERC721/ERC721.sol\":5707:5822  function _ownerOf(uint256 tokenId) internal view virtual returns (address) {... */\n      swap2\n      swap1\n      pop\n      jump\t// out\n        /* \"@openzeppelin/contracts/token/ERC721/ERC721.sol\":14720:15382  function _approve(address to, uint256 tokenId, address auth, bool emitEvent) internal virtual {... */\n    tag_220:\n        /* \"@openzeppelin/contracts/token/ERC721/ERC721.sol\":14880:14889  emitEvent */\n      dup1\n        /* \"@openzeppelin/contracts/token/ERC721/ERC721.sol\":14880:14911  emitEvent || auth != address(0) */\n      dup1\n      tag_267\n      jumpi\n      pop\n        /* \"@openzeppelin/contracts/token/ERC721/ERC721.sol\":14909:14910  0 */\n      0x00\n        /* \"@openzeppelin/contracts/token/ERC721/ERC721.sol\":14893:14911  auth != address(0) */\n      0xffffffffffffffffffffffffffffffffffffffff\n      and\n        /* \"@openzeppelin/contracts/token/ERC721/ERC721.sol\":14893:14897  auth */\n      dup3\n        /* \"@openzeppelin/contracts/token/ERC721/ERC721.sol\":14893:14911  auth != address(0) */\n      0xffffffffffffffffffffffffffffffffffffffff\n      and\n      eq\n      iszero\n        /* \"@openzeppelin/contracts/token/ERC721/ERC721.sol\":14880:14911  emitEvent || auth != address(0) */\n    tag_267:\n        /* \"@openzeppelin/contracts/token/ERC721/ERC721.sol\":14876:15336  if (emitEvent || auth != address(0)) {... */\n      iszero\n      tag_268\n      jumpi\n        /* \"@openzeppelin/contracts/token/ERC721/ERC721.sol\":14927:14940  address owner */\n      0x00\n        /* \"@openzeppelin/contracts/token/ERC721/ERC721.sol\":14943:14965  _requireOwned(tokenId) */\n      tag_269\n        /* \"@openzeppelin/contracts/token/ERC721/ERC721.sol\":14957:14964  tokenId */\n      dup5\n        /* \"@openzeppelin/contracts/token/ERC721/ERC721.sol\":14943:14956  _requireOwned */\n      tag_125\n        /* \"@openzeppelin/contracts/token/ERC721/ERC721.sol\":14943:14965  _requireOwned(tokenId) */\n      jump\t// in\n    tag_269:\n        /* \"@openzeppelin/contracts/token/ERC721/ERC721.sol\":14927:14965  address owner = _requireOwned(tokenId) */\n      swap1\n      pop\n        /* \"@openzeppelin/contracts/token/ERC721/ERC721.sol\":15109:15110  0 */\n      0x00\n        /* \"@openzeppelin/contracts/token/ERC721/ERC721.sol\":15093:15111  auth != address(0) */\n      0xffffffffffffffffffffffffffffffffffffffff\n      and\n        /* \"@openzeppelin/contracts/token/ERC721/ERC721.sol\":15093:15097  auth */\n      dup4\n        /* \"@openzeppelin/contracts/token/ERC721/ERC721.sol\":15093:15111  auth != address(0) */\n      0xffffffffffffffffffffffffffffffffffffffff\n      and\n      eq\n      iszero\n        /* \"@openzeppelin/contracts/token/ERC721/ERC721.sol\":15093:15128  auth != address(0) && owner != auth */\n      dup1\n      iszero\n      tag_270\n      jumpi\n      pop\n        /* \"@openzeppelin/contracts/token/ERC721/ERC721.sol\":15124:15128  auth */\n      dup3\n        /* \"@openzeppelin/contracts/token/ERC721/ERC721.sol\":15115:15128  owner != auth */\n      0xffffffffffffffffffffffffffffffffffffffff\n      and\n        /* \"@openzeppelin/contracts/token/ERC721/ERC721.sol\":15115:15120  owner */\n      dup2\n        /* \"@openzeppelin/contracts/token/ERC721/ERC721.sol\":15115:15128  owner != auth */\n      0xffffffffffffffffffffffffffffffffffffffff\n      and\n      eq\n      iszero\n        /* \"@openzeppelin/contracts/token/ERC721/ERC721.sol\":15093:15128  auth != address(0) && owner != auth */\n    tag_270:\n        /* \"@openzeppelin/contracts/token/ERC721/ERC721.sol\":15093:15162  auth != address(0) && owner != auth && !isApprovedForAll(owner, auth) */\n      dup1\n      iszero\n      tag_271\n      jumpi\n      pop\n        /* \"@openzeppelin/contracts/token/ERC721/ERC721.sol\":15133:15162  isApprovedForAll(owner, auth) */\n      tag_272\n        /* \"@openzeppelin/contracts/token/ERC721/ERC721.sol\":15150:15155  owner */\n      dup2\n        /* \"@openzeppelin/contracts/token/ERC721/ERC721.sol\":15157:15161  auth */\n      dup5\n        /* \"@openzeppelin/contracts/token/ERC721/ERC721.sol\":15133:15149  isApprovedForAll */\n      tag_96\n        /* \"@openzeppelin/contracts/token/ERC721/ERC721.sol\":15133:15162  isApprovedForAll(owner, auth) */\n      jump\t// in\n    tag_272:\n        /* \"@openzeppelin/contracts/token/ERC721/ERC721.sol\":15132:15162  !isApprovedForAll(owner, auth) */\n      iszero\n        /* \"@openzeppelin/contracts/token/ERC721/ERC721.sol\":15093:15162  auth != address(0) && owner != auth && !isApprovedForAll(owner, auth) */\n    tag_271:\n        /* \"@openzeppelin/contracts/token/ERC721/ERC721.sol\":15089:15231  if (auth != address(0) && owner != auth && !isApprovedForAll(owner, auth)) {... */\n      iszero\n      tag_273\n      jumpi\n        /* \"@openzeppelin/contracts/token/ERC721/ERC721.sol\":15211:15215  auth */\n      dup3\n        /* \"@openzeppelin/contracts/token/ERC721/ERC721.sol\":15189:15216  ERC721InvalidApprover(auth) */\n      mload(0x40)\n      0xa9fbf51f00000000000000000000000000000000000000000000000000000000\n      dup2\n      mstore\n      0x04\n      add\n      tag_274\n      swap2\n      swap1\n      tag_44\n      jump\t// in\n    tag_274:\n      mload(0x40)\n      dup1\n      swap2\n      sub\n      swap1\n      revert\n        /* \"@openzeppelin/contracts/token/ERC721/ERC721.sol\":15089:15231  if (auth != address(0) && owner != auth && !isApprovedForAll(owner, auth)) {... */\n    tag_273:\n        /* \"@openzeppelin/contracts/token/ERC721/ERC721.sol\":15249:15258  emitEvent */\n      dup2\n        /* \"@openzeppelin/contracts/token/ERC721/ERC721.sol\":15245:15326  if (emitEvent) {... */\n      iszero\n      tag_275\n      jumpi\n        /* \"@openzeppelin/contracts/token/ERC721/ERC721.sol\":15303:15310  tokenId */\n      dup4\n        /* \"@openzeppelin/contracts/token/ERC721/ERC721.sol\":15299:15301  to */\n      dup6\n        /* \"@openzeppelin/contracts/token/ERC721/ERC721.sol\":15283:15311  Approval(owner, to, tokenId) */\n      0xffffffffffffffffffffffffffffffffffffffff\n      and\n        /* \"@openzeppelin/contracts/token/ERC721/ERC721.sol\":15292:15297  owner */\n      dup3\n        /* \"@openzeppelin/contracts/token/ERC721/ERC721.sol\":15283:15311  Approval(owner, to, tokenId) */\n      0xffffffffffffffffffffffffffffffffffffffff\n      and\n      0x8c5be1e5ebec7d5bd14f71427d1e84f3dd0314c0f7b2291e5b200ac8c7c3b925\n      mload(0x40)\n      mload(0x40)\n      dup1\n      swap2\n      sub\n      swap1\n      log4\n        /* \"@openzeppelin/contracts/token/ERC721/ERC721.sol\":15245:15326  if (emitEvent) {... */\n    tag_275:\n        /* \"@openzeppelin/contracts/token/ERC721/ERC721.sol\":14913:15336  {... */\n      pop\n        /* \"@openzeppelin/contracts/token/ERC721/ERC721.sol\":14876:15336  if (emitEvent || auth != address(0)) {... */\n    tag_268:\n        /* \"@openzeppelin/contracts/token/ERC721/ERC721.sol\":15373:15375  to */\n      dup4\n        /* \"@openzeppelin/contracts/token/ERC721/ERC721.sol\":15346:15361  _tokenApprovals */\n      0x04\n        /* \"@openzeppelin/contracts/token/ERC721/ERC721.sol\":15346:15370  _tokenApprovals[tokenId] */\n      0x00\n        /* \"@openzeppelin/contracts/token/ERC721/ERC721.sol\":15362:15369  tokenId */\n      dup6\n        /* \"@openzeppelin/contracts/token/ERC721/ERC721.sol\":15346:15370  _tokenApprovals[tokenId] */\n      dup2\n      mstore\n      0x20\n      add\n      swap1\n      dup2\n      mstore\n      0x20\n      add\n      0x00\n      keccak256\n      0x00\n        /* \"@openzeppelin/contracts/token/ERC721/ERC721.sol\":15346:15375  _tokenApprovals[tokenId] = to */\n      0x0100\n      exp\n      dup2\n      sload\n      dup2\n      0xffffffffffffffffffffffffffffffffffffffff\n      mul\n      not\n      and\n      swap1\n      dup4\n      0xffffffffffffffffffffffffffffffffffffffff\n      and\n      mul\n      or\n      swap1\n      sstore\n      pop\n        /* \"@openzeppelin/contracts/token/ERC721/ERC721.sol\":14720:15382  function _approve(address to, uint256 tokenId, address auth, bool emitEvent) internal virtual {... */\n      pop\n      pop\n      pop\n      pop\n      jump\t// out\n        /* \"@openzeppelin/contracts/token/ERC721/ERC721.sol\":8838:9633  function _update(address to, uint256 tokenId, address auth) internal virtual returns (address) {... */\n    tag_226:\n        /* \"@openzeppelin/contracts/token/ERC721/ERC721.sol\":8924:8931  address */\n      0x00\n        /* \"@openzeppelin/contracts/token/ERC721/ERC721.sol\":8943:8955  address from */\n      dup1\n        /* \"@openzeppelin/contracts/token/ERC721/ERC721.sol\":8958:8975  _ownerOf(tokenId) */\n      tag_277\n        /* \"@openzeppelin/contracts/token/ERC721/ERC721.sol\":8967:8974  tokenId */\n      dup5\n        /* \"@openzeppelin/contracts/token/ERC721/ERC721.sol\":8958:8966  _ownerOf */\n      tag_213\n        /* \"@openzeppelin/contracts/token/ERC721/ERC721.sol\":8958:8975  _ownerOf(tokenId) */\n      jump\t// in\n    tag_277:\n        /* \"@openzeppelin/contracts/token/ERC721/ERC721.sol\":8943:8975  address from = _ownerOf(tokenId) */\n      swap1\n      pop\n        /* \"@openzeppelin/contracts/token/ERC721/ERC721.sol\":9051:9052  0 */\n      0x00\n        /* \"@openzeppelin/contracts/token/ERC721/ERC721.sol\":9035:9053  auth != address(0) */\n      0xffffffffffffffffffffffffffffffffffffffff\n      and\n        /* \"@openzeppelin/contracts/token/ERC721/ERC721.sol\":9035:9039  auth */\n      dup4\n        /* \"@openzeppelin/contracts/token/ERC721/ERC721.sol\":9035:9053  auth != address(0) */\n      0xffffffffffffffffffffffffffffffffffffffff\n      and\n      eq\n        /* \"@openzeppelin/contracts/token/ERC721/ERC721.sol\":9031:9117  if (auth != address(0)) {... */\n      tag_278\n      jumpi\n        /* \"@openzeppelin/contracts/token/ERC721/ERC721.sol\":9069:9106  _checkAuthorized(from, auth, tokenId) */\n      tag_279\n        /* \"@openzeppelin/contracts/token/ERC721/ERC721.sol\":9086:9090  from */\n      dup2\n        /* \"@openzeppelin/contracts/token/ERC721/ERC721.sol\":9092:9096  auth */\n      dup5\n        /* \"@openzeppelin/contracts/token/ERC721/ERC721.sol\":9098:9105  tokenId */\n      dup7\n        /* \"@openzeppelin/contracts/token/ERC721/ERC721.sol\":9069:9085  _checkAuthorized */\n      tag_280\n        /* \"@openzeppelin/contracts/token/ERC721/ERC721.sol\":9069:9106  _checkAuthorized(from, auth, tokenId) */\n      jump\t// in\n    tag_279:\n        /* \"@openzeppelin/contracts/token/ERC721/ERC721.sol\":9031:9117  if (auth != address(0)) {... */\n    tag_278:\n        /* \"@openzeppelin/contracts/token/ERC721/ERC721.sol\":9177:9178  0 */\n      0x00\n        /* \"@openzeppelin/contracts/token/ERC721/ERC721.sol\":9161:9179  from != address(0) */\n      0xffffffffffffffffffffffffffffffffffffffff\n      and\n        /* \"@openzeppelin/contracts/token/ERC721/ERC721.sol\":9161:9165  from */\n      dup2\n        /* \"@openzeppelin/contracts/token/ERC721/ERC721.sol\":9161:9179  from != address(0) */\n      0xffffffffffffffffffffffffffffffffffffffff\n      and\n      eq\n        /* \"@openzeppelin/contracts/token/ERC721/ERC721.sol\":9157:9413  if (from != address(0)) {... */\n      tag_281\n      jumpi\n        /* \"@openzeppelin/contracts/token/ERC721/ERC721.sol\":9277:9325  _approve(address(0), tokenId, address(0), false) */\n      tag_282\n        /* \"@openzeppelin/contracts/token/ERC721/ERC721.sol\":9294:9295  0 */\n      0x00\n        /* \"@openzeppelin/contracts/token/ERC721/ERC721.sol\":9298:9305  tokenId */\n      dup6\n        /* \"@openzeppelin/contracts/token/ERC721/ERC721.sol\":9315:9316  0 */\n      0x00\n        /* \"@openzeppelin/contracts/token/ERC721/ERC721.sol\":9319:9324  false */\n      dup1\n        /* \"@openzeppelin/contracts/token/ERC721/ERC721.sol\":9277:9285  _approve */\n      tag_220\n        /* \"@openzeppelin/contracts/token/ERC721/ERC721.sol\":9277:9325  _approve(address(0), tokenId, address(0), false) */\n      jump\t// in\n    tag_282:\n        /* \"@openzeppelin/contracts/token/ERC721/ERC721.sol\":9387:9388  1 */\n      0x01\n        /* \"@openzeppelin/contracts/token/ERC721/ERC721.sol\":9368:9377  _balances */\n      0x03\n        /* \"@openzeppelin/contracts/token/ERC721/ERC721.sol\":9368:9383  _balances[from] */\n      0x00\n        /* \"@openzeppelin/contracts/token/ERC721/ERC721.sol\":9378:9382  from */\n      dup4\n        /* \"@openzeppelin/contracts/token/ERC721/ERC721.sol\":9368:9383  _balances[from] */\n      0xffffffffffffffffffffffffffffffffffffffff\n      and\n      0xffffffffffffffffffffffffffffffffffffffff\n      and\n      dup2\n      mstore\n      0x20\n      add\n      swap1\n      dup2\n      mstore\n      0x20\n      add\n      0x00\n      keccak256\n      0x00\n        /* \"@openzeppelin/contracts/token/ERC721/ERC721.sol\":9368:9388  _balances[from] -= 1 */\n      dup3\n      dup3\n      sload\n      sub\n      swap3\n      pop\n      pop\n      dup2\n      swap1\n      sstore\n      pop\n        /* \"@openzeppelin/contracts/token/ERC721/ERC721.sol\":9157:9413  if (from != address(0)) {... */\n    tag_281:\n        /* \"@openzeppelin/contracts/token/ERC721/ERC721.sol\":9441:9442  0 */\n      0x00\n        /* \"@openzeppelin/contracts/token/ERC721/ERC721.sol\":9427:9443  to != address(0) */\n      0xffffffffffffffffffffffffffffffffffffffff\n      and\n        /* \"@openzeppelin/contracts/token/ERC721/ERC721.sol\":9427:9429  to */\n      dup6\n        /* \"@openzeppelin/contracts/token/ERC721/ERC721.sol\":9427:9443  to != address(0) */\n      0xffffffffffffffffffffffffffffffffffffffff\n      and\n      eq\n        /* \"@openzeppelin/contracts/token/ERC721/ERC721.sol\":9423:9530  if (to != address(0)) {... */\n      tag_283\n      jumpi\n        /* \"@openzeppelin/contracts/token/ERC721/ERC721.sol\":9504:9505  1 */\n      0x01\n        /* \"@openzeppelin/contracts/token/ERC721/ERC721.sol\":9487:9496  _balances */\n      0x03\n        /* \"@openzeppelin/contracts/token/ERC721/ERC721.sol\":9487:9500  _balances[to] */\n      0x00\n        /* \"@openzeppelin/contracts/token/ERC721/ERC721.sol\":9497:9499  to */\n      dup8\n        /* \"@openzeppelin/contracts/token/ERC721/ERC721.sol\":9487:9500  _balances[to] */\n      0xffffffffffffffffffffffffffffffffffffffff\n      and\n      0xffffffffffffffffffffffffffffffffffffffff\n      and\n      dup2\n      mstore\n      0x20\n      add\n      swap1\n      dup2\n      mstore\n      0x20\n      add\n      0x00\n      keccak256\n      0x00\n        /* \"@openzeppelin/contracts/token/ERC721/ERC721.sol\":9487:9505  _balances[to] += 1 */\n      dup3\n      dup3\n      sload\n      add\n      swap3\n      pop\n      pop\n      dup2\n      swap1\n      sstore\n      pop\n        /* \"@openzeppelin/contracts/token/ERC721/ERC721.sol\":9423:9530  if (to != address(0)) {... */\n    tag_283:\n        /* \"@openzeppelin/contracts/token/ERC721/ERC721.sol\":9559:9561  to */\n      dup5\n        /* \"@openzeppelin/contracts/token/ERC721/ERC721.sol\":9540:9547  _owners */\n      0x02\n        /* \"@openzeppelin/contracts/token/ERC721/ERC721.sol\":9540:9556  _owners[tokenId] */\n      0x00\n        /* \"@openzeppelin/contracts/token/ERC721/ERC721.sol\":9548:9555  tokenId */\n      dup7\n        /* \"@openzeppelin/contracts/token/ERC721/ERC721.sol\":9540:9556  _owners[tokenId] */\n      dup2\n      mstore\n      0x20\n      add\n      swap1\n      dup2\n      mstore\n      0x20\n      add\n      0x00\n      keccak256\n      0x00\n        /* \"@openzeppelin/contracts/token/ERC721/ERC721.sol\":9540:9561  _owners[tokenId] = to */\n      0x0100\n      exp\n      dup2\n      sload\n      dup2\n      0xffffffffffffffffffffffffffffffffffffffff\n      mul\n      not\n      and\n      swap1\n      dup4\n      0xffffffffffffffffffffffffffffffffffffffff\n      and\n      mul\n      or\n      swap1\n      sstore\n      pop\n        /* \"@openzeppelin/contracts/token/ERC721/ERC721.sol\":9596:9603  tokenId */\n      dup4\n        /* \"@openzeppelin/contracts/token/ERC721/ERC721.sol\":9592:9594  to */\n      dup6\n        /* \"@openzeppelin/contracts/token/ERC721/ERC721.sol\":9577:9604  Transfer(from, to, tokenId) */\n      0xffffffffffffffffffffffffffffffffffffffff\n      and\n        /* \"@openzeppelin/contracts/token/ERC721/ERC721.sol\":9586:9590  from */\n      dup3\n        /* \"@openzeppelin/contracts/token/ERC721/ERC721.sol\":9577:9604  Transfer(from, to, tokenId) */\n      0xffffffffffffffffffffffffffffffffffffffff\n      and\n      0xddf252ad1be2c89b69c2b068fc378daa952ba7f163c4a11628f55a4df523b3ef\n      mload(0x40)\n      mload(0x40)\n      dup1\n      swap2\n      sub\n      swap1\n      log4\n        /* \"@openzeppelin/contracts/token/ERC721/ERC721.sol\":9622:9626  from */\n      dup1\n        /* \"@openzeppelin/contracts/token/ERC721/ERC721.sol\":9615:9626  return from */\n      swap2\n      pop\n      pop\n        /* \"@openzeppelin/contracts/token/ERC721/ERC721.sol\":8838:9633  function _update(address to, uint256 tokenId, address auth) internal virtual returns (address) {... */\n      swap4\n      swap3\n      pop\n      pop\n      pop\n      jump\t// out\n        /* \"@openzeppelin/contracts/token/ERC721/ERC721.sol\":16918:17700  function _checkOnERC721Received(address from, address to, uint256 tokenId, bytes memory data) private {... */\n    tag_250:\n        /* \"@openzeppelin/contracts/token/ERC721/ERC721.sol\":17051:17052  0 */\n      0x00\n        /* \"@openzeppelin/contracts/token/ERC721/ERC721.sol\":17034:17036  to */\n      dup4\n        /* \"@openzeppelin/contracts/token/ERC721/ERC721.sol\":17034:17048  to.code.length */\n      0xffffffffffffffffffffffffffffffffffffffff\n      and\n      extcodesize\n        /* \"@openzeppelin/contracts/token/ERC721/ERC721.sol\":17034:17052  to.code.length > 0 */\n      gt\n        /* \"@openzeppelin/contracts/token/ERC721/ERC721.sol\":17030:17694  if (to.code.length > 0) {... */\n      iszero\n      tag_285\n      jumpi\n        /* \"@openzeppelin/contracts/token/ERC721/ERC721.sol\":17088:17090  to */\n      dup3\n        /* \"@openzeppelin/contracts/token/ERC721/ERC721.sol\":17072:17108  IERC721Receiver(to).onERC721Received */\n      0xffffffffffffffffffffffffffffffffffffffff\n      and\n      0x150b7a02\n        /* \"@openzeppelin/contracts/token/ERC721/ERC721.sol\":17109:17121  _msgSender() */\n      tag_286\n        /* \"@openzeppelin/contracts/token/ERC721/ERC721.sol\":17109:17119  _msgSender */\n      tag_131\n        /* \"@openzeppelin/contracts/token/ERC721/ERC721.sol\":17109:17121  _msgSender() */\n      jump\t// in\n    tag_286:\n        /* \"@openzeppelin/contracts/token/ERC721/ERC721.sol\":17123:17127  from */\n      dup7\n        /* \"@openzeppelin/contracts/token/ERC721/ERC721.sol\":17129:17136  tokenId */\n      dup6\n        /* \"@openzeppelin/contracts/token/ERC721/ERC721.sol\":17138:17142  data */\n      dup6\n        /* \"@openzeppelin/contracts/token/ERC721/ERC721.sol\":17072:17143  IERC721Receiver(to).onERC721Received(_msgSender(), from, tokenId, data) */\n      mload(0x40)\n      dup6\n      0xffffffff\n      and\n      0xe0\n      shl\n      dup2\n      mstore\n      0x04\n      add\n      tag_287\n      swap5\n      swap4\n      swap3\n      swap2\n      swap1\n      tag_288\n      jump\t// in\n    tag_287:\n      0x20\n      mload(0x40)\n      dup1\n      dup4\n      sub\n      dup2\n      0x00\n      dup8\n      gas\n      call\n      swap3\n      pop\n      pop\n      pop\n      dup1\n      iszero\n      tag_289\n      jumpi\n      pop\n      mload(0x40)\n      returndatasize\n      not(0x1f)\n      0x1f\n      dup3\n      add\n      and\n      dup3\n      add\n      dup1\n      0x40\n      mstore\n      pop\n      dup2\n      add\n      swap1\n      tag_290\n      swap2\n      swap1\n      tag_291\n      jump\t// in\n    tag_290:\n      0x01\n    tag_289:\n        /* \"@openzeppelin/contracts/token/ERC721/ERC721.sol\":17068:17684  try IERC721Receiver(to).onERC721Received(_msgSender(), from, tokenId, data) returns (bytes4 retval) {... */\n      tag_292\n      jumpi\n      returndatasize\n      dup1\n      0x00\n      dup2\n      eq\n      tag_297\n      jumpi\n      mload(0x40)\n      swap2\n      pop\n      and(add(returndatasize, 0x3f), not(0x1f))\n      dup3\n      add\n      0x40\n      mstore\n      returndatasize\n      dup3\n      mstore\n      returndatasize\n      0x00\n      0x20\n      dup5\n      add\n      returndatacopy\n      jump(tag_296)\n    tag_297:\n      0x60\n      swap2\n      pop\n    tag_296:\n      pop\n        /* \"@openzeppelin/contracts/token/ERC721/ERC721.sol\":17398:17399  0 */\n      0x00\n        /* \"@openzeppelin/contracts/token/ERC721/ERC721.sol\":17381:17387  reason */\n      dup2\n        /* \"@openzeppelin/contracts/token/ERC721/ERC721.sol\":17381:17394  reason.length */\n      mload\n        /* \"@openzeppelin/contracts/token/ERC721/ERC721.sol\":17381:17399  reason.length == 0 */\n      sub\n        /* \"@openzeppelin/contracts/token/ERC721/ERC721.sol\":17377:17670  if (reason.length == 0) {... */\n      tag_298\n      jumpi\n        /* \"@openzeppelin/contracts/token/ERC721/ERC721.sol\":17452:17454  to */\n      dup4\n        /* \"@openzeppelin/contracts/token/ERC721/ERC721.sol\":17430:17455  ERC721InvalidReceiver(to) */\n      mload(0x40)\n      0x64a0ae9200000000000000000000000000000000000000000000000000000000\n      dup2\n      mstore\n      0x04\n      add\n      tag_299\n      swap2\n      swap1\n      tag_44\n      jump\t// in\n    tag_299:\n      mload(0x40)\n      dup1\n      swap2\n      sub\n      swap1\n      revert\n        /* \"@openzeppelin/contracts/token/ERC721/ERC721.sol\":17377:17670  if (reason.length == 0) {... */\n    tag_298:\n        /* \"@openzeppelin/contracts/token/ERC721/ERC721.sol\":17622:17628  reason */\n      dup1\n        /* \"@openzeppelin/contracts/token/ERC721/ERC721.sol\":17616:17629  mload(reason) */\n      mload\n        /* \"@openzeppelin/contracts/token/ERC721/ERC721.sol\":17607:17613  reason */\n      dup2\n        /* \"@openzeppelin/contracts/token/ERC721/ERC721.sol\":17603:17605  32 */\n      0x20\n        /* \"@openzeppelin/contracts/token/ERC721/ERC721.sol\":17599:17614  add(32, reason) */\n      add\n        /* \"@openzeppelin/contracts/token/ERC721/ERC721.sol\":17592:17630  revert(add(32, reason), mload(reason)) */\n      revert\n        /* \"@openzeppelin/contracts/token/ERC721/ERC721.sol\":17068:17684  try IERC721Receiver(to).onERC721Received(_msgSender(), from, tokenId, data) returns (bytes4 retval) {... */\n    tag_292:\n        /* \"@openzeppelin/contracts/token/ERC721/ERC721.sol\":17200:17241  IERC721Receiver.onERC721Received.selector */\n      shl(0xe0, 0x150b7a02)\n        /* \"@openzeppelin/contracts/token/ERC721/ERC721.sol\":17190:17241  retval != IERC721Receiver.onERC721Received.selector */\n      not(0xffffffffffffffffffffffffffffffffffffffffffffffffffffffff)\n      and\n        /* \"@openzeppelin/contracts/token/ERC721/ERC721.sol\":17190:17196  retval */\n      dup2\n        /* \"@openzeppelin/contracts/token/ERC721/ERC721.sol\":17190:17241  retval != IERC721Receiver.onERC721Received.selector */\n      not(0xffffffffffffffffffffffffffffffffffffffffffffffffffffffff)\n      and\n      eq\n        /* \"@openzeppelin/contracts/token/ERC721/ERC721.sol\":17186:17316  if (retval != IERC721Receiver.onERC721Received.selector) {... */\n      tag_302\n      jumpi\n        /* \"@openzeppelin/contracts/token/ERC721/ERC721.sol\":17294:17296  to */\n      dup4\n        /* \"@openzeppelin/contracts/token/ERC721/ERC721.sol\":17272:17297  ERC721InvalidReceiver(to) */\n      mload(0x40)\n      0x64a0ae9200000000000000000000000000000000000000000000000000000000\n      dup2\n      mstore\n      0x04\n      add\n      tag_303\n      swap2\n      swap1\n      tag_44\n      jump\t// in\n    tag_303:\n      mload(0x40)\n      dup1\n      swap2\n      sub\n      swap1\n      revert\n        /* \"@openzeppelin/contracts/token/ERC721/ERC721.sol\":17186:17316  if (retval != IERC721Receiver.onERC721Received.selector) {... */\n    tag_302:\n        /* \"@openzeppelin/contracts/token/ERC721/ERC721.sol\":17144:17330  returns (bytes4 retval) {... */\n      pop\n        /* \"@openzeppelin/contracts/token/ERC721/ERC721.sol\":17030:17694  if (to.code.length > 0) {... */\n    tag_285:\n        /* \"@openzeppelin/contracts/token/ERC721/ERC721.sol\":16918:17700  function _checkOnERC721Received(address from, address to, uint256 tokenId, bytes memory data) private {... */\n      pop\n      pop\n      pop\n      pop\n      jump\t// out\n        /* \"@openzeppelin/contracts/utils/math/Math.sol\":12214:13130  function log10(uint256 value) internal pure returns (uint256) {... */\n    tag_254:\n        /* \"@openzeppelin/contracts/utils/math/Math.sol\":12267:12274  uint256 */\n      0x00\n        /* \"@openzeppelin/contracts/utils/math/Math.sol\":12286:12300  uint256 result */\n      dup1\n        /* \"@openzeppelin/contracts/utils/math/Math.sol\":12303:12304  0 */\n      0x00\n        /* \"@openzeppelin/contracts/utils/math/Math.sol\":12286:12304  uint256 result = 0 */\n      swap1\n      pop\n        /* \"@openzeppelin/contracts/utils/math/Math.sol\":12351:12359  10 ** 64 */\n      0x184f03e93ff9f4daa797ed6e38ed64bf6a1f010000000000000000\n        /* \"@openzeppelin/contracts/utils/math/Math.sol\":12342:12347  value */\n      dup4\n        /* \"@openzeppelin/contracts/utils/math/Math.sol\":12342:12359  value >= 10 ** 64 */\n      lt\n        /* \"@openzeppelin/contracts/utils/math/Math.sol\":12338:12441  if (value >= 10 ** 64) {... */\n      tag_305\n      jumpi\n        /* \"@openzeppelin/contracts/utils/math/Math.sol\":12388:12396  10 ** 64 */\n      0x184f03e93ff9f4daa797ed6e38ed64bf6a1f010000000000000000\n        /* \"@openzeppelin/contracts/utils/math/Math.sol\":12379:12396  value /= 10 ** 64 */\n      dup4\n      dup2\n      tag_306\n      jumpi\n      tag_307\n      tag_263\n      jump\t// in\n    tag_307:\n    tag_306:\n      div\n      swap3\n      pop\n        /* \"@openzeppelin/contracts/utils/math/Math.sol\":12424:12426  64 */\n      0x40\n        /* \"@openzeppelin/contracts/utils/math/Math.sol\":12414:12426  result += 64 */\n      dup2\n      add\n      swap1\n      pop\n        /* \"@openzeppelin/contracts/utils/math/Math.sol\":12338:12441  if (value >= 10 ** 64) {... */\n    tag_305:\n        /* \"@openzeppelin/contracts/utils/math/Math.sol\":12467:12475  10 ** 32 */\n      0x04ee2d6d415b85acef8100000000\n        /* \"@openzeppelin/contracts/utils/math/Math.sol\":12458:12463  value */\n      dup4\n        /* \"@openzeppelin/contracts/utils/math/Math.sol\":12458:12475  value >= 10 ** 32 */\n      lt\n        /* \"@openzeppelin/contracts/utils/math/Math.sol\":12454:12557  if (value >= 10 ** 32) {... */\n      tag_308\n      jumpi\n        /* \"@openzeppelin/contracts/utils/math/Math.sol\":12504:12512  10 ** 32 */\n      0x04ee2d6d415b85acef8100000000\n        /* \"@openzeppelin/contracts/utils/math/Math.sol\":12495:12512  value /= 10 ** 32 */\n      dup4\n      dup2\n      tag_309\n      jumpi\n      tag_310\n      tag_263\n      jump\t// in\n    tag_310:\n    tag_309:\n      div\n      swap3\n      pop\n        /* \"@openzeppelin/contracts/utils/math/Math.sol\":12540:12542  32 */\n      0x20\n        /* \"@openzeppelin/contracts/utils/math/Math.sol\":12530:12542  result += 32 */\n      dup2\n      add\n      swap1\n      pop\n        /* \"@openzeppelin/contracts/utils/math/Math.sol\":12454:12557  if (value >= 10 ** 32) {... */\n    tag_308:\n        /* \"@openzeppelin/contracts/utils/math/Math.sol\":12583:12591  10 ** 16 */\n      0x2386f26fc10000\n        /* \"@openzeppelin/contracts/utils/math/Math.sol\":12574:12579  value */\n      dup4\n        /* \"@openzeppelin/contracts/utils/math/Math.sol\":12574:12591  value >= 10 ** 16 */\n      lt\n        /* \"@openzeppelin/contracts/utils/math/Math.sol\":12570:12673  if (value >= 10 ** 16) {... */\n      tag_311\n      jumpi\n        /* \"@openzeppelin/contracts/utils/math/Math.sol\":12620:12628  10 ** 16 */\n      0x2386f26fc10000\n        /* \"@openzeppelin/contracts/utils/math/Math.sol\":12611:12628  value /= 10 ** 16 */\n      dup4\n      dup2\n      tag_312\n      jumpi\n      tag_313\n      tag_263\n      jump\t// in\n    tag_313:\n    tag_312:\n      div\n      swap3\n      pop\n        /* \"@openzeppelin/contracts/utils/math/Math.sol\":12656:12658  16 */\n      0x10\n        /* \"@openzeppelin/contracts/utils/math/Math.sol\":12646:12658  result += 16 */\n      dup2\n      add\n      swap1\n      pop\n        /* \"@openzeppelin/contracts/utils/math/Math.sol\":12570:12673  if (value >= 10 ** 16) {... */\n    tag_311:\n        /* \"@openzeppelin/contracts/utils/math/Math.sol\":12699:12706  10 ** 8 */\n      0x05f5e100\n        /* \"@openzeppelin/contracts/utils/math/Math.sol\":12690:12695  value */\n      dup4\n        /* \"@openzeppelin/contracts/utils/math/Math.sol\":12690:12706  value >= 10 ** 8 */\n      lt\n        /* \"@openzeppelin/contracts/utils/math/Math.sol\":12686:12786  if (value >= 10 ** 8) {... */\n      tag_314\n      jumpi\n        /* \"@openzeppelin/contracts/utils/math/Math.sol\":12735:12742  10 ** 8 */\n      0x05f5e100\n        /* \"@openzeppelin/contracts/utils/math/Math.sol\":12726:12742  value /= 10 ** 8 */\n      dup4\n      dup2\n      tag_315\n      jumpi\n      tag_316\n      tag_263\n      jump\t// in\n    tag_316:\n    tag_315:\n      div\n      swap3\n      pop\n        /* \"@openzeppelin/contracts/utils/math/Math.sol\":12770:12771  8 */\n      0x08\n        /* \"@openzeppelin/contracts/utils/math/Math.sol\":12760:12771  result += 8 */\n      dup2\n      add\n      swap1\n      pop\n        /* \"@openzeppelin/contracts/utils/math/Math.sol\":12686:12786  if (value >= 10 ** 8) {... */\n    tag_314:\n        /* \"@openzeppelin/contracts/utils/math/Math.sol\":12812:12819  10 ** 4 */\n      0x2710\n        /* \"@openzeppelin/contracts/utils/math/Math.sol\":12803:12808  value */\n      dup4\n        /* \"@openzeppelin/contracts/utils/math/Math.sol\":12803:12819  value >= 10 ** 4 */\n      lt\n        /* \"@openzeppelin/contracts/utils/math/Math.sol\":12799:12899  if (value >= 10 ** 4) {... */\n      tag_317\n      jumpi\n        /* \"@openzeppelin/contracts/utils/math/Math.sol\":12848:12855  10 ** 4 */\n      0x2710\n        /* \"@openzeppelin/contracts/utils/math/Math.sol\":12839:12855  value /= 10 ** 4 */\n      dup4\n      dup2\n      tag_318\n      jumpi\n      tag_319\n      tag_263\n      jump\t// in\n    tag_319:\n    tag_318:\n      div\n      swap3\n      pop\n        /* \"@openzeppelin/contracts/utils/math/Math.sol\":12883:12884  4 */\n      0x04\n        /* \"@openzeppelin/contracts/utils/math/Math.sol\":12873:12884  result += 4 */\n      dup2\n      add\n      swap1\n      pop\n        /* \"@openzeppelin/contracts/utils/math/Math.sol\":12799:12899  if (value >= 10 ** 4) {... */\n    tag_317:\n        /* \"@openzeppelin/contracts/utils/math/Math.sol\":12925:12932  10 ** 2 */\n      0x64\n        /* \"@openzeppelin/contracts/utils/math/Math.sol\":12916:12921  value */\n      dup4\n        /* \"@openzeppelin/contracts/utils/math/Math.sol\":12916:12932  value >= 10 ** 2 */\n      lt\n        /* \"@openzeppelin/contracts/utils/math/Math.sol\":12912:13012  if (value >= 10 ** 2) {... */\n      tag_320\n      jumpi\n        /* \"@openzeppelin/contracts/utils/math/Math.sol\":12961:12968  10 ** 2 */\n      0x64\n        /* \"@openzeppelin/contracts/utils/math/Math.sol\":12952:12968  value /= 10 ** 2 */\n      dup4\n      dup2\n      tag_321\n      jumpi\n      tag_322\n      tag_263\n      jump\t// in\n    tag_322:\n    tag_321:\n      div\n      swap3\n      pop\n        /* \"@openzeppelin/contracts/utils/math/Math.sol\":12996:12997  2 */\n      0x02\n        /* \"@openzeppelin/contracts/utils/math/Math.sol\":12986:12997  result += 2 */\n      dup2\n      add\n      swap1\n      pop\n        /* \"@openzeppelin/contracts/utils/math/Math.sol\":12912:13012  if (value >= 10 ** 2) {... */\n    tag_320:\n        /* \"@openzeppelin/contracts/utils/math/Math.sol\":13038:13045  10 ** 1 */\n      0x0a\n        /* \"@openzeppelin/contracts/utils/math/Math.sol\":13029:13034  value */\n      dup4\n        /* \"@openzeppelin/contracts/utils/math/Math.sol\":13029:13045  value >= 10 ** 1 */\n      lt\n        /* \"@openzeppelin/contracts/utils/math/Math.sol\":13025:13091  if (value >= 10 ** 1) {... */\n      tag_323\n      jumpi\n        /* \"@openzeppelin/contracts/utils/math/Math.sol\":13075:13076  1 */\n      0x01\n        /* \"@openzeppelin/contracts/utils/math/Math.sol\":13065:13076  result += 1 */\n      dup2\n      add\n      swap1\n      pop\n        /* \"@openzeppelin/contracts/utils/math/Math.sol\":13025:13091  if (value >= 10 ** 1) {... */\n    tag_323:\n        /* \"@openzeppelin/contracts/utils/math/Math.sol\":13117:13123  result */\n      dup1\n        /* \"@openzeppelin/contracts/utils/math/Math.sol\":13110:13123  return result */\n      swap2\n      pop\n      pop\n        /* \"@openzeppelin/contracts/utils/math/Math.sol\":12214:13130  function log10(uint256 value) internal pure returns (uint256) {... */\n      swap2\n      swap1\n      pop\n      jump\t// out\n        /* \"@openzeppelin/contracts/token/ERC721/ERC721.sol\":7082:7450  function _checkAuthorized(address owner, address spender, uint256 tokenId) internal view virtual {... */\n    tag_280:\n        /* \"@openzeppelin/contracts/token/ERC721/ERC721.sol\":7194:7232  _isAuthorized(owner, spender, tokenId) */\n      tag_325\n        /* \"@openzeppelin/contracts/token/ERC721/ERC721.sol\":7208:7213  owner */\n      dup4\n        /* \"@openzeppelin/contracts/token/ERC721/ERC721.sol\":7215:7222  spender */\n      dup4\n        /* \"@openzeppelin/contracts/token/ERC721/ERC721.sol\":7224:7231  tokenId */\n      dup4\n        /* \"@openzeppelin/contracts/token/ERC721/ERC721.sol\":7194:7207  _isAuthorized */\n      tag_326\n        /* \"@openzeppelin/contracts/token/ERC721/ERC721.sol\":7194:7232  _isAuthorized(owner, spender, tokenId) */\n      jump\t// in\n    tag_325:\n        /* \"@openzeppelin/contracts/token/ERC721/ERC721.sol\":7189:7444  if (!_isAuthorized(owner, spender, tokenId)) {... */\n      tag_327\n      jumpi\n        /* \"@openzeppelin/contracts/token/ERC721/ERC721.sol\":7269:7270  0 */\n      0x00\n        /* \"@openzeppelin/contracts/token/ERC721/ERC721.sol\":7252:7271  owner == address(0) */\n      0xffffffffffffffffffffffffffffffffffffffff\n      and\n        /* \"@openzeppelin/contracts/token/ERC721/ERC721.sol\":7252:7257  owner */\n      dup4\n        /* \"@openzeppelin/contracts/token/ERC721/ERC721.sol\":7252:7271  owner == address(0) */\n      0xffffffffffffffffffffffffffffffffffffffff\n      and\n      sub\n        /* \"@openzeppelin/contracts/token/ERC721/ERC721.sol\":7248:7434  if (owner == address(0)) {... */\n      tag_328\n      jumpi\n        /* \"@openzeppelin/contracts/token/ERC721/ERC721.sol\":7321:7328  tokenId */\n      dup1\n        /* \"@openzeppelin/contracts/token/ERC721/ERC721.sol\":7298:7329  ERC721NonexistentToken(tokenId) */\n      mload(0x40)\n      0x7e27328900000000000000000000000000000000000000000000000000000000\n      dup2\n      mstore\n      0x04\n      add\n      tag_329\n      swap2\n      swap1\n      tag_56\n      jump\t// in\n    tag_329:\n      mload(0x40)\n      dup1\n      swap2\n      sub\n      swap1\n      revert\n        /* \"@openzeppelin/contracts/token/ERC721/ERC721.sol\":7248:7434  if (owner == address(0)) {... */\n    tag_328:\n        /* \"@openzeppelin/contracts/token/ERC721/ERC721.sol\":7402:7409  spender */\n      dup2\n        /* \"@openzeppelin/contracts/token/ERC721/ERC721.sol\":7411:7418  tokenId */\n      dup2\n        /* \"@openzeppelin/contracts/token/ERC721/ERC721.sol\":7375:7419  ERC721InsufficientApproval(spender, tokenId) */\n      mload(0x40)\n      0x177e802f00000000000000000000000000000000000000000000000000000000\n      dup2\n      mstore\n      0x04\n      add\n      tag_331\n      swap3\n      swap2\n      swap1\n      tag_332\n      jump\t// in\n    tag_331:\n      mload(0x40)\n      dup1\n      swap2\n      sub\n      swap1\n      revert\n        /* \"@openzeppelin/contracts/token/ERC721/ERC721.sol\":7189:7444  if (!_isAuthorized(owner, spender, tokenId)) {... */\n    tag_327:\n        /* \"@openzeppelin/contracts/token/ERC721/ERC721.sol\":7082:7450  function _checkAuthorized(address owner, address spender, uint256 tokenId) internal view virtual {... */\n      pop\n      pop\n      pop\n      jump\t// out\n        /* \"@openzeppelin/contracts/token/ERC721/ERC721.sol\":6376:6648  function _isAuthorized(address owner, address spender, uint256 tokenId) internal view virtual returns (bool) {... */\n    tag_326:\n        /* \"@openzeppelin/contracts/token/ERC721/ERC721.sol\":6479:6483  bool */\n      0x00\n        /* \"@openzeppelin/contracts/token/ERC721/ERC721.sol\":6533:6534  0 */\n      dup1\n        /* \"@openzeppelin/contracts/token/ERC721/ERC721.sol\":6514:6535  spender != address(0) */\n      0xffffffffffffffffffffffffffffffffffffffff\n      and\n        /* \"@openzeppelin/contracts/token/ERC721/ERC721.sol\":6514:6521  spender */\n      dup4\n        /* \"@openzeppelin/contracts/token/ERC721/ERC721.sol\":6514:6535  spender != address(0) */\n      0xffffffffffffffffffffffffffffffffffffffff\n      and\n      eq\n      iszero\n        /* \"@openzeppelin/contracts/token/ERC721/ERC721.sol\":6514:6641  spender != address(0) &&... */\n      dup1\n      iszero\n      tag_334\n      jumpi\n      pop\n        /* \"@openzeppelin/contracts/token/ERC721/ERC721.sol\":6561:6568  spender */\n      dup3\n        /* \"@openzeppelin/contracts/token/ERC721/ERC721.sol\":6552:6568  owner == spender */\n      0xffffffffffffffffffffffffffffffffffffffff\n      and\n        /* \"@openzeppelin/contracts/token/ERC721/ERC721.sol\":6552:6557  owner */\n      dup5\n        /* \"@openzeppelin/contracts/token/ERC721/ERC721.sol\":6552:6568  owner == spender */\n      0xffffffffffffffffffffffffffffffffffffffff\n      and\n      eq\n        /* \"@openzeppelin/contracts/token/ERC721/ERC721.sol\":6552:6604  owner == spender || isApprovedForAll(owner, spender) */\n      dup1\n      tag_335\n      jumpi\n      pop\n        /* \"@openzeppelin/contracts/token/ERC721/ERC721.sol\":6572:6604  isApprovedForAll(owner, spender) */\n      tag_336\n        /* \"@openzeppelin/contracts/token/ERC721/ERC721.sol\":6589:6594  owner */\n      dup5\n        /* \"@openzeppelin/contracts/token/ERC721/ERC721.sol\":6596:6603  spender */\n      dup5\n        /* \"@openzeppelin/contracts/token/ERC721/ERC721.sol\":6572:6588  isApprovedForAll */\n      tag_96\n        /* \"@openzeppelin/contracts/token/ERC721/ERC721.sol\":6572:6604  isApprovedForAll(owner, spender) */\n      jump\t// in\n    tag_336:\n        /* \"@openzeppelin/contracts/token/ERC721/ERC721.sol\":6552:6604  owner == spender || isApprovedForAll(owner, spender) */\n    tag_335:\n        /* \"@openzeppelin/contracts/token/ERC721/ERC721.sol\":6552:6640  owner == spender || isApprovedForAll(owner, spender) || _getApproved(tokenId) == spender */\n      dup1\n      tag_337\n      jumpi\n      pop\n        /* \"@openzeppelin/contracts/token/ERC721/ERC721.sol\":6633:6640  spender */\n      dup3\n        /* \"@openzeppelin/contracts/token/ERC721/ERC721.sol\":6608:6640  _getApproved(tokenId) == spender */\n      0xffffffffffffffffffffffffffffffffffffffff\n      and\n        /* \"@openzeppelin/contracts/token/ERC721/ERC721.sol\":6608:6629  _getApproved(tokenId) */\n      tag_338\n        /* \"@openzeppelin/contracts/token/ERC721/ERC721.sol\":6621:6628  tokenId */\n      dup4\n        /* \"@openzeppelin/contracts/token/ERC721/ERC721.sol\":6608:6620  _getApproved */\n      tag_127\n        /* \"@openzeppelin/contracts/token/ERC721/ERC721.sol\":6608:6629  _getApproved(tokenId) */\n      jump\t// in\n    tag_338:\n        /* \"@openzeppelin/contracts/token/ERC721/ERC721.sol\":6608:6640  _getApproved(tokenId) == spender */\n      0xffffffffffffffffffffffffffffffffffffffff\n      and\n      eq\n        /* \"@openzeppelin/contracts/token/ERC721/ERC721.sol\":6552:6640  owner == spender || isApprovedForAll(owner, spender) || _getApproved(tokenId) == spender */\n    tag_337:\n        /* \"@openzeppelin/contracts/token/ERC721/ERC721.sol\":6514:6641  spender != address(0) &&... */\n    tag_334:\n        /* \"@openzeppelin/contracts/token/ERC721/ERC721.sol\":6495:6641  return... */\n      swap1\n      pop\n        /* \"@openzeppelin/contracts/token/ERC721/ERC721.sol\":6376:6648  function _isAuthorized(address owner, address spender, uint256 tokenId) internal view virtual returns (bool) {... */\n      swap4\n      swap3\n      pop\n      pop\n      pop\n      jump\t// out\n        /* \"#utility.yul\":7:82   */\n    tag_339:\n        /* \"#utility.yul\":40:46   */\n      0x00\n        /* \"#utility.yul\":73:75   */\n      0x40\n        /* \"#utility.yul\":67:76   */\n      mload\n        /* \"#utility.yul\":57:76   */\n      swap1\n      pop\n        /* \"#utility.yul\":7:82   */\n      swap1\n      jump\t// out\n        /* \"#utility.yul\":88:205   */\n    tag_340:\n        /* \"#utility.yul\":197:198   */\n      0x00\n        /* \"#utility.yul\":194:195   */\n      dup1\n        /* \"#utility.yul\":187:199   */\n      revert\n        /* \"#utility.yul\":211:328   */\n    tag_341:\n        /* \"#utility.yul\":320:321   */\n      0x00\n        /* \"#utility.yul\":317:318   */\n      dup1\n        /* \"#utility.yul\":310:322   */\n      revert\n        /* \"#utility.yul\":334:411   */\n    tag_342:\n        /* \"#utility.yul\":371:378   */\n      0x00\n        /* \"#utility.yul\":400:405   */\n      dup2\n        /* \"#utility.yul\":389:405   */\n      swap1\n      pop\n        /* \"#utility.yul\":334:411   */\n      swap2\n      swap1\n      pop\n      jump\t// out\n        /* \"#utility.yul\":417:539   */\n    tag_343:\n        /* \"#utility.yul\":490:514   */\n      tag_400\n        /* \"#utility.yul\":508:513   */\n      dup2\n        /* \"#utility.yul\":490:514   */\n      tag_342\n      jump\t// in\n    tag_400:\n        /* \"#utility.yul\":483:488   */\n      dup2\n        /* \"#utility.yul\":480:515   */\n      eq\n        /* \"#utility.yul\":470:533   */\n      tag_401\n      jumpi\n        /* \"#utility.yul\":529:530   */\n      0x00\n        /* \"#utility.yul\":526:527   */\n      dup1\n        /* \"#utility.yul\":519:531   */\n      revert\n        /* \"#utility.yul\":470:533   */\n    tag_401:\n        /* \"#utility.yul\":417:539   */\n      pop\n      jump\t// out\n        /* \"#utility.yul\":545:684   */\n    tag_344:\n        /* \"#utility.yul\":591:596   */\n      0x00\n        /* \"#utility.yul\":629:635   */\n      dup2\n        /* \"#utility.yul\":616:636   */\n      calldataload\n        /* \"#utility.yul\":607:636   */\n      swap1\n      pop\n        /* \"#utility.yul\":645:678   */\n      tag_403\n        /* \"#utility.yul\":672:677   */\n      dup2\n        /* \"#utility.yul\":645:678   */\n      tag_343\n      jump\t// in\n    tag_403:\n        /* \"#utility.yul\":545:684   */\n      swap3\n      swap2\n      pop\n      pop\n      jump\t// out\n        /* \"#utility.yul\":690:1019   */\n    tag_27:\n        /* \"#utility.yul\":749:755   */\n      0x00\n        /* \"#utility.yul\":798:800   */\n      0x20\n        /* \"#utility.yul\":786:795   */\n      dup3\n        /* \"#utility.yul\":777:784   */\n      dup5\n        /* \"#utility.yul\":773:796   */\n      sub\n        /* \"#utility.yul\":769:801   */\n      slt\n        /* \"#utility.yul\":766:885   */\n      iszero\n      tag_405\n      jumpi\n        /* \"#utility.yul\":804:883   */\n      tag_406\n      tag_340\n      jump\t// in\n    tag_406:\n        /* \"#utility.yul\":766:885   */\n    tag_405:\n        /* \"#utility.yul\":924:925   */\n      0x00\n        /* \"#utility.yul\":949:1002   */\n      tag_407\n        /* \"#utility.yul\":994:1001   */\n      dup5\n        /* \"#utility.yul\":985:991   */\n      dup3\n        /* \"#utility.yul\":974:983   */\n      dup6\n        /* \"#utility.yul\":970:992   */\n      add\n        /* \"#utility.yul\":949:1002   */\n      tag_344\n      jump\t// in\n    tag_407:\n        /* \"#utility.yul\":939:1002   */\n      swap2\n      pop\n        /* \"#utility.yul\":895:1012   */\n      pop\n        /* \"#utility.yul\":690:1019   */\n      swap3\n      swap2\n      pop\n      pop\n      jump\t// out\n        /* \"#utility.yul\":1025:1115   */\n    tag_345:\n        /* \"#utility.yul\":1059:1066   */\n      0x00\n        /* \"#utility.yul\":1102:1107   */\n      dup2\n        /* \"#utility.yul\":1095:1108   */\n      iszero\n        /* \"#utility.yul\":1088:1109   */\n      iszero\n        /* \"#utility.yul\":1077:1109   */\n      swap1\n      pop\n        /* \"#utility.yul\":1025:1115   */\n      swap2\n      swap1\n      pop\n      jump\t// out\n        /* \"#utility.yul\":1121:1230   */\n    tag_346:\n        /* \"#utility.yul\":1202:1223   */\n      tag_410\n        /* \"#utility.yul\":1217:1222   */\n      dup2\n        /* \"#utility.yul\":1202:1223   */\n      tag_345\n      jump\t// in\n    tag_410:\n        /* \"#utility.yul\":1197:1200   */\n      dup3\n        /* \"#utility.yul\":1190:1224   */\n      mstore\n        /* \"#utility.yul\":1121:1230   */\n      pop\n      pop\n      jump\t// out\n        /* \"#utility.yul\":1236:1446   */\n    tag_30:\n        /* \"#utility.yul\":1323:1327   */\n      0x00\n        /* \"#utility.yul\":1361:1363   */\n      0x20\n        /* \"#utility.yul\":1350:1359   */\n      dup3\n        /* \"#utility.yul\":1346:1364   */\n      add\n        /* \"#utility.yul\":1338:1364   */\n      swap1\n      pop\n        /* \"#utility.yul\":1374:1439   */\n      tag_412\n        /* \"#utility.yul\":1436:1437   */\n      0x00\n        /* \"#utility.yul\":1425:1434   */\n      dup4\n        /* \"#utility.yul\":1421:1438   */\n      add\n        /* \"#utility.yul\":1412:1418   */\n      dup5\n        /* \"#utility.yul\":1374:1439   */\n      tag_346\n      jump\t// in\n    tag_412:\n        /* \"#utility.yul\":1236:1446   */\n      swap3\n      swap2\n      pop\n      pop\n      jump\t// out\n        /* \"#utility.yul\":1452:1601   */\n    tag_347:\n        /* \"#utility.yul\":1488:1495   */\n      0x00\n        /* \"#utility.yul\":1528:1594   */\n      0xffffffff00000000000000000000000000000000000000000000000000000000\n        /* \"#utility.yul\":1521:1526   */\n      dup3\n        /* \"#utility.yul\":1517:1595   */\n      and\n        /* \"#utility.yul\":1506:1595   */\n      swap1\n      pop\n        /* \"#utility.yul\":1452:1601   */\n      swap2\n      swap1\n      pop\n      jump\t// out\n        /* \"#utility.yul\":1607:1727   */\n    tag_348:\n        /* \"#utility.yul\":1679:1702   */\n      tag_415\n        /* \"#utility.yul\":1696:1701   */\n      dup2\n        /* \"#utility.yul\":1679:1702   */\n      tag_347\n      jump\t// in\n    tag_415:\n        /* \"#utility.yul\":1672:1677   */\n      dup2\n        /* \"#utility.yul\":1669:1703   */\n      eq\n        /* \"#utility.yul\":1659:1721   */\n      tag_416\n      jumpi\n        /* \"#utility.yul\":1717:1718   */\n      0x00\n        /* \"#utility.yul\":1714:1715   */\n      dup1\n        /* \"#utility.yul\":1707:1719   */\n      revert\n        /* \"#utility.yul\":1659:1721   */\n    tag_416:\n        /* \"#utility.yul\":1607:1727   */\n      pop\n      jump\t// out\n        /* \"#utility.yul\":1733:1870   */\n    tag_349:\n        /* \"#utility.yul\":1778:1783   */\n      0x00\n        /* \"#utility.yul\":1816:1822   */\n      dup2\n        /* \"#utility.yul\":1803:1823   */\n      calldataload\n        /* \"#utility.yul\":1794:1823   */\n      swap1\n      pop\n        /* \"#utility.yul\":1832:1864   */\n      tag_418\n        /* \"#utility.yul\":1858:1863   */\n      dup2\n        /* \"#utility.yul\":1832:1864   */\n      tag_348\n      jump\t// in\n    tag_418:\n        /* \"#utility.yul\":1733:1870   */\n      swap3\n      swap2\n      pop\n      pop\n      jump\t// out\n        /* \"#utility.yul\":1876:2203   */\n    tag_33:\n        /* \"#utility.yul\":1934:1940   */\n      0x00\n        /* \"#utility.yul\":1983:1985   */\n      0x20\n        /* \"#utility.yul\":1971:1980   */\n      dup3\n        /* \"#utility.yul\":1962:1969   */\n      dup5\n        /* \"#utility.yul\":1958:1981   */\n      sub\n        /* \"#utility.yul\":1954:1986   */\n      slt\n        /* \"#utility.yul\":1951:2070   */\n      iszero\n      tag_420\n      jumpi\n        /* \"#utility.yul\":1989:2068   */\n      tag_421\n      tag_340\n      jump\t// in\n    tag_421:\n        /* \"#utility.yul\":1951:2070   */\n    tag_420:\n        /* \"#utility.yul\":2109:2110   */\n      0x00\n        /* \"#utility.yul\":2134:2186   */\n      tag_422\n        /* \"#utility.yul\":2178:2185   */\n      dup5\n        /* \"#utility.yul\":2169:2175   */\n      dup3\n        /* \"#utility.yul\":2158:2167   */\n      dup6\n        /* \"#utility.yul\":2154:2176   */\n      add\n        /* \"#utility.yul\":2134:2186   */\n      tag_349\n      jump\t// in\n    tag_422:\n        /* \"#utility.yul\":2124:2186   */\n      swap2\n      pop\n        /* \"#utility.yul\":2080:2196   */\n      pop\n        /* \"#utility.yul\":1876:2203   */\n      swap3\n      swap2\n      pop\n      pop\n      jump\t// out\n        /* \"#utility.yul\":2209:2308   */\n    tag_350:\n        /* \"#utility.yul\":2261:2267   */\n      0x00\n        /* \"#utility.yul\":2295:2300   */\n      dup2\n        /* \"#utility.yul\":2289:2301   */\n      mload\n        /* \"#utility.yul\":2279:2301   */\n      swap1\n      pop\n        /* \"#utility.yul\":2209:2308   */\n      swap2\n      swap1\n      pop\n      jump\t// out\n        /* \"#utility.yul\":2314:2483   */\n    tag_351:\n        /* \"#utility.yul\":2398:2409   */\n      0x00\n        /* \"#utility.yul\":2432:2438   */\n      dup3\n        /* \"#utility.yul\":2427:2430   */\n      dup3\n        /* \"#utility.yul\":2420:2439   */\n      mstore\n        /* \"#utility.yul\":2472:2476   */\n      0x20\n        /* \"#utility.yul\":2467:2470   */\n      dup3\n        /* \"#utility.yul\":2463:2477   */\n      add\n        /* \"#utility.yul\":2448:2477   */\n      swap1\n      pop\n        /* \"#utility.yul\":2314:2483   */\n      swap3\n      swap2\n      pop\n      pop\n      jump\t// out\n        /* \"#utility.yul\":2489:2735   */\n    tag_352:\n        /* \"#utility.yul\":2570:2571   */\n      0x00\n        /* \"#utility.yul\":2580:2693   */\n    tag_426:\n        /* \"#utility.yul\":2594:2600   */\n      dup4\n        /* \"#utility.yul\":2591:2592   */\n      dup2\n        /* \"#utility.yul\":2588:2601   */\n      lt\n        /* \"#utility.yul\":2580:2693   */\n      iszero\n      tag_428\n      jumpi\n        /* \"#utility.yul\":2679:2680   */\n      dup1\n        /* \"#utility.yul\":2674:2677   */\n      dup3\n        /* \"#utility.yul\":2670:2681   */\n      add\n        /* \"#utility.yul\":2664:2682   */\n      mload\n        /* \"#utility.yul\":2660:2661   */\n      dup2\n        /* \"#utility.yul\":2655:2658   */\n      dup5\n        /* \"#utility.yul\":2651:2662   */\n      add\n        /* \"#utility.yul\":2644:2683   */\n      mstore\n        /* \"#utility.yul\":2616:2618   */\n      0x20\n        /* \"#utility.yul\":2613:2614   */\n      dup2\n        /* \"#utility.yul\":2609:2619   */\n      add\n        /* \"#utility.yul\":2604:2619   */\n      swap1\n      pop\n        /* \"#utility.yul\":2580:2693   */\n      jump(tag_426)\n    tag_428:\n        /* \"#utility.yul\":2727:2728   */\n      0x00\n        /* \"#utility.yul\":2718:2724   */\n      dup5\n        /* \"#utility.yul\":2713:2716   */\n      dup5\n        /* \"#utility.yul\":2709:2725   */\n      add\n        /* \"#utility.yul\":2702:2729   */\n      mstore\n        /* \"#utility.yul\":2551:2735   */\n      pop\n        /* \"#utility.yul\":2489:2735   */\n      pop\n      pop\n      pop\n      jump\t// out\n        /* \"#utility.yul\":2741:2843   */\n    tag_353:\n        /* \"#utility.yul\":2782:2788   */\n      0x00\n        /* \"#utility.yul\":2833:2835   */\n      0x1f\n        /* \"#utility.yul\":2829:2836   */\n      not\n        /* \"#utility.yul\":2824:2826   */\n      0x1f\n        /* \"#utility.yul\":2817:2822   */\n      dup4\n        /* \"#utility.yul\":2813:2827   */\n      add\n        /* \"#utility.yul\":2809:2837   */\n      and\n        /* \"#utility.yul\":2799:2837   */\n      swap1\n      pop\n        /* \"#utility.yul\":2741:2843   */\n      swap2\n      swap1\n      pop\n      jump\t// out\n        /* \"#utility.yul\":2849:3226   */\n    tag_354:\n        /* \"#utility.yul\":2937:2940   */\n      0x00\n        /* \"#utility.yul\":2965:3004   */\n      tag_431\n        /* \"#utility.yul\":2998:3003   */\n      dup3\n        /* \"#utility.yul\":2965:3004   */\n      tag_350\n      jump\t// in\n    tag_431:\n        /* \"#utility.yul\":3020:3091   */\n      tag_432\n        /* \"#utility.yul\":3084:3090   */\n      dup2\n        /* \"#utility.yul\":3079:3082   */\n      dup6\n        /* \"#utility.yul\":3020:3091   */\n      tag_351\n      jump\t// in\n    tag_432:\n        /* \"#utility.yul\":3013:3091   */\n      swap4\n      pop\n        /* \"#utility.yul\":3100:3165   */\n      tag_433\n        /* \"#utility.yul\":3158:3164   */\n      dup2\n        /* \"#utility.yul\":3153:3156   */\n      dup6\n        /* \"#utility.yul\":3146:3150   */\n      0x20\n        /* \"#utility.yul\":3139:3144   */\n      dup7\n        /* \"#utility.yul\":3135:3151   */\n      add\n        /* \"#utility.yul\":3100:3165   */\n      tag_352\n      jump\t// in\n    tag_433:\n        /* \"#utility.yul\":3190:3219   */\n      tag_434\n        /* \"#utility.yul\":3212:3218   */\n      dup2\n        /* \"#utility.yul\":3190:3219   */\n      tag_353\n      jump\t// in\n    tag_434:\n        /* \"#utility.yul\":3185:3188   */\n      dup5\n        /* \"#utility.yul\":3181:3220   */\n      add\n        /* \"#utility.yul\":3174:3220   */\n      swap2\n      pop\n        /* \"#utility.yul\":2941:3226   */\n      pop\n        /* \"#utility.yul\":2849:3226   */\n      swap3\n      swap2\n      pop\n      pop\n      jump\t// out\n        /* \"#utility.yul\":3232:3545   */\n    tag_39:\n        /* \"#utility.yul\":3345:3349   */\n      0x00\n        /* \"#utility.yul\":3383:3385   */\n      0x20\n        /* \"#utility.yul\":3372:3381   */\n      dup3\n        /* \"#utility.yul\":3368:3386   */\n      add\n        /* \"#utility.yul\":3360:3386   */\n      swap1\n      pop\n        /* \"#utility.yul\":3432:3441   */\n      dup2\n        /* \"#utility.yul\":3426:3430   */\n      dup2\n        /* \"#utility.yul\":3422:3442   */\n      sub\n        /* \"#utility.yul\":3418:3419   */\n      0x00\n        /* \"#utility.yul\":3407:3416   */\n      dup4\n        /* \"#utility.yul\":3403:3420   */\n      add\n        /* \"#utility.yul\":3396:3443   */\n      mstore\n        /* \"#utility.yul\":3460:3538   */\n      tag_436\n        /* \"#utility.yul\":3533:3537   */\n      dup2\n        /* \"#utility.yul\":3524:3530   */\n      dup5\n        /* \"#utility.yul\":3460:3538   */\n      tag_354\n      jump\t// in\n    tag_436:\n        /* \"#utility.yul\":3452:3538   */\n      swap1\n      pop\n        /* \"#utility.yul\":3232:3545   */\n      swap3\n      swap2\n      pop\n      pop\n      jump\t// out\n        /* \"#utility.yul\":3551:3677   */\n    tag_355:\n        /* \"#utility.yul\":3588:3595   */\n      0x00\n        /* \"#utility.yul\":3628:3670   */\n      0xffffffffffffffffffffffffffffffffffffffff\n        /* \"#utility.yul\":3621:3626   */\n      dup3\n        /* \"#utility.yul\":3617:3671   */\n      and\n        /* \"#utility.yul\":3606:3671   */\n      swap1\n      pop\n        /* \"#utility.yul\":3551:3677   */\n      swap2\n      swap1\n      pop\n      jump\t// out\n        /* \"#utility.yul\":3683:3779   */\n    tag_356:\n        /* \"#utility.yul\":3720:3727   */\n      0x00\n        /* \"#utility.yul\":3749:3773   */\n      tag_439\n        /* \"#utility.yul\":3767:3772   */\n      dup3\n        /* \"#utility.yul\":3749:3773   */\n      tag_355\n      jump\t// in\n    tag_439:\n        /* \"#utility.yul\":3738:3773   */\n      swap1\n      pop\n        /* \"#utility.yul\":3683:3779   */\n      swap2\n      swap1\n      pop\n      jump\t// out\n        /* \"#utility.yul\":3785:3903   */\n    tag_357:\n        /* \"#utility.yul\":3872:3896   */\n      tag_441\n        /* \"#utility.yul\":3890:3895   */\n      dup2\n        /* \"#utility.yul\":3872:3896   */\n      tag_356\n      jump\t// in\n    tag_441:\n        /* \"#utility.yul\":3867:3870   */\n      dup3\n        /* \"#utility.yul\":3860:3897   */\n      mstore\n        /* \"#utility.yul\":3785:3903   */\n      pop\n      pop\n      jump\t// out\n        /* \"#utility.yul\":3909:4131   */\n    tag_44:\n        /* \"#utility.yul\":4002:4006   */\n      0x00\n        /* \"#utility.yul\":4040:4042   */\n      0x20\n        /* \"#utility.yul\":4029:4038   */\n      dup3\n        /* \"#utility.yul\":4025:4043   */\n      add\n        /* \"#utility.yul\":4017:4043   */\n      swap1\n      pop\n        /* \"#utility.yul\":4053:4124   */\n      tag_443\n        /* \"#utility.yul\":4121:4122   */\n      0x00\n        /* \"#utility.yul\":4110:4119   */\n      dup4\n        /* \"#utility.yul\":4106:4123   */\n      add\n        /* \"#utility.yul\":4097:4103   */\n      dup5\n        /* \"#utility.yul\":4053:4124   */\n      tag_357\n      jump\t// in\n    tag_443:\n        /* \"#utility.yul\":3909:4131   */\n      swap3\n      swap2\n      pop\n      pop\n      jump\t// out\n        /* \"#utility.yul\":4137:4259   */\n    tag_358:\n        /* \"#utility.yul\":4210:4234   */\n      tag_445\n        /* \"#utility.yul\":4228:4233   */\n      dup2\n        /* \"#utility.yul\":4210:4234   */\n      tag_356\n      jump\t// in\n    tag_445:\n        /* \"#utility.yul\":4203:4208   */\n      dup2\n        /* \"#utility.yul\":4200:4235   */\n      eq\n        /* \"#utility.yul\":4190:4253   */\n      tag_446\n      jumpi\n        /* \"#utility.yul\":4249:4250   */\n      0x00\n        /* \"#utility.yul\":4246:4247   */\n      dup1\n        /* \"#utility.yul\":4239:4251   */\n      revert\n        /* \"#utility.yul\":4190:4253   */\n    tag_446:\n        /* \"#utility.yul\":4137:4259   */\n      pop\n      jump\t// out\n        /* \"#utility.yul\":4265:4404   */\n    tag_359:\n        /* \"#utility.yul\":4311:4316   */\n      0x00\n        /* \"#utility.yul\":4349:4355   */\n      dup2\n        /* \"#utility.yul\":4336:4356   */\n      calldataload\n        /* \"#utility.yul\":4327:4356   */\n      swap1\n      pop\n        /* \"#utility.yul\":4365:4398   */\n      tag_448\n        /* \"#utility.yul\":4392:4397   */\n      dup2\n        /* \"#utility.yul\":4365:4398   */\n      tag_358\n      jump\t// in\n    tag_448:\n        /* \"#utility.yul\":4265:4404   */\n      swap3\n      swap2\n      pop\n      pop\n      jump\t// out\n        /* \"#utility.yul\":4410:4884   */\n    tag_47:\n        /* \"#utility.yul\":4478:4484   */\n      0x00\n        /* \"#utility.yul\":4486:4492   */\n      dup1\n        /* \"#utility.yul\":4535:4537   */\n      0x40\n        /* \"#utility.yul\":4523:4532   */\n      dup4\n        /* \"#utility.yul\":4514:4521   */\n      dup6\n        /* \"#utility.yul\":4510:4533   */\n      sub\n        /* \"#utility.yul\":4506:4538   */\n      slt\n        /* \"#utility.yul\":4503:4622   */\n      iszero\n      tag_450\n      jumpi\n        /* \"#utility.yul\":4541:4620   */\n      tag_451\n      tag_340\n      jump\t// in\n    tag_451:\n        /* \"#utility.yul\":4503:4622   */\n    tag_450:\n        /* \"#utility.yul\":4661:4662   */\n      0x00\n        /* \"#utility.yul\":4686:4739   */\n      tag_452\n        /* \"#utility.yul\":4731:4738   */\n      dup6\n        /* \"#utility.yul\":4722:4728   */\n      dup3\n        /* \"#utility.yul\":4711:4720   */\n      dup7\n        /* \"#utility.yul\":4707:4729   */\n      add\n        /* \"#utility.yul\":4686:4739   */\n      tag_359\n      jump\t// in\n    tag_452:\n        /* \"#utility.yul\":4676:4739   */\n      swap3\n      pop\n        /* \"#utility.yul\":4632:4749   */\n      pop\n        /* \"#utility.yul\":4788:4790   */\n      0x20\n        /* \"#utility.yul\":4814:4867   */\n      tag_453\n        /* \"#utility.yul\":4859:4866   */\n      dup6\n        /* \"#utility.yul\":4850:4856   */\n      dup3\n        /* \"#utility.yul\":4839:4848   */\n      dup7\n        /* \"#utility.yul\":4835:4857   */\n      add\n        /* \"#utility.yul\":4814:4867   */\n      tag_344\n      jump\t// in\n    tag_453:\n        /* \"#utility.yul\":4804:4867   */\n      swap2\n      pop\n        /* \"#utility.yul\":4759:4877   */\n      pop\n        /* \"#utility.yul\":4410:4884   */\n      swap3\n      pop\n      swap3\n      swap1\n      pop\n      jump\t// out\n        /* \"#utility.yul\":4890:5509   */\n    tag_51:\n        /* \"#utility.yul\":4967:4973   */\n      0x00\n        /* \"#utility.yul\":4975:4981   */\n      dup1\n        /* \"#utility.yul\":4983:4989   */\n      0x00\n        /* \"#utility.yul\":5032:5034   */\n      0x60\n        /* \"#utility.yul\":5020:5029   */\n      dup5\n        /* \"#utility.yul\":5011:5018   */\n      dup7\n        /* \"#utility.yul\":5007:5030   */\n      sub\n        /* \"#utility.yul\":5003:5035   */\n      slt\n        /* \"#utility.yul\":5000:5119   */\n      iszero\n      tag_455\n      jumpi\n        /* \"#utility.yul\":5038:5117   */\n      tag_456\n      tag_340\n      jump\t// in\n    tag_456:\n        /* \"#utility.yul\":5000:5119   */\n    tag_455:\n        /* \"#utility.yul\":5158:5159   */\n      0x00\n        /* \"#utility.yul\":5183:5236   */\n      tag_457\n        /* \"#utility.yul\":5228:5235   */\n      dup7\n        /* \"#utility.yul\":5219:5225   */\n      dup3\n        /* \"#utility.yul\":5208:5217   */\n      dup8\n        /* \"#utility.yul\":5204:5226   */\n      add\n        /* \"#utility.yul\":5183:5236   */\n      tag_359\n      jump\t// in\n    tag_457:\n        /* \"#utility.yul\":5173:5236   */\n      swap4\n      pop\n        /* \"#utility.yul\":5129:5246   */\n      pop\n        /* \"#utility.yul\":5285:5287   */\n      0x20\n        /* \"#utility.yul\":5311:5364   */\n      tag_458\n        /* \"#utility.yul\":5356:5363   */\n      dup7\n        /* \"#utility.yul\":5347:5353   */\n      dup3\n        /* \"#utility.yul\":5336:5345   */\n      dup8\n        /* \"#utility.yul\":5332:5354   */\n      add\n        /* \"#utility.yul\":5311:5364   */\n      tag_359\n      jump\t// in\n    tag_458:\n        /* \"#utility.yul\":5301:5364   */\n      swap3\n      pop\n        /* \"#utility.yul\":5256:5374   */\n      pop\n        /* \"#utility.yul\":5413:5415   */\n      0x40\n        /* \"#utility.yul\":5439:5492   */\n      tag_459\n        /* \"#utility.yul\":5484:5491   */\n      dup7\n        /* \"#utility.yul\":5475:5481   */\n      dup3\n        /* \"#utility.yul\":5464:5473   */\n      dup8\n        /* \"#utility.yul\":5460:5482   */\n      add\n        /* \"#utility.yul\":5439:5492   */\n      tag_344\n      jump\t// in\n    tag_459:\n        /* \"#utility.yul\":5429:5492   */\n      swap2\n      pop\n        /* \"#utility.yul\":5384:5502   */\n      pop\n        /* \"#utility.yul\":4890:5509   */\n      swap3\n      pop\n      swap3\n      pop\n      swap3\n      jump\t// out\n        /* \"#utility.yul\":5515:5633   */\n    tag_360:\n        /* \"#utility.yul\":5602:5626   */\n      tag_461\n        /* \"#utility.yul\":5620:5625   */\n      dup2\n        /* \"#utility.yul\":5602:5626   */\n      tag_342\n      jump\t// in\n    tag_461:\n        /* \"#utility.yul\":5597:5600   */\n      dup3\n        /* \"#utility.yul\":5590:5627   */\n      mstore\n        /* \"#utility.yul\":5515:5633   */\n      pop\n      pop\n      jump\t// out\n        /* \"#utility.yul\":5639:5861   */\n    tag_56:\n        /* \"#utility.yul\":5732:5736   */\n      0x00\n        /* \"#utility.yul\":5770:5772   */\n      0x20\n        /* \"#utility.yul\":5759:5768   */\n      dup3\n        /* \"#utility.yul\":5755:5773   */\n      add\n        /* \"#utility.yul\":5747:5773   */\n      swap1\n      pop\n        /* \"#utility.yul\":5783:5854   */\n      tag_463\n        /* \"#utility.yul\":5851:5852   */\n      0x00\n        /* \"#utility.yul\":5840:5849   */\n      dup4\n        /* \"#utility.yul\":5836:5853   */\n      add\n        /* \"#utility.yul\":5827:5833   */\n      dup5\n        /* \"#utility.yul\":5783:5854   */\n      tag_360\n      jump\t// in\n    tag_463:\n        /* \"#utility.yul\":5639:5861   */\n      swap3\n      swap2\n      pop\n      pop\n      jump\t// out\n        /* \"#utility.yul\":5867:6196   */\n    tag_66:\n        /* \"#utility.yul\":5926:5932   */\n      0x00\n        /* \"#utility.yul\":5975:5977   */\n      0x20\n        /* \"#utility.yul\":5963:5972   */\n      dup3\n        /* \"#utility.yul\":5954:5961   */\n      dup5\n        /* \"#utility.yul\":5950:5973   */\n      sub\n        /* \"#utility.yul\":5946:5978   */\n      slt\n        /* \"#utility.yul\":5943:6062   */\n      iszero\n      tag_465\n      jumpi\n        /* \"#utility.yul\":5981:6060   */\n      tag_466\n      tag_340\n      jump\t// in\n    tag_466:\n        /* \"#utility.yul\":5943:6062   */\n    tag_465:\n        /* \"#utility.yul\":6101:6102   */\n      0x00\n        /* \"#utility.yul\":6126:6179   */\n      tag_467\n        /* \"#utility.yul\":6171:6178   */\n      dup5\n        /* \"#utility.yul\":6162:6168   */\n      dup3\n        /* \"#utility.yul\":6151:6160   */\n      dup6\n        /* \"#utility.yul\":6147:6169   */\n      add\n        /* \"#utility.yul\":6126:6179   */\n      tag_359\n      jump\t// in\n    tag_467:\n        /* \"#utility.yul\":6116:6179   */\n      swap2\n      pop\n        /* \"#utility.yul\":6072:6189   */\n      pop\n        /* \"#utility.yul\":5867:6196   */\n      swap3\n      swap2\n      pop\n      pop\n      jump\t// out\n        /* \"#utility.yul\":6202:6319   */\n    tag_361:\n        /* \"#utility.yul\":6311:6312   */\n      0x00\n        /* \"#utility.yul\":6308:6309   */\n      dup1\n        /* \"#utility.yul\":6301:6313   */\n      revert\n        /* \"#utility.yul\":6325:6505   */\n    tag_257:\n        /* \"#utility.yul\":6373:6450   */\n      0x4e487b7100000000000000000000000000000000000000000000000000000000\n        /* \"#utility.yul\":6370:6371   */\n      0x00\n        /* \"#utility.yul\":6363:6451   */\n      mstore\n        /* \"#utility.yul\":6470:6474   */\n      0x41\n        /* \"#utility.yul\":6467:6468   */\n      0x04\n        /* \"#utility.yul\":6460:6475   */\n      mstore\n        /* \"#utility.yul\":6494:6498   */\n      0x24\n        /* \"#utility.yul\":6491:6492   */\n      0x00\n        /* \"#utility.yul\":6484:6499   */\n      revert\n        /* \"#utility.yul\":6511:6792   */\n    tag_362:\n        /* \"#utility.yul\":6594:6621   */\n      tag_471\n        /* \"#utility.yul\":6616:6620   */\n      dup3\n        /* \"#utility.yul\":6594:6621   */\n      tag_353\n      jump\t// in\n    tag_471:\n        /* \"#utility.yul\":6586:6592   */\n      dup2\n        /* \"#utility.yul\":6582:6622   */\n      add\n        /* \"#utility.yul\":6724:6730   */\n      dup2\n        /* \"#utility.yul\":6712:6722   */\n      dup2\n        /* \"#utility.yul\":6709:6731   */\n      lt\n        /* \"#utility.yul\":6688:6706   */\n      0xffffffffffffffff\n        /* \"#utility.yul\":6676:6686   */\n      dup3\n        /* \"#utility.yul\":6673:6707   */\n      gt\n        /* \"#utility.yul\":6670:6732   */\n      or\n        /* \"#utility.yul\":6667:6755   */\n      iszero\n      tag_472\n      jumpi\n        /* \"#utility.yul\":6735:6753   */\n      tag_473\n      tag_257\n      jump\t// in\n    tag_473:\n        /* \"#utility.yul\":6667:6755   */\n    tag_472:\n        /* \"#utility.yul\":6775:6785   */\n      dup1\n        /* \"#utility.yul\":6771:6773   */\n      0x40\n        /* \"#utility.yul\":6764:6786   */\n      mstore\n        /* \"#utility.yul\":6554:6792   */\n      pop\n        /* \"#utility.yul\":6511:6792   */\n      pop\n      pop\n      jump\t// out\n        /* \"#utility.yul\":6798:6927   */\n    tag_363:\n        /* \"#utility.yul\":6832:6838   */\n      0x00\n        /* \"#utility.yul\":6859:6879   */\n      tag_475\n      tag_339\n      jump\t// in\n    tag_475:\n        /* \"#utility.yul\":6849:6879   */\n      swap1\n      pop\n        /* \"#utility.yul\":6888:6921   */\n      tag_476\n        /* \"#utility.yul\":6916:6920   */\n      dup3\n        /* \"#utility.yul\":6908:6914   */\n      dup3\n        /* \"#utility.yul\":6888:6921   */\n      tag_362\n      jump\t// in\n    tag_476:\n        /* \"#utility.yul\":6798:6927   */\n      swap2\n      swap1\n      pop\n      jump\t// out\n        /* \"#utility.yul\":6933:7244   */\n    tag_364:\n        /* \"#utility.yul\":7010:7014   */\n      0x00\n        /* \"#utility.yul\":7100:7118   */\n      0xffffffffffffffff\n        /* \"#utility.yul\":7092:7098   */\n      dup3\n        /* \"#utility.yul\":7089:7119   */\n      gt\n        /* \"#utility.yul\":7086:7142   */\n      iszero\n      tag_478\n      jumpi\n        /* \"#utility.yul\":7122:7140   */\n      tag_479\n      tag_257\n      jump\t// in\n    tag_479:\n        /* \"#utility.yul\":7086:7142   */\n    tag_478:\n        /* \"#utility.yul\":7172:7176   */\n      0x20\n        /* \"#utility.yul\":7164:7170   */\n      dup3\n        /* \"#utility.yul\":7160:7177   */\n      mul\n        /* \"#utility.yul\":7152:7177   */\n      swap1\n      pop\n        /* \"#utility.yul\":7232:7236   */\n      0x20\n        /* \"#utility.yul\":7226:7230   */\n      dup2\n        /* \"#utility.yul\":7222:7237   */\n      add\n        /* \"#utility.yul\":7214:7237   */\n      swap1\n      pop\n        /* \"#utility.yul\":6933:7244   */\n      swap2\n      swap1\n      pop\n      jump\t// out\n        /* \"#utility.yul\":7250:7367   */\n    tag_365:\n        /* \"#utility.yul\":7359:7360   */\n      0x00\n        /* \"#utility.yul\":7356:7357   */\n      dup1\n        /* \"#utility.yul\":7349:7361   */\n      revert\n        /* \"#utility.yul\":7390:8100   */\n    tag_366:\n        /* \"#utility.yul\":7486:7491   */\n      0x00\n        /* \"#utility.yul\":7511:7592   */\n      tag_482\n        /* \"#utility.yul\":7527:7591   */\n      tag_483\n        /* \"#utility.yul\":7584:7590   */\n      dup5\n        /* \"#utility.yul\":7527:7591   */\n      tag_364\n      jump\t// in\n    tag_483:\n        /* \"#utility.yul\":7511:7592   */\n      tag_363\n      jump\t// in\n    tag_482:\n        /* \"#utility.yul\":7502:7592   */\n      swap1\n      pop\n        /* \"#utility.yul\":7612:7617   */\n      dup1\n        /* \"#utility.yul\":7641:7647   */\n      dup4\n        /* \"#utility.yul\":7634:7639   */\n      dup3\n        /* \"#utility.yul\":7627:7648   */\n      mstore\n        /* \"#utility.yul\":7675:7679   */\n      0x20\n        /* \"#utility.yul\":7668:7673   */\n      dup3\n        /* \"#utility.yul\":7664:7680   */\n      add\n        /* \"#utility.yul\":7657:7680   */\n      swap1\n      pop\n        /* \"#utility.yul\":7728:7732   */\n      0x20\n        /* \"#utility.yul\":7720:7726   */\n      dup5\n        /* \"#utility.yul\":7716:7733   */\n      mul\n        /* \"#utility.yul\":7708:7714   */\n      dup4\n        /* \"#utility.yul\":7704:7734   */\n      add\n        /* \"#utility.yul\":7757:7760   */\n      dup6\n        /* \"#utility.yul\":7749:7755   */\n      dup2\n        /* \"#utility.yul\":7746:7761   */\n      gt\n        /* \"#utility.yul\":7743:7865   */\n      iszero\n      tag_484\n      jumpi\n        /* \"#utility.yul\":7776:7855   */\n      tag_485\n      tag_365\n      jump\t// in\n    tag_485:\n        /* \"#utility.yul\":7743:7865   */\n    tag_484:\n        /* \"#utility.yul\":7891:7897   */\n      dup4\n        /* \"#utility.yul\":7874:8094   */\n    tag_486:\n        /* \"#utility.yul\":7908:7914   */\n      dup2\n        /* \"#utility.yul\":7903:7906   */\n      dup2\n        /* \"#utility.yul\":7900:7915   */\n      lt\n        /* \"#utility.yul\":7874:8094   */\n      iszero\n      tag_488\n      jumpi\n        /* \"#utility.yul\":7983:7986   */\n      dup1\n        /* \"#utility.yul\":8012:8049   */\n      tag_489\n        /* \"#utility.yul\":8045:8048   */\n      dup9\n        /* \"#utility.yul\":8033:8043   */\n      dup3\n        /* \"#utility.yul\":8012:8049   */\n      tag_359\n      jump\t// in\n    tag_489:\n        /* \"#utility.yul\":8007:8010   */\n      dup5\n        /* \"#utility.yul\":8000:8050   */\n      mstore\n        /* \"#utility.yul\":8079:8083   */\n      0x20\n        /* \"#utility.yul\":8074:8077   */\n      dup5\n        /* \"#utility.yul\":8070:8084   */\n      add\n        /* \"#utility.yul\":8063:8084   */\n      swap4\n      pop\n        /* \"#utility.yul\":7950:8094   */\n      pop\n        /* \"#utility.yul\":7934:7938   */\n      0x20\n        /* \"#utility.yul\":7929:7932   */\n      dup2\n        /* \"#utility.yul\":7925:7939   */\n      add\n        /* \"#utility.yul\":7918:7939   */\n      swap1\n      pop\n        /* \"#utility.yul\":7874:8094   */\n      jump(tag_486)\n    tag_488:\n        /* \"#utility.yul\":7878:7899   */\n      pop\n        /* \"#utility.yul\":7492:8100   */\n      pop\n      pop\n        /* \"#utility.yul\":7390:8100   */\n      swap4\n      swap3\n      pop\n      pop\n      pop\n      jump\t// out\n        /* \"#utility.yul\":8123:8493   */\n    tag_367:\n        /* \"#utility.yul\":8194:8199   */\n      0x00\n        /* \"#utility.yul\":8243:8246   */\n      dup3\n        /* \"#utility.yul\":8236:8240   */\n      0x1f\n        /* \"#utility.yul\":8228:8234   */\n      dup4\n        /* \"#utility.yul\":8224:8241   */\n      add\n        /* \"#utility.yul\":8220:8247   */\n      slt\n        /* \"#utility.yul\":8210:8332   */\n      tag_491\n      jumpi\n        /* \"#utility.yul\":8251:8330   */\n      tag_492\n      tag_361\n      jump\t// in\n    tag_492:\n        /* \"#utility.yul\":8210:8332   */\n    tag_491:\n        /* \"#utility.yul\":8368:8374   */\n      dup2\n        /* \"#utility.yul\":8355:8375   */\n      calldataload\n        /* \"#utility.yul\":8393:8487   */\n      tag_493\n        /* \"#utility.yul\":8483:8486   */\n      dup5\n        /* \"#utility.yul\":8475:8481   */\n      dup3\n        /* \"#utility.yul\":8468:8472   */\n      0x20\n        /* \"#utility.yul\":8460:8466   */\n      dup7\n        /* \"#utility.yul\":8456:8473   */\n      add\n        /* \"#utility.yul\":8393:8487   */\n      tag_366\n      jump\t// in\n    tag_493:\n        /* \"#utility.yul\":8384:8487   */\n      swap2\n      pop\n        /* \"#utility.yul\":8200:8493   */\n      pop\n        /* \"#utility.yul\":8123:8493   */\n      swap3\n      swap2\n      pop\n      pop\n      jump\t// out\n        /* \"#utility.yul\":8499:8810   */\n    tag_368:\n        /* \"#utility.yul\":8576:8580   */\n      0x00\n        /* \"#utility.yul\":8666:8684   */\n      0xffffffffffffffff\n        /* \"#utility.yul\":8658:8664   */\n      dup3\n        /* \"#utility.yul\":8655:8685   */\n      gt\n        /* \"#utility.yul\":8652:8708   */\n      iszero\n      tag_495\n      jumpi\n        /* \"#utility.yul\":8688:8706   */\n      tag_496\n      tag_257\n      jump\t// in\n    tag_496:\n        /* \"#utility.yul\":8652:8708   */\n    tag_495:\n        /* \"#utility.yul\":8738:8742   */\n      0x20\n        /* \"#utility.yul\":8730:8736   */\n      dup3\n        /* \"#utility.yul\":8726:8743   */\n      mul\n        /* \"#utility.yul\":8718:8743   */\n      swap1\n      pop\n        /* \"#utility.yul\":8798:8802   */\n      0x20\n        /* \"#utility.yul\":8792:8796   */\n      dup2\n        /* \"#utility.yul\":8788:8803   */\n      add\n        /* \"#utility.yul\":8780:8803   */\n      swap1\n      pop\n        /* \"#utility.yul\":8499:8810   */\n      swap2\n      swap1\n      pop\n      jump\t// out\n        /* \"#utility.yul\":8833:9543   */\n    tag_369:\n        /* \"#utility.yul\":8929:8934   */\n      0x00\n        /* \"#utility.yul\":8954:9035   */\n      tag_498\n        /* \"#utility.yul\":8970:9034   */\n      tag_499\n        /* \"#utility.yul\":9027:9033   */\n      dup5\n        /* \"#utility.yul\":8970:9034   */\n      tag_368\n      jump\t// in\n    tag_499:\n        /* \"#utility.yul\":8954:9035   */\n      tag_363\n      jump\t// in\n    tag_498:\n        /* \"#utility.yul\":8945:9035   */\n      swap1\n      pop\n        /* \"#utility.yul\":9055:9060   */\n      dup1\n        /* \"#utility.yul\":9084:9090   */\n      dup4\n        /* \"#utility.yul\":9077:9082   */\n      dup3\n        /* \"#utility.yul\":9070:9091   */\n      mstore\n        /* \"#utility.yul\":9118:9122   */\n      0x20\n        /* \"#utility.yul\":9111:9116   */\n      dup3\n        /* \"#utility.yul\":9107:9123   */\n      add\n        /* \"#utility.yul\":9100:9123   */\n      swap1\n      pop\n        /* \"#utility.yul\":9171:9175   */\n      0x20\n        /* \"#utility.yul\":9163:9169   */\n      dup5\n        /* \"#utility.yul\":9159:9176   */\n      mul\n        /* \"#utility.yul\":9151:9157   */\n      dup4\n        /* \"#utility.yul\":9147:9177   */\n      add\n        /* \"#utility.yul\":9200:9203   */\n      dup6\n        /* \"#utility.yul\":9192:9198   */\n      dup2\n        /* \"#utility.yul\":9189:9204   */\n      gt\n        /* \"#utility.yul\":9186:9308   */\n      iszero\n      tag_500\n      jumpi\n        /* \"#utility.yul\":9219:9298   */\n      tag_501\n      tag_365\n      jump\t// in\n    tag_501:\n        /* \"#utility.yul\":9186:9308   */\n    tag_500:\n        /* \"#utility.yul\":9334:9340   */\n      dup4\n        /* \"#utility.yul\":9317:9537   */\n    tag_502:\n        /* \"#utility.yul\":9351:9357   */\n      dup2\n        /* \"#utility.yul\":9346:9349   */\n      dup2\n        /* \"#utility.yul\":9343:9358   */\n      lt\n        /* \"#utility.yul\":9317:9537   */\n      iszero\n      tag_504\n      jumpi\n        /* \"#utility.yul\":9426:9429   */\n      dup1\n        /* \"#utility.yul\":9455:9492   */\n      tag_505\n        /* \"#utility.yul\":9488:9491   */\n      dup9\n        /* \"#utility.yul\":9476:9486   */\n      dup3\n        /* \"#utility.yul\":9455:9492   */\n      tag_344\n      jump\t// in\n    tag_505:\n        /* \"#utility.yul\":9450:9453   */\n      dup5\n        /* \"#utility.yul\":9443:9493   */\n      mstore\n        /* \"#utility.yul\":9522:9526   */\n      0x20\n        /* \"#utility.yul\":9517:9520   */\n      dup5\n        /* \"#utility.yul\":9513:9527   */\n      add\n        /* \"#utility.yul\":9506:9527   */\n      swap4\n      pop\n        /* \"#utility.yul\":9393:9537   */\n      pop\n        /* \"#utility.yul\":9377:9381   */\n      0x20\n        /* \"#utility.yul\":9372:9375   */\n      dup2\n        /* \"#utility.yul\":9368:9382   */\n      add\n        /* \"#utility.yul\":9361:9382   */\n      swap1\n      pop\n        /* \"#utility.yul\":9317:9537   */\n      jump(tag_502)\n    tag_504:\n        /* \"#utility.yul\":9321:9342   */\n      pop\n        /* \"#utility.yul\":8935:9543   */\n      pop\n      pop\n        /* \"#utility.yul\":8833:9543   */\n      swap4\n      swap3\n      pop\n      pop\n      pop\n      jump\t// out\n        /* \"#utility.yul\":9566:9936   */\n    tag_370:\n        /* \"#utility.yul\":9637:9642   */\n      0x00\n        /* \"#utility.yul\":9686:9689   */\n      dup3\n        /* \"#utility.yul\":9679:9683   */\n      0x1f\n        /* \"#utility.yul\":9671:9677   */\n      dup4\n        /* \"#utility.yul\":9667:9684   */\n      add\n        /* \"#utility.yul\":9663:9690   */\n      slt\n        /* \"#utility.yul\":9653:9775   */\n      tag_507\n      jumpi\n        /* \"#utility.yul\":9694:9773   */\n      tag_508\n      tag_361\n      jump\t// in\n    tag_508:\n        /* \"#utility.yul\":9653:9775   */\n    tag_507:\n        /* \"#utility.yul\":9811:9817   */\n      dup2\n        /* \"#utility.yul\":9798:9818   */\n      calldataload\n        /* \"#utility.yul\":9836:9930   */\n      tag_509\n        /* \"#utility.yul\":9926:9929   */\n      dup5\n        /* \"#utility.yul\":9918:9924   */\n      dup3\n        /* \"#utility.yul\":9911:9915   */\n      0x20\n        /* \"#utility.yul\":9903:9909   */\n      dup7\n        /* \"#utility.yul\":9899:9916   */\n      add\n        /* \"#utility.yul\":9836:9930   */\n      tag_369\n      jump\t// in\n    tag_509:\n        /* \"#utility.yul\":9827:9930   */\n      swap2\n      pop\n        /* \"#utility.yul\":9643:9936   */\n      pop\n        /* \"#utility.yul\":9566:9936   */\n      swap3\n      swap2\n      pop\n      pop\n      jump\t// out\n        /* \"#utility.yul\":9942:10836   */\n    tag_73:\n        /* \"#utility.yul\":10060:10066   */\n      0x00\n        /* \"#utility.yul\":10068:10074   */\n      dup1\n        /* \"#utility.yul\":10117:10119   */\n      0x40\n        /* \"#utility.yul\":10105:10114   */\n      dup4\n        /* \"#utility.yul\":10096:10103   */\n      dup6\n        /* \"#utility.yul\":10092:10115   */\n      sub\n        /* \"#utility.yul\":10088:10120   */\n      slt\n        /* \"#utility.yul\":10085:10204   */\n      iszero\n      tag_511\n      jumpi\n        /* \"#utility.yul\":10123:10202   */\n      tag_512\n      tag_340\n      jump\t// in\n    tag_512:\n        /* \"#utility.yul\":10085:10204   */\n    tag_511:\n        /* \"#utility.yul\":10271:10272   */\n      0x00\n        /* \"#utility.yul\":10260:10269   */\n      dup4\n        /* \"#utility.yul\":10256:10273   */\n      add\n        /* \"#utility.yul\":10243:10274   */\n      calldataload\n        /* \"#utility.yul\":10301:10319   */\n      0xffffffffffffffff\n        /* \"#utility.yul\":10293:10299   */\n      dup2\n        /* \"#utility.yul\":10290:10320   */\n      gt\n        /* \"#utility.yul\":10287:10404   */\n      iszero\n      tag_513\n      jumpi\n        /* \"#utility.yul\":10323:10402   */\n      tag_514\n      tag_341\n      jump\t// in\n    tag_514:\n        /* \"#utility.yul\":10287:10404   */\n    tag_513:\n        /* \"#utility.yul\":10428:10506   */\n      tag_515\n        /* \"#utility.yul\":10498:10505   */\n      dup6\n        /* \"#utility.yul\":10489:10495   */\n      dup3\n        /* \"#utility.yul\":10478:10487   */\n      dup7\n        /* \"#utility.yul\":10474:10496   */\n      add\n        /* \"#utility.yul\":10428:10506   */\n      tag_367\n      jump\t// in\n    tag_515:\n        /* \"#utility.yul\":10418:10506   */\n      swap3\n      pop\n        /* \"#utility.yul\":10214:10516   */\n      pop\n        /* \"#utility.yul\":10583:10585   */\n      0x20\n        /* \"#utility.yul\":10572:10581   */\n      dup4\n        /* \"#utility.yul\":10568:10586   */\n      add\n        /* \"#utility.yul\":10555:10587   */\n      calldataload\n        /* \"#utility.yul\":10614:10632   */\n      0xffffffffffffffff\n        /* \"#utility.yul\":10606:10612   */\n      dup2\n        /* \"#utility.yul\":10603:10633   */\n      gt\n        /* \"#utility.yul\":10600:10717   */\n      iszero\n      tag_516\n      jumpi\n        /* \"#utility.yul\":10636:10715   */\n      tag_517\n      tag_341\n      jump\t// in\n    tag_517:\n        /* \"#utility.yul\":10600:10717   */\n    tag_516:\n        /* \"#utility.yul\":10741:10819   */\n      tag_518\n        /* \"#utility.yul\":10811:10818   */\n      dup6\n        /* \"#utility.yul\":10802:10808   */\n      dup3\n        /* \"#utility.yul\":10791:10800   */\n      dup7\n        /* \"#utility.yul\":10787:10809   */\n      add\n        /* \"#utility.yul\":10741:10819   */\n      tag_370\n      jump\t// in\n    tag_518:\n        /* \"#utility.yul\":10731:10819   */\n      swap2\n      pop\n        /* \"#utility.yul\":10526:10829   */\n      pop\n        /* \"#utility.yul\":9942:10836   */\n      swap3\n      pop\n      swap3\n      swap1\n      pop\n      jump\t// out\n        /* \"#utility.yul\":10842:10958   */\n    tag_371:\n        /* \"#utility.yul\":10912:10933   */\n      tag_520\n        /* \"#utility.yul\":10927:10932   */\n      dup2\n        /* \"#utility.yul\":10912:10933   */\n      tag_345\n      jump\t// in\n    tag_520:\n        /* \"#utility.yul\":10905:10910   */\n      dup2\n        /* \"#utility.yul\":10902:10934   */\n      eq\n        /* \"#utility.yul\":10892:10952   */\n      tag_521\n      jumpi\n        /* \"#utility.yul\":10948:10949   */\n      0x00\n        /* \"#utility.yul\":10945:10946   */\n      dup1\n        /* \"#utility.yul\":10938:10950   */\n      revert\n        /* \"#utility.yul\":10892:10952   */\n    tag_521:\n        /* \"#utility.yul\":10842:10958   */\n      pop\n      jump\t// out\n        /* \"#utility.yul\":10964:11097   */\n    tag_372:\n        /* \"#utility.yul\":11007:11012   */\n      0x00\n        /* \"#utility.yul\":11045:11051   */\n      dup2\n        /* \"#utility.yul\":11032:11052   */\n      calldataload\n        /* \"#utility.yul\":11023:11052   */\n      swap1\n      pop\n        /* \"#utility.yul\":11061:11091   */\n      tag_523\n        /* \"#utility.yul\":11085:11090   */\n      dup2\n        /* \"#utility.yul\":11061:11091   */\n      tag_371\n      jump\t// in\n    tag_523:\n        /* \"#utility.yul\":10964:11097   */\n      swap3\n      swap2\n      pop\n      pop\n      jump\t// out\n        /* \"#utility.yul\":11103:11571   */\n    tag_83:\n        /* \"#utility.yul\":11168:11174   */\n      0x00\n        /* \"#utility.yul\":11176:11182   */\n      dup1\n        /* \"#utility.yul\":11225:11227   */\n      0x40\n        /* \"#utility.yul\":11213:11222   */\n      dup4\n        /* \"#utility.yul\":11204:11211   */\n      dup6\n        /* \"#utility.yul\":11200:11223   */\n      sub\n        /* \"#utility.yul\":11196:11228   */\n      slt\n        /* \"#utility.yul\":11193:11312   */\n      iszero\n      tag_525\n      jumpi\n        /* \"#utility.yul\":11231:11310   */\n      tag_526\n      tag_340\n      jump\t// in\n    tag_526:\n        /* \"#utility.yul\":11193:11312   */\n    tag_525:\n        /* \"#utility.yul\":11351:11352   */\n      0x00\n        /* \"#utility.yul\":11376:11429   */\n      tag_527\n        /* \"#utility.yul\":11421:11428   */\n      dup6\n        /* \"#utility.yul\":11412:11418   */\n      dup3\n        /* \"#utility.yul\":11401:11410   */\n      dup7\n        /* \"#utility.yul\":11397:11419   */\n      add\n        /* \"#utility.yul\":11376:11429   */\n      tag_359\n      jump\t// in\n    tag_527:\n        /* \"#utility.yul\":11366:11429   */\n      swap3\n      pop\n        /* \"#utility.yul\":11322:11439   */\n      pop\n        /* \"#utility.yul\":11478:11480   */\n      0x20\n        /* \"#utility.yul\":11504:11554   */\n      tag_528\n        /* \"#utility.yul\":11546:11553   */\n      dup6\n        /* \"#utility.yul\":11537:11543   */\n      dup3\n        /* \"#utility.yul\":11526:11535   */\n      dup7\n        /* \"#utility.yul\":11522:11544   */\n      add\n        /* \"#utility.yul\":11504:11554   */\n      tag_372\n      jump\t// in\n    tag_528:\n        /* \"#utility.yul\":11494:11554   */\n      swap2\n      pop\n        /* \"#utility.yul\":11449:11564   */\n      pop\n        /* \"#utility.yul\":11103:11571   */\n      swap3\n      pop\n      swap3\n      swap1\n      pop\n      jump\t// out\n        /* \"#utility.yul\":11577:11694   */\n    tag_373:\n        /* \"#utility.yul\":11686:11687   */\n      0x00\n        /* \"#utility.yul\":11683:11684   */\n      dup1\n        /* \"#utility.yul\":11676:11688   */\n      revert\n        /* \"#utility.yul\":11700:12007   */\n    tag_374:\n        /* \"#utility.yul\":11761:11765   */\n      0x00\n        /* \"#utility.yul\":11851:11869   */\n      0xffffffffffffffff\n        /* \"#utility.yul\":11843:11849   */\n      dup3\n        /* \"#utility.yul\":11840:11870   */\n      gt\n        /* \"#utility.yul\":11837:11893   */\n      iszero\n      tag_531\n      jumpi\n        /* \"#utility.yul\":11873:11891   */\n      tag_532\n      tag_257\n      jump\t// in\n    tag_532:\n        /* \"#utility.yul\":11837:11893   */\n    tag_531:\n        /* \"#utility.yul\":11911:11940   */\n      tag_533\n        /* \"#utility.yul\":11933:11939   */\n      dup3\n        /* \"#utility.yul\":11911:11940   */\n      tag_353\n      jump\t// in\n    tag_533:\n        /* \"#utility.yul\":11903:11940   */\n      swap1\n      pop\n        /* \"#utility.yul\":11995:11999   */\n      0x20\n        /* \"#utility.yul\":11989:11993   */\n      dup2\n        /* \"#utility.yul\":11985:12000   */\n      add\n        /* \"#utility.yul\":11977:12000   */\n      swap1\n      pop\n        /* \"#utility.yul\":11700:12007   */\n      swap2\n      swap1\n      pop\n      jump\t// out\n        /* \"#utility.yul\":12013:12159   */\n    tag_375:\n        /* \"#utility.yul\":12110:12116   */\n      dup3\n        /* \"#utility.yul\":12105:12108   */\n      dup2\n        /* \"#utility.yul\":12100:12103   */\n      dup4\n        /* \"#utility.yul\":12087:12117   */\n      calldatacopy\n        /* \"#utility.yul\":12151:12152   */\n      0x00\n        /* \"#utility.yul\":12142:12148   */\n      dup4\n        /* \"#utility.yul\":12137:12140   */\n      dup4\n        /* \"#utility.yul\":12133:12149   */\n      add\n        /* \"#utility.yul\":12126:12153   */\n      mstore\n        /* \"#utility.yul\":12013:12159   */\n      pop\n      pop\n      pop\n      jump\t// out\n        /* \"#utility.yul\":12165:12588   */\n    tag_376:\n        /* \"#utility.yul\":12242:12247   */\n      0x00\n        /* \"#utility.yul\":12267:12332   */\n      tag_536\n        /* \"#utility.yul\":12283:12331   */\n      tag_537\n        /* \"#utility.yul\":12324:12330   */\n      dup5\n        /* \"#utility.yul\":12283:12331   */\n      tag_374\n      jump\t// in\n    tag_537:\n        /* \"#utility.yul\":12267:12332   */\n      tag_363\n      jump\t// in\n    tag_536:\n        /* \"#utility.yul\":12258:12332   */\n      swap1\n      pop\n        /* \"#utility.yul\":12355:12361   */\n      dup3\n        /* \"#utility.yul\":12348:12353   */\n      dup2\n        /* \"#utility.yul\":12341:12362   */\n      mstore\n        /* \"#utility.yul\":12393:12397   */\n      0x20\n        /* \"#utility.yul\":12386:12391   */\n      dup2\n        /* \"#utility.yul\":12382:12398   */\n      add\n        /* \"#utility.yul\":12431:12434   */\n      dup5\n        /* \"#utility.yul\":12422:12428   */\n      dup5\n        /* \"#utility.yul\":12417:12420   */\n      dup5\n        /* \"#utility.yul\":12413:12429   */\n      add\n        /* \"#utility.yul\":12410:12435   */\n      gt\n        /* \"#utility.yul\":12407:12519   */\n      iszero\n      tag_538\n      jumpi\n        /* \"#utility.yul\":12438:12517   */\n      tag_539\n      tag_373\n      jump\t// in\n    tag_539:\n        /* \"#utility.yul\":12407:12519   */\n    tag_538:\n        /* \"#utility.yul\":12528:12582   */\n      tag_540\n        /* \"#utility.yul\":12575:12581   */\n      dup5\n        /* \"#utility.yul\":12570:12573   */\n      dup3\n        /* \"#utility.yul\":12565:12568   */\n      dup6\n        /* \"#utility.yul\":12528:12582   */\n      tag_375\n      jump\t// in\n    tag_540:\n        /* \"#utility.yul\":12248:12588   */\n      pop\n        /* \"#utility.yul\":12165:12588   */\n      swap4\n      swap3\n      pop\n      pop\n      pop\n      jump\t// out\n        /* \"#utility.yul\":12607:12945   */\n    tag_377:\n        /* \"#utility.yul\":12662:12667   */\n      0x00\n        /* \"#utility.yul\":12711:12714   */\n      dup3\n        /* \"#utility.yul\":12704:12708   */\n      0x1f\n        /* \"#utility.yul\":12696:12702   */\n      dup4\n        /* \"#utility.yul\":12692:12709   */\n      add\n        /* \"#utility.yul\":12688:12715   */\n      slt\n        /* \"#utility.yul\":12678:12800   */\n      tag_542\n      jumpi\n        /* \"#utility.yul\":12719:12798   */\n      tag_543\n      tag_361\n      jump\t// in\n    tag_543:\n        /* \"#utility.yul\":12678:12800   */\n    tag_542:\n        /* \"#utility.yul\":12836:12842   */\n      dup2\n        /* \"#utility.yul\":12823:12843   */\n      calldataload\n        /* \"#utility.yul\":12861:12939   */\n      tag_544\n        /* \"#utility.yul\":12935:12938   */\n      dup5\n        /* \"#utility.yul\":12927:12933   */\n      dup3\n        /* \"#utility.yul\":12920:12924   */\n      0x20\n        /* \"#utility.yul\":12912:12918   */\n      dup7\n        /* \"#utility.yul\":12908:12925   */\n      add\n        /* \"#utility.yul\":12861:12939   */\n      tag_376\n      jump\t// in\n    tag_544:\n        /* \"#utility.yul\":12852:12939   */\n      swap2\n      pop\n        /* \"#utility.yul\":12668:12945   */\n      pop\n        /* \"#utility.yul\":12607:12945   */\n      swap3\n      swap2\n      pop\n      pop\n      jump\t// out\n        /* \"#utility.yul\":12951:13894   */\n    tag_87:\n        /* \"#utility.yul\":13046:13052   */\n      0x00\n        /* \"#utility.yul\":13054:13060   */\n      dup1\n        /* \"#utility.yul\":13062:13068   */\n      0x00\n        /* \"#utility.yul\":13070:13076   */\n      dup1\n        /* \"#utility.yul\":13119:13122   */\n      0x80\n        /* \"#utility.yul\":13107:13116   */\n      dup6\n        /* \"#utility.yul\":13098:13105   */\n      dup8\n        /* \"#utility.yul\":13094:13117   */\n      sub\n        /* \"#utility.yul\":13090:13123   */\n      slt\n        /* \"#utility.yul\":13087:13207   */\n      iszero\n      tag_546\n      jumpi\n        /* \"#utility.yul\":13126:13205   */\n      tag_547\n      tag_340\n      jump\t// in\n    tag_547:\n        /* \"#utility.yul\":13087:13207   */\n    tag_546:\n        /* \"#utility.yul\":13246:13247   */\n      0x00\n        /* \"#utility.yul\":13271:13324   */\n      tag_548\n        /* \"#utility.yul\":13316:13323   */\n      dup8\n        /* \"#utility.yul\":13307:13313   */\n      dup3\n        /* \"#utility.yul\":13296:13305   */\n      dup9\n        /* \"#utility.yul\":13292:13314   */\n      add\n        /* \"#utility.yul\":13271:13324   */\n      tag_359\n      jump\t// in\n    tag_548:\n        /* \"#utility.yul\":13261:13324   */\n      swap5\n      pop\n        /* \"#utility.yul\":13217:13334   */\n      pop\n        /* \"#utility.yul\":13373:13375   */\n      0x20\n        /* \"#utility.yul\":13399:13452   */\n      tag_549\n        /* \"#utility.yul\":13444:13451   */\n      dup8\n        /* \"#utility.yul\":13435:13441   */\n      dup3\n        /* \"#utility.yul\":13424:13433   */\n      dup9\n        /* \"#utility.yul\":13420:13442   */\n      add\n        /* \"#utility.yul\":13399:13452   */\n      tag_359\n      jump\t// in\n    tag_549:\n        /* \"#utility.yul\":13389:13452   */\n      swap4\n      pop\n        /* \"#utility.yul\":13344:13462   */\n      pop\n        /* \"#utility.yul\":13501:13503   */\n      0x40\n        /* \"#utility.yul\":13527:13580   */\n      tag_550\n        /* \"#utility.yul\":13572:13579   */\n      dup8\n        /* \"#utility.yul\":13563:13569   */\n      dup3\n        /* \"#utility.yul\":13552:13561   */\n      dup9\n        /* \"#utility.yul\":13548:13570   */\n      add\n        /* \"#utility.yul\":13527:13580   */\n      tag_344\n      jump\t// in\n    tag_550:\n        /* \"#utility.yul\":13517:13580   */\n      swap3\n      pop\n        /* \"#utility.yul\":13472:13590   */\n      pop\n        /* \"#utility.yul\":13657:13659   */\n      0x60\n        /* \"#utility.yul\":13646:13655   */\n      dup6\n        /* \"#utility.yul\":13642:13660   */\n      add\n        /* \"#utility.yul\":13629:13661   */\n      calldataload\n        /* \"#utility.yul\":13688:13706   */\n      0xffffffffffffffff\n        /* \"#utility.yul\":13680:13686   */\n      dup2\n        /* \"#utility.yul\":13677:13707   */\n      gt\n        /* \"#utility.yul\":13674:13791   */\n      iszero\n      tag_551\n      jumpi\n        /* \"#utility.yul\":13710:13789   */\n      tag_552\n      tag_341\n      jump\t// in\n    tag_552:\n        /* \"#utility.yul\":13674:13791   */\n    tag_551:\n        /* \"#utility.yul\":13815:13877   */\n      tag_553\n        /* \"#utility.yul\":13869:13876   */\n      dup8\n        /* \"#utility.yul\":13860:13866   */\n      dup3\n        /* \"#utility.yul\":13849:13858   */\n      dup9\n        /* \"#utility.yul\":13845:13867   */\n      add\n        /* \"#utility.yul\":13815:13877   */\n      tag_377\n      jump\t// in\n    tag_553:\n        /* \"#utility.yul\":13805:13877   */\n      swap2\n      pop\n        /* \"#utility.yul\":13600:13887   */\n      pop\n        /* \"#utility.yul\":12951:13894   */\n      swap3\n      swap6\n      swap2\n      swap5\n      pop\n      swap3\n      pop\n      jump\t// out\n        /* \"#utility.yul\":13900:14374   */\n    tag_95:\n        /* \"#utility.yul\":13968:13974   */\n      0x00\n        /* \"#utility.yul\":13976:13982   */\n      dup1\n        /* \"#utility.yul\":14025:14027   */\n      0x40\n        /* \"#utility.yul\":14013:14022   */\n      dup4\n        /* \"#utility.yul\":14004:14011   */\n      dup6\n        /* \"#utility.yul\":14000:14023   */\n      sub\n        /* \"#utility.yul\":13996:14028   */\n      slt\n        /* \"#utility.yul\":13993:14112   */\n      iszero\n      tag_555\n      jumpi\n        /* \"#utility.yul\":14031:14110   */\n      tag_556\n      tag_340\n      jump\t// in\n    tag_556:\n        /* \"#utility.yul\":13993:14112   */\n    tag_555:\n        /* \"#utility.yul\":14151:14152   */\n      0x00\n        /* \"#utility.yul\":14176:14229   */\n      tag_557\n        /* \"#utility.yul\":14221:14228   */\n      dup6\n        /* \"#utility.yul\":14212:14218   */\n      dup3\n        /* \"#utility.yul\":14201:14210   */\n      dup7\n        /* \"#utility.yul\":14197:14219   */\n      add\n        /* \"#utility.yul\":14176:14229   */\n      tag_359\n      jump\t// in\n    tag_557:\n        /* \"#utility.yul\":14166:14229   */\n      swap3\n      pop\n        /* \"#utility.yul\":14122:14239   */\n      pop\n        /* \"#utility.yul\":14278:14280   */\n      0x20\n        /* \"#utility.yul\":14304:14357   */\n      tag_558\n        /* \"#utility.yul\":14349:14356   */\n      dup6\n        /* \"#utility.yul\":14340:14346   */\n      dup3\n        /* \"#utility.yul\":14329:14338   */\n      dup7\n        /* \"#utility.yul\":14325:14347   */\n      add\n        /* \"#utility.yul\":14304:14357   */\n      tag_359\n      jump\t// in\n    tag_558:\n        /* \"#utility.yul\":14294:14357   */\n      swap2\n      pop\n        /* \"#utility.yul\":14249:14367   */\n      pop\n        /* \"#utility.yul\":13900:14374   */\n      swap3\n      pop\n      swap3\n      swap1\n      pop\n      jump\t// out\n        /* \"#utility.yul\":14380:14523   */\n    tag_378:\n        /* \"#utility.yul\":14437:14442   */\n      0x00\n        /* \"#utility.yul\":14468:14474   */\n      dup2\n        /* \"#utility.yul\":14462:14475   */\n      mload\n        /* \"#utility.yul\":14453:14475   */\n      swap1\n      pop\n        /* \"#utility.yul\":14484:14517   */\n      tag_560\n        /* \"#utility.yul\":14511:14516   */\n      dup2\n        /* \"#utility.yul\":14484:14517   */\n      tag_358\n      jump\t// in\n    tag_560:\n        /* \"#utility.yul\":14380:14523   */\n      swap3\n      swap2\n      pop\n      pop\n      jump\t// out\n        /* \"#utility.yul\":14529:14880   */\n    tag_105:\n        /* \"#utility.yul\":14599:14605   */\n      0x00\n        /* \"#utility.yul\":14648:14650   */\n      0x20\n        /* \"#utility.yul\":14636:14645   */\n      dup3\n        /* \"#utility.yul\":14627:14634   */\n      dup5\n        /* \"#utility.yul\":14623:14646   */\n      sub\n        /* \"#utility.yul\":14619:14651   */\n      slt\n        /* \"#utility.yul\":14616:14735   */\n      iszero\n      tag_562\n      jumpi\n        /* \"#utility.yul\":14654:14733   */\n      tag_563\n      tag_340\n      jump\t// in\n    tag_563:\n        /* \"#utility.yul\":14616:14735   */\n    tag_562:\n        /* \"#utility.yul\":14774:14775   */\n      0x00\n        /* \"#utility.yul\":14799:14863   */\n      tag_564\n        /* \"#utility.yul\":14855:14862   */\n      dup5\n        /* \"#utility.yul\":14846:14852   */\n      dup3\n        /* \"#utility.yul\":14835:14844   */\n      dup6\n        /* \"#utility.yul\":14831:14853   */\n      add\n        /* \"#utility.yul\":14799:14863   */\n      tag_378\n      jump\t// in\n    tag_564:\n        /* \"#utility.yul\":14789:14863   */\n      swap2\n      pop\n        /* \"#utility.yul\":14745:14873   */\n      pop\n        /* \"#utility.yul\":14529:14880   */\n      swap3\n      swap2\n      pop\n      pop\n      jump\t// out\n        /* \"#utility.yul\":14886:15066   */\n    tag_379:\n        /* \"#utility.yul\":14934:15011   */\n      0x4e487b7100000000000000000000000000000000000000000000000000000000\n        /* \"#utility.yul\":14931:14932   */\n      0x00\n        /* \"#utility.yul\":14924:15012   */\n      mstore\n        /* \"#utility.yul\":15031:15035   */\n      0x22\n        /* \"#utility.yul\":15028:15029   */\n      0x04\n        /* \"#utility.yul\":15021:15036   */\n      mstore\n        /* \"#utility.yul\":15055:15059   */\n      0x24\n        /* \"#utility.yul\":15052:15053   */\n      0x00\n        /* \"#utility.yul\":15045:15060   */\n      revert\n        /* \"#utility.yul\":15072:15392   */\n    tag_118:\n        /* \"#utility.yul\":15116:15122   */\n      0x00\n        /* \"#utility.yul\":15153:15154   */\n      0x02\n        /* \"#utility.yul\":15147:15151   */\n      dup3\n        /* \"#utility.yul\":15143:15155   */\n      div\n        /* \"#utility.yul\":15133:15155   */\n      swap1\n      pop\n        /* \"#utility.yul\":15200:15201   */\n      0x01\n        /* \"#utility.yul\":15194:15198   */\n      dup3\n        /* \"#utility.yul\":15190:15202   */\n      and\n        /* \"#utility.yul\":15221:15239   */\n      dup1\n        /* \"#utility.yul\":15211:15292   */\n      tag_567\n      jumpi\n        /* \"#utility.yul\":15277:15281   */\n      0x7f\n        /* \"#utility.yul\":15269:15275   */\n      dup3\n        /* \"#utility.yul\":15265:15282   */\n      and\n        /* \"#utility.yul\":15255:15282   */\n      swap2\n      pop\n        /* \"#utility.yul\":15211:15292   */\n    tag_567:\n        /* \"#utility.yul\":15339:15341   */\n      0x20\n        /* \"#utility.yul\":15331:15337   */\n      dup3\n        /* \"#utility.yul\":15328:15342   */\n      lt\n        /* \"#utility.yul\":15308:15326   */\n      dup2\n        /* \"#utility.yul\":15305:15343   */\n      sub\n        /* \"#utility.yul\":15302:15386   */\n      tag_568\n      jumpi\n        /* \"#utility.yul\":15358:15376   */\n      tag_569\n      tag_379\n      jump\t// in\n    tag_569:\n        /* \"#utility.yul\":15302:15386   */\n    tag_568:\n        /* \"#utility.yul\":15123:15392   */\n      pop\n        /* \"#utility.yul\":15072:15392   */\n      swap2\n      swap1\n      pop\n      jump\t// out\n        /* \"#utility.yul\":15398:15623   */\n    tag_380:\n        /* \"#utility.yul\":15538:15572   */\n      0x536f756c426f756e6420546f6b656e3a2063616e6e6f74207472616e73666572\n        /* \"#utility.yul\":15534:15535   */\n      0x00\n        /* \"#utility.yul\":15526:15532   */\n      dup3\n        /* \"#utility.yul\":15522:15536   */\n      add\n        /* \"#utility.yul\":15515:15573   */\n      mstore\n        /* \"#utility.yul\":15607:15615   */\n      0x20746f6b656e0000000000000000000000000000000000000000000000000000\n        /* \"#utility.yul\":15602:15604   */\n      0x20\n        /* \"#utility.yul\":15594:15600   */\n      dup3\n        /* \"#utility.yul\":15590:15605   */\n      add\n        /* \"#utility.yul\":15583:15616   */\n      mstore\n        /* \"#utility.yul\":15398:15623   */\n      pop\n      jump\t// out\n        /* \"#utility.yul\":15629:15995   */\n    tag_381:\n        /* \"#utility.yul\":15771:15774   */\n      0x00\n        /* \"#utility.yul\":15792:15859   */\n      tag_572\n        /* \"#utility.yul\":15856:15858   */\n      0x26\n        /* \"#utility.yul\":15851:15854   */\n      dup4\n        /* \"#utility.yul\":15792:15859   */\n      tag_351\n      jump\t// in\n    tag_572:\n        /* \"#utility.yul\":15785:15859   */\n      swap2\n      pop\n        /* \"#utility.yul\":15868:15961   */\n      tag_573\n        /* \"#utility.yul\":15957:15960   */\n      dup3\n        /* \"#utility.yul\":15868:15961   */\n      tag_380\n      jump\t// in\n    tag_573:\n        /* \"#utility.yul\":15986:15988   */\n      0x40\n        /* \"#utility.yul\":15981:15984   */\n      dup3\n        /* \"#utility.yul\":15977:15989   */\n      add\n        /* \"#utility.yul\":15970:15989   */\n      swap1\n      pop\n        /* \"#utility.yul\":15629:15995   */\n      swap2\n      swap1\n      pop\n      jump\t// out\n        /* \"#utility.yul\":16001:16420   */\n    tag_136:\n        /* \"#utility.yul\":16167:16171   */\n      0x00\n        /* \"#utility.yul\":16205:16207   */\n      0x20\n        /* \"#utility.yul\":16194:16203   */\n      dup3\n        /* \"#utility.yul\":16190:16208   */\n      add\n        /* \"#utility.yul\":16182:16208   */\n      swap1\n      pop\n        /* \"#utility.yul\":16254:16263   */\n      dup2\n        /* \"#utility.yul\":16248:16252   */\n      dup2\n        /* \"#utility.yul\":16244:16264   */\n      sub\n        /* \"#utility.yul\":16240:16241   */\n      0x00\n        /* \"#utility.yul\":16229:16238   */\n      dup4\n        /* \"#utility.yul\":16225:16242   */\n      add\n        /* \"#utility.yul\":16218:16265   */\n      mstore\n        /* \"#utility.yul\":16282:16413   */\n      tag_575\n        /* \"#utility.yul\":16408:16412   */\n      dup2\n        /* \"#utility.yul\":16282:16413   */\n      tag_381\n      jump\t// in\n    tag_575:\n        /* \"#utility.yul\":16274:16413   */\n      swap1\n      pop\n        /* \"#utility.yul\":16001:16420   */\n      swap2\n      swap1\n      pop\n      jump\t// out\n        /* \"#utility.yul\":16426:16652   */\n    tag_382:\n        /* \"#utility.yul\":16566:16600   */\n      0x726563697069656e747320616e6420746f6b656e496473206c656e677468206d\n        /* \"#utility.yul\":16562:16563   */\n      0x00\n        /* \"#utility.yul\":16554:16560   */\n      dup3\n        /* \"#utility.yul\":16550:16564   */\n      add\n        /* \"#utility.yul\":16543:16601   */\n      mstore\n        /* \"#utility.yul\":16635:16644   */\n      0x69736d6174636800000000000000000000000000000000000000000000000000\n        /* \"#utility.yul\":16630:16632   */\n      0x20\n        /* \"#utility.yul\":16622:16628   */\n      dup3\n        /* \"#utility.yul\":16618:16633   */\n      add\n        /* \"#utility.yul\":16611:16645   */\n      mstore\n        /* \"#utility.yul\":16426:16652   */\n      pop\n      jump\t// out\n        /* \"#utility.yul\":16658:17024   */\n    tag_383:\n        /* \"#utility.yul\":16800:16803   */\n      0x00\n        /* \"#utility.yul\":16821:16888   */\n      tag_578\n        /* \"#utility.yul\":16885:16887   */\n      0x27\n        /* \"#utility.yul\":16880:16883   */\n      dup4\n        /* \"#utility.yul\":16821:16888   */\n      tag_351\n      jump\t// in\n    tag_578:\n        /* \"#utility.yul\":16814:16888   */\n      swap2\n      pop\n        /* \"#utility.yul\":16897:16990   */\n      tag_579\n        /* \"#utility.yul\":16986:16989   */\n      dup3\n        /* \"#utility.yul\":16897:16990   */\n      tag_382\n      jump\t// in\n    tag_579:\n        /* \"#utility.yul\":17015:17017   */\n      0x40\n        /* \"#utility.yul\":17010:17013   */\n      dup3\n        /* \"#utility.yul\":17006:17018   */\n      add\n        /* \"#utility.yul\":16999:17018   */\n      swap1\n      pop\n        /* \"#utility.yul\":16658:17024   */\n      swap2\n      swap1\n      pop\n      jump\t// out\n        /* \"#utility.yul\":17030:17449   */\n    tag_157:\n        /* \"#utility.yul\":17196:17200   */\n      0x00\n        /* \"#utility.yul\":17234:17236   */\n      0x20\n        /* \"#utility.yul\":17223:17232   */\n      dup3\n        /* \"#utility.yul\":17219:17237   */\n      add\n        /* \"#utility.yul\":17211:17237   */\n      swap1\n      pop\n        /* \"#utility.yul\":17283:17292   */\n      dup2\n        /* \"#utility.yul\":17277:17281   */\n      dup2\n        /* \"#utility.yul\":17273:17293   */\n      sub\n        /* \"#utility.yul\":17269:17270   */\n      0x00\n        /* \"#utility.yul\":17258:17267   */\n      dup4\n        /* \"#utility.yul\":17254:17271   */\n      add\n        /* \"#utility.yul\":17247:17294   */\n      mstore\n        /* \"#utility.yul\":17311:17442   */\n      tag_581\n        /* \"#utility.yul\":17437:17441   */\n      dup2\n        /* \"#utility.yul\":17311:17442   */\n      tag_383\n      jump\t// in\n    tag_581:\n        /* \"#utility.yul\":17303:17442   */\n      swap1\n      pop\n        /* \"#utility.yul\":17030:17449   */\n      swap2\n      swap1\n      pop\n      jump\t// out\n        /* \"#utility.yul\":17455:17618   */\n    tag_384:\n        /* \"#utility.yul\":17595:17610   */\n      0x6e6f20726563697069656e747300000000000000000000000000000000000000\n        /* \"#utility.yul\":17591:17592   */\n      0x00\n        /* \"#utility.yul\":17583:17589   */\n      dup3\n        /* \"#utility.yul\":17579:17593   */\n      add\n        /* \"#utility.yul\":17572:17611   */\n      mstore\n        /* \"#utility.yul\":17455:17618   */\n      pop\n      jump\t// out\n        /* \"#utility.yul\":17624:17990   */\n    tag_385:\n        /* \"#utility.yul\":17766:17769   */\n      0x00\n        /* \"#utility.yul\":17787:17854   */\n      tag_584\n        /* \"#utility.yul\":17851:17853   */\n      0x0d\n        /* \"#utility.yul\":17846:17849   */\n      dup4\n        /* \"#utility.yul\":17787:17854   */\n      tag_351\n      jump\t// in\n    tag_584:\n        /* \"#utility.yul\":17780:17854   */\n      swap2\n      pop\n        /* \"#utility.yul\":17863:17956   */\n      tag_585\n        /* \"#utility.yul\":17952:17955   */\n      dup3\n        /* \"#utility.yul\":17863:17956   */\n      tag_384\n      jump\t// in\n    tag_585:\n        /* \"#utility.yul\":17981:17983   */\n      0x20\n        /* \"#utility.yul\":17976:17979   */\n      dup3\n        /* \"#utility.yul\":17972:17984   */\n      add\n        /* \"#utility.yul\":17965:17984   */\n      swap1\n      pop\n        /* \"#utility.yul\":17624:17990   */\n      swap2\n      swap1\n      pop\n      jump\t// out\n        /* \"#utility.yul\":17996:18415   */\n    tag_160:\n        /* \"#utility.yul\":18162:18166   */\n      0x00\n        /* \"#utility.yul\":18200:18202   */\n      0x20\n        /* \"#utility.yul\":18189:18198   */\n      dup3\n        /* \"#utility.yul\":18185:18203   */\n      add\n        /* \"#utility.yul\":18177:18203   */\n      swap1\n      pop\n        /* \"#utility.yul\":18249:18258   */\n      dup2\n        /* \"#utility.yul\":18243:18247   */\n      dup2\n        /* \"#utility.yul\":18239:18259   */\n      sub\n        /* \"#utility.yul\":18235:18236   */\n      0x00\n        /* \"#utility.yul\":18224:18233   */\n      dup4\n        /* \"#utility.yul\":18220:18237   */\n      add\n        /* \"#utility.yul\":18213:18260   */\n      mstore\n        /* \"#utility.yul\":18277:18408   */\n      tag_587\n        /* \"#utility.yul\":18403:18407   */\n      dup2\n        /* \"#utility.yul\":18277:18408   */\n      tag_385\n      jump\t// in\n    tag_587:\n        /* \"#utility.yul\":18269:18408   */\n      swap1\n      pop\n        /* \"#utility.yul\":17996:18415   */\n      swap2\n      swap1\n      pop\n      jump\t// out\n        /* \"#utility.yul\":18421:18601   */\n    tag_167:\n        /* \"#utility.yul\":18469:18546   */\n      0x4e487b7100000000000000000000000000000000000000000000000000000000\n        /* \"#utility.yul\":18466:18467   */\n      0x00\n        /* \"#utility.yul\":18459:18547   */\n      mstore\n        /* \"#utility.yul\":18566:18570   */\n      0x32\n        /* \"#utility.yul\":18563:18564   */\n      0x04\n        /* \"#utility.yul\":18556:18571   */\n      mstore\n        /* \"#utility.yul\":18590:18594   */\n      0x24\n        /* \"#utility.yul\":18587:18588   */\n      0x00\n        /* \"#utility.yul\":18580:18595   */\n      revert\n        /* \"#utility.yul\":18607:18777   */\n    tag_386:\n        /* \"#utility.yul\":18747:18769   */\n      0x746f6b656e20616c7265616479206d696e746564000000000000000000000000\n        /* \"#utility.yul\":18743:18744   */\n      0x00\n        /* \"#utility.yul\":18735:18741   */\n      dup3\n        /* \"#utility.yul\":18731:18745   */\n      add\n        /* \"#utility.yul\":18724:18770   */\n      mstore\n        /* \"#utility.yul\":18607:18777   */\n      pop\n      jump\t// out\n        /* \"#utility.yul\":18783:19149   */\n    tag_387:\n        /* \"#utility.yul\":18925:18928   */\n      0x00\n        /* \"#utility.yul\":18946:19013   */\n      tag_591\n        /* \"#utility.yul\":19010:19012   */\n      0x14\n        /* \"#utility.yul\":19005:19008   */\n      dup4\n        /* \"#utility.yul\":18946:19013   */\n      tag_351\n      jump\t// in\n    tag_591:\n        /* \"#utility.yul\":18939:19013   */\n      swap2\n      pop\n        /* \"#utility.yul\":19022:19115   */\n      tag_592\n        /* \"#utility.yul\":19111:19114   */\n      dup3\n        /* \"#utility.yul\":19022:19115   */\n      tag_386\n      jump\t// in\n    tag_592:\n        /* \"#utility.yul\":19140:19142   */\n      0x20\n        /* \"#utility.yul\":19135:19138   */\n      dup3\n        /* \"#utility.yul\":19131:19143   */\n      add\n        /* \"#utility.yul\":19124:19143   */\n      swap1\n      pop\n        /* \"#utility.yul\":18783:19149   */\n      swap2\n      swap1\n      pop\n      jump\t// out\n        /* \"#utility.yul\":19155:19574   */\n    tag_170:\n        /* \"#utility.yul\":19321:19325   */\n      0x00\n        /* \"#utility.yul\":19359:19361   */\n      0x20\n        /* \"#utility.yul\":19348:19357   */\n      dup3\n        /* \"#utility.yul\":19344:19362   */\n      add\n        /* \"#utility.yul\":19336:19362   */\n      swap1\n      pop\n        /* \"#utility.yul\":19408:19417   */\n      dup2\n        /* \"#utility.yul\":19402:19406   */\n      dup2\n        /* \"#utility.yul\":19398:19418   */\n      sub\n        /* \"#utility.yul\":19394:19395   */\n      0x00\n        /* \"#utility.yul\":19383:19392   */\n      dup4\n        /* \"#utility.yul\":19379:19396   */\n      add\n        /* \"#utility.yul\":19372:19419   */\n      mstore\n        /* \"#utility.yul\":19436:19567   */\n      tag_594\n        /* \"#utility.yul\":19562:19566   */\n      dup2\n        /* \"#utility.yul\":19436:19567   */\n      tag_387\n      jump\t// in\n    tag_594:\n        /* \"#utility.yul\":19428:19567   */\n      swap1\n      pop\n        /* \"#utility.yul\":19155:19574   */\n      swap2\n      swap1\n      pop\n      jump\t// out\n        /* \"#utility.yul\":19580:19728   */\n    tag_388:\n        /* \"#utility.yul\":19682:19693   */\n      0x00\n        /* \"#utility.yul\":19719:19722   */\n      dup2\n        /* \"#utility.yul\":19704:19722   */\n      swap1\n      pop\n        /* \"#utility.yul\":19580:19728   */\n      swap3\n      swap2\n      pop\n      pop\n      jump\t// out\n        /* \"#utility.yul\":19734:20124   */\n    tag_389:\n        /* \"#utility.yul\":19840:19843   */\n      0x00\n        /* \"#utility.yul\":19868:19907   */\n      tag_597\n        /* \"#utility.yul\":19901:19906   */\n      dup3\n        /* \"#utility.yul\":19868:19907   */\n      tag_350\n      jump\t// in\n    tag_597:\n        /* \"#utility.yul\":19923:20012   */\n      tag_598\n        /* \"#utility.yul\":20005:20011   */\n      dup2\n        /* \"#utility.yul\":20000:20003   */\n      dup6\n        /* \"#utility.yul\":19923:20012   */\n      tag_388\n      jump\t// in\n    tag_598:\n        /* \"#utility.yul\":19916:20012   */\n      swap4\n      pop\n        /* \"#utility.yul\":20021:20086   */\n      tag_599\n        /* \"#utility.yul\":20079:20085   */\n      dup2\n        /* \"#utility.yul\":20074:20077   */\n      dup6\n        /* \"#utility.yul\":20067:20071   */\n      0x20\n        /* \"#utility.yul\":20060:20065   */\n      dup7\n        /* \"#utility.yul\":20056:20072   */\n      add\n        /* \"#utility.yul\":20021:20086   */\n      tag_352\n      jump\t// in\n    tag_599:\n        /* \"#utility.yul\":20111:20117   */\n      dup1\n        /* \"#utility.yul\":20106:20109   */\n      dup5\n        /* \"#utility.yul\":20102:20118   */\n      add\n        /* \"#utility.yul\":20095:20118   */\n      swap2\n      pop\n        /* \"#utility.yul\":19844:20124   */\n      pop\n        /* \"#utility.yul\":19734:20124   */\n      swap3\n      swap2\n      pop\n      pop\n      jump\t// out\n        /* \"#utility.yul\":20130:20565   */\n    tag_202:\n        /* \"#utility.yul\":20310:20313   */\n      0x00\n        /* \"#utility.yul\":20332:20427   */\n      tag_601\n        /* \"#utility.yul\":20423:20426   */\n      dup3\n        /* \"#utility.yul\":20414:20420   */\n      dup6\n        /* \"#utility.yul\":20332:20427   */\n      tag_389\n      jump\t// in\n    tag_601:\n        /* \"#utility.yul\":20325:20427   */\n      swap2\n      pop\n        /* \"#utility.yul\":20444:20539   */\n      tag_602\n        /* \"#utility.yul\":20535:20538   */\n      dup3\n        /* \"#utility.yul\":20526:20532   */\n      dup5\n        /* \"#utility.yul\":20444:20539   */\n      tag_389\n      jump\t// in\n    tag_602:\n        /* \"#utility.yul\":20437:20539   */\n      swap2\n      pop\n        /* \"#utility.yul\":20556:20559   */\n      dup2\n        /* \"#utility.yul\":20549:20559   */\n      swap1\n      pop\n        /* \"#utility.yul\":20130:20565   */\n      swap4\n      swap3\n      pop\n      pop\n      pop\n      jump\t// out\n        /* \"#utility.yul\":20571:21013   */\n    tag_229:\n        /* \"#utility.yul\":20720:20724   */\n      0x00\n        /* \"#utility.yul\":20758:20760   */\n      0x60\n        /* \"#utility.yul\":20747:20756   */\n      dup3\n        /* \"#utility.yul\":20743:20761   */\n      add\n        /* \"#utility.yul\":20735:20761   */\n      swap1\n      pop\n        /* \"#utility.yul\":20771:20842   */\n      tag_604\n        /* \"#utility.yul\":20839:20840   */\n      0x00\n        /* \"#utility.yul\":20828:20837   */\n      dup4\n        /* \"#utility.yul\":20824:20841   */\n      add\n        /* \"#utility.yul\":20815:20821   */\n      dup7\n        /* \"#utility.yul\":20771:20842   */\n      tag_357\n      jump\t// in\n    tag_604:\n        /* \"#utility.yul\":20852:20924   */\n      tag_605\n        /* \"#utility.yul\":20920:20922   */\n      0x20\n        /* \"#utility.yul\":20909:20918   */\n      dup4\n        /* \"#utility.yul\":20905:20923   */\n      add\n        /* \"#utility.yul\":20896:20902   */\n      dup6\n        /* \"#utility.yul\":20852:20924   */\n      tag_360\n      jump\t// in\n    tag_605:\n        /* \"#utility.yul\":20934:21006   */\n      tag_606\n        /* \"#utility.yul\":21002:21004   */\n      0x40\n        /* \"#utility.yul\":20991:21000   */\n      dup4\n        /* \"#utility.yul\":20987:21005   */\n      add\n        /* \"#utility.yul\":20978:20984   */\n      dup5\n        /* \"#utility.yul\":20934:21006   */\n      tag_357\n      jump\t// in\n    tag_606:\n        /* \"#utility.yul\":20571:21013   */\n      swap5\n      swap4\n      pop\n      pop\n      pop\n      pop\n      jump\t// out\n        /* \"#utility.yul\":21019:21199   */\n    tag_263:\n        /* \"#utility.yul\":21067:21144   */\n      0x4e487b7100000000000000000000000000000000000000000000000000000000\n        /* \"#utility.yul\":21064:21065   */\n      0x00\n        /* \"#utility.yul\":21057:21145   */\n      mstore\n        /* \"#utility.yul\":21164:21168   */\n      0x12\n        /* \"#utility.yul\":21161:21162   */\n      0x04\n        /* \"#utility.yul\":21154:21169   */\n      mstore\n        /* \"#utility.yul\":21188:21192   */\n      0x24\n        /* \"#utility.yul\":21185:21186   */\n      0x00\n        /* \"#utility.yul\":21178:21193   */\n      revert\n        /* \"#utility.yul\":21205:21303   */\n    tag_390:\n        /* \"#utility.yul\":21256:21262   */\n      0x00\n        /* \"#utility.yul\":21290:21295   */\n      dup2\n        /* \"#utility.yul\":21284:21296   */\n      mload\n        /* \"#utility.yul\":21274:21296   */\n      swap1\n      pop\n        /* \"#utility.yul\":21205:21303   */\n      swap2\n      swap1\n      pop\n      jump\t// out\n        /* \"#utility.yul\":21309:21477   */\n    tag_391:\n        /* \"#utility.yul\":21392:21403   */\n      0x00\n        /* \"#utility.yul\":21426:21432   */\n      dup3\n        /* \"#utility.yul\":21421:21424   */\n      dup3\n        /* \"#utility.yul\":21414:21433   */\n      mstore\n        /* \"#utility.yul\":21466:21470   */\n      0x20\n        /* \"#utility.yul\":21461:21464   */\n      dup3\n        /* \"#utility.yul\":21457:21471   */\n      add\n        /* \"#utility.yul\":21442:21471   */\n      swap1\n      pop\n        /* \"#utility.yul\":21309:21477   */\n      swap3\n      swap2\n      pop\n      pop\n      jump\t// out\n        /* \"#utility.yul\":21483:21856   */\n    tag_392:\n        /* \"#utility.yul\":21569:21572   */\n      0x00\n        /* \"#utility.yul\":21597:21635   */\n      tag_611\n        /* \"#utility.yul\":21629:21634   */\n      dup3\n        /* \"#utility.yul\":21597:21635   */\n      tag_390\n      jump\t// in\n    tag_611:\n        /* \"#utility.yul\":21651:21721   */\n      tag_612\n        /* \"#utility.yul\":21714:21720   */\n      dup2\n        /* \"#utility.yul\":21709:21712   */\n      dup6\n        /* \"#utility.yul\":21651:21721   */\n      tag_391\n      jump\t// in\n    tag_612:\n        /* \"#utility.yul\":21644:21721   */\n      swap4\n      pop\n        /* \"#utility.yul\":21730:21795   */\n      tag_613\n        /* \"#utility.yul\":21788:21794   */\n      dup2\n        /* \"#utility.yul\":21783:21786   */\n      dup6\n        /* \"#utility.yul\":21776:21780   */\n      0x20\n        /* \"#utility.yul\":21769:21774   */\n      dup7\n        /* \"#utility.yul\":21765:21781   */\n      add\n        /* \"#utility.yul\":21730:21795   */\n      tag_352\n      jump\t// in\n    tag_613:\n        /* \"#utility.yul\":21820:21849   */\n      tag_614\n        /* \"#utility.yul\":21842:21848   */\n      dup2\n        /* \"#utility.yul\":21820:21849   */\n      tag_353\n      jump\t// in\n    tag_614:\n        /* \"#utility.yul\":21815:21818   */\n      dup5\n        /* \"#utility.yul\":21811:21850   */\n      add\n        /* \"#utility.yul\":21804:21850   */\n      swap2\n      pop\n        /* \"#utility.yul\":21573:21856   */\n      pop\n        /* \"#utility.yul\":21483:21856   */\n      swap3\n      swap2\n      pop\n      pop\n      jump\t// out\n        /* \"#utility.yul\":21862:22502   */\n    tag_288:\n        /* \"#utility.yul\":22057:22061   */\n      0x00\n        /* \"#utility.yul\":22095:22098   */\n      0x80\n        /* \"#utility.yul\":22084:22093   */\n      dup3\n        /* \"#utility.yul\":22080:22099   */\n      add\n        /* \"#utility.yul\":22072:22099   */\n      swap1\n      pop\n        /* \"#utility.yul\":22109:22180   */\n      tag_616\n        /* \"#utility.yul\":22177:22178   */\n      0x00\n        /* \"#utility.yul\":22166:22175   */\n      dup4\n        /* \"#utility.yul\":22162:22179   */\n      add\n        /* \"#utility.yul\":22153:22159   */\n      dup8\n        /* \"#utility.yul\":22109:22180   */\n      tag_357\n      jump\t// in\n    tag_616:\n        /* \"#utility.yul\":22190:22262   */\n      tag_617\n        /* \"#utility.yul\":22258:22260   */\n      0x20\n        /* \"#utility.yul\":22247:22256   */\n      dup4\n        /* \"#utility.yul\":22243:22261   */\n      add\n        /* \"#utility.yul\":22234:22240   */\n      dup7\n        /* \"#utility.yul\":22190:22262   */\n      tag_357\n      jump\t// in\n    tag_617:\n        /* \"#utility.yul\":22272:22344   */\n      tag_618\n        /* \"#utility.yul\":22340:22342   */\n      0x40\n        /* \"#utility.yul\":22329:22338   */\n      dup4\n        /* \"#utility.yul\":22325:22343   */\n      add\n        /* \"#utility.yul\":22316:22322   */\n      dup6\n        /* \"#utility.yul\":22272:22344   */\n      tag_360\n      jump\t// in\n    tag_618:\n        /* \"#utility.yul\":22391:22400   */\n      dup2\n        /* \"#utility.yul\":22385:22389   */\n      dup2\n        /* \"#utility.yul\":22381:22401   */\n      sub\n        /* \"#utility.yul\":22376:22378   */\n      0x60\n        /* \"#utility.yul\":22365:22374   */\n      dup4\n        /* \"#utility.yul\":22361:22379   */\n      add\n        /* \"#utility.yul\":22354:22402   */\n      mstore\n        /* \"#utility.yul\":22419:22495   */\n      tag_619\n        /* \"#utility.yul\":22490:22494   */\n      dup2\n        /* \"#utility.yul\":22481:22487   */\n      dup5\n        /* \"#utility.yul\":22419:22495   */\n      tag_392\n      jump\t// in\n    tag_619:\n        /* \"#utility.yul\":22411:22495   */\n      swap1\n      pop\n        /* \"#utility.yul\":21862:22502   */\n      swap6\n      swap5\n      pop\n      pop\n      pop\n      pop\n      pop\n      jump\t// out\n        /* \"#utility.yul\":22508:22649   */\n    tag_393:\n        /* \"#utility.yul\":22564:22569   */\n      0x00\n        /* \"#utility.yul\":22595:22601   */\n      dup2\n        /* \"#utility.yul\":22589:22602   */\n      mload\n        /* \"#utility.yul\":22580:22602   */\n      swap1\n      pop\n        /* \"#utility.yul\":22611:22643   */\n      tag_621\n        /* \"#utility.yul\":22637:22642   */\n      dup2\n        /* \"#utility.yul\":22611:22643   */\n      tag_348\n      jump\t// in\n    tag_621:\n        /* \"#utility.yul\":22508:22649   */\n      swap3\n      swap2\n      pop\n      pop\n      jump\t// out\n        /* \"#utility.yul\":22655:23004   */\n    tag_291:\n        /* \"#utility.yul\":22724:22730   */\n      0x00\n        /* \"#utility.yul\":22773:22775   */\n      0x20\n        /* \"#utility.yul\":22761:22770   */\n      dup3\n        /* \"#utility.yul\":22752:22759   */\n      dup5\n        /* \"#utility.yul\":22748:22771   */\n      sub\n        /* \"#utility.yul\":22744:22776   */\n      slt\n        /* \"#utility.yul\":22741:22860   */\n      iszero\n      tag_623\n      jumpi\n        /* \"#utility.yul\":22779:22858   */\n      tag_624\n      tag_340\n      jump\t// in\n    tag_624:\n        /* \"#utility.yul\":22741:22860   */\n    tag_623:\n        /* \"#utility.yul\":22899:22900   */\n      0x00\n        /* \"#utility.yul\":22924:22987   */\n      tag_625\n        /* \"#utility.yul\":22979:22986   */\n      dup5\n        /* \"#utility.yul\":22970:22976   */\n      dup3\n        /* \"#utility.yul\":22959:22968   */\n      dup6\n        /* \"#utility.yul\":22955:22977   */\n      add\n        /* \"#utility.yul\":22924:22987   */\n      tag_393\n      jump\t// in\n    tag_625:\n        /* \"#utility.yul\":22914:22987   */\n      swap2\n      pop\n        /* \"#utility.yul\":22870:22997   */\n      pop\n        /* \"#utility.yul\":22655:23004   */\n      swap3\n      swap2\n      pop\n      pop\n      jump\t// out\n        /* \"#utility.yul\":23010:23342   */\n    tag_332:\n        /* \"#utility.yul\":23131:23135   */\n      0x00\n        /* \"#utility.yul\":23169:23171   */\n      0x40\n        /* \"#utility.yul\":23158:23167   */\n      dup3\n        /* \"#utility.yul\":23154:23172   */\n      add\n        /* \"#utility.yul\":23146:23172   */\n      swap1\n      pop\n        /* \"#utility.yul\":23182:23253   */\n      tag_627\n        /* \"#utility.yul\":23250:23251   */\n      0x00\n        /* \"#utility.yul\":23239:23248   */\n      dup4\n        /* \"#utility.yul\":23235:23252   */\n      add\n        /* \"#utility.yul\":23226:23232   */\n      dup6\n        /* \"#utility.yul\":23182:23253   */\n      tag_357\n      jump\t// in\n    tag_627:\n        /* \"#utility.yul\":23263:23335   */\n      tag_628\n        /* \"#utility.yul\":23331:23333   */\n      0x20\n        /* \"#utility.yul\":23320:23329   */\n      dup4\n        /* \"#utility.yul\":23316:23334   */\n      add\n        /* \"#utility.yul\":23307:23313   */\n      dup5\n        /* \"#utility.yul\":23263:23335   */\n      tag_360\n      jump\t// in\n    tag_628:\n        /* \"#utility.yul\":23010:23342   */\n      swap4\n      swap3\n      pop\n      pop\n      pop\n      jump\t// out\n    stop\n    data_5527595147fc49e1883d568742b73c73bcee5fae54ca092b6875f687fd33f412 68747470733a2f2f6261667962656961786f7063736c6834687a73646377327a366a6c76756c7332626e7236697765713662636b67326e6e35636a6136697a69676a792e697066732e6e667473746f726167652e6c696e6b2f\n\n    auxdata: 0xa2646970667358221220fdb2c085e86679ca8fafb17ca8e739095ab2390c67e047acb36d2019fc7798d664736f6c63430008170033\n}\n",
				"bytecode": {
					"linkReferences": {},
					"object": "608060405234801562000010575f80fd5b506040516200306b3803806200306b8339818101604052810190620000369190620004ca565b620000466200011a60201b60201c565b8282815f908162000058919062000784565b5080600190816200006a919062000784565b5050505f73ffffffffffffffffffffffffffffffffffffffff168173ffffffffffffffffffffffffffffffffffffffff1603620000e0575f6040517f1e4fbdf7000000000000000000000000000000000000000000000000000000008152600401620000d79190620008ab565b60405180910390fd5b620000f1816200012160201b60201c565b5062000112620001066200011a60201b60201c565b620001e460201b60201c565b5050620008c6565b5f33905090565b5f60065f9054906101000a900473ffffffffffffffffffffffffffffffffffffffff1690508160065f6101000a81548173ffffffffffffffffffffffffffffffffffffffff021916908373ffffffffffffffffffffffffffffffffffffffff1602179055508173ffffffffffffffffffffffffffffffffffffffff168173ffffffffffffffffffffffffffffffffffffffff167f8be0079c531659141344cd1fd0a4f28419497f9722a3daafe3b4186f6b6457e060405160405180910390a35050565b620001f46200027b60201b60201c565b5f73ffffffffffffffffffffffffffffffffffffffff168173ffffffffffffffffffffffffffffffffffffffff160362000267575f6040517f1e4fbdf70000000000000000000000000000000000000000000000000000000081526004016200025e9190620008ab565b60405180910390fd5b62000278816200012160201b60201c565b50565b6200028b6200011a60201b60201c565b73ffffffffffffffffffffffffffffffffffffffff16620002b16200031d60201b60201c565b73ffffffffffffffffffffffffffffffffffffffff16146200031b57620002dd6200011a60201b60201c565b6040517f118cdaa7000000000000000000000000000000000000000000000000000000008152600401620003129190620008ab565b60405180910390fd5b565b5f60065f9054906101000a900473ffffffffffffffffffffffffffffffffffffffff16905090565b5f604051905090565b5f80fd5b5f80fd5b5f80fd5b5f80fd5b5f601f19601f8301169050919050565b7f4e487b71000000000000000000000000000000000000000000000000000000005f52604160045260245ffd5b620003a6826200035e565b810181811067ffffffffffffffff82111715620003c857620003c76200036e565b5b80604052505050565b5f620003dc62000345565b9050620003ea82826200039b565b919050565b5f67ffffffffffffffff8211156200040c576200040b6200036e565b5b62000417826200035e565b9050602081019050919050565b5f5b838110156200044357808201518184015260208101905062000426565b5f8484015250505050565b5f620004646200045e84620003ef565b620003d1565b9050828152602081018484840111156200048357620004826200035a565b5b6200049084828562000424565b509392505050565b5f82601f830112620004af57620004ae62000356565b5b8151620004c18482602086016200044e565b91505092915050565b5f8060408385031215620004e357620004e26200034e565b5b5f83015167ffffffffffffffff81111562000503576200050262000352565b5b620005118582860162000498565b925050602083015167ffffffffffffffff81111562000535576200053462000352565b5b620005438582860162000498565b9150509250929050565b5f81519050919050565b7f4e487b71000000000000000000000000000000000000000000000000000000005f52602260045260245ffd5b5f60028204905060018216806200059c57607f821691505b602082108103620005b257620005b162000557565b5b50919050565b5f819050815f5260205f209050919050565b5f6020601f8301049050919050565b5f82821b905092915050565b5f60088302620006167fffffffffffffffffffffffffffffffffffffffffffffffffffffffffffffffff82620005d9565b620006228683620005d9565b95508019841693508086168417925050509392505050565b5f819050919050565b5f819050919050565b5f6200066c6200066662000660846200063a565b62000643565b6200063a565b9050919050565b5f819050919050565b62000687836200064c565b6200069f620006968262000673565b848454620005e5565b825550505050565b5f90565b620006b5620006a7565b620006c28184846200067c565b505050565b5b81811015620006e957620006dd5f82620006ab565b600181019050620006c8565b5050565b601f82111562000738576200070281620005b8565b6200070d84620005ca565b810160208510156200071d578190505b620007356200072c85620005ca565b830182620006c7565b50505b505050565b5f82821c905092915050565b5f6200075a5f19846008026200073d565b1980831691505092915050565b5f62000774838362000749565b9150826002028217905092915050565b6200078f826200054d565b67ffffffffffffffff811115620007ab57620007aa6200036e565b5b620007b7825462000584565b620007c4828285620006ed565b5f60209050601f831160018114620007fa575f8415620007e5578287015190505b620007f1858262000767565b86555062000860565b601f1984166200080a86620005b8565b5f5b8281101562000833578489015182556001820191506020850194506020810190506200080c565b868310156200085357848901516200084f601f89168262000749565b8355505b6001600288020188555050505b505050505050565b5f73ffffffffffffffffffffffffffffffffffffffff82169050919050565b5f620008938262000868565b9050919050565b620008a58162000887565b82525050565b5f602082019050620008c05f8301846200089a565b92915050565b61279780620008d45f395ff3fe608060405234801561000f575f80fd5b506004361061011e575f3560e01c806370a08231116100ab578063a22cb4651161006f578063a22cb46514610304578063b88d4fde14610320578063c87b56dd1461033c578063e985e9c51461036c578063f2fde38b1461039c5761011e565b806370a0823114610272578063715018a6146102a25780637c88e3d9146102ac5780638da5cb5b146102c857806395d89b41146102e65761011e565b8063095ea7b3116100f2578063095ea7b3146101d057806323b872dd146101ec57806332cb6b0c1461020857806342842e0e146102265780636352211e146102425761011e565b8062923f9e1461012257806301ffc9a71461015257806306fdde0314610182578063081812fc146101a0575b5f80fd5b61013c60048036038101906101379190611b5b565b6103b8565b6040516101499190611ba0565b60405180910390f35b61016c60048036038101906101679190611c0e565b610471565b6040516101799190611ba0565b60405180910390f35b61018a610552565b6040516101979190611cc3565b60405180910390f35b6101ba60048036038101906101b59190611b5b565b6105e1565b6040516101c79190611d22565b60405180910390f35b6101ea60048036038101906101e59190611d65565b6105fc565b005b61020660048036038101906102019190611da3565b610612565b005b610210610690565b60405161021d9190611e02565b60405180910390f35b610240600480360381019061023b9190611da3565b610695565b005b61025c60048036038101906102579190611b5b565b6106b4565b6040516102699190611d22565b60405180910390f35b61028c60048036038101906102879190611e1b565b6106c5565b6040516102999190611e02565b60405180910390f35b6102aa61077b565b005b6102c660048036038101906102c19190612046565b61078e565b005b6102d06108db565b6040516102dd9190611d22565b60405180910390f35b6102ee610903565b6040516102fb9190611cc3565b60405180910390f35b61031e600480360381019061031991906120e6565b610993565b005b61033a600480360381019061033591906121d4565b6109a9565b005b61035660048036038101906103519190611b5b565b610a29565b6040516103639190611cc3565b60405180910390f35b61038660048036038101906103819190612254565b610a8f565b6040516103939190611ba0565b60405180910390f35b6103b660048036038101906103b19190611e1b565b610b1d565b005b5f3073ffffffffffffffffffffffffffffffffffffffff16636352211e836040518263ffffffff1660e01b81526004016103f29190611e02565b602060405180830381865afa92505050801561042c57506040513d601f19601f8201168201806040525081019061042991906122a6565b60015b610438575f905061046c565b5f73ffffffffffffffffffffffffffffffffffffffff168173ffffffffffffffffffffffffffffffffffffffff1614159150505b919050565b5f7f80ac58cd000000000000000000000000000000000000000000000000000000007bffffffffffffffffffffffffffffffffffffffffffffffffffffffff1916827bffffffffffffffffffffffffffffffffffffffffffffffffffffffff1916148061053b57507f5b5e139f000000000000000000000000000000000000000000000000000000007bffffffffffffffffffffffffffffffffffffffffffffffffffffffff1916827bffffffffffffffffffffffffffffffffffffffffffffffffffffffff1916145b8061054b575061054a82610ba1565b5b9050919050565b60605f8054610560906122fe565b80601f016020809104026020016040519081016040528092919081815260200182805461058c906122fe565b80156105d75780601f106105ae576101008083540402835291602001916105d7565b820191905f5260205f20905b8154815290600101906020018083116105ba57829003601f168201915b5050505050905090565b5f6105eb82610c0a565b506105f582610c90565b9050919050565b61060e8282610609610cc9565b610cd0565b5050565b5f73ffffffffffffffffffffffffffffffffffffffff168373ffffffffffffffffffffffffffffffffffffffff1614610680576040517f08c379a00000000000000000000000000000000000000000000000000000000081526004016106779061239e565b60405180910390fd5b61068b838383610ce2565b505050565b602d81565b6106af83838360405180602001604052805f8152506109a9565b505050565b5f6106be82610c0a565b9050919050565b5f8073ffffffffffffffffffffffffffffffffffffffff168273ffffffffffffffffffffffffffffffffffffffff1603610736575f6040517f89c62b6400000000000000000000000000000000000000000000000000000000815260040161072d9190611d22565b60405180910390fd5b60035f8373ffffffffffffffffffffffffffffffffffffffff1673ffffffffffffffffffffffffffffffffffffffff1681526020019081526020015f20549050919050565b610783610de1565b61078c5f610e68565b565b610796610de1565b80518251146107da576040517f08c379a00000000000000000000000000000000000000000000000000000000081526004016107d19061242c565b60405180910390fd5b5f82511161081d576040517f08c379a000000000000000000000000000000000000000000000000000000000815260040161081490612494565b60405180910390fd5b5f5b82518110156108d65761084b82828151811061083e5761083d6124b2565b5b60200260200101516103b8565b1561088b576040517f08c379a000000000000000000000000000000000000000000000000000000000815260040161088290612529565b60405180910390fd5b6108c98382815181106108a1576108a06124b2565b5b60200260200101518383815181106108bc576108bb6124b2565b5b6020026020010151610f2b565b808060010191505061081f565b505050565b5f60065f9054906101000a900473ffffffffffffffffffffffffffffffffffffffff16905090565b606060018054610912906122fe565b80601f016020809104026020016040519081016040528092919081815260200182805461093e906122fe565b80156109895780601f1061096057610100808354040283529160200191610989565b820191905f5260205f20905b81548152906001019060200180831161096c57829003601f168201915b5050505050905090565b6109a561099e610cc9565b838361101e565b5050565b5f73ffffffffffffffffffffffffffffffffffffffff168473ffffffffffffffffffffffffffffffffffffffff1614610a17576040517f08c379a0000000000000000000000000000000000000000000000000000000008152600401610a0e9061239e565b60405180910390fd5b610a2384848484611187565b50505050565b6060610a3482610c0a565b505f610a3e6111a4565b90505f815111610a5c5760405180602001604052805f815250610a87565b80610a66846111c4565b604051602001610a77929190612581565b6040516020818303038152906040525b915050919050565b5f60055f8473ffffffffffffffffffffffffffffffffffffffff1673ffffffffffffffffffffffffffffffffffffffff1681526020019081526020015f205f8373ffffffffffffffffffffffffffffffffffffffff1673ffffffffffffffffffffffffffffffffffffffff1681526020019081526020015f205f9054906101000a900460ff16905092915050565b610b25610de1565b5f73ffffffffffffffffffffffffffffffffffffffff168173ffffffffffffffffffffffffffffffffffffffff1603610b95575f6040517f1e4fbdf7000000000000000000000000000000000000000000000000000000008152600401610b8c9190611d22565b60405180910390fd5b610b9e81610e68565b50565b5f7f01ffc9a7000000000000000000000000000000000000000000000000000000007bffffffffffffffffffffffffffffffffffffffffffffffffffffffff1916827bffffffffffffffffffffffffffffffffffffffffffffffffffffffff1916149050919050565b5f80610c158361128e565b90505f73ffffffffffffffffffffffffffffffffffffffff168173ffffffffffffffffffffffffffffffffffffffff1603610c8757826040517f7e273289000000000000000000000000000000000000000000000000000000008152600401610c7e9190611e02565b60405180910390fd5b80915050919050565b5f60045f8381526020019081526020015f205f9054906101000a900473ffffffffffffffffffffffffffffffffffffffff169050919050565b5f33905090565b610cdd83838360016112c7565b505050565b5f73ffffffffffffffffffffffffffffffffffffffff168273ffffffffffffffffffffffffffffffffffffffff1603610d52575f6040517f64a0ae92000000000000000000000000000000000000000000000000000000008152600401610d499190611d22565b60405180910390fd5b5f610d658383610d60610cc9565b611486565b90508373ffffffffffffffffffffffffffffffffffffffff168173ffffffffffffffffffffffffffffffffffffffff1614610ddb578382826040517f64283d7b000000000000000000000000000000000000000000000000000000008152600401610dd2939291906125a4565b60405180910390fd5b50505050565b610de9610cc9565b73ffffffffffffffffffffffffffffffffffffffff16610e076108db565b73ffffffffffffffffffffffffffffffffffffffff1614610e6657610e2a610cc9565b6040517f118cdaa7000000000000000000000000000000000000000000000000000000008152600401610e5d9190611d22565b60405180910390fd5b565b5f60065f9054906101000a900473ffffffffffffffffffffffffffffffffffffffff1690508160065f6101000a81548173ffffffffffffffffffffffffffffffffffffffff021916908373ffffffffffffffffffffffffffffffffffffffff1602179055508173ffffffffffffffffffffffffffffffffffffffff168173ffffffffffffffffffffffffffffffffffffffff167f8be0079c531659141344cd1fd0a4f28419497f9722a3daafe3b4186f6b6457e060405160405180910390a35050565b5f73ffffffffffffffffffffffffffffffffffffffff168273ffffffffffffffffffffffffffffffffffffffff1603610f9b575f6040517f64a0ae92000000000000000000000000000000000000000000000000000000008152600401610f929190611d22565b60405180910390fd5b5f610fa783835f611486565b90505f73ffffffffffffffffffffffffffffffffffffffff168173ffffffffffffffffffffffffffffffffffffffff1614611019575f6040517f73c6ac6e0000000000000000000000000000000000000000000000000000000081526004016110109190611d22565b60405180910390fd5b505050565b5f73ffffffffffffffffffffffffffffffffffffffff168273ffffffffffffffffffffffffffffffffffffffff160361108e57816040517f5b08ba180000000000000000000000000000000000000000000000000000000081526004016110859190611d22565b60405180910390fd5b8060055f8573ffffffffffffffffffffffffffffffffffffffff1673ffffffffffffffffffffffffffffffffffffffff1681526020019081526020015f205f8473ffffffffffffffffffffffffffffffffffffffff1673ffffffffffffffffffffffffffffffffffffffff1681526020019081526020015f205f6101000a81548160ff0219169083151502179055508173ffffffffffffffffffffffffffffffffffffffff168373ffffffffffffffffffffffffffffffffffffffff167f17307eab39ab6107e8899845ad3d59bd9653f200f220920489ca2b5937696c318360405161117a9190611ba0565b60405180910390a3505050565b611192848484610612565b61119e84848484611691565b50505050565b606060405180608001604052806059815260200161270960599139905090565b60605f60016111d284611843565b0190505f8167ffffffffffffffff8111156111f0576111ef611e4a565b5b6040519080825280601f01601f1916602001820160405280156112225781602001600182028036833780820191505090505b5090505f82602001820190505b600115611283578080600190039150507f3031323334353637383961626364656600000000000000000000000000000000600a86061a8153600a8581611278576112776125d9565b5b0494505f850361122f575b819350505050919050565b5f60025f8381526020019081526020015f205f9054906101000a900473ffffffffffffffffffffffffffffffffffffffff169050919050565b80806112ff57505f73ffffffffffffffffffffffffffffffffffffffff168273ffffffffffffffffffffffffffffffffffffffff1614155b15611431575f61130e84610c0a565b90505f73ffffffffffffffffffffffffffffffffffffffff168373ffffffffffffffffffffffffffffffffffffffff161415801561137857508273ffffffffffffffffffffffffffffffffffffffff168173ffffffffffffffffffffffffffffffffffffffff1614155b801561138b57506113898184610a8f565b155b156113cd57826040517fa9fbf51f0000000000000000000000000000000000000000000000000000000081526004016113c49190611d22565b60405180910390fd5b811561142f57838573ffffffffffffffffffffffffffffffffffffffff168273ffffffffffffffffffffffffffffffffffffffff167f8c5be1e5ebec7d5bd14f71427d1e84f3dd0314c0f7b2291e5b200ac8c7c3b92560405160405180910390a45b505b8360045f8581526020019081526020015f205f6101000a81548173ffffffffffffffffffffffffffffffffffffffff021916908373ffffffffffffffffffffffffffffffffffffffff16021790555050505050565b5f806114918461128e565b90505f73ffffffffffffffffffffffffffffffffffffffff168373ffffffffffffffffffffffffffffffffffffffff16146114d2576114d1818486611994565b5b5f73ffffffffffffffffffffffffffffffffffffffff168173ffffffffffffffffffffffffffffffffffffffff161461155d576115115f855f806112c7565b600160035f8373ffffffffffffffffffffffffffffffffffffffff1673ffffffffffffffffffffffffffffffffffffffff1681526020019081526020015f205f82825403925050819055505b5f73ffffffffffffffffffffffffffffffffffffffff168573ffffffffffffffffffffffffffffffffffffffff16146115dc57600160035f8773ffffffffffffffffffffffffffffffffffffffff1673ffffffffffffffffffffffffffffffffffffffff1681526020019081526020015f205f82825401925050819055505b8460025f8681526020019081526020015f205f6101000a81548173ffffffffffffffffffffffffffffffffffffffff021916908373ffffffffffffffffffffffffffffffffffffffff160217905550838573ffffffffffffffffffffffffffffffffffffffff168273ffffffffffffffffffffffffffffffffffffffff167fddf252ad1be2c89b69c2b068fc378daa952ba7f163c4a11628f55a4df523b3ef60405160405180910390a4809150509392505050565b5f8373ffffffffffffffffffffffffffffffffffffffff163b111561183d578273ffffffffffffffffffffffffffffffffffffffff1663150b7a026116d4610cc9565b8685856040518563ffffffff1660e01b81526004016116f69493929190612658565b6020604051808303815f875af192505050801561173157506040513d601f19601f8201168201806040525081019061172e91906126b6565b60015b6117b2573d805f811461175f576040519150601f19603f3d011682016040523d82523d5f602084013e611764565b606091505b505f8151036117aa57836040517f64a0ae920000000000000000000000000000000000000000000000000000000081526004016117a19190611d22565b60405180910390fd5b805181602001fd5b63150b7a0260e01b7bffffffffffffffffffffffffffffffffffffffffffffffffffffffff1916817bffffffffffffffffffffffffffffffffffffffffffffffffffffffff19161461183b57836040517f64a0ae920000000000000000000000000000000000000000000000000000000081526004016118329190611d22565b60405180910390fd5b505b50505050565b5f805f90507a184f03e93ff9f4daa797ed6e38ed64bf6a1f010000000000000000831061189f577a184f03e93ff9f4daa797ed6e38ed64bf6a1f0100000000000000008381611895576118946125d9565b5b0492506040810190505b6d04ee2d6d415b85acef810000000083106118dc576d04ee2d6d415b85acef810000000083816118d2576118d16125d9565b5b0492506020810190505b662386f26fc10000831061190b57662386f26fc100008381611901576119006125d9565b5b0492506010810190505b6305f5e1008310611934576305f5e100838161192a576119296125d9565b5b0492506008810190505b612710831061195957612710838161194f5761194e6125d9565b5b0492506004810190505b6064831061197c5760648381611972576119716125d9565b5b0492506002810190505b600a831061198b576001810190505b80915050919050565b61199f838383611a57565b611a52575f73ffffffffffffffffffffffffffffffffffffffff168373ffffffffffffffffffffffffffffffffffffffff1603611a1357806040517f7e273289000000000000000000000000000000000000000000000000000000008152600401611a0a9190611e02565b60405180910390fd5b81816040517f177e802f000000000000000000000000000000000000000000000000000000008152600401611a499291906126e1565b60405180910390fd5b505050565b5f8073ffffffffffffffffffffffffffffffffffffffff168373ffffffffffffffffffffffffffffffffffffffff1614158015611b0e57508273ffffffffffffffffffffffffffffffffffffffff168473ffffffffffffffffffffffffffffffffffffffff161480611acf5750611ace8484610a8f565b5b80611b0d57508273ffffffffffffffffffffffffffffffffffffffff16611af583610c90565b73ffffffffffffffffffffffffffffffffffffffff16145b5b90509392505050565b5f604051905090565b5f80fd5b5f80fd5b5f819050919050565b611b3a81611b28565b8114611b44575f80fd5b50565b5f81359050611b5581611b31565b92915050565b5f60208284031215611b7057611b6f611b20565b5b5f611b7d84828501611b47565b91505092915050565b5f8115159050919050565b611b9a81611b86565b82525050565b5f602082019050611bb35f830184611b91565b92915050565b5f7fffffffff0000000000000000000000000000000000000000000000000000000082169050919050565b611bed81611bb9565b8114611bf7575f80fd5b50565b5f81359050611c0881611be4565b92915050565b5f60208284031215611c2357611c22611b20565b5b5f611c3084828501611bfa565b91505092915050565b5f81519050919050565b5f82825260208201905092915050565b5f5b83811015611c70578082015181840152602081019050611c55565b5f8484015250505050565b5f601f19601f8301169050919050565b5f611c9582611c39565b611c9f8185611c43565b9350611caf818560208601611c53565b611cb881611c7b565b840191505092915050565b5f6020820190508181035f830152611cdb8184611c8b565b905092915050565b5f73ffffffffffffffffffffffffffffffffffffffff82169050919050565b5f611d0c82611ce3565b9050919050565b611d1c81611d02565b82525050565b5f602082019050611d355f830184611d13565b92915050565b611d4481611d02565b8114611d4e575f80fd5b50565b5f81359050611d5f81611d3b565b92915050565b5f8060408385031215611d7b57611d7a611b20565b5b5f611d8885828601611d51565b9250506020611d9985828601611b47565b9150509250929050565b5f805f60608486031215611dba57611db9611b20565b5b5f611dc786828701611d51565b9350506020611dd886828701611d51565b9250506040611de986828701611b47565b9150509250925092565b611dfc81611b28565b82525050565b5f602082019050611e155f830184611df3565b92915050565b5f60208284031215611e3057611e2f611b20565b5b5f611e3d84828501611d51565b91505092915050565b5f80fd5b7f4e487b71000000000000000000000000000000000000000000000000000000005f52604160045260245ffd5b611e8082611c7b565b810181811067ffffffffffffffff82111715611e9f57611e9e611e4a565b5b80604052505050565b5f611eb1611b17565b9050611ebd8282611e77565b919050565b5f67ffffffffffffffff821115611edc57611edb611e4a565b5b602082029050602081019050919050565b5f80fd5b5f611f03611efe84611ec2565b611ea8565b90508083825260208201905060208402830185811115611f2657611f25611eed565b5b835b81811015611f4f5780611f3b8882611d51565b845260208401935050602081019050611f28565b5050509392505050565b5f82601f830112611f6d57611f6c611e46565b5b8135611f7d848260208601611ef1565b91505092915050565b5f67ffffffffffffffff821115611fa057611f9f611e4a565b5b602082029050602081019050919050565b5f611fc3611fbe84611f86565b611ea8565b90508083825260208201905060208402830185811115611fe657611fe5611eed565b5b835b8181101561200f5780611ffb8882611b47565b845260208401935050602081019050611fe8565b5050509392505050565b5f82601f83011261202d5761202c611e46565b5b813561203d848260208601611fb1565b91505092915050565b5f806040838503121561205c5761205b611b20565b5b5f83013567ffffffffffffffff81111561207957612078611b24565b5b61208585828601611f59565b925050602083013567ffffffffffffffff8111156120a6576120a5611b24565b5b6120b285828601612019565b9150509250929050565b6120c581611b86565b81146120cf575f80fd5b50565b5f813590506120e0816120bc565b92915050565b5f80604083850312156120fc576120fb611b20565b5b5f61210985828601611d51565b925050602061211a858286016120d2565b9150509250929050565b5f80fd5b5f67ffffffffffffffff82111561214257612141611e4a565b5b61214b82611c7b565b9050602081019050919050565b828183375f83830152505050565b5f61217861217384612128565b611ea8565b90508281526020810184848401111561219457612193612124565b5b61219f848285612158565b509392505050565b5f82601f8301126121bb576121ba611e46565b5b81356121cb848260208601612166565b91505092915050565b5f805f80608085870312156121ec576121eb611b20565b5b5f6121f987828801611d51565b945050602061220a87828801611d51565b935050604061221b87828801611b47565b925050606085013567ffffffffffffffff81111561223c5761223b611b24565b5b612248878288016121a7565b91505092959194509250565b5f806040838503121561226a57612269611b20565b5b5f61227785828601611d51565b925050602061228885828601611d51565b9150509250929050565b5f815190506122a081611d3b565b92915050565b5f602082840312156122bb576122ba611b20565b5b5f6122c884828501612292565b91505092915050565b7f4e487b71000000000000000000000000000000000000000000000000000000005f52602260045260245ffd5b5f600282049050600182168061231557607f821691505b602082108103612328576123276122d1565b5b50919050565b7f536f756c426f756e6420546f6b656e3a2063616e6e6f74207472616e736665725f8201527f20746f6b656e0000000000000000000000000000000000000000000000000000602082015250565b5f612388602683611c43565b91506123938261232e565b604082019050919050565b5f6020820190508181035f8301526123b58161237c565b9050919050565b7f726563697069656e747320616e6420746f6b656e496473206c656e677468206d5f8201527f69736d6174636800000000000000000000000000000000000000000000000000602082015250565b5f612416602783611c43565b9150612421826123bc565b604082019050919050565b5f6020820190508181035f8301526124438161240a565b9050919050565b7f6e6f20726563697069656e7473000000000000000000000000000000000000005f82015250565b5f61247e600d83611c43565b91506124898261244a565b602082019050919050565b5f6020820190508181035f8301526124ab81612472565b9050919050565b7f4e487b71000000000000000000000000000000000000000000000000000000005f52603260045260245ffd5b7f746f6b656e20616c7265616479206d696e7465640000000000000000000000005f82015250565b5f612513601483611c43565b915061251e826124df565b602082019050919050565b5f6020820190508181035f83015261254081612507565b9050919050565b5f81905092915050565b5f61255b82611c39565b6125658185612547565b9350612575818560208601611c53565b80840191505092915050565b5f61258c8285612551565b91506125988284612551565b91508190509392505050565b5f6060820190506125b75f830186611d13565b6125c46020830185611df3565b6125d16040830184611d13565b949350505050565b7f4e487b71000000000000000000000000000000000000000000000000000000005f52601260045260245ffd5b5f81519050919050565b5f82825260208201905092915050565b5f61262a82612606565b6126348185612610565b9350612644818560208601611c53565b61264d81611c7b565b840191505092915050565b5f60808201905061266b5f830187611d13565b6126786020830186611d13565b6126856040830185611df3565b81810360608301526126978184612620565b905095945050505050565b5f815190506126b081611be4565b92915050565b5f602082840312156126cb576126ca611b20565b5b5f6126d8848285016126a2565b91505092915050565b5f6040820190506126f45f830185611d13565b6127016020830184611df3565b939250505056fe68747470733a2f2f6261667962656961786f7063736c6834687a73646377327a366a6c76756c7332626e7236697765713662636b67326e6e35636a6136697a69676a792e697066732e6e667473746f726167652e6c696e6b2fa2646970667358221220fdb2c085e86679ca8fafb17ca8e739095ab2390c67e047acb36d2019fc7798d664736f6c63430008170033",
					"opcodes": "PUSH1 0x80 PUSH1 0x40 MSTORE CALLVALUE DUP1 ISZERO PUSH3 0x10 JUMPI PUSH0 DUP1 REVERT JUMPDEST POP PUSH1 0x40 MLOAD PUSH3 0x306B CODESIZE SUB DUP1 PUSH3 0x306B DUP4 CODECOPY DUP2 DUP2 ADD PUSH1 0x40 MSTORE DUP2 ADD SWAP1 PUSH3 0x36 SWAP2 SWAP1 PUSH3 0x4CA JUMP JUMPDEST PUSH3 0x46 PUSH3 0x11A PUSH1 0x20 SHL PUSH1 0x20 SHR JUMP JUMPDEST DUP3 DUP3 DUP2 PUSH0 SWAP1 DUP2 PUSH3 0x58 SWAP2 SWAP1 PUSH3 0x784 JUMP JUMPDEST POP DUP1 PUSH1 0x1 SWAP1 DUP2 PUSH3 0x6A SWAP2 SWAP1 PUSH3 0x784 JUMP JUMPDEST POP POP POP PUSH0 PUSH20 0xFFFFFFFFFFFFFFFFFFFFFFFFFFFFFFFFFFFFFFFF AND DUP2 PUSH20 0xFFFFFFFFFFFFFFFFFFFFFFFFFFFFFFFFFFFFFFFF AND SUB PUSH3 0xE0 JUMPI PUSH0 PUSH1 0x40 MLOAD PUSH32 0x1E4FBDF700000000000000000000000000000000000000000000000000000000 DUP2 MSTORE PUSH1 0x4 ADD PUSH3 0xD7 SWAP2 SWAP1 PUSH3 0x8AB JUMP JUMPDEST PUSH1 0x40 MLOAD DUP1 SWAP2 SUB SWAP1 REVERT JUMPDEST PUSH3 0xF1 DUP2 PUSH3 0x121 PUSH1 0x20 SHL PUSH1 0x20 SHR JUMP JUMPDEST POP PUSH3 0x112 PUSH3 0x106 PUSH3 0x11A PUSH1 0x20 SHL PUSH1 0x20 SHR JUMP JUMPDEST PUSH3 0x1E4 PUSH1 0x20 SHL PUSH1 0x20 SHR JUMP JUMPDEST POP POP PUSH3 0x8C6 JUMP JUMPDEST PUSH0 CALLER SWAP1 POP SWAP1 JUMP JUMPDEST PUSH0 PUSH1 0x6 PUSH0 SWAP1 SLOAD SWAP1 PUSH2 0x100 EXP SWAP1 DIV PUSH20 0xFFFFFFFFFFFFFFFFFFFFFFFFFFFFFFFFFFFFFFFF AND SWAP1 POP DUP2 PUSH1 0x6 PUSH0 PUSH2 0x100 EXP DUP2 SLOAD DUP2 PUSH20 0xFFFFFFFFFFFFFFFFFFFFFFFFFFFFFFFFFFFFFFFF MUL NOT AND SWAP1 DUP4 PUSH20 0xFFFFFFFFFFFFFFFFFFFFFFFFFFFFFFFFFFFFFFFF AND MUL OR SWAP1 SSTORE POP DUP2 PUSH20 0xFFFFFFFFFFFFFFFFFFFFFFFFFFFFFFFFFFFFFFFF AND DUP2 PUSH20 0xFFFFFFFFFFFFFFFFFFFFFFFFFFFFFFFFFFFFFFFF AND PUSH32 0x8BE0079C531659141344CD1FD0A4F28419497F9722A3DAAFE3B4186F6B6457E0 PUSH1 0x40 MLOAD PUSH1 0x40 MLOAD DUP1 SWAP2 SUB SWAP1 LOG3 POP POP JUMP JUMPDEST PUSH3 0x1F4 PUSH3 0x27B PUSH1 0x20 SHL PUSH1 0x20 SHR JUMP JUMPDEST PUSH0 PUSH20 0xFFFFFFFFFFFFFFFFFFFFFFFFFFFFFFFFFFFFFFFF AND DUP2 PUSH20 0xFFFFFFFFFFFFFFFFFFFFFFFFFFFFFFFFFFFFFFFF AND SUB PUSH3 0x267 JUMPI PUSH0 PUSH1 0x40 MLOAD PUSH32 0x1E4FBDF700000000000000000000000000000000000000000000000000000000 DUP2 MSTORE PUSH1 0x4 ADD PUSH3 0x25E SWAP2 SWAP1 PUSH3 0x8AB JUMP JUMPDEST PUSH1 0x40 MLOAD DUP1 SWAP2 SUB SWAP1 REVERT JUMPDEST PUSH3 0x278 DUP2 PUSH3 0x121 PUSH1 0x20 SHL PUSH1 0x20 SHR JUMP JUMPDEST POP JUMP JUMPDEST PUSH3 0x28B PUSH3 0x11A PUSH1 0x20 SHL PUSH1 0x20 SHR JUMP JUMPDEST PUSH20 0xFFFFFFFFFFFFFFFFFFFFFFFFFFFFFFFFFFFFFFFF AND PUSH3 0x2B1 PUSH3 0x31D PUSH1 0x20 SHL PUSH1 0x20 SHR JUMP JUMPDEST PUSH20 0xFFFFFFFFFFFFFFFFFFFFFFFFFFFFFFFFFFFFFFFF AND EQ PUSH3 0x31B JUMPI PUSH3 0x2DD PUSH3 0x11A PUSH1 0x20 SHL PUSH1 0x20 SHR JUMP JUMPDEST PUSH1 0x40 MLOAD PUSH32 0x118CDAA700000000000000000000000000000000000000000000000000000000 DUP2 MSTORE PUSH1 0x4 ADD PUSH3 0x312 SWAP2 SWAP1 PUSH3 0x8AB JUMP JUMPDEST PUSH1 0x40 MLOAD DUP1 SWAP2 SUB SWAP1 REVERT JUMPDEST JUMP JUMPDEST PUSH0 PUSH1 0x6 PUSH0 SWAP1 SLOAD SWAP1 PUSH2 0x100 EXP SWAP1 DIV PUSH20 0xFFFFFFFFFFFFFFFFFFFFFFFFFFFFFFFFFFFFFFFF AND SWAP1 POP SWAP1 JUMP JUMPDEST PUSH0 PUSH1 0x40 MLOAD SWAP1 POP SWAP1 JUMP JUMPDEST PUSH0 DUP1 REVERT JUMPDEST PUSH0 DUP1 REVERT JUMPDEST PUSH0 DUP1 REVERT JUMPDEST PUSH0 DUP1 REVERT JUMPDEST PUSH0 PUSH1 0x1F NOT PUSH1 0x1F DUP4 ADD AND SWAP1 POP SWAP2 SWAP1 POP JUMP JUMPDEST PUSH32 0x4E487B7100000000000000000000000000000000000000000000000000000000 PUSH0 MSTORE PUSH1 0x41 PUSH1 0x4 MSTORE PUSH1 0x24 PUSH0 REVERT JUMPDEST PUSH3 0x3A6 DUP3 PUSH3 0x35E JUMP JUMPDEST DUP2 ADD DUP2 DUP2 LT PUSH8 0xFFFFFFFFFFFFFFFF DUP3 GT OR ISZERO PUSH3 0x3C8 JUMPI PUSH3 0x3C7 PUSH3 0x36E JUMP JUMPDEST JUMPDEST DUP1 PUSH1 0x40 MSTORE POP POP POP JUMP JUMPDEST PUSH0 PUSH3 0x3DC PUSH3 0x345 JUMP JUMPDEST SWAP1 POP PUSH3 0x3EA DUP3 DUP3 PUSH3 0x39B JUMP JUMPDEST SWAP2 SWAP1 POP JUMP JUMPDEST PUSH0 PUSH8 0xFFFFFFFFFFFFFFFF DUP3 GT ISZERO PUSH3 0x40C JUMPI PUSH3 0x40B PUSH3 0x36E JUMP JUMPDEST JUMPDEST PUSH3 0x417 DUP3 PUSH3 0x35E JUMP JUMPDEST SWAP1 POP PUSH1 0x20 DUP2 ADD SWAP1 POP SWAP2 SWAP1 POP JUMP JUMPDEST PUSH0 JUMPDEST DUP4 DUP2 LT ISZERO PUSH3 0x443 JUMPI DUP1 DUP3 ADD MLOAD DUP2 DUP5 ADD MSTORE PUSH1 0x20 DUP2 ADD SWAP1 POP PUSH3 0x426 JUMP JUMPDEST PUSH0 DUP5 DUP5 ADD MSTORE POP POP POP POP JUMP JUMPDEST PUSH0 PUSH3 0x464 PUSH3 0x45E DUP5 PUSH3 0x3EF JUMP JUMPDEST PUSH3 0x3D1 JUMP JUMPDEST SWAP1 POP DUP3 DUP2 MSTORE PUSH1 0x20 DUP2 ADD DUP5 DUP5 DUP5 ADD GT ISZERO PUSH3 0x483 JUMPI PUSH3 0x482 PUSH3 0x35A JUMP JUMPDEST JUMPDEST PUSH3 0x490 DUP5 DUP3 DUP6 PUSH3 0x424 JUMP JUMPDEST POP SWAP4 SWAP3 POP POP POP JUMP JUMPDEST PUSH0 DUP3 PUSH1 0x1F DUP4 ADD SLT PUSH3 0x4AF JUMPI PUSH3 0x4AE PUSH3 0x356 JUMP JUMPDEST JUMPDEST DUP2 MLOAD PUSH3 0x4C1 DUP5 DUP3 PUSH1 0x20 DUP7 ADD PUSH3 0x44E JUMP JUMPDEST SWAP2 POP POP SWAP3 SWAP2 POP POP JUMP JUMPDEST PUSH0 DUP1 PUSH1 0x40 DUP4 DUP6 SUB SLT ISZERO PUSH3 0x4E3 JUMPI PUSH3 0x4E2 PUSH3 0x34E JUMP JUMPDEST JUMPDEST PUSH0 DUP4 ADD MLOAD PUSH8 0xFFFFFFFFFFFFFFFF DUP2 GT ISZERO PUSH3 0x503 JUMPI PUSH3 0x502 PUSH3 0x352 JUMP JUMPDEST JUMPDEST PUSH3 0x511 DUP6 DUP3 DUP7 ADD PUSH3 0x498 JUMP JUMPDEST SWAP3 POP POP PUSH1 0x20 DUP4 ADD MLOAD PUSH8 0xFFFFFFFFFFFFFFFF DUP2 GT ISZERO PUSH3 0x535 JUMPI PUSH3 0x534 PUSH3 0x352 JUMP JUMPDEST JUMPDEST PUSH3 0x543 DUP6 DUP3 DUP7 ADD PUSH3 0x498 JUMP JUMPDEST SWAP2 POP POP SWAP3 POP SWAP3 SWAP1 POP JUMP JUMPDEST PUSH0 DUP2 MLOAD SWAP1 POP SWAP2 SWAP1 POP JUMP JUMPDEST PUSH32 0x4E487B7100000000000000000000000000000000000000000000000000000000 PUSH0 MSTORE PUSH1 0x22 PUSH1 0x4 MSTORE PUSH1 0x24 PUSH0 REVERT JUMPDEST PUSH0 PUSH1 0x2 DUP3 DIV SWAP1 POP PUSH1 0x1 DUP3 AND DUP1 PUSH3 0x59C JUMPI PUSH1 0x7F DUP3 AND SWAP2 POP JUMPDEST PUSH1 0x20 DUP3 LT DUP2 SUB PUSH3 0x5B2 JUMPI PUSH3 0x5B1 PUSH3 0x557 JUMP JUMPDEST JUMPDEST POP SWAP2 SWAP1 POP JUMP JUMPDEST PUSH0 DUP2 SWAP1 POP DUP2 PUSH0 MSTORE PUSH1 0x20 PUSH0 KECCAK256 SWAP1 POP SWAP2 SWAP1 POP JUMP JUMPDEST PUSH0 PUSH1 0x20 PUSH1 0x1F DUP4 ADD DIV SWAP1 POP SWAP2 SWAP1 POP JUMP JUMPDEST PUSH0 DUP3 DUP3 SHL SWAP1 POP SWAP3 SWAP2 POP POP JUMP JUMPDEST PUSH0 PUSH1 0x8 DUP4 MUL PUSH3 0x616 PUSH32 0xFFFFFFFFFFFFFFFFFFFFFFFFFFFFFFFFFFFFFFFFFFFFFFFFFFFFFFFFFFFFFFFF DUP3 PUSH3 0x5D9 JUMP JUMPDEST PUSH3 0x622 DUP7 DUP4 PUSH3 0x5D9 JUMP JUMPDEST SWAP6 POP DUP1 NOT DUP5 AND SWAP4 POP DUP1 DUP7 AND DUP5 OR SWAP3 POP POP POP SWAP4 SWAP3 POP POP POP JUMP JUMPDEST PUSH0 DUP2 SWAP1 POP SWAP2 SWAP1 POP JUMP JUMPDEST PUSH0 DUP2 SWAP1 POP SWAP2 SWAP1 POP JUMP JUMPDEST PUSH0 PUSH3 0x66C PUSH3 0x666 PUSH3 0x660 DUP5 PUSH3 0x63A JUMP JUMPDEST PUSH3 0x643 JUMP JUMPDEST PUSH3 0x63A JUMP JUMPDEST SWAP1 POP SWAP2 SWAP1 POP JUMP JUMPDEST PUSH0 DUP2 SWAP1 POP SWAP2 SWAP1 POP JUMP JUMPDEST PUSH3 0x687 DUP4 PUSH3 0x64C JUMP JUMPDEST PUSH3 0x69F PUSH3 0x696 DUP3 PUSH3 0x673 JUMP JUMPDEST DUP5 DUP5 SLOAD PUSH3 0x5E5 JUMP JUMPDEST DUP3 SSTORE POP POP POP POP JUMP JUMPDEST PUSH0 SWAP1 JUMP JUMPDEST PUSH3 0x6B5 PUSH3 0x6A7 JUMP JUMPDEST PUSH3 0x6C2 DUP2 DUP5 DUP5 PUSH3 0x67C JUMP JUMPDEST POP POP POP JUMP JUMPDEST JUMPDEST DUP2 DUP2 LT ISZERO PUSH3 0x6E9 JUMPI PUSH3 0x6DD PUSH0 DUP3 PUSH3 0x6AB JUMP JUMPDEST PUSH1 0x1 DUP2 ADD SWAP1 POP PUSH3 0x6C8 JUMP JUMPDEST POP POP JUMP JUMPDEST PUSH1 0x1F DUP3 GT ISZERO PUSH3 0x738 JUMPI PUSH3 0x702 DUP2 PUSH3 0x5B8 JUMP JUMPDEST PUSH3 0x70D DUP5 PUSH3 0x5CA JUMP JUMPDEST DUP2 ADD PUSH1 0x20 DUP6 LT ISZERO PUSH3 0x71D JUMPI DUP2 SWAP1 POP JUMPDEST PUSH3 0x735 PUSH3 0x72C DUP6 PUSH3 0x5CA JUMP JUMPDEST DUP4 ADD DUP3 PUSH3 0x6C7 JUMP JUMPDEST POP POP JUMPDEST POP POP POP JUMP JUMPDEST PUSH0 DUP3 DUP3 SHR SWAP1 POP SWAP3 SWAP2 POP POP JUMP JUMPDEST PUSH0 PUSH3 0x75A PUSH0 NOT DUP5 PUSH1 0x8 MUL PUSH3 0x73D JUMP JUMPDEST NOT DUP1 DUP4 AND SWAP2 POP POP SWAP3 SWAP2 POP POP JUMP JUMPDEST PUSH0 PUSH3 0x774 DUP4 DUP4 PUSH3 0x749 JUMP JUMPDEST SWAP2 POP DUP3 PUSH1 0x2 MUL DUP3 OR SWAP1 POP SWAP3 SWAP2 POP POP JUMP JUMPDEST PUSH3 0x78F DUP3 PUSH3 0x54D JUMP JUMPDEST PUSH8 0xFFFFFFFFFFFFFFFF DUP2 GT ISZERO PUSH3 0x7AB JUMPI PUSH3 0x7AA PUSH3 0x36E JUMP JUMPDEST JUMPDEST PUSH3 0x7B7 DUP3 SLOAD PUSH3 0x584 JUMP JUMPDEST PUSH3 0x7C4 DUP3 DUP3 DUP6 PUSH3 0x6ED JUMP JUMPDEST PUSH0 PUSH1 0x20 SWAP1 POP PUSH1 0x1F DUP4 GT PUSH1 0x1 DUP2 EQ PUSH3 0x7FA JUMPI PUSH0 DUP5 ISZERO PUSH3 0x7E5 JUMPI DUP3 DUP8 ADD MLOAD SWAP1 POP JUMPDEST PUSH3 0x7F1 DUP6 DUP3 PUSH3 0x767 JUMP JUMPDEST DUP7 SSTORE POP PUSH3 0x860 JUMP JUMPDEST PUSH1 0x1F NOT DUP5 AND PUSH3 0x80A DUP7 PUSH3 0x5B8 JUMP JUMPDEST PUSH0 JUMPDEST DUP3 DUP2 LT ISZERO PUSH3 0x833 JUMPI DUP5 DUP10 ADD MLOAD DUP3 SSTORE PUSH1 0x1 DUP3 ADD SWAP2 POP PUSH1 0x20 DUP6 ADD SWAP5 POP PUSH1 0x20 DUP2 ADD SWAP1 POP PUSH3 0x80C JUMP JUMPDEST DUP7 DUP4 LT ISZERO PUSH3 0x853 JUMPI DUP5 DUP10 ADD MLOAD PUSH3 0x84F PUSH1 0x1F DUP10 AND DUP3 PUSH3 0x749 JUMP JUMPDEST DUP4 SSTORE POP JUMPDEST PUSH1 0x1 PUSH1 0x2 DUP9 MUL ADD DUP9 SSTORE POP POP POP JUMPDEST POP POP POP POP POP POP JUMP JUMPDEST PUSH0 PUSH20 0xFFFFFFFFFFFFFFFFFFFFFFFFFFFFFFFFFFFFFFFF DUP3 AND SWAP1 POP SWAP2 SWAP1 POP JUMP JUMPDEST PUSH0 PUSH3 0x893 DUP3 PUSH3 0x868 JUMP JUMPDEST SWAP1 POP SWAP2 SWAP1 POP JUMP JUMPDEST PUSH3 0x8A5 DUP2 PUSH3 0x887 JUMP JUMPDEST DUP3 MSTORE POP POP JUMP JUMPDEST PUSH0 PUSH1 0x20 DUP3 ADD SWAP1 POP PUSH3 0x8C0 PUSH0 DUP4 ADD DUP5 PUSH3 0x89A JUMP JUMPDEST SWAP3 SWAP2 POP POP JUMP JUMPDEST PUSH2 0x2797 DUP1 PUSH3 0x8D4 PUSH0 CODECOPY PUSH0 RETURN INVALID PUSH1 0x80 PUSH1 0x40 MSTORE CALLVALUE DUP1 ISZERO PUSH2 0xF JUMPI PUSH0 DUP1 REVERT JUMPDEST POP PUSH1 0x4 CALLDATASIZE LT PUSH2 0x11E JUMPI PUSH0 CALLDATALOAD PUSH1 0xE0 SHR DUP1 PUSH4 0x70A08231 GT PUSH2 0xAB JUMPI DUP1 PUSH4 0xA22CB465 GT PUSH2 0x6F JUMPI DUP1 PUSH4 0xA22CB465 EQ PUSH2 0x304 JUMPI DUP1 PUSH4 0xB88D4FDE EQ PUSH2 0x320 JUMPI DUP1 PUSH4 0xC87B56DD EQ PUSH2 0x33C JUMPI DUP1 PUSH4 0xE985E9C5 EQ PUSH2 0x36C JUMPI DUP1 PUSH4 0xF2FDE38B EQ PUSH2 0x39C JUMPI PUSH2 0x11E JUMP JUMPDEST DUP1 PUSH4 0x70A08231 EQ PUSH2 0x272 JUMPI DUP1 PUSH4 0x715018A6 EQ PUSH2 0x2A2 JUMPI DUP1 PUSH4 0x7C88E3D9 EQ PUSH2 0x2AC JUMPI DUP1 PUSH4 0x8DA5CB5B EQ PUSH2 0x2C8 JUMPI DUP1 PUSH4 0x95D89B41 EQ PUSH2 0x2E6 JUMPI PUSH2 0x11E JUMP JUMPDEST DUP1 PUSH4 0x95EA7B3 GT PUSH2 0xF2 JUMPI DUP1 PUSH4 0x95EA7B3 EQ PUSH2 0x1D0 JUMPI DUP1 PUSH4 0x23B872DD EQ PUSH2 0x1EC JUMPI DUP1 PUSH4 0x32CB6B0C EQ PUSH2 0x208 JUMPI DUP1 PUSH4 0x42842E0E EQ PUSH2 0x226 JUMPI DUP1 PUSH4 0x6352211E EQ PUSH2 0x242 JUMPI PUSH2 0x11E JUMP JUMPDEST DUP1 PUSH3 0x923F9E EQ PUSH2 0x122 JUMPI DUP1 PUSH4 0x1FFC9A7 EQ PUSH2 0x152 JUMPI DUP1 PUSH4 0x6FDDE03 EQ PUSH2 0x182 JUMPI DUP1 PUSH4 0x81812FC EQ PUSH2 0x1A0 JUMPI JUMPDEST PUSH0 DUP1 REVERT JUMPDEST PUSH2 0x13C PUSH1 0x4 DUP1 CALLDATASIZE SUB DUP2 ADD SWAP1 PUSH2 0x137 SWAP2 SWAP1 PUSH2 0x1B5B JUMP JUMPDEST PUSH2 0x3B8 JUMP JUMPDEST PUSH1 0x40 MLOAD PUSH2 0x149 SWAP2 SWAP1 PUSH2 0x1BA0 JUMP JUMPDEST PUSH1 0x40 MLOAD DUP1 SWAP2 SUB SWAP1 RETURN JUMPDEST PUSH2 0x16C PUSH1 0x4 DUP1 CALLDATASIZE SUB DUP2 ADD SWAP1 PUSH2 0x167 SWAP2 SWAP1 PUSH2 0x1C0E JUMP JUMPDEST PUSH2 0x471 JUMP JUMPDEST PUSH1 0x40 MLOAD PUSH2 0x179 SWAP2 SWAP1 PUSH2 0x1BA0 JUMP JUMPDEST PUSH1 0x40 MLOAD DUP1 SWAP2 SUB SWAP1 RETURN JUMPDEST PUSH2 0x18A PUSH2 0x552 JUMP JUMPDEST PUSH1 0x40 MLOAD PUSH2 0x197 SWAP2 SWAP1 PUSH2 0x1CC3 JUMP JUMPDEST PUSH1 0x40 MLOAD DUP1 SWAP2 SUB SWAP1 RETURN JUMPDEST PUSH2 0x1BA PUSH1 0x4 DUP1 CALLDATASIZE SUB DUP2 ADD SWAP1 PUSH2 0x1B5 SWAP2 SWAP1 PUSH2 0x1B5B JUMP JUMPDEST PUSH2 0x5E1 JUMP JUMPDEST PUSH1 0x40 MLOAD PUSH2 0x1C7 SWAP2 SWAP1 PUSH2 0x1D22 JUMP JUMPDEST PUSH1 0x40 MLOAD DUP1 SWAP2 SUB SWAP1 RETURN JUMPDEST PUSH2 0x1EA PUSH1 0x4 DUP1 CALLDATASIZE SUB DUP2 ADD SWAP1 PUSH2 0x1E5 SWAP2 SWAP1 PUSH2 0x1D65 JUMP JUMPDEST PUSH2 0x5FC JUMP JUMPDEST STOP JUMPDEST PUSH2 0x206 PUSH1 0x4 DUP1 CALLDATASIZE SUB DUP2 ADD SWAP1 PUSH2 0x201 SWAP2 SWAP1 PUSH2 0x1DA3 JUMP JUMPDEST PUSH2 0x612 JUMP JUMPDEST STOP JUMPDEST PUSH2 0x210 PUSH2 0x690 JUMP JUMPDEST PUSH1 0x40 MLOAD PUSH2 0x21D SWAP2 SWAP1 PUSH2 0x1E02 JUMP JUMPDEST PUSH1 0x40 MLOAD DUP1 SWAP2 SUB SWAP1 RETURN JUMPDEST PUSH2 0x240 PUSH1 0x4 DUP1 CALLDATASIZE SUB DUP2 ADD SWAP1 PUSH2 0x23B SWAP2 SWAP1 PUSH2 0x1DA3 JUMP JUMPDEST PUSH2 0x695 JUMP JUMPDEST STOP JUMPDEST PUSH2 0x25C PUSH1 0x4 DUP1 CALLDATASIZE SUB DUP2 ADD SWAP1 PUSH2 0x257 SWAP2 SWAP1 PUSH2 0x1B5B JUMP JUMPDEST PUSH2 0x6B4 JUMP JUMPDEST PUSH1 0x40 MLOAD PUSH2 0x269 SWAP2 SWAP1 PUSH2 0x1D22 JUMP JUMPDEST PUSH1 0x40 MLOAD DUP1 SWAP2 SUB SWAP1 RETURN JUMPDEST PUSH2 0x28C PUSH1 0x4 DUP1 CALLDATASIZE SUB DUP2 ADD SWAP1 PUSH2 0x287 SWAP2 SWAP1 PUSH2 0x1E1B JUMP JUMPDEST PUSH2 0x6C5 JUMP JUMPDEST PUSH1 0x40 MLOAD PUSH2 0x299 SWAP2 SWAP1 PUSH2 0x1E02 JUMP JUMPDEST PUSH1 0x40 MLOAD DUP1 SWAP2 SUB SWAP1 RETURN JUMPDEST PUSH2 0x2AA PUSH2 0x77B JUMP JUMPDEST STOP JUMPDEST PUSH2 0x2C6 PUSH1 0x4 DUP1 CALLDATASIZE SUB DUP2 ADD SWAP1 PUSH2 0x2C1 SWAP2 SWAP1 PUSH2 0x2046 JUMP JUMPDEST PUSH2 0x78E JUMP JUMPDEST STOP JUMPDEST PUSH2 0x2D0 PUSH2 0x8DB JUMP JUMPDEST PUSH1 0x40 MLOAD PUSH2 0x2DD SWAP2 SWAP1 PUSH2 0x1D22 JUMP JUMPDEST PUSH1 0x40 MLOAD DUP1 SWAP2 SUB SWAP1 RETURN JUMPDEST PUSH2 0x2EE PUSH2 0x903 JUMP JUMPDEST PUSH1 0x40 MLOAD PUSH2 0x2FB SWAP2 SWAP1 PUSH2 0x1CC3 JUMP JUMPDEST PUSH1 0x40 MLOAD DUP1 SWAP2 SUB SWAP1 RETURN JUMPDEST PUSH2 0x31E PUSH1 0x4 DUP1 CALLDATASIZE SUB DUP2 ADD SWAP1 PUSH2 0x319 SWAP2 SWAP1 PUSH2 0x20E6 JUMP JUMPDEST PUSH2 0x993 JUMP JUMPDEST STOP JUMPDEST PUSH2 0x33A PUSH1 0x4 DUP1 CALLDATASIZE SUB DUP2 ADD SWAP1 PUSH2 0x335 SWAP2 SWAP1 PUSH2 0x21D4 JUMP JUMPDEST PUSH2 0x9A9 JUMP JUMPDEST STOP JUMPDEST PUSH2 0x356 PUSH1 0x4 DUP1 CALLDATASIZE SUB DUP2 ADD SWAP1 PUSH2 0x351 SWAP2 SWAP1 PUSH2 0x1B5B JUMP JUMPDEST PUSH2 0xA29 JUMP JUMPDEST PUSH1 0x40 MLOAD PUSH2 0x363 SWAP2 SWAP1 PUSH2 0x1CC3 JUMP JUMPDEST PUSH1 0x40 MLOAD DUP1 SWAP2 SUB SWAP1 RETURN JUMPDEST PUSH2 0x386 PUSH1 0x4 DUP1 CALLDATASIZE SUB DUP2 ADD SWAP1 PUSH2 0x381 SWAP2 SWAP1 PUSH2 0x2254 JUMP JUMPDEST PUSH2 0xA8F JUMP JUMPDEST PUSH1 0x40 MLOAD PUSH2 0x393 SWAP2 SWAP1 PUSH2 0x1BA0 JUMP JUMPDEST PUSH1 0x40 MLOAD DUP1 SWAP2 SUB SWAP1 RETURN JUMPDEST PUSH2 0x3B6 PUSH1 0x4 DUP1 CALLDATASIZE SUB DUP2 ADD SWAP1 PUSH2 0x3B1 SWAP2 SWAP1 PUSH2 0x1E1B JUMP JUMPDEST PUSH2 0xB1D JUMP JUMPDEST STOP JUMPDEST PUSH0 ADDRESS PUSH20 0xFFFFFFFFFFFFFFFFFFFFFFFFFFFFFFFFFFFFFFFF AND PUSH4 0x6352211E DUP4 PUSH1 0x40 MLOAD DUP3 PUSH4 0xFFFFFFFF AND PUSH1 0xE0 SHL DUP2 MSTORE PUSH1 0x4 ADD PUSH2 0x3F2 SWAP2 SWAP1 PUSH2 0x1E02 JUMP JUMPDEST PUSH1 0x20 PUSH1 0x40 MLOAD DUP1 DUP4 SUB DUP2 DUP7 GAS STATICCALL SWAP3 POP POP POP DUP1 ISZERO PUSH2 0x42C JUMPI POP PUSH1 0x40 MLOAD RETURNDATASIZE PUSH1 0x1F NOT PUSH1 0x1F DUP3 ADD AND DUP3 ADD DUP1 PUSH1 0x40 MSTORE POP DUP2 ADD SWAP1 PUSH2 0x429 SWAP2 SWAP1 PUSH2 0x22A6 JUMP JUMPDEST PUSH1 0x1 JUMPDEST PUSH2 0x438 JUMPI PUSH0 SWAP1 POP PUSH2 0x46C JUMP JUMPDEST PUSH0 PUSH20 0xFFFFFFFFFFFFFFFFFFFFFFFFFFFFFFFFFFFFFFFF AND DUP2 PUSH20 0xFFFFFFFFFFFFFFFFFFFFFFFFFFFFFFFFFFFFFFFF AND EQ ISZERO SWAP2 POP POP JUMPDEST SWAP2 SWAP1 POP JUMP JUMPDEST PUSH0 PUSH32 0x80AC58CD00000000000000000000000000000000000000000000000000000000 PUSH28 0xFFFFFFFFFFFFFFFFFFFFFFFFFFFFFFFFFFFFFFFFFFFFFFFFFFFFFFFF NOT AND DUP3 PUSH28 0xFFFFFFFFFFFFFFFFFFFFFFFFFFFFFFFFFFFFFFFFFFFFFFFFFFFFFFFF NOT AND EQ DUP1 PUSH2 0x53B JUMPI POP PUSH32 0x5B5E139F00000000000000000000000000000000000000000000000000000000 PUSH28 0xFFFFFFFFFFFFFFFFFFFFFFFFFFFFFFFFFFFFFFFFFFFFFFFFFFFFFFFF NOT AND DUP3 PUSH28 0xFFFFFFFFFFFFFFFFFFFFFFFFFFFFFFFFFFFFFFFFFFFFFFFFFFFFFFFF NOT AND EQ JUMPDEST DUP1 PUSH2 0x54B JUMPI POP PUSH2 0x54A DUP3 PUSH2 0xBA1 JUMP JUMPDEST JUMPDEST SWAP1 POP SWAP2 SWAP1 POP JUMP JUMPDEST PUSH1 0x60 PUSH0 DUP1 SLOAD PUSH2 0x560 SWAP1 PUSH2 0x22FE JUMP JUMPDEST DUP1 PUSH1 0x1F ADD PUSH1 0x20 DUP1 SWAP2 DIV MUL PUSH1 0x20 ADD PUSH1 0x40 MLOAD SWAP1 DUP2 ADD PUSH1 0x40 MSTORE DUP1 SWAP3 SWAP2 SWAP1 DUP2 DUP2 MSTORE PUSH1 0x20 ADD DUP3 DUP1 SLOAD PUSH2 0x58C SWAP1 PUSH2 0x22FE JUMP JUMPDEST DUP1 ISZERO PUSH2 0x5D7 JUMPI DUP1 PUSH1 0x1F LT PUSH2 0x5AE JUMPI PUSH2 0x100 DUP1 DUP4 SLOAD DIV MUL DUP4 MSTORE SWAP2 PUSH1 0x20 ADD SWAP2 PUSH2 0x5D7 JUMP JUMPDEST DUP3 ADD SWAP2 SWAP1 PUSH0 MSTORE PUSH1 0x20 PUSH0 KECCAK256 SWAP1 JUMPDEST DUP2 SLOAD DUP2 MSTORE SWAP1 PUSH1 0x1 ADD SWAP1 PUSH1 0x20 ADD DUP1 DUP4 GT PUSH2 0x5BA JUMPI DUP3 SWAP1 SUB PUSH1 0x1F AND DUP3 ADD SWAP2 JUMPDEST POP POP POP POP POP SWAP1 POP SWAP1 JUMP JUMPDEST PUSH0 PUSH2 0x5EB DUP3 PUSH2 0xC0A JUMP JUMPDEST POP PUSH2 0x5F5 DUP3 PUSH2 0xC90 JUMP JUMPDEST SWAP1 POP SWAP2 SWAP1 POP JUMP JUMPDEST PUSH2 0x60E DUP3 DUP3 PUSH2 0x609 PUSH2 0xCC9 JUMP JUMPDEST PUSH2 0xCD0 JUMP JUMPDEST POP POP JUMP JUMPDEST PUSH0 PUSH20 0xFFFFFFFFFFFFFFFFFFFFFFFFFFFFFFFFFFFFFFFF AND DUP4 PUSH20 0xFFFFFFFFFFFFFFFFFFFFFFFFFFFFFFFFFFFFFFFF AND EQ PUSH2 0x680 JUMPI PUSH1 0x40 MLOAD PUSH32 0x8C379A000000000000000000000000000000000000000000000000000000000 DUP2 MSTORE PUSH1 0x4 ADD PUSH2 0x677 SWAP1 PUSH2 0x239E JUMP JUMPDEST PUSH1 0x40 MLOAD DUP1 SWAP2 SUB SWAP1 REVERT JUMPDEST PUSH2 0x68B DUP4 DUP4 DUP4 PUSH2 0xCE2 JUMP JUMPDEST POP POP POP JUMP JUMPDEST PUSH1 0x2D DUP2 JUMP JUMPDEST PUSH2 0x6AF DUP4 DUP4 DUP4 PUSH1 0x40 MLOAD DUP1 PUSH1 0x20 ADD PUSH1 0x40 MSTORE DUP1 PUSH0 DUP2 MSTORE POP PUSH2 0x9A9 JUMP JUMPDEST POP POP POP JUMP JUMPDEST PUSH0 PUSH2 0x6BE DUP3 PUSH2 0xC0A JUMP JUMPDEST SWAP1 POP SWAP2 SWAP1 POP JUMP JUMPDEST PUSH0 DUP1 PUSH20 0xFFFFFFFFFFFFFFFFFFFFFFFFFFFFFFFFFFFFFFFF AND DUP3 PUSH20 0xFFFFFFFFFFFFFFFFFFFFFFFFFFFFFFFFFFFFFFFF AND SUB PUSH2 0x736 JUMPI PUSH0 PUSH1 0x40 MLOAD PUSH32 0x89C62B6400000000000000000000000000000000000000000000000000000000 DUP2 MSTORE PUSH1 0x4 ADD PUSH2 0x72D SWAP2 SWAP1 PUSH2 0x1D22 JUMP JUMPDEST PUSH1 0x40 MLOAD DUP1 SWAP2 SUB SWAP1 REVERT JUMPDEST PUSH1 0x3 PUSH0 DUP4 PUSH20 0xFFFFFFFFFFFFFFFFFFFFFFFFFFFFFFFFFFFFFFFF AND PUSH20 0xFFFFFFFFFFFFFFFFFFFFFFFFFFFFFFFFFFFFFFFF AND DUP2 MSTORE PUSH1 0x20 ADD SWAP1 DUP2 MSTORE PUSH1 0x20 ADD PUSH0 KECCAK256 SLOAD SWAP1 POP SWAP2 SWAP1 POP JUMP JUMPDEST PUSH2 0x783 PUSH2 0xDE1 JUMP JUMPDEST PUSH2 0x78C PUSH0 PUSH2 0xE68 JUMP JUMPDEST JUMP JUMPDEST PUSH2 0x796 PUSH2 0xDE1 JUMP JUMPDEST DUP1 MLOAD DUP3 MLOAD EQ PUSH2 0x7DA JUMPI PUSH1 0x40 MLOAD PUSH32 0x8C379A000000000000000000000000000000000000000000000000000000000 DUP2 MSTORE PUSH1 0x4 ADD PUSH2 0x7D1 SWAP1 PUSH2 0x242C JUMP JUMPDEST PUSH1 0x40 MLOAD DUP1 SWAP2 SUB SWAP1 REVERT JUMPDEST PUSH0 DUP3 MLOAD GT PUSH2 0x81D JUMPI PUSH1 0x40 MLOAD PUSH32 0x8C379A000000000000000000000000000000000000000000000000000000000 DUP2 MSTORE PUSH1 0x4 ADD PUSH2 0x814 SWAP1 PUSH2 0x2494 JUMP JUMPDEST PUSH1 0x40 MLOAD DUP1 SWAP2 SUB SWAP1 REVERT JUMPDEST PUSH0 JUMPDEST DUP3 MLOAD DUP2 LT ISZERO PUSH2 0x8D6 JUMPI PUSH2 0x84B DUP3 DUP3 DUP2 MLOAD DUP2 LT PUSH2 0x83E JUMPI PUSH2 0x83D PUSH2 0x24B2 JUMP JUMPDEST JUMPDEST PUSH1 0x20 MUL PUSH1 0x20 ADD ADD MLOAD PUSH2 0x3B8 JUMP JUMPDEST ISZERO PUSH2 0x88B JUMPI PUSH1 0x40 MLOAD PUSH32 0x8C379A000000000000000000000000000000000000000000000000000000000 DUP2 MSTORE PUSH1 0x4 ADD PUSH2 0x882 SWAP1 PUSH2 0x2529 JUMP JUMPDEST PUSH1 0x40 MLOAD DUP1 SWAP2 SUB SWAP1 REVERT JUMPDEST PUSH2 0x8C9 DUP4 DUP3 DUP2 MLOAD DUP2 LT PUSH2 0x8A1 JUMPI PUSH2 0x8A0 PUSH2 0x24B2 JUMP JUMPDEST JUMPDEST PUSH1 0x20 MUL PUSH1 0x20 ADD ADD MLOAD DUP4 DUP4 DUP2 MLOAD DUP2 LT PUSH2 0x8BC JUMPI PUSH2 0x8BB PUSH2 0x24B2 JUMP JUMPDEST JUMPDEST PUSH1 0x20 MUL PUSH1 0x20 ADD ADD MLOAD PUSH2 0xF2B JUMP JUMPDEST DUP1 DUP1 PUSH1 0x1 ADD SWAP2 POP POP PUSH2 0x81F JUMP JUMPDEST POP POP POP JUMP JUMPDEST PUSH0 PUSH1 0x6 PUSH0 SWAP1 SLOAD SWAP1 PUSH2 0x100 EXP SWAP1 DIV PUSH20 0xFFFFFFFFFFFFFFFFFFFFFFFFFFFFFFFFFFFFFFFF AND SWAP1 POP SWAP1 JUMP JUMPDEST PUSH1 0x60 PUSH1 0x1 DUP1 SLOAD PUSH2 0x912 SWAP1 PUSH2 0x22FE JUMP JUMPDEST DUP1 PUSH1 0x1F ADD PUSH1 0x20 DUP1 SWAP2 DIV MUL PUSH1 0x20 ADD PUSH1 0x40 MLOAD SWAP1 DUP2 ADD PUSH1 0x40 MSTORE DUP1 SWAP3 SWAP2 SWAP1 DUP2 DUP2 MSTORE PUSH1 0x20 ADD DUP3 DUP1 SLOAD PUSH2 0x93E SWAP1 PUSH2 0x22FE JUMP JUMPDEST DUP1 ISZERO PUSH2 0x989 JUMPI DUP1 PUSH1 0x1F LT PUSH2 0x960 JUMPI PUSH2 0x100 DUP1 DUP4 SLOAD DIV MUL DUP4 MSTORE SWAP2 PUSH1 0x20 ADD SWAP2 PUSH2 0x989 JUMP JUMPDEST DUP3 ADD SWAP2 SWAP1 PUSH0 MSTORE PUSH1 0x20 PUSH0 KECCAK256 SWAP1 JUMPDEST DUP2 SLOAD DUP2 MSTORE SWAP1 PUSH1 0x1 ADD SWAP1 PUSH1 0x20 ADD DUP1 DUP4 GT PUSH2 0x96C JUMPI DUP3 SWAP1 SUB PUSH1 0x1F AND DUP3 ADD SWAP2 JUMPDEST POP POP POP POP POP SWAP1 POP SWAP1 JUMP JUMPDEST PUSH2 0x9A5 PUSH2 0x99E PUSH2 0xCC9 JUMP JUMPDEST DUP4 DUP4 PUSH2 0x101E JUMP JUMPDEST POP POP JUMP JUMPDEST PUSH0 PUSH20 0xFFFFFFFFFFFFFFFFFFFFFFFFFFFFFFFFFFFFFFFF AND DUP5 PUSH20 0xFFFFFFFFFFFFFFFFFFFFFFFFFFFFFFFFFFFFFFFF AND EQ PUSH2 0xA17 JUMPI PUSH1 0x40 MLOAD PUSH32 0x8C379A000000000000000000000000000000000000000000000000000000000 DUP2 MSTORE PUSH1 0x4 ADD PUSH2 0xA0E SWAP1 PUSH2 0x239E JUMP JUMPDEST PUSH1 0x40 MLOAD DUP1 SWAP2 SUB SWAP1 REVERT JUMPDEST PUSH2 0xA23 DUP5 DUP5 DUP5 DUP5 PUSH2 0x1187 JUMP JUMPDEST POP POP POP POP JUMP JUMPDEST PUSH1 0x60 PUSH2 0xA34 DUP3 PUSH2 0xC0A JUMP JUMPDEST POP PUSH0 PUSH2 0xA3E PUSH2 0x11A4 JUMP JUMPDEST SWAP1 POP PUSH0 DUP2 MLOAD GT PUSH2 0xA5C JUMPI PUSH1 0x40 MLOAD DUP1 PUSH1 0x20 ADD PUSH1 0x40 MSTORE DUP1 PUSH0 DUP2 MSTORE POP PUSH2 0xA87 JUMP JUMPDEST DUP1 PUSH2 0xA66 DUP5 PUSH2 0x11C4 JUMP JUMPDEST PUSH1 0x40 MLOAD PUSH1 0x20 ADD PUSH2 0xA77 SWAP3 SWAP2 SWAP1 PUSH2 0x2581 JUMP JUMPDEST PUSH1 0x40 MLOAD PUSH1 0x20 DUP2 DUP4 SUB SUB DUP2 MSTORE SWAP1 PUSH1 0x40 MSTORE JUMPDEST SWAP2 POP POP SWAP2 SWAP1 POP JUMP JUMPDEST PUSH0 PUSH1 0x5 PUSH0 DUP5 PUSH20 0xFFFFFFFFFFFFFFFFFFFFFFFFFFFFFFFFFFFFFFFF AND PUSH20 0xFFFFFFFFFFFFFFFFFFFFFFFFFFFFFFFFFFFFFFFF AND DUP2 MSTORE PUSH1 0x20 ADD SWAP1 DUP2 MSTORE PUSH1 0x20 ADD PUSH0 KECCAK256 PUSH0 DUP4 PUSH20 0xFFFFFFFFFFFFFFFFFFFFFFFFFFFFFFFFFFFFFFFF AND PUSH20 0xFFFFFFFFFFFFFFFFFFFFFFFFFFFFFFFFFFFFFFFF AND DUP2 MSTORE PUSH1 0x20 ADD SWAP1 DUP2 MSTORE PUSH1 0x20 ADD PUSH0 KECCAK256 PUSH0 SWAP1 SLOAD SWAP1 PUSH2 0x100 EXP SWAP1 DIV PUSH1 0xFF AND SWAP1 POP SWAP3 SWAP2 POP POP JUMP JUMPDEST PUSH2 0xB25 PUSH2 0xDE1 JUMP JUMPDEST PUSH0 PUSH20 0xFFFFFFFFFFFFFFFFFFFFFFFFFFFFFFFFFFFFFFFF AND DUP2 PUSH20 0xFFFFFFFFFFFFFFFFFFFFFFFFFFFFFFFFFFFFFFFF AND SUB PUSH2 0xB95 JUMPI PUSH0 PUSH1 0x40 MLOAD PUSH32 0x1E4FBDF700000000000000000000000000000000000000000000000000000000 DUP2 MSTORE PUSH1 0x4 ADD PUSH2 0xB8C SWAP2 SWAP1 PUSH2 0x1D22 JUMP JUMPDEST PUSH1 0x40 MLOAD DUP1 SWAP2 SUB SWAP1 REVERT JUMPDEST PUSH2 0xB9E DUP2 PUSH2 0xE68 JUMP JUMPDEST POP JUMP JUMPDEST PUSH0 PUSH32 0x1FFC9A700000000000000000000000000000000000000000000000000000000 PUSH28 0xFFFFFFFFFFFFFFFFFFFFFFFFFFFFFFFFFFFFFFFFFFFFFFFFFFFFFFFF NOT AND DUP3 PUSH28 0xFFFFFFFFFFFFFFFFFFFFFFFFFFFFFFFFFFFFFFFFFFFFFFFFFFFFFFFF NOT AND EQ SWAP1 POP SWAP2 SWAP1 POP JUMP JUMPDEST PUSH0 DUP1 PUSH2 0xC15 DUP4 PUSH2 0x128E JUMP JUMPDEST SWAP1 POP PUSH0 PUSH20 0xFFFFFFFFFFFFFFFFFFFFFFFFFFFFFFFFFFFFFFFF AND DUP2 PUSH20 0xFFFFFFFFFFFFFFFFFFFFFFFFFFFFFFFFFFFFFFFF AND SUB PUSH2 0xC87 JUMPI DUP3 PUSH1 0x40 MLOAD PUSH32 0x7E27328900000000000000000000000000000000000000000000000000000000 DUP2 MSTORE PUSH1 0x4 ADD PUSH2 0xC7E SWAP2 SWAP1 PUSH2 0x1E02 JUMP JUMPDEST PUSH1 0x40 MLOAD DUP1 SWAP2 SUB SWAP1 REVERT JUMPDEST DUP1 SWAP2 POP POP SWAP2 SWAP1 POP JUMP JUMPDEST PUSH0 PUSH1 0x4 PUSH0 DUP4 DUP2 MSTORE PUSH1 0x20 ADD SWAP1 DUP2 MSTORE PUSH1 0x20 ADD PUSH0 KECCAK256 PUSH0 SWAP1 SLOAD SWAP1 PUSH2 0x100 EXP SWAP1 DIV PUSH20 0xFFFFFFFFFFFFFFFFFFFFFFFFFFFFFFFFFFFFFFFF AND SWAP1 POP SWAP2 SWAP1 POP JUMP JUMPDEST PUSH0 CALLER SWAP1 POP SWAP1 JUMP JUMPDEST PUSH2 0xCDD DUP4 DUP4 DUP4 PUSH1 0x1 PUSH2 0x12C7 JUMP JUMPDEST POP POP POP JUMP JUMPDEST PUSH0 PUSH20 0xFFFFFFFFFFFFFFFFFFFFFFFFFFFFFFFFFFFFFFFF AND DUP3 PUSH20 0xFFFFFFFFFFFFFFFFFFFFFFFFFFFFFFFFFFFFFFFF AND SUB PUSH2 0xD52 JUMPI PUSH0 PUSH1 0x40 MLOAD PUSH32 0x64A0AE9200000000000000000000000000000000000000000000000000000000 DUP2 MSTORE PUSH1 0x4 ADD PUSH2 0xD49 SWAP2 SWAP1 PUSH2 0x1D22 JUMP JUMPDEST PUSH1 0x40 MLOAD DUP1 SWAP2 SUB SWAP1 REVERT JUMPDEST PUSH0 PUSH2 0xD65 DUP4 DUP4 PUSH2 0xD60 PUSH2 0xCC9 JUMP JUMPDEST PUSH2 0x1486 JUMP JUMPDEST SWAP1 POP DUP4 PUSH20 0xFFFFFFFFFFFFFFFFFFFFFFFFFFFFFFFFFFFFFFFF AND DUP2 PUSH20 0xFFFFFFFFFFFFFFFFFFFFFFFFFFFFFFFFFFFFFFFF AND EQ PUSH2 0xDDB JUMPI DUP4 DUP3 DUP3 PUSH1 0x40 MLOAD PUSH32 0x64283D7B00000000000000000000000000000000000000000000000000000000 DUP2 MSTORE PUSH1 0x4 ADD PUSH2 0xDD2 SWAP4 SWAP3 SWAP2 SWAP1 PUSH2 0x25A4 JUMP JUMPDEST PUSH1 0x40 MLOAD DUP1 SWAP2 SUB SWAP1 REVERT JUMPDEST POP POP POP POP JUMP JUMPDEST PUSH2 0xDE9 PUSH2 0xCC9 JUMP JUMPDEST PUSH20 0xFFFFFFFFFFFFFFFFFFFFFFFFFFFFFFFFFFFFFFFF AND PUSH2 0xE07 PUSH2 0x8DB JUMP JUMPDEST PUSH20 0xFFFFFFFFFFFFFFFFFFFFFFFFFFFFFFFFFFFFFFFF AND EQ PUSH2 0xE66 JUMPI PUSH2 0xE2A PUSH2 0xCC9 JUMP JUMPDEST PUSH1 0x40 MLOAD PUSH32 0x118CDAA700000000000000000000000000000000000000000000000000000000 DUP2 MSTORE PUSH1 0x4 ADD PUSH2 0xE5D SWAP2 SWAP1 PUSH2 0x1D22 JUMP JUMPDEST PUSH1 0x40 MLOAD DUP1 SWAP2 SUB SWAP1 REVERT JUMPDEST JUMP JUMPDEST PUSH0 PUSH1 0x6 PUSH0 SWAP1 SLOAD SWAP1 PUSH2 0x100 EXP SWAP1 DIV PUSH20 0xFFFFFFFFFFFFFFFFFFFFFFFFFFFFFFFFFFFFFFFF AND SWAP1 POP DUP2 PUSH1 0x6 PUSH0 PUSH2 0x100 EXP DUP2 SLOAD DUP2 PUSH20 0xFFFFFFFFFFFFFFFFFFFFFFFFFFFFFFFFFFFFFFFF MUL NOT AND SWAP1 DUP4 PUSH20 0xFFFFFFFFFFFFFFFFFFFFFFFFFFFFFFFFFFFFFFFF AND MUL OR SWAP1 SSTORE POP DUP2 PUSH20 0xFFFFFFFFFFFFFFFFFFFFFFFFFFFFFFFFFFFFFFFF AND DUP2 PUSH20 0xFFFFFFFFFFFFFFFFFFFFFFFFFFFFFFFFFFFFFFFF AND PUSH32 0x8BE0079C531659141344CD1FD0A4F28419497F9722A3DAAFE3B4186F6B6457E0 PUSH1 0x40 MLOAD PUSH1 0x40 MLOAD DUP1 SWAP2 SUB SWAP1 LOG3 POP POP JUMP JUMPDEST PUSH0 PUSH20 0xFFFFFFFFFFFFFFFFFFFFFFFFFFFFFFFFFFFFFFFF AND DUP3 PUSH20 0xFFFFFFFFFFFFFFFFFFFFFFFFFFFFFFFFFFFFFFFF AND SUB PUSH2 0xF9B JUMPI PUSH0 PUSH1 0x40 MLOAD PUSH32 0x64A0AE9200000000000000000000000000000000000000000000000000000000 DUP2 MSTORE PUSH1 0x4 ADD PUSH2 0xF92 SWAP2 SWAP1 PUSH2 0x1D22 JUMP JUMPDEST PUSH1 0x40 MLOAD DUP1 SWAP2 SUB SWAP1 REVERT JUMPDEST PUSH0 PUSH2 0xFA7 DUP4 DUP4 PUSH0 PUSH2 0x1486 JUMP JUMPDEST SWAP1 POP PUSH0 PUSH20 0xFFFFFFFFFFFFFFFFFFFFFFFFFFFFFFFFFFFFFFFF AND DUP2 PUSH20 0xFFFFFFFFFFFFFFFFFFFFFFFFFFFFFFFFFFFFFFFF AND EQ PUSH2 0x1019 JUMPI PUSH0 PUSH1 0x40 MLOAD PUSH32 0x73C6AC6E00000000000000000000000000000000000000000000000000000000 DUP2 MSTORE PUSH1 0x4 ADD PUSH2 0x1010 SWAP2 SWAP1 PUSH2 0x1D22 JUMP JUMPDEST PUSH1 0x40 MLOAD DUP1 SWAP2 SUB SWAP1 REVERT JUMPDEST POP POP POP JUMP JUMPDEST PUSH0 PUSH20 0xFFFFFFFFFFFFFFFFFFFFFFFFFFFFFFFFFFFFFFFF AND DUP3 PUSH20 0xFFFFFFFFFFFFFFFFFFFFFFFFFFFFFFFFFFFFFFFF AND SUB PUSH2 0x108E JUMPI DUP2 PUSH1 0x40 MLOAD PUSH32 0x5B08BA1800000000000000000000000000000000000000000000000000000000 DUP2 MSTORE PUSH1 0x4 ADD PUSH2 0x1085 SWAP2 SWAP1 PUSH2 0x1D22 JUMP JUMPDEST PUSH1 0x40 MLOAD DUP1 SWAP2 SUB SWAP1 REVERT JUMPDEST DUP1 PUSH1 0x5 PUSH0 DUP6 PUSH20 0xFFFFFFFFFFFFFFFFFFFFFFFFFFFFFFFFFFFFFFFF AND PUSH20 0xFFFFFFFFFFFFFFFFFFFFFFFFFFFFFFFFFFFFFFFF AND DUP2 MSTORE PUSH1 0x20 ADD SWAP1 DUP2 MSTORE PUSH1 0x20 ADD PUSH0 KECCAK256 PUSH0 DUP5 PUSH20 0xFFFFFFFFFFFFFFFFFFFFFFFFFFFFFFFFFFFFFFFF AND PUSH20 0xFFFFFFFFFFFFFFFFFFFFFFFFFFFFFFFFFFFFFFFF AND DUP2 MSTORE PUSH1 0x20 ADD SWAP1 DUP2 MSTORE PUSH1 0x20 ADD PUSH0 KECCAK256 PUSH0 PUSH2 0x100 EXP DUP2 SLOAD DUP2 PUSH1 0xFF MUL NOT AND SWAP1 DUP4 ISZERO ISZERO MUL OR SWAP1 SSTORE POP DUP2 PUSH20 0xFFFFFFFFFFFFFFFFFFFFFFFFFFFFFFFFFFFFFFFF AND DUP4 PUSH20 0xFFFFFFFFFFFFFFFFFFFFFFFFFFFFFFFFFFFFFFFF AND PUSH32 0x17307EAB39AB6107E8899845AD3D59BD9653F200F220920489CA2B5937696C31 DUP4 PUSH1 0x40 MLOAD PUSH2 0x117A SWAP2 SWAP1 PUSH2 0x1BA0 JUMP JUMPDEST PUSH1 0x40 MLOAD DUP1 SWAP2 SUB SWAP1 LOG3 POP POP POP JUMP JUMPDEST PUSH2 0x1192 DUP5 DUP5 DUP5 PUSH2 0x612 JUMP JUMPDEST PUSH2 0x119E DUP5 DUP5 DUP5 DUP5 PUSH2 0x1691 JUMP JUMPDEST POP POP POP POP JUMP JUMPDEST PUSH1 0x60 PUSH1 0x40 MLOAD DUP1 PUSH1 0x80 ADD PUSH1 0x40 MSTORE DUP1 PUSH1 0x59 DUP2 MSTORE PUSH1 0x20 ADD PUSH2 0x2709 PUSH1 0x59 SWAP2 CODECOPY SWAP1 POP SWAP1 JUMP JUMPDEST PUSH1 0x60 PUSH0 PUSH1 0x1 PUSH2 0x11D2 DUP5 PUSH2 0x1843 JUMP JUMPDEST ADD SWAP1 POP PUSH0 DUP2 PUSH8 0xFFFFFFFFFFFFFFFF DUP2 GT ISZERO PUSH2 0x11F0 JUMPI PUSH2 0x11EF PUSH2 0x1E4A JUMP JUMPDEST JUMPDEST PUSH1 0x40 MLOAD SWAP1 DUP1 DUP3 MSTORE DUP1 PUSH1 0x1F ADD PUSH1 0x1F NOT AND PUSH1 0x20 ADD DUP3 ADD PUSH1 0x40 MSTORE DUP1 ISZERO PUSH2 0x1222 JUMPI DUP2 PUSH1 0x20 ADD PUSH1 0x1 DUP3 MUL DUP1 CALLDATASIZE DUP4 CALLDATACOPY DUP1 DUP3 ADD SWAP2 POP POP SWAP1 POP JUMPDEST POP SWAP1 POP PUSH0 DUP3 PUSH1 0x20 ADD DUP3 ADD SWAP1 POP JUMPDEST PUSH1 0x1 ISZERO PUSH2 0x1283 JUMPI DUP1 DUP1 PUSH1 0x1 SWAP1 SUB SWAP2 POP POP PUSH32 0x3031323334353637383961626364656600000000000000000000000000000000 PUSH1 0xA DUP7 MOD BYTE DUP2 MSTORE8 PUSH1 0xA DUP6 DUP2 PUSH2 0x1278 JUMPI PUSH2 0x1277 PUSH2 0x25D9 JUMP JUMPDEST JUMPDEST DIV SWAP5 POP PUSH0 DUP6 SUB PUSH2 0x122F JUMPI JUMPDEST DUP2 SWAP4 POP POP POP POP SWAP2 SWAP1 POP JUMP JUMPDEST PUSH0 PUSH1 0x2 PUSH0 DUP4 DUP2 MSTORE PUSH1 0x20 ADD SWAP1 DUP2 MSTORE PUSH1 0x20 ADD PUSH0 KECCAK256 PUSH0 SWAP1 SLOAD SWAP1 PUSH2 0x100 EXP SWAP1 DIV PUSH20 0xFFFFFFFFFFFFFFFFFFFFFFFFFFFFFFFFFFFFFFFF AND SWAP1 POP SWAP2 SWAP1 POP JUMP JUMPDEST DUP1 DUP1 PUSH2 0x12FF JUMPI POP PUSH0 PUSH20 0xFFFFFFFFFFFFFFFFFFFFFFFFFFFFFFFFFFFFFFFF AND DUP3 PUSH20 0xFFFFFFFFFFFFFFFFFFFFFFFFFFFFFFFFFFFFFFFF AND EQ ISZERO JUMPDEST ISZERO PUSH2 0x1431 JUMPI PUSH0 PUSH2 0x130E DUP5 PUSH2 0xC0A JUMP JUMPDEST SWAP1 POP PUSH0 PUSH20 0xFFFFFFFFFFFFFFFFFFFFFFFFFFFFFFFFFFFFFFFF AND DUP4 PUSH20 0xFFFFFFFFFFFFFFFFFFFFFFFFFFFFFFFFFFFFFFFF AND EQ ISZERO DUP1 ISZERO PUSH2 0x1378 JUMPI POP DUP3 PUSH20 0xFFFFFFFFFFFFFFFFFFFFFFFFFFFFFFFFFFFFFFFF AND DUP2 PUSH20 0xFFFFFFFFFFFFFFFFFFFFFFFFFFFFFFFFFFFFFFFF AND EQ ISZERO JUMPDEST DUP1 ISZERO PUSH2 0x138B JUMPI POP PUSH2 0x1389 DUP2 DUP5 PUSH2 0xA8F JUMP JUMPDEST ISZERO JUMPDEST ISZERO PUSH2 0x13CD JUMPI DUP3 PUSH1 0x40 MLOAD PUSH32 0xA9FBF51F00000000000000000000000000000000000000000000000000000000 DUP2 MSTORE PUSH1 0x4 ADD PUSH2 0x13C4 SWAP2 SWAP1 PUSH2 0x1D22 JUMP JUMPDEST PUSH1 0x40 MLOAD DUP1 SWAP2 SUB SWAP1 REVERT JUMPDEST DUP2 ISZERO PUSH2 0x142F JUMPI DUP4 DUP6 PUSH20 0xFFFFFFFFFFFFFFFFFFFFFFFFFFFFFFFFFFFFFFFF AND DUP3 PUSH20 0xFFFFFFFFFFFFFFFFFFFFFFFFFFFFFFFFFFFFFFFF AND PUSH32 0x8C5BE1E5EBEC7D5BD14F71427D1E84F3DD0314C0F7B2291E5B200AC8C7C3B925 PUSH1 0x40 MLOAD PUSH1 0x40 MLOAD DUP1 SWAP2 SUB SWAP1 LOG4 JUMPDEST POP JUMPDEST DUP4 PUSH1 0x4 PUSH0 DUP6 DUP2 MSTORE PUSH1 0x20 ADD SWAP1 DUP2 MSTORE PUSH1 0x20 ADD PUSH0 KECCAK256 PUSH0 PUSH2 0x100 EXP DUP2 SLOAD DUP2 PUSH20 0xFFFFFFFFFFFFFFFFFFFFFFFFFFFFFFFFFFFFFFFF MUL NOT AND SWAP1 DUP4 PUSH20 0xFFFFFFFFFFFFFFFFFFFFFFFFFFFFFFFFFFFFFFFF AND MUL OR SWAP1 SSTORE POP POP POP POP POP JUMP JUMPDEST PUSH0 DUP1 PUSH2 0x1491 DUP5 PUSH2 0x128E JUMP JUMPDEST SWAP1 POP PUSH0 PUSH20 0xFFFFFFFFFFFFFFFFFFFFFFFFFFFFFFFFFFFFFFFF AND DUP4 PUSH20 0xFFFFFFFFFFFFFFFFFFFFFFFFFFFFFFFFFFFFFFFF AND EQ PUSH2 0x14D2 JUMPI PUSH2 0x14D1 DUP2 DUP5 DUP7 PUSH2 0x1994 JUMP JUMPDEST JUMPDEST PUSH0 PUSH20 0xFFFFFFFFFFFFFFFFFFFFFFFFFFFFFFFFFFFFFFFF AND DUP2 PUSH20 0xFFFFFFFFFFFFFFFFFFFFFFFFFFFFFFFFFFFFFFFF AND EQ PUSH2 0x155D JUMPI PUSH2 0x1511 PUSH0 DUP6 PUSH0 DUP1 PUSH2 0x12C7 JUMP JUMPDEST PUSH1 0x1 PUSH1 0x3 PUSH0 DUP4 PUSH20 0xFFFFFFFFFFFFFFFFFFFFFFFFFFFFFFFFFFFFFFFF AND PUSH20 0xFFFFFFFFFFFFFFFFFFFFFFFFFFFFFFFFFFFFFFFF AND DUP2 MSTORE PUSH1 0x20 ADD SWAP1 DUP2 MSTORE PUSH1 0x20 ADD PUSH0 KECCAK256 PUSH0 DUP3 DUP3 SLOAD SUB SWAP3 POP POP DUP2 SWAP1 SSTORE POP JUMPDEST PUSH0 PUSH20 0xFFFFFFFFFFFFFFFFFFFFFFFFFFFFFFFFFFFFFFFF AND DUP6 PUSH20 0xFFFFFFFFFFFFFFFFFFFFFFFFFFFFFFFFFFFFFFFF AND EQ PUSH2 0x15DC JUMPI PUSH1 0x1 PUSH1 0x3 PUSH0 DUP8 PUSH20 0xFFFFFFFFFFFFFFFFFFFFFFFFFFFFFFFFFFFFFFFF AND PUSH20 0xFFFFFFFFFFFFFFFFFFFFFFFFFFFFFFFFFFFFFFFF AND DUP2 MSTORE PUSH1 0x20 ADD SWAP1 DUP2 MSTORE PUSH1 0x20 ADD PUSH0 KECCAK256 PUSH0 DUP3 DUP3 SLOAD ADD SWAP3 POP POP DUP2 SWAP1 SSTORE POP JUMPDEST DUP5 PUSH1 0x2 PUSH0 DUP7 DUP2 MSTORE PUSH1 0x20 ADD SWAP1 DUP2 MSTORE PUSH1 0x20 ADD PUSH0 KECCAK256 PUSH0 PUSH2 0x100 EXP DUP2 SLOAD DUP2 PUSH20 0xFFFFFFFFFFFFFFFFFFFFFFFFFFFFFFFFFFFFFFFF MUL NOT AND SWAP1 DUP4 PUSH20 0xFFFFFFFFFFFFFFFFFFFFFFFFFFFFFFFFFFFFFFFF AND MUL OR SWAP1 SSTORE POP DUP4 DUP6 PUSH20 0xFFFFFFFFFFFFFFFFFFFFFFFFFFFFFFFFFFFFFFFF AND DUP3 PUSH20 0xFFFFFFFFFFFFFFFFFFFFFFFFFFFFFFFFFFFFFFFF AND PUSH32 0xDDF252AD1BE2C89B69C2B068FC378DAA952BA7F163C4A11628F55A4DF523B3EF PUSH1 0x40 MLOAD PUSH1 0x40 MLOAD DUP1 SWAP2 SUB SWAP1 LOG4 DUP1 SWAP2 POP POP SWAP4 SWAP3 POP POP POP JUMP JUMPDEST PUSH0 DUP4 PUSH20 0xFFFFFFFFFFFFFFFFFFFFFFFFFFFFFFFFFFFFFFFF AND EXTCODESIZE GT ISZERO PUSH2 0x183D JUMPI DUP3 PUSH20 0xFFFFFFFFFFFFFFFFFFFFFFFFFFFFFFFFFFFFFFFF AND PUSH4 0x150B7A02 PUSH2 0x16D4 PUSH2 0xCC9 JUMP JUMPDEST DUP7 DUP6 DUP6 PUSH1 0x40 MLOAD DUP6 PUSH4 0xFFFFFFFF AND PUSH1 0xE0 SHL DUP2 MSTORE PUSH1 0x4 ADD PUSH2 0x16F6 SWAP5 SWAP4 SWAP3 SWAP2 SWAP1 PUSH2 0x2658 JUMP JUMPDEST PUSH1 0x20 PUSH1 0x40 MLOAD DUP1 DUP4 SUB DUP2 PUSH0 DUP8 GAS CALL SWAP3 POP POP POP DUP1 ISZERO PUSH2 0x1731 JUMPI POP PUSH1 0x40 MLOAD RETURNDATASIZE PUSH1 0x1F NOT PUSH1 0x1F DUP3 ADD AND DUP3 ADD DUP1 PUSH1 0x40 MSTORE POP DUP2 ADD SWAP1 PUSH2 0x172E SWAP2 SWAP1 PUSH2 0x26B6 JUMP JUMPDEST PUSH1 0x1 JUMPDEST PUSH2 0x17B2 JUMPI RETURNDATASIZE DUP1 PUSH0 DUP2 EQ PUSH2 0x175F JUMPI PUSH1 0x40 MLOAD SWAP2 POP PUSH1 0x1F NOT PUSH1 0x3F RETURNDATASIZE ADD AND DUP3 ADD PUSH1 0x40 MSTORE RETURNDATASIZE DUP3 MSTORE RETURNDATASIZE PUSH0 PUSH1 0x20 DUP5 ADD RETURNDATACOPY PUSH2 0x1764 JUMP JUMPDEST PUSH1 0x60 SWAP2 POP JUMPDEST POP PUSH0 DUP2 MLOAD SUB PUSH2 0x17AA JUMPI DUP4 PUSH1 0x40 MLOAD PUSH32 0x64A0AE9200000000000000000000000000000000000000000000000000000000 DUP2 MSTORE PUSH1 0x4 ADD PUSH2 0x17A1 SWAP2 SWAP1 PUSH2 0x1D22 JUMP JUMPDEST PUSH1 0x40 MLOAD DUP1 SWAP2 SUB SWAP1 REVERT JUMPDEST DUP1 MLOAD DUP2 PUSH1 0x20 ADD REVERT JUMPDEST PUSH4 0x150B7A02 PUSH1 0xE0 SHL PUSH28 0xFFFFFFFFFFFFFFFFFFFFFFFFFFFFFFFFFFFFFFFFFFFFFFFFFFFFFFFF NOT AND DUP2 PUSH28 0xFFFFFFFFFFFFFFFFFFFFFFFFFFFFFFFFFFFFFFFFFFFFFFFFFFFFFFFF NOT AND EQ PUSH2 0x183B JUMPI DUP4 PUSH1 0x40 MLOAD PUSH32 0x64A0AE9200000000000000000000000000000000000000000000000000000000 DUP2 MSTORE PUSH1 0x4 ADD PUSH2 0x1832 SWAP2 SWAP1 PUSH2 0x1D22 JUMP JUMPDEST PUSH1 0x40 MLOAD DUP1 SWAP2 SUB SWAP1 REVERT JUMPDEST POP JUMPDEST POP POP POP POP JUMP JUMPDEST PUSH0 DUP1 PUSH0 SWAP1 POP PUSH27 0x184F03E93FF9F4DAA797ED6E38ED64BF6A1F010000000000000000 DUP4 LT PUSH2 0x189F JUMPI PUSH27 0x184F03E93FF9F4DAA797ED6E38ED64BF6A1F010000000000000000 DUP4 DUP2 PUSH2 0x1895 JUMPI PUSH2 0x1894 PUSH2 0x25D9 JUMP JUMPDEST JUMPDEST DIV SWAP3 POP PUSH1 0x40 DUP2 ADD SWAP1 POP JUMPDEST PUSH14 0x4EE2D6D415B85ACEF8100000000 DUP4 LT PUSH2 0x18DC JUMPI PUSH14 0x4EE2D6D415B85ACEF8100000000 DUP4 DUP2 PUSH2 0x18D2 JUMPI PUSH2 0x18D1 PUSH2 0x25D9 JUMP JUMPDEST JUMPDEST DIV SWAP3 POP PUSH1 0x20 DUP2 ADD SWAP1 POP JUMPDEST PUSH7 0x2386F26FC10000 DUP4 LT PUSH2 0x190B JUMPI PUSH7 0x2386F26FC10000 DUP4 DUP2 PUSH2 0x1901 JUMPI PUSH2 0x1900 PUSH2 0x25D9 JUMP JUMPDEST JUMPDEST DIV SWAP3 POP PUSH1 0x10 DUP2 ADD SWAP1 POP JUMPDEST PUSH4 0x5F5E100 DUP4 LT PUSH2 0x1934 JUMPI PUSH4 0x5F5E100 DUP4 DUP2 PUSH2 0x192A JUMPI PUSH2 0x1929 PUSH2 0x25D9 JUMP JUMPDEST JUMPDEST DIV SWAP3 POP PUSH1 0x8 DUP2 ADD SWAP1 POP JUMPDEST PUSH2 0x2710 DUP4 LT PUSH2 0x1959 JUMPI PUSH2 0x2710 DUP4 DUP2 PUSH2 0x194F JUMPI PUSH2 0x194E PUSH2 0x25D9 JUMP JUMPDEST JUMPDEST DIV SWAP3 POP PUSH1 0x4 DUP2 ADD SWAP1 POP JUMPDEST PUSH1 0x64 DUP4 LT PUSH2 0x197C JUMPI PUSH1 0x64 DUP4 DUP2 PUSH2 0x1972 JUMPI PUSH2 0x1971 PUSH2 0x25D9 JUMP JUMPDEST JUMPDEST DIV SWAP3 POP PUSH1 0x2 DUP2 ADD SWAP1 POP JUMPDEST PUSH1 0xA DUP4 LT PUSH2 0x198B JUMPI PUSH1 0x1 DUP2 ADD SWAP1 POP JUMPDEST DUP1 SWAP2 POP POP SWAP2 SWAP1 POP JUMP JUMPDEST PUSH2 0x199F DUP4 DUP4 DUP4 PUSH2 0x1A57 JUMP JUMPDEST PUSH2 0x1A52 JUMPI PUSH0 PUSH20 0xFFFFFFFFFFFFFFFFFFFFFFFFFFFFFFFFFFFFFFFF AND DUP4 PUSH20 0xFFFFFFFFFFFFFFFFFFFFFFFFFFFFFFFFFFFFFFFF AND SUB PUSH2 0x1A13 JUMPI DUP1 PUSH1 0x40 MLOAD PUSH32 0x7E27328900000000000000000000000000000000000000000000000000000000 DUP2 MSTORE PUSH1 0x4 ADD PUSH2 0x1A0A SWAP2 SWAP1 PUSH2 0x1E02 JUMP JUMPDEST PUSH1 0x40 MLOAD DUP1 SWAP2 SUB SWAP1 REVERT JUMPDEST DUP2 DUP2 PUSH1 0x40 MLOAD PUSH32 0x177E802F00000000000000000000000000000000000000000000000000000000 DUP2 MSTORE PUSH1 0x4 ADD PUSH2 0x1A49 SWAP3 SWAP2 SWAP1 PUSH2 0x26E1 JUMP JUMPDEST PUSH1 0x40 MLOAD DUP1 SWAP2 SUB SWAP1 REVERT JUMPDEST POP POP POP JUMP JUMPDEST PUSH0 DUP1 PUSH20 0xFFFFFFFFFFFFFFFFFFFFFFFFFFFFFFFFFFFFFFFF AND DUP4 PUSH20 0xFFFFFFFFFFFFFFFFFFFFFFFFFFFFFFFFFFFFFFFF AND EQ ISZERO DUP1 ISZERO PUSH2 0x1B0E JUMPI POP DUP3 PUSH20 0xFFFFFFFFFFFFFFFFFFFFFFFFFFFFFFFFFFFFFFFF AND DUP5 PUSH20 0xFFFFFFFFFFFFFFFFFFFFFFFFFFFFFFFFFFFFFFFF AND EQ DUP1 PUSH2 0x1ACF JUMPI POP PUSH2 0x1ACE DUP5 DUP5 PUSH2 0xA8F JUMP JUMPDEST JUMPDEST DUP1 PUSH2 0x1B0D JUMPI POP DUP3 PUSH20 0xFFFFFFFFFFFFFFFFFFFFFFFFFFFFFFFFFFFFFFFF AND PUSH2 0x1AF5 DUP4 PUSH2 0xC90 JUMP JUMPDEST PUSH20 0xFFFFFFFFFFFFFFFFFFFFFFFFFFFFFFFFFFFFFFFF AND EQ JUMPDEST JUMPDEST SWAP1 POP SWAP4 SWAP3 POP POP POP JUMP JUMPDEST PUSH0 PUSH1 0x40 MLOAD SWAP1 POP SWAP1 JUMP JUMPDEST PUSH0 DUP1 REVERT JUMPDEST PUSH0 DUP1 REVERT JUMPDEST PUSH0 DUP2 SWAP1 POP SWAP2 SWAP1 POP JUMP JUMPDEST PUSH2 0x1B3A DUP2 PUSH2 0x1B28 JUMP JUMPDEST DUP2 EQ PUSH2 0x1B44 JUMPI PUSH0 DUP1 REVERT JUMPDEST POP JUMP JUMPDEST PUSH0 DUP2 CALLDATALOAD SWAP1 POP PUSH2 0x1B55 DUP2 PUSH2 0x1B31 JUMP JUMPDEST SWAP3 SWAP2 POP POP JUMP JUMPDEST PUSH0 PUSH1 0x20 DUP3 DUP5 SUB SLT ISZERO PUSH2 0x1B70 JUMPI PUSH2 0x1B6F PUSH2 0x1B20 JUMP JUMPDEST JUMPDEST PUSH0 PUSH2 0x1B7D DUP5 DUP3 DUP6 ADD PUSH2 0x1B47 JUMP JUMPDEST SWAP2 POP POP SWAP3 SWAP2 POP POP JUMP JUMPDEST PUSH0 DUP2 ISZERO ISZERO SWAP1 POP SWAP2 SWAP1 POP JUMP JUMPDEST PUSH2 0x1B9A DUP2 PUSH2 0x1B86 JUMP JUMPDEST DUP3 MSTORE POP POP JUMP JUMPDEST PUSH0 PUSH1 0x20 DUP3 ADD SWAP1 POP PUSH2 0x1BB3 PUSH0 DUP4 ADD DUP5 PUSH2 0x1B91 JUMP JUMPDEST SWAP3 SWAP2 POP POP JUMP JUMPDEST PUSH0 PUSH32 0xFFFFFFFF00000000000000000000000000000000000000000000000000000000 DUP3 AND SWAP1 POP SWAP2 SWAP1 POP JUMP JUMPDEST PUSH2 0x1BED DUP2 PUSH2 0x1BB9 JUMP JUMPDEST DUP2 EQ PUSH2 0x1BF7 JUMPI PUSH0 DUP1 REVERT JUMPDEST POP JUMP JUMPDEST PUSH0 DUP2 CALLDATALOAD SWAP1 POP PUSH2 0x1C08 DUP2 PUSH2 0x1BE4 JUMP JUMPDEST SWAP3 SWAP2 POP POP JUMP JUMPDEST PUSH0 PUSH1 0x20 DUP3 DUP5 SUB SLT ISZERO PUSH2 0x1C23 JUMPI PUSH2 0x1C22 PUSH2 0x1B20 JUMP JUMPDEST JUMPDEST PUSH0 PUSH2 0x1C30 DUP5 DUP3 DUP6 ADD PUSH2 0x1BFA JUMP JUMPDEST SWAP2 POP POP SWAP3 SWAP2 POP POP JUMP JUMPDEST PUSH0 DUP2 MLOAD SWAP1 POP SWAP2 SWAP1 POP JUMP JUMPDEST PUSH0 DUP3 DUP3 MSTORE PUSH1 0x20 DUP3 ADD SWAP1 POP SWAP3 SWAP2 POP POP JUMP JUMPDEST PUSH0 JUMPDEST DUP4 DUP2 LT ISZERO PUSH2 0x1C70 JUMPI DUP1 DUP3 ADD MLOAD DUP2 DUP5 ADD MSTORE PUSH1 0x20 DUP2 ADD SWAP1 POP PUSH2 0x1C55 JUMP JUMPDEST PUSH0 DUP5 DUP5 ADD MSTORE POP POP POP POP JUMP JUMPDEST PUSH0 PUSH1 0x1F NOT PUSH1 0x1F DUP4 ADD AND SWAP1 POP SWAP2 SWAP1 POP JUMP JUMPDEST PUSH0 PUSH2 0x1C95 DUP3 PUSH2 0x1C39 JUMP JUMPDEST PUSH2 0x1C9F DUP2 DUP6 PUSH2 0x1C43 JUMP JUMPDEST SWAP4 POP PUSH2 0x1CAF DUP2 DUP6 PUSH1 0x20 DUP7 ADD PUSH2 0x1C53 JUMP JUMPDEST PUSH2 0x1CB8 DUP2 PUSH2 0x1C7B JUMP JUMPDEST DUP5 ADD SWAP2 POP POP SWAP3 SWAP2 POP POP JUMP JUMPDEST PUSH0 PUSH1 0x20 DUP3 ADD SWAP1 POP DUP2 DUP2 SUB PUSH0 DUP4 ADD MSTORE PUSH2 0x1CDB DUP2 DUP5 PUSH2 0x1C8B JUMP JUMPDEST SWAP1 POP SWAP3 SWAP2 POP POP JUMP JUMPDEST PUSH0 PUSH20 0xFFFFFFFFFFFFFFFFFFFFFFFFFFFFFFFFFFFFFFFF DUP3 AND SWAP1 POP SWAP2 SWAP1 POP JUMP JUMPDEST PUSH0 PUSH2 0x1D0C DUP3 PUSH2 0x1CE3 JUMP JUMPDEST SWAP1 POP SWAP2 SWAP1 POP JUMP JUMPDEST PUSH2 0x1D1C DUP2 PUSH2 0x1D02 JUMP JUMPDEST DUP3 MSTORE POP POP JUMP JUMPDEST PUSH0 PUSH1 0x20 DUP3 ADD SWAP1 POP PUSH2 0x1D35 PUSH0 DUP4 ADD DUP5 PUSH2 0x1D13 JUMP JUMPDEST SWAP3 SWAP2 POP POP JUMP JUMPDEST PUSH2 0x1D44 DUP2 PUSH2 0x1D02 JUMP JUMPDEST DUP2 EQ PUSH2 0x1D4E JUMPI PUSH0 DUP1 REVERT JUMPDEST POP JUMP JUMPDEST PUSH0 DUP2 CALLDATALOAD SWAP1 POP PUSH2 0x1D5F DUP2 PUSH2 0x1D3B JUMP JUMPDEST SWAP3 SWAP2 POP POP JUMP JUMPDEST PUSH0 DUP1 PUSH1 0x40 DUP4 DUP6 SUB SLT ISZERO PUSH2 0x1D7B JUMPI PUSH2 0x1D7A PUSH2 0x1B20 JUMP JUMPDEST JUMPDEST PUSH0 PUSH2 0x1D88 DUP6 DUP3 DUP7 ADD PUSH2 0x1D51 JUMP JUMPDEST SWAP3 POP POP PUSH1 0x20 PUSH2 0x1D99 DUP6 DUP3 DUP7 ADD PUSH2 0x1B47 JUMP JUMPDEST SWAP2 POP POP SWAP3 POP SWAP3 SWAP1 POP JUMP JUMPDEST PUSH0 DUP1 PUSH0 PUSH1 0x60 DUP5 DUP7 SUB SLT ISZERO PUSH2 0x1DBA JUMPI PUSH2 0x1DB9 PUSH2 0x1B20 JUMP JUMPDEST JUMPDEST PUSH0 PUSH2 0x1DC7 DUP7 DUP3 DUP8 ADD PUSH2 0x1D51 JUMP JUMPDEST SWAP4 POP POP PUSH1 0x20 PUSH2 0x1DD8 DUP7 DUP3 DUP8 ADD PUSH2 0x1D51 JUMP JUMPDEST SWAP3 POP POP PUSH1 0x40 PUSH2 0x1DE9 DUP7 DUP3 DUP8 ADD PUSH2 0x1B47 JUMP JUMPDEST SWAP2 POP POP SWAP3 POP SWAP3 POP SWAP3 JUMP JUMPDEST PUSH2 0x1DFC DUP2 PUSH2 0x1B28 JUMP JUMPDEST DUP3 MSTORE POP POP JUMP JUMPDEST PUSH0 PUSH1 0x20 DUP3 ADD SWAP1 POP PUSH2 0x1E15 PUSH0 DUP4 ADD DUP5 PUSH2 0x1DF3 JUMP JUMPDEST SWAP3 SWAP2 POP POP JUMP JUMPDEST PUSH0 PUSH1 0x20 DUP3 DUP5 SUB SLT ISZERO PUSH2 0x1E30 JUMPI PUSH2 0x1E2F PUSH2 0x1B20 JUMP JUMPDEST JUMPDEST PUSH0 PUSH2 0x1E3D DUP5 DUP3 DUP6 ADD PUSH2 0x1D51 JUMP JUMPDEST SWAP2 POP POP SWAP3 SWAP2 POP POP JUMP JUMPDEST PUSH0 DUP1 REVERT JUMPDEST PUSH32 0x4E487B7100000000000000000000000000000000000000000000000000000000 PUSH0 MSTORE PUSH1 0x41 PUSH1 0x4 MSTORE PUSH1 0x24 PUSH0 REVERT JUMPDEST PUSH2 0x1E80 DUP3 PUSH2 0x1C7B JUMP JUMPDEST DUP2 ADD DUP2 DUP2 LT PUSH8 0xFFFFFFFFFFFFFFFF DUP3 GT OR ISZERO PUSH2 0x1E9F JUMPI PUSH2 0x1E9E PUSH2 0x1E4A JUMP JUMPDEST JUMPDEST DUP1 PUSH1 0x40 MSTORE POP POP POP JUMP JUMPDEST PUSH0 PUSH2 0x1EB1 PUSH2 0x1B17 JUMP JUMPDEST SWAP1 POP PUSH2 0x1EBD DUP3 DUP3 PUSH2 0x1E77 JUMP JUMPDEST SWAP2 SWAP1 POP JUMP JUMPDEST PUSH0 PUSH8 0xFFFFFFFFFFFFFFFF DUP3 GT ISZERO PUSH2 0x1EDC JUMPI PUSH2 0x1EDB PUSH2 0x1E4A JUMP JUMPDEST JUMPDEST PUSH1 0x20 DUP3 MUL SWAP1 POP PUSH1 0x20 DUP2 ADD SWAP1 POP SWAP2 SWAP1 POP JUMP JUMPDEST PUSH0 DUP1 REVERT JUMPDEST PUSH0 PUSH2 0x1F03 PUSH2 0x1EFE DUP5 PUSH2 0x1EC2 JUMP JUMPDEST PUSH2 0x1EA8 JUMP JUMPDEST SWAP1 POP DUP1 DUP4 DUP3 MSTORE PUSH1 0x20 DUP3 ADD SWAP1 POP PUSH1 0x20 DUP5 MUL DUP4 ADD DUP6 DUP2 GT ISZERO PUSH2 0x1F26 JUMPI PUSH2 0x1F25 PUSH2 0x1EED JUMP JUMPDEST JUMPDEST DUP4 JUMPDEST DUP2 DUP2 LT ISZERO PUSH2 0x1F4F JUMPI DUP1 PUSH2 0x1F3B DUP9 DUP3 PUSH2 0x1D51 JUMP JUMPDEST DUP5 MSTORE PUSH1 0x20 DUP5 ADD SWAP4 POP POP PUSH1 0x20 DUP2 ADD SWAP1 POP PUSH2 0x1F28 JUMP JUMPDEST POP POP POP SWAP4 SWAP3 POP POP POP JUMP JUMPDEST PUSH0 DUP3 PUSH1 0x1F DUP4 ADD SLT PUSH2 0x1F6D JUMPI PUSH2 0x1F6C PUSH2 0x1E46 JUMP JUMPDEST JUMPDEST DUP2 CALLDATALOAD PUSH2 0x1F7D DUP5 DUP3 PUSH1 0x20 DUP7 ADD PUSH2 0x1EF1 JUMP JUMPDEST SWAP2 POP POP SWAP3 SWAP2 POP POP JUMP JUMPDEST PUSH0 PUSH8 0xFFFFFFFFFFFFFFFF DUP3 GT ISZERO PUSH2 0x1FA0 JUMPI PUSH2 0x1F9F PUSH2 0x1E4A JUMP JUMPDEST JUMPDEST PUSH1 0x20 DUP3 MUL SWAP1 POP PUSH1 0x20 DUP2 ADD SWAP1 POP SWAP2 SWAP1 POP JUMP JUMPDEST PUSH0 PUSH2 0x1FC3 PUSH2 0x1FBE DUP5 PUSH2 0x1F86 JUMP JUMPDEST PUSH2 0x1EA8 JUMP JUMPDEST SWAP1 POP DUP1 DUP4 DUP3 MSTORE PUSH1 0x20 DUP3 ADD SWAP1 POP PUSH1 0x20 DUP5 MUL DUP4 ADD DUP6 DUP2 GT ISZERO PUSH2 0x1FE6 JUMPI PUSH2 0x1FE5 PUSH2 0x1EED JUMP JUMPDEST JUMPDEST DUP4 JUMPDEST DUP2 DUP2 LT ISZERO PUSH2 0x200F JUMPI DUP1 PUSH2 0x1FFB DUP9 DUP3 PUSH2 0x1B47 JUMP JUMPDEST DUP5 MSTORE PUSH1 0x20 DUP5 ADD SWAP4 POP POP PUSH1 0x20 DUP2 ADD SWAP1 POP PUSH2 0x1FE8 JUMP JUMPDEST POP POP POP SWAP4 SWAP3 POP POP POP JUMP JUMPDEST PUSH0 DUP3 PUSH1 0x1F DUP4 ADD SLT PUSH2 0x202D JUMPI PUSH2 0x202C PUSH2 0x1E46 JUMP JUMPDEST JUMPDEST DUP2 CALLDATALOAD PUSH2 0x203D DUP5 DUP3 PUSH1 0x20 DUP7 ADD PUSH2 0x1FB1 JUMP JUMPDEST SWAP2 POP POP SWAP3 SWAP2 POP POP JUMP JUMPDEST PUSH0 DUP1 PUSH1 0x40 DUP4 DUP6 SUB SLT ISZERO PUSH2 0x205C JUMPI PUSH2 0x205B PUSH2 0x1B20 JUMP JUMPDEST JUMPDEST PUSH0 DUP4 ADD CALLDATALOAD PUSH8 0xFFFFFFFFFFFFFFFF DUP2 GT ISZERO PUSH2 0x2079 JUMPI PUSH2 0x2078 PUSH2 0x1B24 JUMP JUMPDEST JUMPDEST PUSH2 0x2085 DUP6 DUP3 DUP7 ADD PUSH2 0x1F59 JUMP JUMPDEST SWAP3 POP POP PUSH1 0x20 DUP4 ADD CALLDATALOAD PUSH8 0xFFFFFFFFFFFFFFFF DUP2 GT ISZERO PUSH2 0x20A6 JUMPI PUSH2 0x20A5 PUSH2 0x1B24 JUMP JUMPDEST JUMPDEST PUSH2 0x20B2 DUP6 DUP3 DUP7 ADD PUSH2 0x2019 JUMP JUMPDEST SWAP2 POP POP SWAP3 POP SWAP3 SWAP1 POP JUMP JUMPDEST PUSH2 0x20C5 DUP2 PUSH2 0x1B86 JUMP JUMPDEST DUP2 EQ PUSH2 0x20CF JUMPI PUSH0 DUP1 REVERT JUMPDEST POP JUMP JUMPDEST PUSH0 DUP2 CALLDATALOAD SWAP1 POP PUSH2 0x20E0 DUP2 PUSH2 0x20BC JUMP JUMPDEST SWAP3 SWAP2 POP POP JUMP JUMPDEST PUSH0 DUP1 PUSH1 0x40 DUP4 DUP6 SUB SLT ISZERO PUSH2 0x20FC JUMPI PUSH2 0x20FB PUSH2 0x1B20 JUMP JUMPDEST JUMPDEST PUSH0 PUSH2 0x2109 DUP6 DUP3 DUP7 ADD PUSH2 0x1D51 JUMP JUMPDEST SWAP3 POP POP PUSH1 0x20 PUSH2 0x211A DUP6 DUP3 DUP7 ADD PUSH2 0x20D2 JUMP JUMPDEST SWAP2 POP POP SWAP3 POP SWAP3 SWAP1 POP JUMP JUMPDEST PUSH0 DUP1 REVERT JUMPDEST PUSH0 PUSH8 0xFFFFFFFFFFFFFFFF DUP3 GT ISZERO PUSH2 0x2142 JUMPI PUSH2 0x2141 PUSH2 0x1E4A JUMP JUMPDEST JUMPDEST PUSH2 0x214B DUP3 PUSH2 0x1C7B JUMP JUMPDEST SWAP1 POP PUSH1 0x20 DUP2 ADD SWAP1 POP SWAP2 SWAP1 POP JUMP JUMPDEST DUP3 DUP2 DUP4 CALLDATACOPY PUSH0 DUP4 DUP4 ADD MSTORE POP POP POP JUMP JUMPDEST PUSH0 PUSH2 0x2178 PUSH2 0x2173 DUP5 PUSH2 0x2128 JUMP JUMPDEST PUSH2 0x1EA8 JUMP JUMPDEST SWAP1 POP DUP3 DUP2 MSTORE PUSH1 0x20 DUP2 ADD DUP5 DUP5 DUP5 ADD GT ISZERO PUSH2 0x2194 JUMPI PUSH2 0x2193 PUSH2 0x2124 JUMP JUMPDEST JUMPDEST PUSH2 0x219F DUP5 DUP3 DUP6 PUSH2 0x2158 JUMP JUMPDEST POP SWAP4 SWAP3 POP POP POP JUMP JUMPDEST PUSH0 DUP3 PUSH1 0x1F DUP4 ADD SLT PUSH2 0x21BB JUMPI PUSH2 0x21BA PUSH2 0x1E46 JUMP JUMPDEST JUMPDEST DUP2 CALLDATALOAD PUSH2 0x21CB DUP5 DUP3 PUSH1 0x20 DUP7 ADD PUSH2 0x2166 JUMP JUMPDEST SWAP2 POP POP SWAP3 SWAP2 POP POP JUMP JUMPDEST PUSH0 DUP1 PUSH0 DUP1 PUSH1 0x80 DUP6 DUP8 SUB SLT ISZERO PUSH2 0x21EC JUMPI PUSH2 0x21EB PUSH2 0x1B20 JUMP JUMPDEST JUMPDEST PUSH0 PUSH2 0x21F9 DUP8 DUP3 DUP9 ADD PUSH2 0x1D51 JUMP JUMPDEST SWAP5 POP POP PUSH1 0x20 PUSH2 0x220A DUP8 DUP3 DUP9 ADD PUSH2 0x1D51 JUMP JUMPDEST SWAP4 POP POP PUSH1 0x40 PUSH2 0x221B DUP8 DUP3 DUP9 ADD PUSH2 0x1B47 JUMP JUMPDEST SWAP3 POP POP PUSH1 0x60 DUP6 ADD CALLDATALOAD PUSH8 0xFFFFFFFFFFFFFFFF DUP2 GT ISZERO PUSH2 0x223C JUMPI PUSH2 0x223B PUSH2 0x1B24 JUMP JUMPDEST JUMPDEST PUSH2 0x2248 DUP8 DUP3 DUP9 ADD PUSH2 0x21A7 JUMP JUMPDEST SWAP2 POP POP SWAP3 SWAP6 SWAP2 SWAP5 POP SWAP3 POP JUMP JUMPDEST PUSH0 DUP1 PUSH1 0x40 DUP4 DUP6 SUB SLT ISZERO PUSH2 0x226A JUMPI PUSH2 0x2269 PUSH2 0x1B20 JUMP JUMPDEST JUMPDEST PUSH0 PUSH2 0x2277 DUP6 DUP3 DUP7 ADD PUSH2 0x1D51 JUMP JUMPDEST SWAP3 POP POP PUSH1 0x20 PUSH2 0x2288 DUP6 DUP3 DUP7 ADD PUSH2 0x1D51 JUMP JUMPDEST SWAP2 POP POP SWAP3 POP SWAP3 SWAP1 POP JUMP JUMPDEST PUSH0 DUP2 MLOAD SWAP1 POP PUSH2 0x22A0 DUP2 PUSH2 0x1D3B JUMP JUMPDEST SWAP3 SWAP2 POP POP JUMP JUMPDEST PUSH0 PUSH1 0x20 DUP3 DUP5 SUB SLT ISZERO PUSH2 0x22BB JUMPI PUSH2 0x22BA PUSH2 0x1B20 JUMP JUMPDEST JUMPDEST PUSH0 PUSH2 0x22C8 DUP5 DUP3 DUP6 ADD PUSH2 0x2292 JUMP JUMPDEST SWAP2 POP POP SWAP3 SWAP2 POP POP JUMP JUMPDEST PUSH32 0x4E487B7100000000000000000000000000000000000000000000000000000000 PUSH0 MSTORE PUSH1 0x22 PUSH1 0x4 MSTORE PUSH1 0x24 PUSH0 REVERT JUMPDEST PUSH0 PUSH1 0x2 DUP3 DIV SWAP1 POP PUSH1 0x1 DUP3 AND DUP1 PUSH2 0x2315 JUMPI PUSH1 0x7F DUP3 AND SWAP2 POP JUMPDEST PUSH1 0x20 DUP3 LT DUP2 SUB PUSH2 0x2328 JUMPI PUSH2 0x2327 PUSH2 0x22D1 JUMP JUMPDEST JUMPDEST POP SWAP2 SWAP1 POP JUMP JUMPDEST PUSH32 0x536F756C426F756E6420546F6B656E3A2063616E6E6F74207472616E73666572 PUSH0 DUP3 ADD MSTORE PUSH32 0x20746F6B656E0000000000000000000000000000000000000000000000000000 PUSH1 0x20 DUP3 ADD MSTORE POP JUMP JUMPDEST PUSH0 PUSH2 0x2388 PUSH1 0x26 DUP4 PUSH2 0x1C43 JUMP JUMPDEST SWAP2 POP PUSH2 0x2393 DUP3 PUSH2 0x232E JUMP JUMPDEST PUSH1 0x40 DUP3 ADD SWAP1 POP SWAP2 SWAP1 POP JUMP JUMPDEST PUSH0 PUSH1 0x20 DUP3 ADD SWAP1 POP DUP2 DUP2 SUB PUSH0 DUP4 ADD MSTORE PUSH2 0x23B5 DUP2 PUSH2 0x237C JUMP JUMPDEST SWAP1 POP SWAP2 SWAP1 POP JUMP JUMPDEST PUSH32 0x726563697069656E747320616E6420746F6B656E496473206C656E677468206D PUSH0 DUP3 ADD MSTORE PUSH32 0x69736D6174636800000000000000000000000000000000000000000000000000 PUSH1 0x20 DUP3 ADD MSTORE POP JUMP JUMPDEST PUSH0 PUSH2 0x2416 PUSH1 0x27 DUP4 PUSH2 0x1C43 JUMP JUMPDEST SWAP2 POP PUSH2 0x2421 DUP3 PUSH2 0x23BC JUMP JUMPDEST PUSH1 0x40 DUP3 ADD SWAP1 POP SWAP2 SWAP1 POP JUMP JUMPDEST PUSH0 PUSH1 0x20 DUP3 ADD SWAP1 POP DUP2 DUP2 SUB PUSH0 DUP4 ADD MSTORE PUSH2 0x2443 DUP2 PUSH2 0x240A JUMP JUMPDEST SWAP1 POP SWAP2 SWAP1 POP JUMP JUMPDEST PUSH32 0x6E6F20726563697069656E747300000000000000000000000000000000000000 PUSH0 DUP3 ADD MSTORE POP JUMP JUMPDEST PUSH0 PUSH2 0x247E PUSH1 0xD DUP4 PUSH2 0x1C43 JUMP JUMPDEST SWAP2 POP PUSH2 0x2489 DUP3 PUSH2 0x244A JUMP JUMPDEST PUSH1 0x20 DUP3 ADD SWAP1 POP SWAP2 SWAP1 POP JUMP JUMPDEST PUSH0 PUSH1 0x20 DUP3 ADD SWAP1 POP DUP2 DUP2 SUB PUSH0 DUP4 ADD MSTORE PUSH2 0x24AB DUP2 PUSH2 0x2472 JUMP JUMPDEST SWAP1 POP SWAP2 SWAP1 POP JUMP JUMPDEST PUSH32 0x4E487B7100000000000000000000000000000000000000000000000000000000 PUSH0 MSTORE PUSH1 0x32 PUSH1 0x4 MSTORE PUSH1 0x24 PUSH0 REVERT JUMPDEST PUSH32 0x746F6B656E20616C7265616479206D696E746564000000000000000000000000 PUSH0 DUP3 ADD MSTORE POP JUMP JUMPDEST PUSH0 PUSH2 0x2513 PUSH1 0x14 DUP4 PUSH2 0x1C43 JUMP JUMPDEST SWAP2 POP PUSH2 0x251E DUP3 PUSH2 0x24DF JUMP JUMPDEST PUSH1 0x20 DUP3 ADD SWAP1 POP SWAP2 SWAP1 POP JUMP JUMPDEST PUSH0 PUSH1 0x20 DUP3 ADD SWAP1 POP DUP2 DUP2 SUB PUSH0 DUP4 ADD MSTORE PUSH2 0x2540 DUP2 PUSH2 0x2507 JUMP JUMPDEST SWAP1 POP SWAP2 SWAP1 POP JUMP JUMPDEST PUSH0 DUP2 SWAP1 POP SWAP3 SWAP2 POP POP JUMP JUMPDEST PUSH0 PUSH2 0x255B DUP3 PUSH2 0x1C39 JUMP JUMPDEST PUSH2 0x2565 DUP2 DUP6 PUSH2 0x2547 JUMP JUMPDEST SWAP4 POP PUSH2 0x2575 DUP2 DUP6 PUSH1 0x20 DUP7 ADD PUSH2 0x1C53 JUMP JUMPDEST DUP1 DUP5 ADD SWAP2 POP POP SWAP3 SWAP2 POP POP JUMP JUMPDEST PUSH0 PUSH2 0x258C DUP3 DUP6 PUSH2 0x2551 JUMP JUMPDEST SWAP2 POP PUSH2 0x2598 DUP3 DUP5 PUSH2 0x2551 JUMP JUMPDEST SWAP2 POP DUP2 SWAP1 POP SWAP4 SWAP3 POP POP POP JUMP JUMPDEST PUSH0 PUSH1 0x60 DUP3 ADD SWAP1 POP PUSH2 0x25B7 PUSH0 DUP4 ADD DUP7 PUSH2 0x1D13 JUMP JUMPDEST PUSH2 0x25C4 PUSH1 0x20 DUP4 ADD DUP6 PUSH2 0x1DF3 JUMP JUMPDEST PUSH2 0x25D1 PUSH1 0x40 DUP4 ADD DUP5 PUSH2 0x1D13 JUMP JUMPDEST SWAP5 SWAP4 POP POP POP POP JUMP JUMPDEST PUSH32 0x4E487B7100000000000000000000000000000000000000000000000000000000 PUSH0 MSTORE PUSH1 0x12 PUSH1 0x4 MSTORE PUSH1 0x24 PUSH0 REVERT JUMPDEST PUSH0 DUP2 MLOAD SWAP1 POP SWAP2 SWAP1 POP JUMP JUMPDEST PUSH0 DUP3 DUP3 MSTORE PUSH1 0x20 DUP3 ADD SWAP1 POP SWAP3 SWAP2 POP POP JUMP JUMPDEST PUSH0 PUSH2 0x262A DUP3 PUSH2 0x2606 JUMP JUMPDEST PUSH2 0x2634 DUP2 DUP6 PUSH2 0x2610 JUMP JUMPDEST SWAP4 POP PUSH2 0x2644 DUP2 DUP6 PUSH1 0x20 DUP7 ADD PUSH2 0x1C53 JUMP JUMPDEST PUSH2 0x264D DUP2 PUSH2 0x1C7B JUMP JUMPDEST DUP5 ADD SWAP2 POP POP SWAP3 SWAP2 POP POP JUMP JUMPDEST PUSH0 PUSH1 0x80 DUP3 ADD SWAP1 POP PUSH2 0x266B PUSH0 DUP4 ADD DUP8 PUSH2 0x1D13 JUMP JUMPDEST PUSH2 0x2678 PUSH1 0x20 DUP4 ADD DUP7 PUSH2 0x1D13 JUMP JUMPDEST PUSH2 0x2685 PUSH1 0x40 DUP4 ADD DUP6 PUSH2 0x1DF3 JUMP JUMPDEST DUP2 DUP2 SUB PUSH1 0x60 DUP4 ADD MSTORE PUSH2 0x2697 DUP2 DUP5 PUSH2 0x2620 JUMP JUMPDEST SWAP1 POP SWAP6 SWAP5 POP POP POP POP POP JUMP JUMPDEST PUSH0 DUP2 MLOAD SWAP1 POP PUSH2 0x26B0 DUP2 PUSH2 0x1BE4 JUMP JUMPDEST SWAP3 SWAP2 POP POP JUMP JUMPDEST PUSH0 PUSH1 0x20 DUP3 DUP5 SUB SLT ISZERO PUSH2 0x26CB JUMPI PUSH2 0x26CA PUSH2 0x1B20 JUMP JUMPDEST JUMPDEST PUSH0 PUSH2 0x26D8 DUP5 DUP3 DUP6 ADD PUSH2 0x26A2 JUMP JUMPDEST SWAP2 POP POP SWAP3 SWAP2 POP POP JUMP JUMPDEST PUSH0 PUSH1 0x40 DUP3 ADD SWAP1 POP PUSH2 0x26F4 PUSH0 DUP4 ADD DUP6 PUSH2 0x1D13 JUMP JUMPDEST PUSH2 0x2701 PUSH1 0x20 DUP4 ADD DUP5 PUSH2 0x1DF3 JUMP JUMPDEST SWAP4 SWAP3 POP POP POP JUMP INVALID PUSH9 0x747470733A2F2F6261 PUSH7 0x7962656961786F PUSH17 0x63736C6834687A73646377327A366A6C76 PUSH22 0x6C7332626E7236697765713662636B67326E6E35636A PUSH2 0x3669 PUSH27 0x69676A792E697066732E6E667473746F726167652E6C696E6B2FA2 PUSH5 0x6970667358 0x22 SLT KECCAK256 REVERT 0xB2 0xC0 DUP6 0xE8 PUSH7 0x79CA8FAFB17CA8 0xE7 CODECOPY MULMOD GAS 0xB2 CODECOPY 0xC PUSH8 0xE047ACB36D2019FC PUSH24 0x98D664736F6C634300081700330000000000000000000000 "
				},
				"gasEstimates": {
					"creation": {
						"codeDepositCost": "2027000",
						"executionCost": "infinite",
						"totalCost": "infinite"
					},
					"external": {
						"MAX_SUPPLY()": "392",
						"approve(address,uint256)": "infinite",
						"balanceOf(address)": "infinite",
						"getApproved(uint256)": "infinite",
						"isApprovedForAll(address,address)": "infinite",
						"mintBatch(address[],uint256[])": "infinite",
						"name()": "infinite",
						"owner()": "2604",
						"ownerOf(uint256)": "infinite",
						"renounceOwnership()": "infinite",
						"safeTransferFrom(address,address,uint256)": "infinite",
						"safeTransferFrom(address,address,uint256,bytes)": "infinite",
						"setApprovalForAll(address,bool)": "infinite",
						"supportsInterface(bytes4)": "809",
						"symbol()": "infinite",
						"tokenExists(uint256)": "infinite",
						"tokenURI(uint256)": "infinite",
						"transferFrom(address,address,uint256)": "infinite",
						"transferOwnership(address)": "infinite"
					},
					"internal": {
						"_baseURI()": "infinite",
						"mintNFT(address)": "infinite"
					}
				},
				"methodIdentifiers": {
					"MAX_SUPPLY()": "32cb6b0c",
					"approve(address,uint256)": "095ea7b3",
					"balanceOf(address)": "70a08231",
					"getApproved(uint256)": "081812fc",
					"isApprovedForAll(address,address)": "e985e9c5",
					"mintBatch(address[],uint256[])": "7c88e3d9",
					"name()": "06fdde03",
					"owner()": "8da5cb5b",
					"ownerOf(uint256)": "6352211e",
					"renounceOwnership()": "715018a6",
					"safeTransferFrom(address,address,uint256)": "42842e0e",
					"safeTransferFrom(address,address,uint256,bytes)": "b88d4fde",
					"setApprovalForAll(address,bool)": "a22cb465",
					"supportsInterface(bytes4)": "01ffc9a7",
					"symbol()": "95d89b41",
					"tokenExists(uint256)": "00923f9e",
					"tokenURI(uint256)": "c87b56dd",
					"transferFrom(address,address,uint256)": "23b872dd",
					"transferOwnership(address)": "f2fde38b"
				}
			},
			"storageLayout": {
				"storage": [
					{
						"astId": 317,
						"contract": "contracts/AkiNoTsuyuKuraNoKodawari.sol:AkiNoTsuyuKuraNoKodawari",
						"label": "_name",
						"offset": 0,
						"slot": "0",
						"type": "t_string_storage"
					},
					{
						"astId": 319,
						"contract": "contracts/AkiNoTsuyuKuraNoKodawari.sol:AkiNoTsuyuKuraNoKodawari",
						"label": "_symbol",
						"offset": 0,
						"slot": "1",
						"type": "t_string_storage"
					},
					{
						"astId": 323,
						"contract": "contracts/AkiNoTsuyuKuraNoKodawari.sol:AkiNoTsuyuKuraNoKodawari",
						"label": "_owners",
						"offset": 0,
						"slot": "2",
						"type": "t_mapping(t_uint256,t_address)"
					},
					{
						"astId": 327,
						"contract": "contracts/AkiNoTsuyuKuraNoKodawari.sol:AkiNoTsuyuKuraNoKodawari",
						"label": "_balances",
						"offset": 0,
						"slot": "3",
						"type": "t_mapping(t_address,t_uint256)"
					},
					{
						"astId": 331,
						"contract": "contracts/AkiNoTsuyuKuraNoKodawari.sol:AkiNoTsuyuKuraNoKodawari",
						"label": "_tokenApprovals",
						"offset": 0,
						"slot": "4",
						"type": "t_mapping(t_uint256,t_address)"
					},
					{
						"astId": 337,
						"contract": "contracts/AkiNoTsuyuKuraNoKodawari.sol:AkiNoTsuyuKuraNoKodawari",
						"label": "_operatorApprovals",
						"offset": 0,
						"slot": "5",
						"type": "t_mapping(t_address,t_mapping(t_address,t_bool))"
					},
					{
						"astId": 8,
						"contract": "contracts/AkiNoTsuyuKuraNoKodawari.sol:AkiNoTsuyuKuraNoKodawari",
						"label": "_owner",
						"offset": 0,
						"slot": "6",
						"type": "t_address"
					},
					{
						"astId": 3031,
						"contract": "contracts/AkiNoTsuyuKuraNoKodawari.sol:AkiNoTsuyuKuraNoKodawari",
						"label": "_tokenIds",
						"offset": 0,
						"slot": "7",
						"type": "t_struct(Counter)1492_storage"
					}
				],
				"types": {
					"t_address": {
						"encoding": "inplace",
						"label": "address",
						"numberOfBytes": "20"
					},
					"t_bool": {
						"encoding": "inplace",
						"label": "bool",
						"numberOfBytes": "1"
					},
					"t_mapping(t_address,t_bool)": {
						"encoding": "mapping",
						"key": "t_address",
						"label": "mapping(address => bool)",
						"numberOfBytes": "32",
						"value": "t_bool"
					},
					"t_mapping(t_address,t_mapping(t_address,t_bool))": {
						"encoding": "mapping",
						"key": "t_address",
						"label": "mapping(address => mapping(address => bool))",
						"numberOfBytes": "32",
						"value": "t_mapping(t_address,t_bool)"
					},
					"t_mapping(t_address,t_uint256)": {
						"encoding": "mapping",
						"key": "t_address",
						"label": "mapping(address => uint256)",
						"numberOfBytes": "32",
						"value": "t_uint256"
					},
					"t_mapping(t_uint256,t_address)": {
						"encoding": "mapping",
						"key": "t_uint256",
						"label": "mapping(uint256 => address)",
						"numberOfBytes": "32",
						"value": "t_address"
					},
					"t_string_storage": {
						"encoding": "bytes",
						"label": "string",
						"numberOfBytes": "32"
					},
					"t_struct(Counter)1492_storage": {
						"encoding": "inplace",
						"label": "struct Counters.Counter",
						"members": [
							{
								"astId": 1491,
								"contract": "contracts/AkiNoTsuyuKuraNoKodawari.sol:AkiNoTsuyuKuraNoKodawari",
								"label": "_value",
								"offset": 0,
								"slot": "0",
								"type": "t_uint256"
							}
						],
						"numberOfBytes": "32"
					},
					"t_uint256": {
						"encoding": "inplace",
						"label": "uint256",
						"numberOfBytes": "32"
					}
				}
			},
			"userdoc": {
				"kind": "user",
				"methods": {},
				"version": 1
			}
		}
	}
}